
Projet3bis.elf:     file format elf32-littlearm

Sections:
Idx Name          Size      VMA       LMA       File off  Algn
  0 .isr_vector   000001c8  08000000  08000000  00010000  2**0
                  CONTENTS, ALLOC, LOAD, READONLY, DATA
  1 .text         0001095c  080001d0  080001d0  000101d0  2**4
                  CONTENTS, ALLOC, LOAD, READONLY, CODE
  2 .rodata       00002260  08010b30  08010b30  00020b30  2**3
                  CONTENTS, ALLOC, LOAD, READONLY, DATA
  3 .ARM.extab    00000000  08012d90  08012d90  000300b4  2**0
                  CONTENTS
  4 .ARM          00000008  08012d90  08012d90  00022d90  2**2
                  CONTENTS, ALLOC, LOAD, READONLY, DATA
  5 .preinit_array 00000000  08012d98  08012d98  000300b4  2**0
                  CONTENTS, ALLOC, LOAD, DATA
  6 .init_array   00000004  08012d98  08012d98  00022d98  2**2
                  CONTENTS, ALLOC, LOAD, DATA
  7 .fini_array   00000004  08012d9c  08012d9c  00022d9c  2**2
                  CONTENTS, ALLOC, LOAD, DATA
  8 .data         000000b4  20000000  08012da0  00030000  2**2
                  CONTENTS, ALLOC, LOAD, DATA
  9 .bss          00008cd0  200000b4  08012e54  000300b4  2**2
                  ALLOC
 10 ._user_heap_stack 00000604  20008d84  08012e54  00038d84  2**0
                  ALLOC
 11 .ARM.attributes 00000030  00000000  00000000  000300b4  2**0
                  CONTENTS, READONLY
 12 .debug_info   0002cb08  00000000  00000000  000300e4  2**0
                  CONTENTS, READONLY, DEBUGGING
 13 .debug_abbrev 00005555  00000000  00000000  0005cbec  2**0
                  CONTENTS, READONLY, DEBUGGING
 14 .debug_aranges 000025f0  00000000  00000000  00062148  2**3
                  CONTENTS, READONLY, DEBUGGING
 15 .debug_ranges 00002358  00000000  00000000  00064738  2**3
                  CONTENTS, READONLY, DEBUGGING
 16 .debug_macro  0002e3dd  00000000  00000000  00066a90  2**0
                  CONTENTS, READONLY, DEBUGGING
 17 .debug_line   0001f520  00000000  00000000  00094e6d  2**0
                  CONTENTS, READONLY, DEBUGGING
 18 .debug_str    0011531e  00000000  00000000  000b438d  2**0
                  CONTENTS, READONLY, DEBUGGING
 19 .comment      0000007b  00000000  00000000  001c96ab  2**0
                  CONTENTS, READONLY
 20 .debug_frame  0000a7b0  00000000  00000000  001c9728  2**2
                  CONTENTS, READONLY, DEBUGGING

Disassembly of section .text:

080001d0 <__do_global_dtors_aux>:
 80001d0:	b510      	push	{r4, lr}
 80001d2:	4c05      	ldr	r4, [pc, #20]	; (80001e8 <__do_global_dtors_aux+0x18>)
 80001d4:	7823      	ldrb	r3, [r4, #0]
 80001d6:	b933      	cbnz	r3, 80001e6 <__do_global_dtors_aux+0x16>
 80001d8:	4b04      	ldr	r3, [pc, #16]	; (80001ec <__do_global_dtors_aux+0x1c>)
 80001da:	b113      	cbz	r3, 80001e2 <__do_global_dtors_aux+0x12>
 80001dc:	4804      	ldr	r0, [pc, #16]	; (80001f0 <__do_global_dtors_aux+0x20>)
 80001de:	f3af 8000 	nop.w
 80001e2:	2301      	movs	r3, #1
 80001e4:	7023      	strb	r3, [r4, #0]
 80001e6:	bd10      	pop	{r4, pc}
 80001e8:	200000b4 	.word	0x200000b4
 80001ec:	00000000 	.word	0x00000000
 80001f0:	08010b14 	.word	0x08010b14

080001f4 <frame_dummy>:
 80001f4:	b508      	push	{r3, lr}
 80001f6:	4b03      	ldr	r3, [pc, #12]	; (8000204 <frame_dummy+0x10>)
 80001f8:	b11b      	cbz	r3, 8000202 <frame_dummy+0xe>
 80001fa:	4903      	ldr	r1, [pc, #12]	; (8000208 <frame_dummy+0x14>)
 80001fc:	4803      	ldr	r0, [pc, #12]	; (800020c <frame_dummy+0x18>)
 80001fe:	f3af 8000 	nop.w
 8000202:	bd08      	pop	{r3, pc}
 8000204:	00000000 	.word	0x00000000
 8000208:	200000b8 	.word	0x200000b8
 800020c:	08010b14 	.word	0x08010b14

08000210 <memchr>:
 8000210:	f001 01ff 	and.w	r1, r1, #255	; 0xff
 8000214:	2a10      	cmp	r2, #16
 8000216:	db2b      	blt.n	8000270 <memchr+0x60>
 8000218:	f010 0f07 	tst.w	r0, #7
 800021c:	d008      	beq.n	8000230 <memchr+0x20>
 800021e:	f810 3b01 	ldrb.w	r3, [r0], #1
 8000222:	3a01      	subs	r2, #1
 8000224:	428b      	cmp	r3, r1
 8000226:	d02d      	beq.n	8000284 <memchr+0x74>
 8000228:	f010 0f07 	tst.w	r0, #7
 800022c:	b342      	cbz	r2, 8000280 <memchr+0x70>
 800022e:	d1f6      	bne.n	800021e <memchr+0xe>
 8000230:	b4f0      	push	{r4, r5, r6, r7}
 8000232:	ea41 2101 	orr.w	r1, r1, r1, lsl #8
 8000236:	ea41 4101 	orr.w	r1, r1, r1, lsl #16
 800023a:	f022 0407 	bic.w	r4, r2, #7
 800023e:	f07f 0700 	mvns.w	r7, #0
 8000242:	2300      	movs	r3, #0
 8000244:	e8f0 5602 	ldrd	r5, r6, [r0], #8
 8000248:	3c08      	subs	r4, #8
 800024a:	ea85 0501 	eor.w	r5, r5, r1
 800024e:	ea86 0601 	eor.w	r6, r6, r1
 8000252:	fa85 f547 	uadd8	r5, r5, r7
 8000256:	faa3 f587 	sel	r5, r3, r7
 800025a:	fa86 f647 	uadd8	r6, r6, r7
 800025e:	faa5 f687 	sel	r6, r5, r7
 8000262:	b98e      	cbnz	r6, 8000288 <memchr+0x78>
 8000264:	d1ee      	bne.n	8000244 <memchr+0x34>
 8000266:	bcf0      	pop	{r4, r5, r6, r7}
 8000268:	f001 01ff 	and.w	r1, r1, #255	; 0xff
 800026c:	f002 0207 	and.w	r2, r2, #7
 8000270:	b132      	cbz	r2, 8000280 <memchr+0x70>
 8000272:	f810 3b01 	ldrb.w	r3, [r0], #1
 8000276:	3a01      	subs	r2, #1
 8000278:	ea83 0301 	eor.w	r3, r3, r1
 800027c:	b113      	cbz	r3, 8000284 <memchr+0x74>
 800027e:	d1f8      	bne.n	8000272 <memchr+0x62>
 8000280:	2000      	movs	r0, #0
 8000282:	4770      	bx	lr
 8000284:	3801      	subs	r0, #1
 8000286:	4770      	bx	lr
 8000288:	2d00      	cmp	r5, #0
 800028a:	bf06      	itte	eq
 800028c:	4635      	moveq	r5, r6
 800028e:	3803      	subeq	r0, #3
 8000290:	3807      	subne	r0, #7
 8000292:	f015 0f01 	tst.w	r5, #1
 8000296:	d107      	bne.n	80002a8 <memchr+0x98>
 8000298:	3001      	adds	r0, #1
 800029a:	f415 7f80 	tst.w	r5, #256	; 0x100
 800029e:	bf02      	ittt	eq
 80002a0:	3001      	addeq	r0, #1
 80002a2:	f415 3fc0 	tsteq.w	r5, #98304	; 0x18000
 80002a6:	3001      	addeq	r0, #1
 80002a8:	bcf0      	pop	{r4, r5, r6, r7}
 80002aa:	3801      	subs	r0, #1
 80002ac:	4770      	bx	lr
 80002ae:	bf00      	nop

080002b0 <__aeabi_drsub>:
 80002b0:	f081 4100 	eor.w	r1, r1, #2147483648	; 0x80000000
 80002b4:	e002      	b.n	80002bc <__adddf3>
 80002b6:	bf00      	nop

080002b8 <__aeabi_dsub>:
 80002b8:	f083 4300 	eor.w	r3, r3, #2147483648	; 0x80000000

080002bc <__adddf3>:
 80002bc:	b530      	push	{r4, r5, lr}
 80002be:	ea4f 0441 	mov.w	r4, r1, lsl #1
 80002c2:	ea4f 0543 	mov.w	r5, r3, lsl #1
 80002c6:	ea94 0f05 	teq	r4, r5
 80002ca:	bf08      	it	eq
 80002cc:	ea90 0f02 	teqeq	r0, r2
 80002d0:	bf1f      	itttt	ne
 80002d2:	ea54 0c00 	orrsne.w	ip, r4, r0
 80002d6:	ea55 0c02 	orrsne.w	ip, r5, r2
 80002da:	ea7f 5c64 	mvnsne.w	ip, r4, asr #21
 80002de:	ea7f 5c65 	mvnsne.w	ip, r5, asr #21
 80002e2:	f000 80e2 	beq.w	80004aa <__adddf3+0x1ee>
 80002e6:	ea4f 5454 	mov.w	r4, r4, lsr #21
 80002ea:	ebd4 5555 	rsbs	r5, r4, r5, lsr #21
 80002ee:	bfb8      	it	lt
 80002f0:	426d      	neglt	r5, r5
 80002f2:	dd0c      	ble.n	800030e <__adddf3+0x52>
 80002f4:	442c      	add	r4, r5
 80002f6:	ea80 0202 	eor.w	r2, r0, r2
 80002fa:	ea81 0303 	eor.w	r3, r1, r3
 80002fe:	ea82 0000 	eor.w	r0, r2, r0
 8000302:	ea83 0101 	eor.w	r1, r3, r1
 8000306:	ea80 0202 	eor.w	r2, r0, r2
 800030a:	ea81 0303 	eor.w	r3, r1, r3
 800030e:	2d36      	cmp	r5, #54	; 0x36
 8000310:	bf88      	it	hi
 8000312:	bd30      	pophi	{r4, r5, pc}
 8000314:	f011 4f00 	tst.w	r1, #2147483648	; 0x80000000
 8000318:	ea4f 3101 	mov.w	r1, r1, lsl #12
 800031c:	f44f 1c80 	mov.w	ip, #1048576	; 0x100000
 8000320:	ea4c 3111 	orr.w	r1, ip, r1, lsr #12
 8000324:	d002      	beq.n	800032c <__adddf3+0x70>
 8000326:	4240      	negs	r0, r0
 8000328:	eb61 0141 	sbc.w	r1, r1, r1, lsl #1
 800032c:	f013 4f00 	tst.w	r3, #2147483648	; 0x80000000
 8000330:	ea4f 3303 	mov.w	r3, r3, lsl #12
 8000334:	ea4c 3313 	orr.w	r3, ip, r3, lsr #12
 8000338:	d002      	beq.n	8000340 <__adddf3+0x84>
 800033a:	4252      	negs	r2, r2
 800033c:	eb63 0343 	sbc.w	r3, r3, r3, lsl #1
 8000340:	ea94 0f05 	teq	r4, r5
 8000344:	f000 80a7 	beq.w	8000496 <__adddf3+0x1da>
 8000348:	f1a4 0401 	sub.w	r4, r4, #1
 800034c:	f1d5 0e20 	rsbs	lr, r5, #32
 8000350:	db0d      	blt.n	800036e <__adddf3+0xb2>
 8000352:	fa02 fc0e 	lsl.w	ip, r2, lr
 8000356:	fa22 f205 	lsr.w	r2, r2, r5
 800035a:	1880      	adds	r0, r0, r2
 800035c:	f141 0100 	adc.w	r1, r1, #0
 8000360:	fa03 f20e 	lsl.w	r2, r3, lr
 8000364:	1880      	adds	r0, r0, r2
 8000366:	fa43 f305 	asr.w	r3, r3, r5
 800036a:	4159      	adcs	r1, r3
 800036c:	e00e      	b.n	800038c <__adddf3+0xd0>
 800036e:	f1a5 0520 	sub.w	r5, r5, #32
 8000372:	f10e 0e20 	add.w	lr, lr, #32
 8000376:	2a01      	cmp	r2, #1
 8000378:	fa03 fc0e 	lsl.w	ip, r3, lr
 800037c:	bf28      	it	cs
 800037e:	f04c 0c02 	orrcs.w	ip, ip, #2
 8000382:	fa43 f305 	asr.w	r3, r3, r5
 8000386:	18c0      	adds	r0, r0, r3
 8000388:	eb51 71e3 	adcs.w	r1, r1, r3, asr #31
 800038c:	f001 4500 	and.w	r5, r1, #2147483648	; 0x80000000
 8000390:	d507      	bpl.n	80003a2 <__adddf3+0xe6>
 8000392:	f04f 0e00 	mov.w	lr, #0
 8000396:	f1dc 0c00 	rsbs	ip, ip, #0
 800039a:	eb7e 0000 	sbcs.w	r0, lr, r0
 800039e:	eb6e 0101 	sbc.w	r1, lr, r1
 80003a2:	f5b1 1f80 	cmp.w	r1, #1048576	; 0x100000
 80003a6:	d31b      	bcc.n	80003e0 <__adddf3+0x124>
 80003a8:	f5b1 1f00 	cmp.w	r1, #2097152	; 0x200000
 80003ac:	d30c      	bcc.n	80003c8 <__adddf3+0x10c>
 80003ae:	0849      	lsrs	r1, r1, #1
 80003b0:	ea5f 0030 	movs.w	r0, r0, rrx
 80003b4:	ea4f 0c3c 	mov.w	ip, ip, rrx
 80003b8:	f104 0401 	add.w	r4, r4, #1
 80003bc:	ea4f 5244 	mov.w	r2, r4, lsl #21
 80003c0:	f512 0f80 	cmn.w	r2, #4194304	; 0x400000
 80003c4:	f080 809a 	bcs.w	80004fc <__adddf3+0x240>
 80003c8:	f1bc 4f00 	cmp.w	ip, #2147483648	; 0x80000000
 80003cc:	bf08      	it	eq
 80003ce:	ea5f 0c50 	movseq.w	ip, r0, lsr #1
 80003d2:	f150 0000 	adcs.w	r0, r0, #0
 80003d6:	eb41 5104 	adc.w	r1, r1, r4, lsl #20
 80003da:	ea41 0105 	orr.w	r1, r1, r5
 80003de:	bd30      	pop	{r4, r5, pc}
 80003e0:	ea5f 0c4c 	movs.w	ip, ip, lsl #1
 80003e4:	4140      	adcs	r0, r0
 80003e6:	eb41 0101 	adc.w	r1, r1, r1
 80003ea:	f411 1f80 	tst.w	r1, #1048576	; 0x100000
 80003ee:	f1a4 0401 	sub.w	r4, r4, #1
 80003f2:	d1e9      	bne.n	80003c8 <__adddf3+0x10c>
 80003f4:	f091 0f00 	teq	r1, #0
 80003f8:	bf04      	itt	eq
 80003fa:	4601      	moveq	r1, r0
 80003fc:	2000      	moveq	r0, #0
 80003fe:	fab1 f381 	clz	r3, r1
 8000402:	bf08      	it	eq
 8000404:	3320      	addeq	r3, #32
 8000406:	f1a3 030b 	sub.w	r3, r3, #11
 800040a:	f1b3 0220 	subs.w	r2, r3, #32
 800040e:	da0c      	bge.n	800042a <__adddf3+0x16e>
 8000410:	320c      	adds	r2, #12
 8000412:	dd08      	ble.n	8000426 <__adddf3+0x16a>
 8000414:	f102 0c14 	add.w	ip, r2, #20
 8000418:	f1c2 020c 	rsb	r2, r2, #12
 800041c:	fa01 f00c 	lsl.w	r0, r1, ip
 8000420:	fa21 f102 	lsr.w	r1, r1, r2
 8000424:	e00c      	b.n	8000440 <__adddf3+0x184>
 8000426:	f102 0214 	add.w	r2, r2, #20
 800042a:	bfd8      	it	le
 800042c:	f1c2 0c20 	rsble	ip, r2, #32
 8000430:	fa01 f102 	lsl.w	r1, r1, r2
 8000434:	fa20 fc0c 	lsr.w	ip, r0, ip
 8000438:	bfdc      	itt	le
 800043a:	ea41 010c 	orrle.w	r1, r1, ip
 800043e:	4090      	lslle	r0, r2
 8000440:	1ae4      	subs	r4, r4, r3
 8000442:	bfa2      	ittt	ge
 8000444:	eb01 5104 	addge.w	r1, r1, r4, lsl #20
 8000448:	4329      	orrge	r1, r5
 800044a:	bd30      	popge	{r4, r5, pc}
 800044c:	ea6f 0404 	mvn.w	r4, r4
 8000450:	3c1f      	subs	r4, #31
 8000452:	da1c      	bge.n	800048e <__adddf3+0x1d2>
 8000454:	340c      	adds	r4, #12
 8000456:	dc0e      	bgt.n	8000476 <__adddf3+0x1ba>
 8000458:	f104 0414 	add.w	r4, r4, #20
 800045c:	f1c4 0220 	rsb	r2, r4, #32
 8000460:	fa20 f004 	lsr.w	r0, r0, r4
 8000464:	fa01 f302 	lsl.w	r3, r1, r2
 8000468:	ea40 0003 	orr.w	r0, r0, r3
 800046c:	fa21 f304 	lsr.w	r3, r1, r4
 8000470:	ea45 0103 	orr.w	r1, r5, r3
 8000474:	bd30      	pop	{r4, r5, pc}
 8000476:	f1c4 040c 	rsb	r4, r4, #12
 800047a:	f1c4 0220 	rsb	r2, r4, #32
 800047e:	fa20 f002 	lsr.w	r0, r0, r2
 8000482:	fa01 f304 	lsl.w	r3, r1, r4
 8000486:	ea40 0003 	orr.w	r0, r0, r3
 800048a:	4629      	mov	r1, r5
 800048c:	bd30      	pop	{r4, r5, pc}
 800048e:	fa21 f004 	lsr.w	r0, r1, r4
 8000492:	4629      	mov	r1, r5
 8000494:	bd30      	pop	{r4, r5, pc}
 8000496:	f094 0f00 	teq	r4, #0
 800049a:	f483 1380 	eor.w	r3, r3, #1048576	; 0x100000
 800049e:	bf06      	itte	eq
 80004a0:	f481 1180 	eoreq.w	r1, r1, #1048576	; 0x100000
 80004a4:	3401      	addeq	r4, #1
 80004a6:	3d01      	subne	r5, #1
 80004a8:	e74e      	b.n	8000348 <__adddf3+0x8c>
 80004aa:	ea7f 5c64 	mvns.w	ip, r4, asr #21
 80004ae:	bf18      	it	ne
 80004b0:	ea7f 5c65 	mvnsne.w	ip, r5, asr #21
 80004b4:	d029      	beq.n	800050a <__adddf3+0x24e>
 80004b6:	ea94 0f05 	teq	r4, r5
 80004ba:	bf08      	it	eq
 80004bc:	ea90 0f02 	teqeq	r0, r2
 80004c0:	d005      	beq.n	80004ce <__adddf3+0x212>
 80004c2:	ea54 0c00 	orrs.w	ip, r4, r0
 80004c6:	bf04      	itt	eq
 80004c8:	4619      	moveq	r1, r3
 80004ca:	4610      	moveq	r0, r2
 80004cc:	bd30      	pop	{r4, r5, pc}
 80004ce:	ea91 0f03 	teq	r1, r3
 80004d2:	bf1e      	ittt	ne
 80004d4:	2100      	movne	r1, #0
 80004d6:	2000      	movne	r0, #0
 80004d8:	bd30      	popne	{r4, r5, pc}
 80004da:	ea5f 5c54 	movs.w	ip, r4, lsr #21
 80004de:	d105      	bne.n	80004ec <__adddf3+0x230>
 80004e0:	0040      	lsls	r0, r0, #1
 80004e2:	4149      	adcs	r1, r1
 80004e4:	bf28      	it	cs
 80004e6:	f041 4100 	orrcs.w	r1, r1, #2147483648	; 0x80000000
 80004ea:	bd30      	pop	{r4, r5, pc}
 80004ec:	f514 0480 	adds.w	r4, r4, #4194304	; 0x400000
 80004f0:	bf3c      	itt	cc
 80004f2:	f501 1180 	addcc.w	r1, r1, #1048576	; 0x100000
 80004f6:	bd30      	popcc	{r4, r5, pc}
 80004f8:	f001 4500 	and.w	r5, r1, #2147483648	; 0x80000000
 80004fc:	f045 41fe 	orr.w	r1, r5, #2130706432	; 0x7f000000
 8000500:	f441 0170 	orr.w	r1, r1, #15728640	; 0xf00000
 8000504:	f04f 0000 	mov.w	r0, #0
 8000508:	bd30      	pop	{r4, r5, pc}
 800050a:	ea7f 5c64 	mvns.w	ip, r4, asr #21
 800050e:	bf1a      	itte	ne
 8000510:	4619      	movne	r1, r3
 8000512:	4610      	movne	r0, r2
 8000514:	ea7f 5c65 	mvnseq.w	ip, r5, asr #21
 8000518:	bf1c      	itt	ne
 800051a:	460b      	movne	r3, r1
 800051c:	4602      	movne	r2, r0
 800051e:	ea50 3401 	orrs.w	r4, r0, r1, lsl #12
 8000522:	bf06      	itte	eq
 8000524:	ea52 3503 	orrseq.w	r5, r2, r3, lsl #12
 8000528:	ea91 0f03 	teqeq	r1, r3
 800052c:	f441 2100 	orrne.w	r1, r1, #524288	; 0x80000
 8000530:	bd30      	pop	{r4, r5, pc}
 8000532:	bf00      	nop

08000534 <__aeabi_ui2d>:
 8000534:	f090 0f00 	teq	r0, #0
 8000538:	bf04      	itt	eq
 800053a:	2100      	moveq	r1, #0
 800053c:	4770      	bxeq	lr
 800053e:	b530      	push	{r4, r5, lr}
 8000540:	f44f 6480 	mov.w	r4, #1024	; 0x400
 8000544:	f104 0432 	add.w	r4, r4, #50	; 0x32
 8000548:	f04f 0500 	mov.w	r5, #0
 800054c:	f04f 0100 	mov.w	r1, #0
 8000550:	e750      	b.n	80003f4 <__adddf3+0x138>
 8000552:	bf00      	nop

08000554 <__aeabi_i2d>:
 8000554:	f090 0f00 	teq	r0, #0
 8000558:	bf04      	itt	eq
 800055a:	2100      	moveq	r1, #0
 800055c:	4770      	bxeq	lr
 800055e:	b530      	push	{r4, r5, lr}
 8000560:	f44f 6480 	mov.w	r4, #1024	; 0x400
 8000564:	f104 0432 	add.w	r4, r4, #50	; 0x32
 8000568:	f010 4500 	ands.w	r5, r0, #2147483648	; 0x80000000
 800056c:	bf48      	it	mi
 800056e:	4240      	negmi	r0, r0
 8000570:	f04f 0100 	mov.w	r1, #0
 8000574:	e73e      	b.n	80003f4 <__adddf3+0x138>
 8000576:	bf00      	nop

08000578 <__aeabi_f2d>:
 8000578:	0042      	lsls	r2, r0, #1
 800057a:	ea4f 01e2 	mov.w	r1, r2, asr #3
 800057e:	ea4f 0131 	mov.w	r1, r1, rrx
 8000582:	ea4f 7002 	mov.w	r0, r2, lsl #28
 8000586:	bf1f      	itttt	ne
 8000588:	f012 437f 	andsne.w	r3, r2, #4278190080	; 0xff000000
 800058c:	f093 4f7f 	teqne	r3, #4278190080	; 0xff000000
 8000590:	f081 5160 	eorne.w	r1, r1, #939524096	; 0x38000000
 8000594:	4770      	bxne	lr
 8000596:	f032 427f 	bics.w	r2, r2, #4278190080	; 0xff000000
 800059a:	bf08      	it	eq
 800059c:	4770      	bxeq	lr
 800059e:	f093 4f7f 	teq	r3, #4278190080	; 0xff000000
 80005a2:	bf04      	itt	eq
 80005a4:	f441 2100 	orreq.w	r1, r1, #524288	; 0x80000
 80005a8:	4770      	bxeq	lr
 80005aa:	b530      	push	{r4, r5, lr}
 80005ac:	f44f 7460 	mov.w	r4, #896	; 0x380
 80005b0:	f001 4500 	and.w	r5, r1, #2147483648	; 0x80000000
 80005b4:	f021 4100 	bic.w	r1, r1, #2147483648	; 0x80000000
 80005b8:	e71c      	b.n	80003f4 <__adddf3+0x138>
 80005ba:	bf00      	nop

080005bc <__aeabi_ul2d>:
 80005bc:	ea50 0201 	orrs.w	r2, r0, r1
 80005c0:	bf08      	it	eq
 80005c2:	4770      	bxeq	lr
 80005c4:	b530      	push	{r4, r5, lr}
 80005c6:	f04f 0500 	mov.w	r5, #0
 80005ca:	e00a      	b.n	80005e2 <__aeabi_l2d+0x16>

080005cc <__aeabi_l2d>:
 80005cc:	ea50 0201 	orrs.w	r2, r0, r1
 80005d0:	bf08      	it	eq
 80005d2:	4770      	bxeq	lr
 80005d4:	b530      	push	{r4, r5, lr}
 80005d6:	f011 4500 	ands.w	r5, r1, #2147483648	; 0x80000000
 80005da:	d502      	bpl.n	80005e2 <__aeabi_l2d+0x16>
 80005dc:	4240      	negs	r0, r0
 80005de:	eb61 0141 	sbc.w	r1, r1, r1, lsl #1
 80005e2:	f44f 6480 	mov.w	r4, #1024	; 0x400
 80005e6:	f104 0432 	add.w	r4, r4, #50	; 0x32
 80005ea:	ea5f 5c91 	movs.w	ip, r1, lsr #22
 80005ee:	f43f aed8 	beq.w	80003a2 <__adddf3+0xe6>
 80005f2:	f04f 0203 	mov.w	r2, #3
 80005f6:	ea5f 0cdc 	movs.w	ip, ip, lsr #3
 80005fa:	bf18      	it	ne
 80005fc:	3203      	addne	r2, #3
 80005fe:	ea5f 0cdc 	movs.w	ip, ip, lsr #3
 8000602:	bf18      	it	ne
 8000604:	3203      	addne	r2, #3
 8000606:	eb02 02dc 	add.w	r2, r2, ip, lsr #3
 800060a:	f1c2 0320 	rsb	r3, r2, #32
 800060e:	fa00 fc03 	lsl.w	ip, r0, r3
 8000612:	fa20 f002 	lsr.w	r0, r0, r2
 8000616:	fa01 fe03 	lsl.w	lr, r1, r3
 800061a:	ea40 000e 	orr.w	r0, r0, lr
 800061e:	fa21 f102 	lsr.w	r1, r1, r2
 8000622:	4414      	add	r4, r2
 8000624:	e6bd      	b.n	80003a2 <__adddf3+0xe6>
 8000626:	bf00      	nop

08000628 <__aeabi_dmul>:
 8000628:	b570      	push	{r4, r5, r6, lr}
 800062a:	f04f 0cff 	mov.w	ip, #255	; 0xff
 800062e:	f44c 6ce0 	orr.w	ip, ip, #1792	; 0x700
 8000632:	ea1c 5411 	ands.w	r4, ip, r1, lsr #20
 8000636:	bf1d      	ittte	ne
 8000638:	ea1c 5513 	andsne.w	r5, ip, r3, lsr #20
 800063c:	ea94 0f0c 	teqne	r4, ip
 8000640:	ea95 0f0c 	teqne	r5, ip
 8000644:	f000 f8de 	bleq	8000804 <__aeabi_dmul+0x1dc>
 8000648:	442c      	add	r4, r5
 800064a:	ea81 0603 	eor.w	r6, r1, r3
 800064e:	ea21 514c 	bic.w	r1, r1, ip, lsl #21
 8000652:	ea23 534c 	bic.w	r3, r3, ip, lsl #21
 8000656:	ea50 3501 	orrs.w	r5, r0, r1, lsl #12
 800065a:	bf18      	it	ne
 800065c:	ea52 3503 	orrsne.w	r5, r2, r3, lsl #12
 8000660:	f441 1180 	orr.w	r1, r1, #1048576	; 0x100000
 8000664:	f443 1380 	orr.w	r3, r3, #1048576	; 0x100000
 8000668:	d038      	beq.n	80006dc <__aeabi_dmul+0xb4>
 800066a:	fba0 ce02 	umull	ip, lr, r0, r2
 800066e:	f04f 0500 	mov.w	r5, #0
 8000672:	fbe1 e502 	umlal	lr, r5, r1, r2
 8000676:	f006 4200 	and.w	r2, r6, #2147483648	; 0x80000000
 800067a:	fbe0 e503 	umlal	lr, r5, r0, r3
 800067e:	f04f 0600 	mov.w	r6, #0
 8000682:	fbe1 5603 	umlal	r5, r6, r1, r3
 8000686:	f09c 0f00 	teq	ip, #0
 800068a:	bf18      	it	ne
 800068c:	f04e 0e01 	orrne.w	lr, lr, #1
 8000690:	f1a4 04ff 	sub.w	r4, r4, #255	; 0xff
 8000694:	f5b6 7f00 	cmp.w	r6, #512	; 0x200
 8000698:	f564 7440 	sbc.w	r4, r4, #768	; 0x300
 800069c:	d204      	bcs.n	80006a8 <__aeabi_dmul+0x80>
 800069e:	ea5f 0e4e 	movs.w	lr, lr, lsl #1
 80006a2:	416d      	adcs	r5, r5
 80006a4:	eb46 0606 	adc.w	r6, r6, r6
 80006a8:	ea42 21c6 	orr.w	r1, r2, r6, lsl #11
 80006ac:	ea41 5155 	orr.w	r1, r1, r5, lsr #21
 80006b0:	ea4f 20c5 	mov.w	r0, r5, lsl #11
 80006b4:	ea40 505e 	orr.w	r0, r0, lr, lsr #21
 80006b8:	ea4f 2ece 	mov.w	lr, lr, lsl #11
 80006bc:	f1b4 0cfd 	subs.w	ip, r4, #253	; 0xfd
 80006c0:	bf88      	it	hi
 80006c2:	f5bc 6fe0 	cmphi.w	ip, #1792	; 0x700
 80006c6:	d81e      	bhi.n	8000706 <__aeabi_dmul+0xde>
 80006c8:	f1be 4f00 	cmp.w	lr, #2147483648	; 0x80000000
 80006cc:	bf08      	it	eq
 80006ce:	ea5f 0e50 	movseq.w	lr, r0, lsr #1
 80006d2:	f150 0000 	adcs.w	r0, r0, #0
 80006d6:	eb41 5104 	adc.w	r1, r1, r4, lsl #20
 80006da:	bd70      	pop	{r4, r5, r6, pc}
 80006dc:	f006 4600 	and.w	r6, r6, #2147483648	; 0x80000000
 80006e0:	ea46 0101 	orr.w	r1, r6, r1
 80006e4:	ea40 0002 	orr.w	r0, r0, r2
 80006e8:	ea81 0103 	eor.w	r1, r1, r3
 80006ec:	ebb4 045c 	subs.w	r4, r4, ip, lsr #1
 80006f0:	bfc2      	ittt	gt
 80006f2:	ebd4 050c 	rsbsgt	r5, r4, ip
 80006f6:	ea41 5104 	orrgt.w	r1, r1, r4, lsl #20
 80006fa:	bd70      	popgt	{r4, r5, r6, pc}
 80006fc:	f441 1180 	orr.w	r1, r1, #1048576	; 0x100000
 8000700:	f04f 0e00 	mov.w	lr, #0
 8000704:	3c01      	subs	r4, #1
 8000706:	f300 80ab 	bgt.w	8000860 <__aeabi_dmul+0x238>
 800070a:	f114 0f36 	cmn.w	r4, #54	; 0x36
 800070e:	bfde      	ittt	le
 8000710:	2000      	movle	r0, #0
 8000712:	f001 4100 	andle.w	r1, r1, #2147483648	; 0x80000000
 8000716:	bd70      	pople	{r4, r5, r6, pc}
 8000718:	f1c4 0400 	rsb	r4, r4, #0
 800071c:	3c20      	subs	r4, #32
 800071e:	da35      	bge.n	800078c <__aeabi_dmul+0x164>
 8000720:	340c      	adds	r4, #12
 8000722:	dc1b      	bgt.n	800075c <__aeabi_dmul+0x134>
 8000724:	f104 0414 	add.w	r4, r4, #20
 8000728:	f1c4 0520 	rsb	r5, r4, #32
 800072c:	fa00 f305 	lsl.w	r3, r0, r5
 8000730:	fa20 f004 	lsr.w	r0, r0, r4
 8000734:	fa01 f205 	lsl.w	r2, r1, r5
 8000738:	ea40 0002 	orr.w	r0, r0, r2
 800073c:	f001 4200 	and.w	r2, r1, #2147483648	; 0x80000000
 8000740:	f021 4100 	bic.w	r1, r1, #2147483648	; 0x80000000
 8000744:	eb10 70d3 	adds.w	r0, r0, r3, lsr #31
 8000748:	fa21 f604 	lsr.w	r6, r1, r4
 800074c:	eb42 0106 	adc.w	r1, r2, r6
 8000750:	ea5e 0e43 	orrs.w	lr, lr, r3, lsl #1
 8000754:	bf08      	it	eq
 8000756:	ea20 70d3 	biceq.w	r0, r0, r3, lsr #31
 800075a:	bd70      	pop	{r4, r5, r6, pc}
 800075c:	f1c4 040c 	rsb	r4, r4, #12
 8000760:	f1c4 0520 	rsb	r5, r4, #32
 8000764:	fa00 f304 	lsl.w	r3, r0, r4
 8000768:	fa20 f005 	lsr.w	r0, r0, r5
 800076c:	fa01 f204 	lsl.w	r2, r1, r4
 8000770:	ea40 0002 	orr.w	r0, r0, r2
 8000774:	f001 4100 	and.w	r1, r1, #2147483648	; 0x80000000
 8000778:	eb10 70d3 	adds.w	r0, r0, r3, lsr #31
 800077c:	f141 0100 	adc.w	r1, r1, #0
 8000780:	ea5e 0e43 	orrs.w	lr, lr, r3, lsl #1
 8000784:	bf08      	it	eq
 8000786:	ea20 70d3 	biceq.w	r0, r0, r3, lsr #31
 800078a:	bd70      	pop	{r4, r5, r6, pc}
 800078c:	f1c4 0520 	rsb	r5, r4, #32
 8000790:	fa00 f205 	lsl.w	r2, r0, r5
 8000794:	ea4e 0e02 	orr.w	lr, lr, r2
 8000798:	fa20 f304 	lsr.w	r3, r0, r4
 800079c:	fa01 f205 	lsl.w	r2, r1, r5
 80007a0:	ea43 0302 	orr.w	r3, r3, r2
 80007a4:	fa21 f004 	lsr.w	r0, r1, r4
 80007a8:	f001 4100 	and.w	r1, r1, #2147483648	; 0x80000000
 80007ac:	fa21 f204 	lsr.w	r2, r1, r4
 80007b0:	ea20 0002 	bic.w	r0, r0, r2
 80007b4:	eb00 70d3 	add.w	r0, r0, r3, lsr #31
 80007b8:	ea5e 0e43 	orrs.w	lr, lr, r3, lsl #1
 80007bc:	bf08      	it	eq
 80007be:	ea20 70d3 	biceq.w	r0, r0, r3, lsr #31
 80007c2:	bd70      	pop	{r4, r5, r6, pc}
 80007c4:	f094 0f00 	teq	r4, #0
 80007c8:	d10f      	bne.n	80007ea <__aeabi_dmul+0x1c2>
 80007ca:	f001 4600 	and.w	r6, r1, #2147483648	; 0x80000000
 80007ce:	0040      	lsls	r0, r0, #1
 80007d0:	eb41 0101 	adc.w	r1, r1, r1
 80007d4:	f411 1f80 	tst.w	r1, #1048576	; 0x100000
 80007d8:	bf08      	it	eq
 80007da:	3c01      	subeq	r4, #1
 80007dc:	d0f7      	beq.n	80007ce <__aeabi_dmul+0x1a6>
 80007de:	ea41 0106 	orr.w	r1, r1, r6
 80007e2:	f095 0f00 	teq	r5, #0
 80007e6:	bf18      	it	ne
 80007e8:	4770      	bxne	lr
 80007ea:	f003 4600 	and.w	r6, r3, #2147483648	; 0x80000000
 80007ee:	0052      	lsls	r2, r2, #1
 80007f0:	eb43 0303 	adc.w	r3, r3, r3
 80007f4:	f413 1f80 	tst.w	r3, #1048576	; 0x100000
 80007f8:	bf08      	it	eq
 80007fa:	3d01      	subeq	r5, #1
 80007fc:	d0f7      	beq.n	80007ee <__aeabi_dmul+0x1c6>
 80007fe:	ea43 0306 	orr.w	r3, r3, r6
 8000802:	4770      	bx	lr
 8000804:	ea94 0f0c 	teq	r4, ip
 8000808:	ea0c 5513 	and.w	r5, ip, r3, lsr #20
 800080c:	bf18      	it	ne
 800080e:	ea95 0f0c 	teqne	r5, ip
 8000812:	d00c      	beq.n	800082e <__aeabi_dmul+0x206>
 8000814:	ea50 0641 	orrs.w	r6, r0, r1, lsl #1
 8000818:	bf18      	it	ne
 800081a:	ea52 0643 	orrsne.w	r6, r2, r3, lsl #1
 800081e:	d1d1      	bne.n	80007c4 <__aeabi_dmul+0x19c>
 8000820:	ea81 0103 	eor.w	r1, r1, r3
 8000824:	f001 4100 	and.w	r1, r1, #2147483648	; 0x80000000
 8000828:	f04f 0000 	mov.w	r0, #0
 800082c:	bd70      	pop	{r4, r5, r6, pc}
 800082e:	ea50 0641 	orrs.w	r6, r0, r1, lsl #1
 8000832:	bf06      	itte	eq
 8000834:	4610      	moveq	r0, r2
 8000836:	4619      	moveq	r1, r3
 8000838:	ea52 0643 	orrsne.w	r6, r2, r3, lsl #1
 800083c:	d019      	beq.n	8000872 <__aeabi_dmul+0x24a>
 800083e:	ea94 0f0c 	teq	r4, ip
 8000842:	d102      	bne.n	800084a <__aeabi_dmul+0x222>
 8000844:	ea50 3601 	orrs.w	r6, r0, r1, lsl #12
 8000848:	d113      	bne.n	8000872 <__aeabi_dmul+0x24a>
 800084a:	ea95 0f0c 	teq	r5, ip
 800084e:	d105      	bne.n	800085c <__aeabi_dmul+0x234>
 8000850:	ea52 3603 	orrs.w	r6, r2, r3, lsl #12
 8000854:	bf1c      	itt	ne
 8000856:	4610      	movne	r0, r2
 8000858:	4619      	movne	r1, r3
 800085a:	d10a      	bne.n	8000872 <__aeabi_dmul+0x24a>
 800085c:	ea81 0103 	eor.w	r1, r1, r3
 8000860:	f001 4100 	and.w	r1, r1, #2147483648	; 0x80000000
 8000864:	f041 41fe 	orr.w	r1, r1, #2130706432	; 0x7f000000
 8000868:	f441 0170 	orr.w	r1, r1, #15728640	; 0xf00000
 800086c:	f04f 0000 	mov.w	r0, #0
 8000870:	bd70      	pop	{r4, r5, r6, pc}
 8000872:	f041 41fe 	orr.w	r1, r1, #2130706432	; 0x7f000000
 8000876:	f441 0178 	orr.w	r1, r1, #16252928	; 0xf80000
 800087a:	bd70      	pop	{r4, r5, r6, pc}

0800087c <__aeabi_ddiv>:
 800087c:	b570      	push	{r4, r5, r6, lr}
 800087e:	f04f 0cff 	mov.w	ip, #255	; 0xff
 8000882:	f44c 6ce0 	orr.w	ip, ip, #1792	; 0x700
 8000886:	ea1c 5411 	ands.w	r4, ip, r1, lsr #20
 800088a:	bf1d      	ittte	ne
 800088c:	ea1c 5513 	andsne.w	r5, ip, r3, lsr #20
 8000890:	ea94 0f0c 	teqne	r4, ip
 8000894:	ea95 0f0c 	teqne	r5, ip
 8000898:	f000 f8a7 	bleq	80009ea <__aeabi_ddiv+0x16e>
 800089c:	eba4 0405 	sub.w	r4, r4, r5
 80008a0:	ea81 0e03 	eor.w	lr, r1, r3
 80008a4:	ea52 3503 	orrs.w	r5, r2, r3, lsl #12
 80008a8:	ea4f 3101 	mov.w	r1, r1, lsl #12
 80008ac:	f000 8088 	beq.w	80009c0 <__aeabi_ddiv+0x144>
 80008b0:	ea4f 3303 	mov.w	r3, r3, lsl #12
 80008b4:	f04f 5580 	mov.w	r5, #268435456	; 0x10000000
 80008b8:	ea45 1313 	orr.w	r3, r5, r3, lsr #4
 80008bc:	ea43 6312 	orr.w	r3, r3, r2, lsr #24
 80008c0:	ea4f 2202 	mov.w	r2, r2, lsl #8
 80008c4:	ea45 1511 	orr.w	r5, r5, r1, lsr #4
 80008c8:	ea45 6510 	orr.w	r5, r5, r0, lsr #24
 80008cc:	ea4f 2600 	mov.w	r6, r0, lsl #8
 80008d0:	f00e 4100 	and.w	r1, lr, #2147483648	; 0x80000000
 80008d4:	429d      	cmp	r5, r3
 80008d6:	bf08      	it	eq
 80008d8:	4296      	cmpeq	r6, r2
 80008da:	f144 04fd 	adc.w	r4, r4, #253	; 0xfd
 80008de:	f504 7440 	add.w	r4, r4, #768	; 0x300
 80008e2:	d202      	bcs.n	80008ea <__aeabi_ddiv+0x6e>
 80008e4:	085b      	lsrs	r3, r3, #1
 80008e6:	ea4f 0232 	mov.w	r2, r2, rrx
 80008ea:	1ab6      	subs	r6, r6, r2
 80008ec:	eb65 0503 	sbc.w	r5, r5, r3
 80008f0:	085b      	lsrs	r3, r3, #1
 80008f2:	ea4f 0232 	mov.w	r2, r2, rrx
 80008f6:	f44f 1080 	mov.w	r0, #1048576	; 0x100000
 80008fa:	f44f 2c00 	mov.w	ip, #524288	; 0x80000
 80008fe:	ebb6 0e02 	subs.w	lr, r6, r2
 8000902:	eb75 0e03 	sbcs.w	lr, r5, r3
 8000906:	bf22      	ittt	cs
 8000908:	1ab6      	subcs	r6, r6, r2
 800090a:	4675      	movcs	r5, lr
 800090c:	ea40 000c 	orrcs.w	r0, r0, ip
 8000910:	085b      	lsrs	r3, r3, #1
 8000912:	ea4f 0232 	mov.w	r2, r2, rrx
 8000916:	ebb6 0e02 	subs.w	lr, r6, r2
 800091a:	eb75 0e03 	sbcs.w	lr, r5, r3
 800091e:	bf22      	ittt	cs
 8000920:	1ab6      	subcs	r6, r6, r2
 8000922:	4675      	movcs	r5, lr
 8000924:	ea40 005c 	orrcs.w	r0, r0, ip, lsr #1
 8000928:	085b      	lsrs	r3, r3, #1
 800092a:	ea4f 0232 	mov.w	r2, r2, rrx
 800092e:	ebb6 0e02 	subs.w	lr, r6, r2
 8000932:	eb75 0e03 	sbcs.w	lr, r5, r3
 8000936:	bf22      	ittt	cs
 8000938:	1ab6      	subcs	r6, r6, r2
 800093a:	4675      	movcs	r5, lr
 800093c:	ea40 009c 	orrcs.w	r0, r0, ip, lsr #2
 8000940:	085b      	lsrs	r3, r3, #1
 8000942:	ea4f 0232 	mov.w	r2, r2, rrx
 8000946:	ebb6 0e02 	subs.w	lr, r6, r2
 800094a:	eb75 0e03 	sbcs.w	lr, r5, r3
 800094e:	bf22      	ittt	cs
 8000950:	1ab6      	subcs	r6, r6, r2
 8000952:	4675      	movcs	r5, lr
 8000954:	ea40 00dc 	orrcs.w	r0, r0, ip, lsr #3
 8000958:	ea55 0e06 	orrs.w	lr, r5, r6
 800095c:	d018      	beq.n	8000990 <__aeabi_ddiv+0x114>
 800095e:	ea4f 1505 	mov.w	r5, r5, lsl #4
 8000962:	ea45 7516 	orr.w	r5, r5, r6, lsr #28
 8000966:	ea4f 1606 	mov.w	r6, r6, lsl #4
 800096a:	ea4f 03c3 	mov.w	r3, r3, lsl #3
 800096e:	ea43 7352 	orr.w	r3, r3, r2, lsr #29
 8000972:	ea4f 02c2 	mov.w	r2, r2, lsl #3
 8000976:	ea5f 1c1c 	movs.w	ip, ip, lsr #4
 800097a:	d1c0      	bne.n	80008fe <__aeabi_ddiv+0x82>
 800097c:	f411 1f80 	tst.w	r1, #1048576	; 0x100000
 8000980:	d10b      	bne.n	800099a <__aeabi_ddiv+0x11e>
 8000982:	ea41 0100 	orr.w	r1, r1, r0
 8000986:	f04f 0000 	mov.w	r0, #0
 800098a:	f04f 4c00 	mov.w	ip, #2147483648	; 0x80000000
 800098e:	e7b6      	b.n	80008fe <__aeabi_ddiv+0x82>
 8000990:	f411 1f80 	tst.w	r1, #1048576	; 0x100000
 8000994:	bf04      	itt	eq
 8000996:	4301      	orreq	r1, r0
 8000998:	2000      	moveq	r0, #0
 800099a:	f1b4 0cfd 	subs.w	ip, r4, #253	; 0xfd
 800099e:	bf88      	it	hi
 80009a0:	f5bc 6fe0 	cmphi.w	ip, #1792	; 0x700
 80009a4:	f63f aeaf 	bhi.w	8000706 <__aeabi_dmul+0xde>
 80009a8:	ebb5 0c03 	subs.w	ip, r5, r3
 80009ac:	bf04      	itt	eq
 80009ae:	ebb6 0c02 	subseq.w	ip, r6, r2
 80009b2:	ea5f 0c50 	movseq.w	ip, r0, lsr #1
 80009b6:	f150 0000 	adcs.w	r0, r0, #0
 80009ba:	eb41 5104 	adc.w	r1, r1, r4, lsl #20
 80009be:	bd70      	pop	{r4, r5, r6, pc}
 80009c0:	f00e 4e00 	and.w	lr, lr, #2147483648	; 0x80000000
 80009c4:	ea4e 3111 	orr.w	r1, lr, r1, lsr #12
 80009c8:	eb14 045c 	adds.w	r4, r4, ip, lsr #1
 80009cc:	bfc2      	ittt	gt
 80009ce:	ebd4 050c 	rsbsgt	r5, r4, ip
 80009d2:	ea41 5104 	orrgt.w	r1, r1, r4, lsl #20
 80009d6:	bd70      	popgt	{r4, r5, r6, pc}
 80009d8:	f441 1180 	orr.w	r1, r1, #1048576	; 0x100000
 80009dc:	f04f 0e00 	mov.w	lr, #0
 80009e0:	3c01      	subs	r4, #1
 80009e2:	e690      	b.n	8000706 <__aeabi_dmul+0xde>
 80009e4:	ea45 0e06 	orr.w	lr, r5, r6
 80009e8:	e68d      	b.n	8000706 <__aeabi_dmul+0xde>
 80009ea:	ea0c 5513 	and.w	r5, ip, r3, lsr #20
 80009ee:	ea94 0f0c 	teq	r4, ip
 80009f2:	bf08      	it	eq
 80009f4:	ea95 0f0c 	teqeq	r5, ip
 80009f8:	f43f af3b 	beq.w	8000872 <__aeabi_dmul+0x24a>
 80009fc:	ea94 0f0c 	teq	r4, ip
 8000a00:	d10a      	bne.n	8000a18 <__aeabi_ddiv+0x19c>
 8000a02:	ea50 3401 	orrs.w	r4, r0, r1, lsl #12
 8000a06:	f47f af34 	bne.w	8000872 <__aeabi_dmul+0x24a>
 8000a0a:	ea95 0f0c 	teq	r5, ip
 8000a0e:	f47f af25 	bne.w	800085c <__aeabi_dmul+0x234>
 8000a12:	4610      	mov	r0, r2
 8000a14:	4619      	mov	r1, r3
 8000a16:	e72c      	b.n	8000872 <__aeabi_dmul+0x24a>
 8000a18:	ea95 0f0c 	teq	r5, ip
 8000a1c:	d106      	bne.n	8000a2c <__aeabi_ddiv+0x1b0>
 8000a1e:	ea52 3503 	orrs.w	r5, r2, r3, lsl #12
 8000a22:	f43f aefd 	beq.w	8000820 <__aeabi_dmul+0x1f8>
 8000a26:	4610      	mov	r0, r2
 8000a28:	4619      	mov	r1, r3
 8000a2a:	e722      	b.n	8000872 <__aeabi_dmul+0x24a>
 8000a2c:	ea50 0641 	orrs.w	r6, r0, r1, lsl #1
 8000a30:	bf18      	it	ne
 8000a32:	ea52 0643 	orrsne.w	r6, r2, r3, lsl #1
 8000a36:	f47f aec5 	bne.w	80007c4 <__aeabi_dmul+0x19c>
 8000a3a:	ea50 0441 	orrs.w	r4, r0, r1, lsl #1
 8000a3e:	f47f af0d 	bne.w	800085c <__aeabi_dmul+0x234>
 8000a42:	ea52 0543 	orrs.w	r5, r2, r3, lsl #1
 8000a46:	f47f aeeb 	bne.w	8000820 <__aeabi_dmul+0x1f8>
 8000a4a:	e712      	b.n	8000872 <__aeabi_dmul+0x24a>

08000a4c <__gedf2>:
 8000a4c:	f04f 3cff 	mov.w	ip, #4294967295
 8000a50:	e006      	b.n	8000a60 <__cmpdf2+0x4>
 8000a52:	bf00      	nop

08000a54 <__ledf2>:
 8000a54:	f04f 0c01 	mov.w	ip, #1
 8000a58:	e002      	b.n	8000a60 <__cmpdf2+0x4>
 8000a5a:	bf00      	nop

08000a5c <__cmpdf2>:
 8000a5c:	f04f 0c01 	mov.w	ip, #1
 8000a60:	f84d cd04 	str.w	ip, [sp, #-4]!
 8000a64:	ea4f 0c41 	mov.w	ip, r1, lsl #1
 8000a68:	ea7f 5c6c 	mvns.w	ip, ip, asr #21
 8000a6c:	ea4f 0c43 	mov.w	ip, r3, lsl #1
 8000a70:	bf18      	it	ne
 8000a72:	ea7f 5c6c 	mvnsne.w	ip, ip, asr #21
 8000a76:	d01b      	beq.n	8000ab0 <__cmpdf2+0x54>
 8000a78:	b001      	add	sp, #4
 8000a7a:	ea50 0c41 	orrs.w	ip, r0, r1, lsl #1
 8000a7e:	bf0c      	ite	eq
 8000a80:	ea52 0c43 	orrseq.w	ip, r2, r3, lsl #1
 8000a84:	ea91 0f03 	teqne	r1, r3
 8000a88:	bf02      	ittt	eq
 8000a8a:	ea90 0f02 	teqeq	r0, r2
 8000a8e:	2000      	moveq	r0, #0
 8000a90:	4770      	bxeq	lr
 8000a92:	f110 0f00 	cmn.w	r0, #0
 8000a96:	ea91 0f03 	teq	r1, r3
 8000a9a:	bf58      	it	pl
 8000a9c:	4299      	cmppl	r1, r3
 8000a9e:	bf08      	it	eq
 8000aa0:	4290      	cmpeq	r0, r2
 8000aa2:	bf2c      	ite	cs
 8000aa4:	17d8      	asrcs	r0, r3, #31
 8000aa6:	ea6f 70e3 	mvncc.w	r0, r3, asr #31
 8000aaa:	f040 0001 	orr.w	r0, r0, #1
 8000aae:	4770      	bx	lr
 8000ab0:	ea4f 0c41 	mov.w	ip, r1, lsl #1
 8000ab4:	ea7f 5c6c 	mvns.w	ip, ip, asr #21
 8000ab8:	d102      	bne.n	8000ac0 <__cmpdf2+0x64>
 8000aba:	ea50 3c01 	orrs.w	ip, r0, r1, lsl #12
 8000abe:	d107      	bne.n	8000ad0 <__cmpdf2+0x74>
 8000ac0:	ea4f 0c43 	mov.w	ip, r3, lsl #1
 8000ac4:	ea7f 5c6c 	mvns.w	ip, ip, asr #21
 8000ac8:	d1d6      	bne.n	8000a78 <__cmpdf2+0x1c>
 8000aca:	ea52 3c03 	orrs.w	ip, r2, r3, lsl #12
 8000ace:	d0d3      	beq.n	8000a78 <__cmpdf2+0x1c>
 8000ad0:	f85d 0b04 	ldr.w	r0, [sp], #4
 8000ad4:	4770      	bx	lr
 8000ad6:	bf00      	nop

08000ad8 <__aeabi_cdrcmple>:
 8000ad8:	4684      	mov	ip, r0
 8000ada:	4610      	mov	r0, r2
 8000adc:	4662      	mov	r2, ip
 8000ade:	468c      	mov	ip, r1
 8000ae0:	4619      	mov	r1, r3
 8000ae2:	4663      	mov	r3, ip
 8000ae4:	e000      	b.n	8000ae8 <__aeabi_cdcmpeq>
 8000ae6:	bf00      	nop

08000ae8 <__aeabi_cdcmpeq>:
 8000ae8:	b501      	push	{r0, lr}
 8000aea:	f7ff ffb7 	bl	8000a5c <__cmpdf2>
 8000aee:	2800      	cmp	r0, #0
 8000af0:	bf48      	it	mi
 8000af2:	f110 0f00 	cmnmi.w	r0, #0
 8000af6:	bd01      	pop	{r0, pc}

08000af8 <__aeabi_dcmpeq>:
 8000af8:	f84d ed08 	str.w	lr, [sp, #-8]!
 8000afc:	f7ff fff4 	bl	8000ae8 <__aeabi_cdcmpeq>
 8000b00:	bf0c      	ite	eq
 8000b02:	2001      	moveq	r0, #1
 8000b04:	2000      	movne	r0, #0
 8000b06:	f85d fb08 	ldr.w	pc, [sp], #8
 8000b0a:	bf00      	nop

08000b0c <__aeabi_dcmplt>:
 8000b0c:	f84d ed08 	str.w	lr, [sp, #-8]!
 8000b10:	f7ff ffea 	bl	8000ae8 <__aeabi_cdcmpeq>
 8000b14:	bf34      	ite	cc
 8000b16:	2001      	movcc	r0, #1
 8000b18:	2000      	movcs	r0, #0
 8000b1a:	f85d fb08 	ldr.w	pc, [sp], #8
 8000b1e:	bf00      	nop

08000b20 <__aeabi_dcmple>:
 8000b20:	f84d ed08 	str.w	lr, [sp, #-8]!
 8000b24:	f7ff ffe0 	bl	8000ae8 <__aeabi_cdcmpeq>
 8000b28:	bf94      	ite	ls
 8000b2a:	2001      	movls	r0, #1
 8000b2c:	2000      	movhi	r0, #0
 8000b2e:	f85d fb08 	ldr.w	pc, [sp], #8
 8000b32:	bf00      	nop

08000b34 <__aeabi_dcmpge>:
 8000b34:	f84d ed08 	str.w	lr, [sp, #-8]!
 8000b38:	f7ff ffce 	bl	8000ad8 <__aeabi_cdrcmple>
 8000b3c:	bf94      	ite	ls
 8000b3e:	2001      	movls	r0, #1
 8000b40:	2000      	movhi	r0, #0
 8000b42:	f85d fb08 	ldr.w	pc, [sp], #8
 8000b46:	bf00      	nop

08000b48 <__aeabi_dcmpgt>:
 8000b48:	f84d ed08 	str.w	lr, [sp, #-8]!
 8000b4c:	f7ff ffc4 	bl	8000ad8 <__aeabi_cdrcmple>
 8000b50:	bf34      	ite	cc
 8000b52:	2001      	movcc	r0, #1
 8000b54:	2000      	movcs	r0, #0
 8000b56:	f85d fb08 	ldr.w	pc, [sp], #8
 8000b5a:	bf00      	nop

08000b5c <__aeabi_d2iz>:
 8000b5c:	ea4f 0241 	mov.w	r2, r1, lsl #1
 8000b60:	f512 1200 	adds.w	r2, r2, #2097152	; 0x200000
 8000b64:	d215      	bcs.n	8000b92 <__aeabi_d2iz+0x36>
 8000b66:	d511      	bpl.n	8000b8c <__aeabi_d2iz+0x30>
 8000b68:	f46f 7378 	mvn.w	r3, #992	; 0x3e0
 8000b6c:	ebb3 5262 	subs.w	r2, r3, r2, asr #21
 8000b70:	d912      	bls.n	8000b98 <__aeabi_d2iz+0x3c>
 8000b72:	ea4f 23c1 	mov.w	r3, r1, lsl #11
 8000b76:	f043 4300 	orr.w	r3, r3, #2147483648	; 0x80000000
 8000b7a:	ea43 5350 	orr.w	r3, r3, r0, lsr #21
 8000b7e:	f011 4f00 	tst.w	r1, #2147483648	; 0x80000000
 8000b82:	fa23 f002 	lsr.w	r0, r3, r2
 8000b86:	bf18      	it	ne
 8000b88:	4240      	negne	r0, r0
 8000b8a:	4770      	bx	lr
 8000b8c:	f04f 0000 	mov.w	r0, #0
 8000b90:	4770      	bx	lr
 8000b92:	ea50 3001 	orrs.w	r0, r0, r1, lsl #12
 8000b96:	d105      	bne.n	8000ba4 <__aeabi_d2iz+0x48>
 8000b98:	f011 4000 	ands.w	r0, r1, #2147483648	; 0x80000000
 8000b9c:	bf08      	it	eq
 8000b9e:	f06f 4000 	mvneq.w	r0, #2147483648	; 0x80000000
 8000ba2:	4770      	bx	lr
 8000ba4:	f04f 0000 	mov.w	r0, #0
 8000ba8:	4770      	bx	lr
 8000baa:	bf00      	nop

08000bac <__aeabi_d2uiz>:
 8000bac:	004a      	lsls	r2, r1, #1
 8000bae:	d211      	bcs.n	8000bd4 <__aeabi_d2uiz+0x28>
 8000bb0:	f512 1200 	adds.w	r2, r2, #2097152	; 0x200000
 8000bb4:	d211      	bcs.n	8000bda <__aeabi_d2uiz+0x2e>
 8000bb6:	d50d      	bpl.n	8000bd4 <__aeabi_d2uiz+0x28>
 8000bb8:	f46f 7378 	mvn.w	r3, #992	; 0x3e0
 8000bbc:	ebb3 5262 	subs.w	r2, r3, r2, asr #21
 8000bc0:	d40e      	bmi.n	8000be0 <__aeabi_d2uiz+0x34>
 8000bc2:	ea4f 23c1 	mov.w	r3, r1, lsl #11
 8000bc6:	f043 4300 	orr.w	r3, r3, #2147483648	; 0x80000000
 8000bca:	ea43 5350 	orr.w	r3, r3, r0, lsr #21
 8000bce:	fa23 f002 	lsr.w	r0, r3, r2
 8000bd2:	4770      	bx	lr
 8000bd4:	f04f 0000 	mov.w	r0, #0
 8000bd8:	4770      	bx	lr
 8000bda:	ea50 3001 	orrs.w	r0, r0, r1, lsl #12
 8000bde:	d102      	bne.n	8000be6 <__aeabi_d2uiz+0x3a>
 8000be0:	f04f 30ff 	mov.w	r0, #4294967295
 8000be4:	4770      	bx	lr
 8000be6:	f04f 0000 	mov.w	r0, #0
 8000bea:	4770      	bx	lr

08000bec <__aeabi_uldivmod>:
 8000bec:	b953      	cbnz	r3, 8000c04 <__aeabi_uldivmod+0x18>
 8000bee:	b94a      	cbnz	r2, 8000c04 <__aeabi_uldivmod+0x18>
 8000bf0:	2900      	cmp	r1, #0
 8000bf2:	bf08      	it	eq
 8000bf4:	2800      	cmpeq	r0, #0
 8000bf6:	bf1c      	itt	ne
 8000bf8:	f04f 31ff 	movne.w	r1, #4294967295
 8000bfc:	f04f 30ff 	movne.w	r0, #4294967295
 8000c00:	f000 b972 	b.w	8000ee8 <__aeabi_idiv0>
 8000c04:	f1ad 0c08 	sub.w	ip, sp, #8
 8000c08:	e96d ce04 	strd	ip, lr, [sp, #-16]!
 8000c0c:	f000 f806 	bl	8000c1c <__udivmoddi4>
 8000c10:	f8dd e004 	ldr.w	lr, [sp, #4]
 8000c14:	e9dd 2302 	ldrd	r2, r3, [sp, #8]
 8000c18:	b004      	add	sp, #16
 8000c1a:	4770      	bx	lr

08000c1c <__udivmoddi4>:
 8000c1c:	e92d 47f0 	stmdb	sp!, {r4, r5, r6, r7, r8, r9, sl, lr}
 8000c20:	9e08      	ldr	r6, [sp, #32]
 8000c22:	4604      	mov	r4, r0
 8000c24:	4688      	mov	r8, r1
 8000c26:	2b00      	cmp	r3, #0
 8000c28:	d14b      	bne.n	8000cc2 <__udivmoddi4+0xa6>
 8000c2a:	428a      	cmp	r2, r1
 8000c2c:	4615      	mov	r5, r2
 8000c2e:	d967      	bls.n	8000d00 <__udivmoddi4+0xe4>
 8000c30:	fab2 f282 	clz	r2, r2
 8000c34:	b14a      	cbz	r2, 8000c4a <__udivmoddi4+0x2e>
 8000c36:	f1c2 0720 	rsb	r7, r2, #32
 8000c3a:	fa01 f302 	lsl.w	r3, r1, r2
 8000c3e:	fa20 f707 	lsr.w	r7, r0, r7
 8000c42:	4095      	lsls	r5, r2
 8000c44:	ea47 0803 	orr.w	r8, r7, r3
 8000c48:	4094      	lsls	r4, r2
 8000c4a:	ea4f 4e15 	mov.w	lr, r5, lsr #16
 8000c4e:	0c23      	lsrs	r3, r4, #16
 8000c50:	fbb8 f7fe 	udiv	r7, r8, lr
 8000c54:	fa1f fc85 	uxth.w	ip, r5
 8000c58:	fb0e 8817 	mls	r8, lr, r7, r8
 8000c5c:	ea43 4308 	orr.w	r3, r3, r8, lsl #16
 8000c60:	fb07 f10c 	mul.w	r1, r7, ip
 8000c64:	4299      	cmp	r1, r3
 8000c66:	d909      	bls.n	8000c7c <__udivmoddi4+0x60>
 8000c68:	18eb      	adds	r3, r5, r3
 8000c6a:	f107 30ff 	add.w	r0, r7, #4294967295
 8000c6e:	f080 811b 	bcs.w	8000ea8 <__udivmoddi4+0x28c>
 8000c72:	4299      	cmp	r1, r3
 8000c74:	f240 8118 	bls.w	8000ea8 <__udivmoddi4+0x28c>
 8000c78:	3f02      	subs	r7, #2
 8000c7a:	442b      	add	r3, r5
 8000c7c:	1a5b      	subs	r3, r3, r1
 8000c7e:	b2a4      	uxth	r4, r4
 8000c80:	fbb3 f0fe 	udiv	r0, r3, lr
 8000c84:	fb0e 3310 	mls	r3, lr, r0, r3
 8000c88:	ea44 4403 	orr.w	r4, r4, r3, lsl #16
 8000c8c:	fb00 fc0c 	mul.w	ip, r0, ip
 8000c90:	45a4      	cmp	ip, r4
 8000c92:	d909      	bls.n	8000ca8 <__udivmoddi4+0x8c>
 8000c94:	192c      	adds	r4, r5, r4
 8000c96:	f100 33ff 	add.w	r3, r0, #4294967295
 8000c9a:	f080 8107 	bcs.w	8000eac <__udivmoddi4+0x290>
 8000c9e:	45a4      	cmp	ip, r4
 8000ca0:	f240 8104 	bls.w	8000eac <__udivmoddi4+0x290>
 8000ca4:	3802      	subs	r0, #2
 8000ca6:	442c      	add	r4, r5
 8000ca8:	ea40 4007 	orr.w	r0, r0, r7, lsl #16
 8000cac:	eba4 040c 	sub.w	r4, r4, ip
 8000cb0:	2700      	movs	r7, #0
 8000cb2:	b11e      	cbz	r6, 8000cbc <__udivmoddi4+0xa0>
 8000cb4:	40d4      	lsrs	r4, r2
 8000cb6:	2300      	movs	r3, #0
 8000cb8:	e9c6 4300 	strd	r4, r3, [r6]
 8000cbc:	4639      	mov	r1, r7
 8000cbe:	e8bd 87f0 	ldmia.w	sp!, {r4, r5, r6, r7, r8, r9, sl, pc}
 8000cc2:	428b      	cmp	r3, r1
 8000cc4:	d909      	bls.n	8000cda <__udivmoddi4+0xbe>
 8000cc6:	2e00      	cmp	r6, #0
 8000cc8:	f000 80eb 	beq.w	8000ea2 <__udivmoddi4+0x286>
 8000ccc:	2700      	movs	r7, #0
 8000cce:	e9c6 0100 	strd	r0, r1, [r6]
 8000cd2:	4638      	mov	r0, r7
 8000cd4:	4639      	mov	r1, r7
 8000cd6:	e8bd 87f0 	ldmia.w	sp!, {r4, r5, r6, r7, r8, r9, sl, pc}
 8000cda:	fab3 f783 	clz	r7, r3
 8000cde:	2f00      	cmp	r7, #0
 8000ce0:	d147      	bne.n	8000d72 <__udivmoddi4+0x156>
 8000ce2:	428b      	cmp	r3, r1
 8000ce4:	d302      	bcc.n	8000cec <__udivmoddi4+0xd0>
 8000ce6:	4282      	cmp	r2, r0
 8000ce8:	f200 80fa 	bhi.w	8000ee0 <__udivmoddi4+0x2c4>
 8000cec:	1a84      	subs	r4, r0, r2
 8000cee:	eb61 0303 	sbc.w	r3, r1, r3
 8000cf2:	2001      	movs	r0, #1
 8000cf4:	4698      	mov	r8, r3
 8000cf6:	2e00      	cmp	r6, #0
 8000cf8:	d0e0      	beq.n	8000cbc <__udivmoddi4+0xa0>
 8000cfa:	e9c6 4800 	strd	r4, r8, [r6]
 8000cfe:	e7dd      	b.n	8000cbc <__udivmoddi4+0xa0>
 8000d00:	b902      	cbnz	r2, 8000d04 <__udivmoddi4+0xe8>
 8000d02:	deff      	udf	#255	; 0xff
 8000d04:	fab2 f282 	clz	r2, r2
 8000d08:	2a00      	cmp	r2, #0
 8000d0a:	f040 808f 	bne.w	8000e2c <__udivmoddi4+0x210>
 8000d0e:	1b49      	subs	r1, r1, r5
 8000d10:	ea4f 4e15 	mov.w	lr, r5, lsr #16
 8000d14:	fa1f f885 	uxth.w	r8, r5
 8000d18:	2701      	movs	r7, #1
 8000d1a:	fbb1 fcfe 	udiv	ip, r1, lr
 8000d1e:	0c23      	lsrs	r3, r4, #16
 8000d20:	fb0e 111c 	mls	r1, lr, ip, r1
 8000d24:	ea43 4301 	orr.w	r3, r3, r1, lsl #16
 8000d28:	fb08 f10c 	mul.w	r1, r8, ip
 8000d2c:	4299      	cmp	r1, r3
 8000d2e:	d907      	bls.n	8000d40 <__udivmoddi4+0x124>
 8000d30:	18eb      	adds	r3, r5, r3
 8000d32:	f10c 30ff 	add.w	r0, ip, #4294967295
 8000d36:	d202      	bcs.n	8000d3e <__udivmoddi4+0x122>
 8000d38:	4299      	cmp	r1, r3
 8000d3a:	f200 80cd 	bhi.w	8000ed8 <__udivmoddi4+0x2bc>
 8000d3e:	4684      	mov	ip, r0
 8000d40:	1a59      	subs	r1, r3, r1
 8000d42:	b2a3      	uxth	r3, r4
 8000d44:	fbb1 f0fe 	udiv	r0, r1, lr
 8000d48:	fb0e 1410 	mls	r4, lr, r0, r1
 8000d4c:	ea43 4404 	orr.w	r4, r3, r4, lsl #16
 8000d50:	fb08 f800 	mul.w	r8, r8, r0
 8000d54:	45a0      	cmp	r8, r4
 8000d56:	d907      	bls.n	8000d68 <__udivmoddi4+0x14c>
 8000d58:	192c      	adds	r4, r5, r4
 8000d5a:	f100 33ff 	add.w	r3, r0, #4294967295
 8000d5e:	d202      	bcs.n	8000d66 <__udivmoddi4+0x14a>
 8000d60:	45a0      	cmp	r8, r4
 8000d62:	f200 80b6 	bhi.w	8000ed2 <__udivmoddi4+0x2b6>
 8000d66:	4618      	mov	r0, r3
 8000d68:	eba4 0408 	sub.w	r4, r4, r8
 8000d6c:	ea40 400c 	orr.w	r0, r0, ip, lsl #16
 8000d70:	e79f      	b.n	8000cb2 <__udivmoddi4+0x96>
 8000d72:	f1c7 0c20 	rsb	ip, r7, #32
 8000d76:	40bb      	lsls	r3, r7
 8000d78:	fa22 fe0c 	lsr.w	lr, r2, ip
 8000d7c:	ea4e 0e03 	orr.w	lr, lr, r3
 8000d80:	fa01 f407 	lsl.w	r4, r1, r7
 8000d84:	fa20 f50c 	lsr.w	r5, r0, ip
 8000d88:	fa21 f30c 	lsr.w	r3, r1, ip
 8000d8c:	ea4f 481e 	mov.w	r8, lr, lsr #16
 8000d90:	4325      	orrs	r5, r4
 8000d92:	fbb3 f9f8 	udiv	r9, r3, r8
 8000d96:	0c2c      	lsrs	r4, r5, #16
 8000d98:	fb08 3319 	mls	r3, r8, r9, r3
 8000d9c:	fa1f fa8e 	uxth.w	sl, lr
 8000da0:	ea44 4303 	orr.w	r3, r4, r3, lsl #16
 8000da4:	fb09 f40a 	mul.w	r4, r9, sl
 8000da8:	429c      	cmp	r4, r3
 8000daa:	fa02 f207 	lsl.w	r2, r2, r7
 8000dae:	fa00 f107 	lsl.w	r1, r0, r7
 8000db2:	d90b      	bls.n	8000dcc <__udivmoddi4+0x1b0>
 8000db4:	eb1e 0303 	adds.w	r3, lr, r3
 8000db8:	f109 30ff 	add.w	r0, r9, #4294967295
 8000dbc:	f080 8087 	bcs.w	8000ece <__udivmoddi4+0x2b2>
 8000dc0:	429c      	cmp	r4, r3
 8000dc2:	f240 8084 	bls.w	8000ece <__udivmoddi4+0x2b2>
 8000dc6:	f1a9 0902 	sub.w	r9, r9, #2
 8000dca:	4473      	add	r3, lr
 8000dcc:	1b1b      	subs	r3, r3, r4
 8000dce:	b2ad      	uxth	r5, r5
 8000dd0:	fbb3 f0f8 	udiv	r0, r3, r8
 8000dd4:	fb08 3310 	mls	r3, r8, r0, r3
 8000dd8:	ea45 4403 	orr.w	r4, r5, r3, lsl #16
 8000ddc:	fb00 fa0a 	mul.w	sl, r0, sl
 8000de0:	45a2      	cmp	sl, r4
 8000de2:	d908      	bls.n	8000df6 <__udivmoddi4+0x1da>
 8000de4:	eb1e 0404 	adds.w	r4, lr, r4
 8000de8:	f100 33ff 	add.w	r3, r0, #4294967295
 8000dec:	d26b      	bcs.n	8000ec6 <__udivmoddi4+0x2aa>
 8000dee:	45a2      	cmp	sl, r4
 8000df0:	d969      	bls.n	8000ec6 <__udivmoddi4+0x2aa>
 8000df2:	3802      	subs	r0, #2
 8000df4:	4474      	add	r4, lr
 8000df6:	ea40 4009 	orr.w	r0, r0, r9, lsl #16
 8000dfa:	fba0 8902 	umull	r8, r9, r0, r2
 8000dfe:	eba4 040a 	sub.w	r4, r4, sl
 8000e02:	454c      	cmp	r4, r9
 8000e04:	46c2      	mov	sl, r8
 8000e06:	464b      	mov	r3, r9
 8000e08:	d354      	bcc.n	8000eb4 <__udivmoddi4+0x298>
 8000e0a:	d051      	beq.n	8000eb0 <__udivmoddi4+0x294>
 8000e0c:	2e00      	cmp	r6, #0
 8000e0e:	d069      	beq.n	8000ee4 <__udivmoddi4+0x2c8>
 8000e10:	ebb1 050a 	subs.w	r5, r1, sl
 8000e14:	eb64 0403 	sbc.w	r4, r4, r3
 8000e18:	fa04 fc0c 	lsl.w	ip, r4, ip
 8000e1c:	40fd      	lsrs	r5, r7
 8000e1e:	40fc      	lsrs	r4, r7
 8000e20:	ea4c 0505 	orr.w	r5, ip, r5
 8000e24:	e9c6 5400 	strd	r5, r4, [r6]
 8000e28:	2700      	movs	r7, #0
 8000e2a:	e747      	b.n	8000cbc <__udivmoddi4+0xa0>
 8000e2c:	f1c2 0320 	rsb	r3, r2, #32
 8000e30:	fa20 f703 	lsr.w	r7, r0, r3
 8000e34:	4095      	lsls	r5, r2
 8000e36:	fa01 f002 	lsl.w	r0, r1, r2
 8000e3a:	fa21 f303 	lsr.w	r3, r1, r3
 8000e3e:	ea4f 4e15 	mov.w	lr, r5, lsr #16
 8000e42:	4338      	orrs	r0, r7
 8000e44:	0c01      	lsrs	r1, r0, #16
 8000e46:	fbb3 f7fe 	udiv	r7, r3, lr
 8000e4a:	fa1f f885 	uxth.w	r8, r5
 8000e4e:	fb0e 3317 	mls	r3, lr, r7, r3
 8000e52:	ea41 4103 	orr.w	r1, r1, r3, lsl #16
 8000e56:	fb07 f308 	mul.w	r3, r7, r8
 8000e5a:	428b      	cmp	r3, r1
 8000e5c:	fa04 f402 	lsl.w	r4, r4, r2
 8000e60:	d907      	bls.n	8000e72 <__udivmoddi4+0x256>
 8000e62:	1869      	adds	r1, r5, r1
 8000e64:	f107 3cff 	add.w	ip, r7, #4294967295
 8000e68:	d22f      	bcs.n	8000eca <__udivmoddi4+0x2ae>
 8000e6a:	428b      	cmp	r3, r1
 8000e6c:	d92d      	bls.n	8000eca <__udivmoddi4+0x2ae>
 8000e6e:	3f02      	subs	r7, #2
 8000e70:	4429      	add	r1, r5
 8000e72:	1acb      	subs	r3, r1, r3
 8000e74:	b281      	uxth	r1, r0
 8000e76:	fbb3 f0fe 	udiv	r0, r3, lr
 8000e7a:	fb0e 3310 	mls	r3, lr, r0, r3
 8000e7e:	ea41 4103 	orr.w	r1, r1, r3, lsl #16
 8000e82:	fb00 f308 	mul.w	r3, r0, r8
 8000e86:	428b      	cmp	r3, r1
 8000e88:	d907      	bls.n	8000e9a <__udivmoddi4+0x27e>
 8000e8a:	1869      	adds	r1, r5, r1
 8000e8c:	f100 3cff 	add.w	ip, r0, #4294967295
 8000e90:	d217      	bcs.n	8000ec2 <__udivmoddi4+0x2a6>
 8000e92:	428b      	cmp	r3, r1
 8000e94:	d915      	bls.n	8000ec2 <__udivmoddi4+0x2a6>
 8000e96:	3802      	subs	r0, #2
 8000e98:	4429      	add	r1, r5
 8000e9a:	1ac9      	subs	r1, r1, r3
 8000e9c:	ea40 4707 	orr.w	r7, r0, r7, lsl #16
 8000ea0:	e73b      	b.n	8000d1a <__udivmoddi4+0xfe>
 8000ea2:	4637      	mov	r7, r6
 8000ea4:	4630      	mov	r0, r6
 8000ea6:	e709      	b.n	8000cbc <__udivmoddi4+0xa0>
 8000ea8:	4607      	mov	r7, r0
 8000eaa:	e6e7      	b.n	8000c7c <__udivmoddi4+0x60>
 8000eac:	4618      	mov	r0, r3
 8000eae:	e6fb      	b.n	8000ca8 <__udivmoddi4+0x8c>
 8000eb0:	4541      	cmp	r1, r8
 8000eb2:	d2ab      	bcs.n	8000e0c <__udivmoddi4+0x1f0>
 8000eb4:	ebb8 0a02 	subs.w	sl, r8, r2
 8000eb8:	eb69 020e 	sbc.w	r2, r9, lr
 8000ebc:	3801      	subs	r0, #1
 8000ebe:	4613      	mov	r3, r2
 8000ec0:	e7a4      	b.n	8000e0c <__udivmoddi4+0x1f0>
 8000ec2:	4660      	mov	r0, ip
 8000ec4:	e7e9      	b.n	8000e9a <__udivmoddi4+0x27e>
 8000ec6:	4618      	mov	r0, r3
 8000ec8:	e795      	b.n	8000df6 <__udivmoddi4+0x1da>
 8000eca:	4667      	mov	r7, ip
 8000ecc:	e7d1      	b.n	8000e72 <__udivmoddi4+0x256>
 8000ece:	4681      	mov	r9, r0
 8000ed0:	e77c      	b.n	8000dcc <__udivmoddi4+0x1b0>
 8000ed2:	3802      	subs	r0, #2
 8000ed4:	442c      	add	r4, r5
 8000ed6:	e747      	b.n	8000d68 <__udivmoddi4+0x14c>
 8000ed8:	f1ac 0c02 	sub.w	ip, ip, #2
 8000edc:	442b      	add	r3, r5
 8000ede:	e72f      	b.n	8000d40 <__udivmoddi4+0x124>
 8000ee0:	4638      	mov	r0, r7
 8000ee2:	e708      	b.n	8000cf6 <__udivmoddi4+0xda>
 8000ee4:	4637      	mov	r7, r6
 8000ee6:	e6e9      	b.n	8000cbc <__udivmoddi4+0xa0>

08000ee8 <__aeabi_idiv0>:
 8000ee8:	4770      	bx	lr
 8000eea:	bf00      	nop

08000eec <vApplicationIdleHook>:
void vApplicationStackOverflowHook(xTaskHandle xTask, signed char *pcTaskName);
void vApplicationMallocFailedHook(void);

/* USER CODE BEGIN 2 */
__weak void vApplicationIdleHook( void )
{
 8000eec:	b480      	push	{r7}
 8000eee:	af00      	add	r7, sp, #0
   specified, or call vTaskDelay()). If the application makes use of the
   vTaskDelete() API function (as this demo application does) then it is also
   important that vApplicationIdleHook() is permitted to return to its calling
   function, because it is the responsibility of the idle task to clean up
   memory allocated by the kernel to any task that has since been deleted. */
}
 8000ef0:	bf00      	nop
 8000ef2:	46bd      	mov	sp, r7
 8000ef4:	f85d 7b04 	ldr.w	r7, [sp], #4
 8000ef8:	4770      	bx	lr

08000efa <vApplicationStackOverflowHook>:
/* USER CODE END 2 */

/* USER CODE BEGIN 4 */
__weak void vApplicationStackOverflowHook(xTaskHandle xTask, signed char *pcTaskName)
{
 8000efa:	b480      	push	{r7}
 8000efc:	b083      	sub	sp, #12
 8000efe:	af00      	add	r7, sp, #0
 8000f00:	6078      	str	r0, [r7, #4]
 8000f02:	6039      	str	r1, [r7, #0]
   /* Run time stack overflow checking is performed if
   configCHECK_FOR_STACK_OVERFLOW is defined to 1 or 2. This hook function is
   called if a stack overflow is detected. */
}
 8000f04:	bf00      	nop
 8000f06:	370c      	adds	r7, #12
 8000f08:	46bd      	mov	sp, r7
 8000f0a:	f85d 7b04 	ldr.w	r7, [sp], #4
 8000f0e:	4770      	bx	lr

08000f10 <vApplicationMallocFailedHook>:
/* USER CODE END 4 */

/* USER CODE BEGIN 5 */
__weak void vApplicationMallocFailedHook(void)
{
 8000f10:	b480      	push	{r7}
 8000f12:	af00      	add	r7, sp, #0
   demo application. If heap_1.c or heap_2.c are used, then the size of the
   heap available to pvPortMalloc() is defined by configTOTAL_HEAP_SIZE in
   FreeRTOSConfig.h, and the xPortGetFreeHeapSize() API function can be used
   to query the size of free heap space that remains (although it does not
   provide information on how the remaining heap might be fragmented). */
}
 8000f14:	bf00      	nop
 8000f16:	46bd      	mov	sp, r7
 8000f18:	f85d 7b04 	ldr.w	r7, [sp], #4
 8000f1c:	4770      	bx	lr
	...

08000f20 <vApplicationGetIdleTaskMemory>:
/* USER CODE BEGIN GET_IDLE_TASK_MEMORY */
static StaticTask_t xIdleTaskTCBBuffer;
static StackType_t xIdleStack[configMINIMAL_STACK_SIZE];

void vApplicationGetIdleTaskMemory( StaticTask_t **ppxIdleTaskTCBBuffer, StackType_t **ppxIdleTaskStackBuffer, uint32_t *pulIdleTaskStackSize )
{
 8000f20:	b480      	push	{r7}
 8000f22:	b085      	sub	sp, #20
 8000f24:	af00      	add	r7, sp, #0
 8000f26:	60f8      	str	r0, [r7, #12]
 8000f28:	60b9      	str	r1, [r7, #8]
 8000f2a:	607a      	str	r2, [r7, #4]
  *ppxIdleTaskTCBBuffer = &xIdleTaskTCBBuffer;
 8000f2c:	68fb      	ldr	r3, [r7, #12]
 8000f2e:	4a07      	ldr	r2, [pc, #28]	; (8000f4c <vApplicationGetIdleTaskMemory+0x2c>)
 8000f30:	601a      	str	r2, [r3, #0]
  *ppxIdleTaskStackBuffer = &xIdleStack[0];
 8000f32:	68bb      	ldr	r3, [r7, #8]
 8000f34:	4a06      	ldr	r2, [pc, #24]	; (8000f50 <vApplicationGetIdleTaskMemory+0x30>)
 8000f36:	601a      	str	r2, [r3, #0]
  *pulIdleTaskStackSize = configMINIMAL_STACK_SIZE;
 8000f38:	687b      	ldr	r3, [r7, #4]
 8000f3a:	2280      	movs	r2, #128	; 0x80
 8000f3c:	601a      	str	r2, [r3, #0]
  /* place for user code */
}
 8000f3e:	bf00      	nop
 8000f40:	3714      	adds	r7, #20
 8000f42:	46bd      	mov	sp, r7
 8000f44:	f85d 7b04 	ldr.w	r7, [sp], #4
 8000f48:	4770      	bx	lr
 8000f4a:	bf00      	nop
 8000f4c:	200000d0 	.word	0x200000d0
 8000f50:	20000128 	.word	0x20000128

08000f54 <ft5336_Init>:
  *         from MCU to FT5336 : ie I2C channel initialization (if required).
  * @param  DeviceAddr: Device address on communication Bus (I2C slave address of FT5336).
  * @retval None
  */
void ft5336_Init(uint16_t DeviceAddr)
{
 8000f54:	b580      	push	{r7, lr}
 8000f56:	b082      	sub	sp, #8
 8000f58:	af00      	add	r7, sp, #0
 8000f5a:	4603      	mov	r3, r0
 8000f5c:	80fb      	strh	r3, [r7, #6]
  /* Wait at least 200ms after power up before accessing registers
   * Trsi timing (Time of starting to report point after resetting) from FT5336GQQ datasheet */
  TS_IO_Delay(200);
 8000f5e:	20c8      	movs	r0, #200	; 0xc8
 8000f60:	f002 fcec 	bl	800393c <TS_IO_Delay>

  /* Initialize I2C link if needed */
  ft5336_I2C_InitializeIfRequired();
 8000f64:	f000 fa7a 	bl	800145c <ft5336_I2C_InitializeIfRequired>
}
 8000f68:	bf00      	nop
 8000f6a:	3708      	adds	r7, #8
 8000f6c:	46bd      	mov	sp, r7
 8000f6e:	bd80      	pop	{r7, pc}

08000f70 <ft5336_Reset>:
  *         @note : Not applicable to FT5336.
  * @param  DeviceAddr: Device address on communication Bus (I2C slave address of FT5336).
  * @retval None
  */
void ft5336_Reset(uint16_t DeviceAddr)
{
 8000f70:	b480      	push	{r7}
 8000f72:	b083      	sub	sp, #12
 8000f74:	af00      	add	r7, sp, #0
 8000f76:	4603      	mov	r3, r0
 8000f78:	80fb      	strh	r3, [r7, #6]
  /* Do nothing */
  /* No software reset sequence available in FT5336 IC */
}
 8000f7a:	bf00      	nop
 8000f7c:	370c      	adds	r7, #12
 8000f7e:	46bd      	mov	sp, r7
 8000f80:	f85d 7b04 	ldr.w	r7, [sp], #4
 8000f84:	4770      	bx	lr

08000f86 <ft5336_ReadID>:
  *         able to read the FT5336 device ID, and verify this is a FT5336.
  * @param  DeviceAddr: I2C FT5336 Slave address.
  * @retval The Device ID (two bytes).
  */
uint16_t ft5336_ReadID(uint16_t DeviceAddr)
{
 8000f86:	b580      	push	{r7, lr}
 8000f88:	b084      	sub	sp, #16
 8000f8a:	af00      	add	r7, sp, #0
 8000f8c:	4603      	mov	r3, r0
 8000f8e:	80fb      	strh	r3, [r7, #6]
  volatile uint8_t ucReadId = 0;
 8000f90:	2300      	movs	r3, #0
 8000f92:	737b      	strb	r3, [r7, #13]
  uint8_t nbReadAttempts = 0;
 8000f94:	2300      	movs	r3, #0
 8000f96:	73fb      	strb	r3, [r7, #15]
  uint8_t bFoundDevice = 0; /* Device not found by default */
 8000f98:	2300      	movs	r3, #0
 8000f9a:	73bb      	strb	r3, [r7, #14]

  /* Initialize I2C link if needed */
  ft5336_I2C_InitializeIfRequired();
 8000f9c:	f000 fa5e 	bl	800145c <ft5336_I2C_InitializeIfRequired>

  /* At maximum 4 attempts to read ID : exit at first finding of the searched device ID */
  for(nbReadAttempts = 0; ((nbReadAttempts < 3) && !(bFoundDevice)); nbReadAttempts++)
 8000fa0:	2300      	movs	r3, #0
 8000fa2:	73fb      	strb	r3, [r7, #15]
 8000fa4:	e010      	b.n	8000fc8 <ft5336_ReadID+0x42>
  {
    /* Read register FT5336_CHIP_ID_REG as DeviceID detection */
    ucReadId = TS_IO_Read(DeviceAddr, FT5336_CHIP_ID_REG);
 8000fa6:	88fb      	ldrh	r3, [r7, #6]
 8000fa8:	b2db      	uxtb	r3, r3
 8000faa:	21a8      	movs	r1, #168	; 0xa8
 8000fac:	4618      	mov	r0, r3
 8000fae:	f002 fca7 	bl	8003900 <TS_IO_Read>
 8000fb2:	4603      	mov	r3, r0
 8000fb4:	737b      	strb	r3, [r7, #13]

    /* Found the searched device ID ? */
    if(ucReadId == FT5336_ID_VALUE)
 8000fb6:	7b7b      	ldrb	r3, [r7, #13]
 8000fb8:	b2db      	uxtb	r3, r3
 8000fba:	2b51      	cmp	r3, #81	; 0x51
 8000fbc:	d101      	bne.n	8000fc2 <ft5336_ReadID+0x3c>
    {
      /* Set device as found */
      bFoundDevice = 1;
 8000fbe:	2301      	movs	r3, #1
 8000fc0:	73bb      	strb	r3, [r7, #14]
  for(nbReadAttempts = 0; ((nbReadAttempts < 3) && !(bFoundDevice)); nbReadAttempts++)
 8000fc2:	7bfb      	ldrb	r3, [r7, #15]
 8000fc4:	3301      	adds	r3, #1
 8000fc6:	73fb      	strb	r3, [r7, #15]
 8000fc8:	7bfb      	ldrb	r3, [r7, #15]
 8000fca:	2b02      	cmp	r3, #2
 8000fcc:	d802      	bhi.n	8000fd4 <ft5336_ReadID+0x4e>
 8000fce:	7bbb      	ldrb	r3, [r7, #14]
 8000fd0:	2b00      	cmp	r3, #0
 8000fd2:	d0e8      	beq.n	8000fa6 <ft5336_ReadID+0x20>
    }
  }

  /* Return the device ID value */
  return (ucReadId);
 8000fd4:	7b7b      	ldrb	r3, [r7, #13]
 8000fd6:	b2db      	uxtb	r3, r3
 8000fd8:	b29b      	uxth	r3, r3
}
 8000fda:	4618      	mov	r0, r3
 8000fdc:	3710      	adds	r7, #16
 8000fde:	46bd      	mov	sp, r7
 8000fe0:	bd80      	pop	{r7, pc}

08000fe2 <ft5336_TS_Start>:
  * @brief  Configures the touch Screen IC device to start detecting touches
  * @param  DeviceAddr: Device address on communication Bus (I2C slave address).
  * @retval None.
  */
void ft5336_TS_Start(uint16_t DeviceAddr)
{
 8000fe2:	b580      	push	{r7, lr}
 8000fe4:	b082      	sub	sp, #8
 8000fe6:	af00      	add	r7, sp, #0
 8000fe8:	4603      	mov	r3, r0
 8000fea:	80fb      	strh	r3, [r7, #6]
  /* Minimum static configuration of FT5336 */
  FT5336_ASSERT(ft5336_TS_Configure(DeviceAddr));
 8000fec:	88fb      	ldrh	r3, [r7, #6]
 8000fee:	4618      	mov	r0, r3
 8000ff0:	f000 fa44 	bl	800147c <ft5336_TS_Configure>

  /* By default set FT5336 IC in Polling mode : no INT generation on FT5336 for new touch available */
  /* Note TS_INT is active low                                                                      */
  ft5336_TS_DisableIT(DeviceAddr);
 8000ff4:	88fb      	ldrh	r3, [r7, #6]
 8000ff6:	4618      	mov	r0, r3
 8000ff8:	f000 f932 	bl	8001260 <ft5336_TS_DisableIT>
}
 8000ffc:	bf00      	nop
 8000ffe:	3708      	adds	r7, #8
 8001000:	46bd      	mov	sp, r7
 8001002:	bd80      	pop	{r7, pc}

08001004 <ft5336_TS_DetectTouch>:
  *         variables).
  * @param  DeviceAddr: Device address on communication Bus.
  * @retval : Number of active touches detected (can be 0, 1 or 2).
  */
uint8_t ft5336_TS_DetectTouch(uint16_t DeviceAddr)
{
 8001004:	b580      	push	{r7, lr}
 8001006:	b084      	sub	sp, #16
 8001008:	af00      	add	r7, sp, #0
 800100a:	4603      	mov	r3, r0
 800100c:	80fb      	strh	r3, [r7, #6]
  volatile uint8_t nbTouch = 0;
 800100e:	2300      	movs	r3, #0
 8001010:	73fb      	strb	r3, [r7, #15]

  /* Read register FT5336_TD_STAT_REG to check number of touches detection */
  nbTouch = TS_IO_Read(DeviceAddr, FT5336_TD_STAT_REG);
 8001012:	88fb      	ldrh	r3, [r7, #6]
 8001014:	b2db      	uxtb	r3, r3
 8001016:	2102      	movs	r1, #2
 8001018:	4618      	mov	r0, r3
 800101a:	f002 fc71 	bl	8003900 <TS_IO_Read>
 800101e:	4603      	mov	r3, r0
 8001020:	73fb      	strb	r3, [r7, #15]
  nbTouch &= FT5336_TD_STAT_MASK;
 8001022:	7bfb      	ldrb	r3, [r7, #15]
 8001024:	b2db      	uxtb	r3, r3
 8001026:	f003 030f 	and.w	r3, r3, #15
 800102a:	b2db      	uxtb	r3, r3
 800102c:	73fb      	strb	r3, [r7, #15]

  if(nbTouch > FT5336_MAX_DETECTABLE_TOUCH)
 800102e:	7bfb      	ldrb	r3, [r7, #15]
 8001030:	b2db      	uxtb	r3, r3
 8001032:	2b05      	cmp	r3, #5
 8001034:	d901      	bls.n	800103a <ft5336_TS_DetectTouch+0x36>
  {
    /* If invalid number of touch detected, set it to zero */
    nbTouch = 0;
 8001036:	2300      	movs	r3, #0
 8001038:	73fb      	strb	r3, [r7, #15]
  }

  /* Update ft5336 driver internal global : current number of active touches */
  ft5336_handle.currActiveTouchNb = nbTouch;
 800103a:	7bfb      	ldrb	r3, [r7, #15]
 800103c:	b2da      	uxtb	r2, r3
 800103e:	4b05      	ldr	r3, [pc, #20]	; (8001054 <ft5336_TS_DetectTouch+0x50>)
 8001040:	705a      	strb	r2, [r3, #1]

  /* Reset current active touch index on which to work on */
  ft5336_handle.currActiveTouchIdx = 0;
 8001042:	4b04      	ldr	r3, [pc, #16]	; (8001054 <ft5336_TS_DetectTouch+0x50>)
 8001044:	2200      	movs	r2, #0
 8001046:	709a      	strb	r2, [r3, #2]

  return(nbTouch);
 8001048:	7bfb      	ldrb	r3, [r7, #15]
 800104a:	b2db      	uxtb	r3, r3
}
 800104c:	4618      	mov	r0, r3
 800104e:	3710      	adds	r7, #16
 8001050:	46bd      	mov	sp, r7
 8001052:	bd80      	pop	{r7, pc}
 8001054:	20000328 	.word	0x20000328

08001058 <ft5336_TS_GetXY>:
  * @param  X: Pointer to X position value
  * @param  Y: Pointer to Y position value
  * @retval None.
  */
void ft5336_TS_GetXY(uint16_t DeviceAddr, uint16_t *X, uint16_t *Y)
{
 8001058:	b580      	push	{r7, lr}
 800105a:	b086      	sub	sp, #24
 800105c:	af00      	add	r7, sp, #0
 800105e:	4603      	mov	r3, r0
 8001060:	60b9      	str	r1, [r7, #8]
 8001062:	607a      	str	r2, [r7, #4]
 8001064:	81fb      	strh	r3, [r7, #14]
  volatile uint8_t ucReadData = 0;
 8001066:	2300      	movs	r3, #0
 8001068:	74fb      	strb	r3, [r7, #19]
  static uint16_t coord;
  uint8_t regAddressXLow = 0;
 800106a:	2300      	movs	r3, #0
 800106c:	75fb      	strb	r3, [r7, #23]
  uint8_t regAddressXHigh = 0;
 800106e:	2300      	movs	r3, #0
 8001070:	75bb      	strb	r3, [r7, #22]
  uint8_t regAddressYLow = 0;
 8001072:	2300      	movs	r3, #0
 8001074:	757b      	strb	r3, [r7, #21]
  uint8_t regAddressYHigh = 0;
 8001076:	2300      	movs	r3, #0
 8001078:	753b      	strb	r3, [r7, #20]

  if(ft5336_handle.currActiveTouchIdx < ft5336_handle.currActiveTouchNb)
 800107a:	4b6d      	ldr	r3, [pc, #436]	; (8001230 <ft5336_TS_GetXY+0x1d8>)
 800107c:	789a      	ldrb	r2, [r3, #2]
 800107e:	4b6c      	ldr	r3, [pc, #432]	; (8001230 <ft5336_TS_GetXY+0x1d8>)
 8001080:	785b      	ldrb	r3, [r3, #1]
 8001082:	429a      	cmp	r2, r3
 8001084:	f080 80cf 	bcs.w	8001226 <ft5336_TS_GetXY+0x1ce>
  {
    switch(ft5336_handle.currActiveTouchIdx)
 8001088:	4b69      	ldr	r3, [pc, #420]	; (8001230 <ft5336_TS_GetXY+0x1d8>)
 800108a:	789b      	ldrb	r3, [r3, #2]
 800108c:	2b09      	cmp	r3, #9
 800108e:	d871      	bhi.n	8001174 <ft5336_TS_GetXY+0x11c>
 8001090:	a201      	add	r2, pc, #4	; (adr r2, 8001098 <ft5336_TS_GetXY+0x40>)
 8001092:	f852 f023 	ldr.w	pc, [r2, r3, lsl #2]
 8001096:	bf00      	nop
 8001098:	080010c1 	.word	0x080010c1
 800109c:	080010d3 	.word	0x080010d3
 80010a0:	080010e5 	.word	0x080010e5
 80010a4:	080010f7 	.word	0x080010f7
 80010a8:	08001109 	.word	0x08001109
 80010ac:	0800111b 	.word	0x0800111b
 80010b0:	0800112d 	.word	0x0800112d
 80010b4:	0800113f 	.word	0x0800113f
 80010b8:	08001151 	.word	0x08001151
 80010bc:	08001163 	.word	0x08001163
    {
    case 0 :
      regAddressXLow  = FT5336_P1_XL_REG;
 80010c0:	2304      	movs	r3, #4
 80010c2:	75fb      	strb	r3, [r7, #23]
      regAddressXHigh = FT5336_P1_XH_REG;
 80010c4:	2303      	movs	r3, #3
 80010c6:	75bb      	strb	r3, [r7, #22]
      regAddressYLow  = FT5336_P1_YL_REG;
 80010c8:	2306      	movs	r3, #6
 80010ca:	757b      	strb	r3, [r7, #21]
      regAddressYHigh = FT5336_P1_YH_REG;
 80010cc:	2305      	movs	r3, #5
 80010ce:	753b      	strb	r3, [r7, #20]
      break;
 80010d0:	e051      	b.n	8001176 <ft5336_TS_GetXY+0x11e>

    case 1 :
      regAddressXLow  = FT5336_P2_XL_REG;
 80010d2:	230a      	movs	r3, #10
 80010d4:	75fb      	strb	r3, [r7, #23]
      regAddressXHigh = FT5336_P2_XH_REG;
 80010d6:	2309      	movs	r3, #9
 80010d8:	75bb      	strb	r3, [r7, #22]
      regAddressYLow  = FT5336_P2_YL_REG;
 80010da:	230c      	movs	r3, #12
 80010dc:	757b      	strb	r3, [r7, #21]
      regAddressYHigh = FT5336_P2_YH_REG;
 80010de:	230b      	movs	r3, #11
 80010e0:	753b      	strb	r3, [r7, #20]
      break;
 80010e2:	e048      	b.n	8001176 <ft5336_TS_GetXY+0x11e>

    case 2 :
      regAddressXLow  = FT5336_P3_XL_REG;
 80010e4:	2310      	movs	r3, #16
 80010e6:	75fb      	strb	r3, [r7, #23]
      regAddressXHigh = FT5336_P3_XH_REG;
 80010e8:	230f      	movs	r3, #15
 80010ea:	75bb      	strb	r3, [r7, #22]
      regAddressYLow  = FT5336_P3_YL_REG;
 80010ec:	2312      	movs	r3, #18
 80010ee:	757b      	strb	r3, [r7, #21]
      regAddressYHigh = FT5336_P3_YH_REG;
 80010f0:	2311      	movs	r3, #17
 80010f2:	753b      	strb	r3, [r7, #20]
      break;
 80010f4:	e03f      	b.n	8001176 <ft5336_TS_GetXY+0x11e>

    case 3 :
      regAddressXLow  = FT5336_P4_XL_REG;
 80010f6:	2316      	movs	r3, #22
 80010f8:	75fb      	strb	r3, [r7, #23]
      regAddressXHigh = FT5336_P4_XH_REG;
 80010fa:	2315      	movs	r3, #21
 80010fc:	75bb      	strb	r3, [r7, #22]
      regAddressYLow  = FT5336_P4_YL_REG;
 80010fe:	2318      	movs	r3, #24
 8001100:	757b      	strb	r3, [r7, #21]
      regAddressYHigh = FT5336_P4_YH_REG;
 8001102:	2317      	movs	r3, #23
 8001104:	753b      	strb	r3, [r7, #20]
      break;
 8001106:	e036      	b.n	8001176 <ft5336_TS_GetXY+0x11e>

    case 4 :
      regAddressXLow  = FT5336_P5_XL_REG;
 8001108:	231c      	movs	r3, #28
 800110a:	75fb      	strb	r3, [r7, #23]
      regAddressXHigh = FT5336_P5_XH_REG;
 800110c:	231b      	movs	r3, #27
 800110e:	75bb      	strb	r3, [r7, #22]
      regAddressYLow  = FT5336_P5_YL_REG;
 8001110:	231e      	movs	r3, #30
 8001112:	757b      	strb	r3, [r7, #21]
      regAddressYHigh = FT5336_P5_YH_REG;
 8001114:	231d      	movs	r3, #29
 8001116:	753b      	strb	r3, [r7, #20]
      break;
 8001118:	e02d      	b.n	8001176 <ft5336_TS_GetXY+0x11e>

    case 5 :
      regAddressXLow  = FT5336_P6_XL_REG;
 800111a:	2322      	movs	r3, #34	; 0x22
 800111c:	75fb      	strb	r3, [r7, #23]
      regAddressXHigh = FT5336_P6_XH_REG;
 800111e:	2321      	movs	r3, #33	; 0x21
 8001120:	75bb      	strb	r3, [r7, #22]
      regAddressYLow  = FT5336_P6_YL_REG;
 8001122:	2324      	movs	r3, #36	; 0x24
 8001124:	757b      	strb	r3, [r7, #21]
      regAddressYHigh = FT5336_P6_YH_REG;
 8001126:	2323      	movs	r3, #35	; 0x23
 8001128:	753b      	strb	r3, [r7, #20]
      break;
 800112a:	e024      	b.n	8001176 <ft5336_TS_GetXY+0x11e>

    case 6 :
      regAddressXLow  = FT5336_P7_XL_REG;
 800112c:	2328      	movs	r3, #40	; 0x28
 800112e:	75fb      	strb	r3, [r7, #23]
      regAddressXHigh = FT5336_P7_XH_REG;
 8001130:	2327      	movs	r3, #39	; 0x27
 8001132:	75bb      	strb	r3, [r7, #22]
      regAddressYLow  = FT5336_P7_YL_REG;
 8001134:	232a      	movs	r3, #42	; 0x2a
 8001136:	757b      	strb	r3, [r7, #21]
      regAddressYHigh = FT5336_P7_YH_REG;
 8001138:	2329      	movs	r3, #41	; 0x29
 800113a:	753b      	strb	r3, [r7, #20]
      break;
 800113c:	e01b      	b.n	8001176 <ft5336_TS_GetXY+0x11e>

    case 7 :
      regAddressXLow  = FT5336_P8_XL_REG;
 800113e:	232e      	movs	r3, #46	; 0x2e
 8001140:	75fb      	strb	r3, [r7, #23]
      regAddressXHigh = FT5336_P8_XH_REG;
 8001142:	232d      	movs	r3, #45	; 0x2d
 8001144:	75bb      	strb	r3, [r7, #22]
      regAddressYLow  = FT5336_P8_YL_REG;
 8001146:	2330      	movs	r3, #48	; 0x30
 8001148:	757b      	strb	r3, [r7, #21]
      regAddressYHigh = FT5336_P8_YH_REG;
 800114a:	232f      	movs	r3, #47	; 0x2f
 800114c:	753b      	strb	r3, [r7, #20]
      break;
 800114e:	e012      	b.n	8001176 <ft5336_TS_GetXY+0x11e>

    case 8 :
      regAddressXLow  = FT5336_P9_XL_REG;
 8001150:	2334      	movs	r3, #52	; 0x34
 8001152:	75fb      	strb	r3, [r7, #23]
      regAddressXHigh = FT5336_P9_XH_REG;
 8001154:	2333      	movs	r3, #51	; 0x33
 8001156:	75bb      	strb	r3, [r7, #22]
      regAddressYLow  = FT5336_P9_YL_REG;
 8001158:	2336      	movs	r3, #54	; 0x36
 800115a:	757b      	strb	r3, [r7, #21]
      regAddressYHigh = FT5336_P9_YH_REG;
 800115c:	2335      	movs	r3, #53	; 0x35
 800115e:	753b      	strb	r3, [r7, #20]
      break;
 8001160:	e009      	b.n	8001176 <ft5336_TS_GetXY+0x11e>

    case 9 :
      regAddressXLow  = FT5336_P10_XL_REG;
 8001162:	233a      	movs	r3, #58	; 0x3a
 8001164:	75fb      	strb	r3, [r7, #23]
      regAddressXHigh = FT5336_P10_XH_REG;
 8001166:	2339      	movs	r3, #57	; 0x39
 8001168:	75bb      	strb	r3, [r7, #22]
      regAddressYLow  = FT5336_P10_YL_REG;
 800116a:	233c      	movs	r3, #60	; 0x3c
 800116c:	757b      	strb	r3, [r7, #21]
      regAddressYHigh = FT5336_P10_YH_REG;
 800116e:	233b      	movs	r3, #59	; 0x3b
 8001170:	753b      	strb	r3, [r7, #20]
      break;
 8001172:	e000      	b.n	8001176 <ft5336_TS_GetXY+0x11e>

    default :
      break;
 8001174:	bf00      	nop

    } /* end switch(ft5336_handle.currActiveTouchIdx) */

    /* Read low part of X position */
    ucReadData = TS_IO_Read(DeviceAddr, regAddressXLow);
 8001176:	89fb      	ldrh	r3, [r7, #14]
 8001178:	b2db      	uxtb	r3, r3
 800117a:	7dfa      	ldrb	r2, [r7, #23]
 800117c:	4611      	mov	r1, r2
 800117e:	4618      	mov	r0, r3
 8001180:	f002 fbbe 	bl	8003900 <TS_IO_Read>
 8001184:	4603      	mov	r3, r0
 8001186:	74fb      	strb	r3, [r7, #19]
    coord = (ucReadData & FT5336_TOUCH_POS_LSB_MASK) >> FT5336_TOUCH_POS_LSB_SHIFT;
 8001188:	7cfb      	ldrb	r3, [r7, #19]
 800118a:	b2db      	uxtb	r3, r3
 800118c:	b29a      	uxth	r2, r3
 800118e:	4b29      	ldr	r3, [pc, #164]	; (8001234 <ft5336_TS_GetXY+0x1dc>)
 8001190:	801a      	strh	r2, [r3, #0]

    /* Read high part of X position */
    ucReadData = TS_IO_Read(DeviceAddr, regAddressXHigh);
 8001192:	89fb      	ldrh	r3, [r7, #14]
 8001194:	b2db      	uxtb	r3, r3
 8001196:	7dba      	ldrb	r2, [r7, #22]
 8001198:	4611      	mov	r1, r2
 800119a:	4618      	mov	r0, r3
 800119c:	f002 fbb0 	bl	8003900 <TS_IO_Read>
 80011a0:	4603      	mov	r3, r0
 80011a2:	74fb      	strb	r3, [r7, #19]
    coord |= ((ucReadData & FT5336_TOUCH_POS_MSB_MASK) >> FT5336_TOUCH_POS_MSB_SHIFT) << 8;
 80011a4:	7cfb      	ldrb	r3, [r7, #19]
 80011a6:	b2db      	uxtb	r3, r3
 80011a8:	021b      	lsls	r3, r3, #8
 80011aa:	f403 6370 	and.w	r3, r3, #3840	; 0xf00
 80011ae:	b21a      	sxth	r2, r3
 80011b0:	4b20      	ldr	r3, [pc, #128]	; (8001234 <ft5336_TS_GetXY+0x1dc>)
 80011b2:	881b      	ldrh	r3, [r3, #0]
 80011b4:	b21b      	sxth	r3, r3
 80011b6:	4313      	orrs	r3, r2
 80011b8:	b21b      	sxth	r3, r3
 80011ba:	b29a      	uxth	r2, r3
 80011bc:	4b1d      	ldr	r3, [pc, #116]	; (8001234 <ft5336_TS_GetXY+0x1dc>)
 80011be:	801a      	strh	r2, [r3, #0]

    /* Send back ready X position to caller */
    *X = coord;
 80011c0:	4b1c      	ldr	r3, [pc, #112]	; (8001234 <ft5336_TS_GetXY+0x1dc>)
 80011c2:	881a      	ldrh	r2, [r3, #0]
 80011c4:	68bb      	ldr	r3, [r7, #8]
 80011c6:	801a      	strh	r2, [r3, #0]

    /* Read low part of Y position */
    ucReadData = TS_IO_Read(DeviceAddr, regAddressYLow);
 80011c8:	89fb      	ldrh	r3, [r7, #14]
 80011ca:	b2db      	uxtb	r3, r3
 80011cc:	7d7a      	ldrb	r2, [r7, #21]
 80011ce:	4611      	mov	r1, r2
 80011d0:	4618      	mov	r0, r3
 80011d2:	f002 fb95 	bl	8003900 <TS_IO_Read>
 80011d6:	4603      	mov	r3, r0
 80011d8:	74fb      	strb	r3, [r7, #19]
    coord = (ucReadData & FT5336_TOUCH_POS_LSB_MASK) >> FT5336_TOUCH_POS_LSB_SHIFT;
 80011da:	7cfb      	ldrb	r3, [r7, #19]
 80011dc:	b2db      	uxtb	r3, r3
 80011de:	b29a      	uxth	r2, r3
 80011e0:	4b14      	ldr	r3, [pc, #80]	; (8001234 <ft5336_TS_GetXY+0x1dc>)
 80011e2:	801a      	strh	r2, [r3, #0]

    /* Read high part of Y position */
    ucReadData = TS_IO_Read(DeviceAddr, regAddressYHigh);
 80011e4:	89fb      	ldrh	r3, [r7, #14]
 80011e6:	b2db      	uxtb	r3, r3
 80011e8:	7d3a      	ldrb	r2, [r7, #20]
 80011ea:	4611      	mov	r1, r2
 80011ec:	4618      	mov	r0, r3
 80011ee:	f002 fb87 	bl	8003900 <TS_IO_Read>
 80011f2:	4603      	mov	r3, r0
 80011f4:	74fb      	strb	r3, [r7, #19]
    coord |= ((ucReadData & FT5336_TOUCH_POS_MSB_MASK) >> FT5336_TOUCH_POS_MSB_SHIFT) << 8;
 80011f6:	7cfb      	ldrb	r3, [r7, #19]
 80011f8:	b2db      	uxtb	r3, r3
 80011fa:	021b      	lsls	r3, r3, #8
 80011fc:	f403 6370 	and.w	r3, r3, #3840	; 0xf00
 8001200:	b21a      	sxth	r2, r3
 8001202:	4b0c      	ldr	r3, [pc, #48]	; (8001234 <ft5336_TS_GetXY+0x1dc>)
 8001204:	881b      	ldrh	r3, [r3, #0]
 8001206:	b21b      	sxth	r3, r3
 8001208:	4313      	orrs	r3, r2
 800120a:	b21b      	sxth	r3, r3
 800120c:	b29a      	uxth	r2, r3
 800120e:	4b09      	ldr	r3, [pc, #36]	; (8001234 <ft5336_TS_GetXY+0x1dc>)
 8001210:	801a      	strh	r2, [r3, #0]

    /* Send back ready Y position to caller */
    *Y = coord;
 8001212:	4b08      	ldr	r3, [pc, #32]	; (8001234 <ft5336_TS_GetXY+0x1dc>)
 8001214:	881a      	ldrh	r2, [r3, #0]
 8001216:	687b      	ldr	r3, [r7, #4]
 8001218:	801a      	strh	r2, [r3, #0]

    ft5336_handle.currActiveTouchIdx++; /* next call will work on next touch */
 800121a:	4b05      	ldr	r3, [pc, #20]	; (8001230 <ft5336_TS_GetXY+0x1d8>)
 800121c:	789b      	ldrb	r3, [r3, #2]
 800121e:	3301      	adds	r3, #1
 8001220:	b2da      	uxtb	r2, r3
 8001222:	4b03      	ldr	r3, [pc, #12]	; (8001230 <ft5336_TS_GetXY+0x1d8>)
 8001224:	709a      	strb	r2, [r3, #2]

  } /* of if(ft5336_handle.currActiveTouchIdx < ft5336_handle.currActiveTouchNb) */
}
 8001226:	bf00      	nop
 8001228:	3718      	adds	r7, #24
 800122a:	46bd      	mov	sp, r7
 800122c:	bd80      	pop	{r7, pc}
 800122e:	bf00      	nop
 8001230:	20000328 	.word	0x20000328
 8001234:	2000032c 	.word	0x2000032c

08001238 <ft5336_TS_EnableIT>:
  *         connected to MCU as EXTI.
  * @param  DeviceAddr: Device address on communication Bus (Slave I2C address of FT5336).
  * @retval None
  */
void ft5336_TS_EnableIT(uint16_t DeviceAddr)
{
 8001238:	b580      	push	{r7, lr}
 800123a:	b084      	sub	sp, #16
 800123c:	af00      	add	r7, sp, #0
 800123e:	4603      	mov	r3, r0
 8001240:	80fb      	strh	r3, [r7, #6]
   uint8_t regValue = 0;
 8001242:	2300      	movs	r3, #0
 8001244:	73fb      	strb	r3, [r7, #15]
   regValue = (FT5336_G_MODE_INTERRUPT_TRIGGER & (FT5336_G_MODE_INTERRUPT_MASK >> FT5336_G_MODE_INTERRUPT_SHIFT)) << FT5336_G_MODE_INTERRUPT_SHIFT;
 8001246:	2301      	movs	r3, #1
 8001248:	73fb      	strb	r3, [r7, #15]

   /* Set interrupt trigger mode in FT5336_GMODE_REG */
   TS_IO_Write(DeviceAddr, FT5336_GMODE_REG, regValue);
 800124a:	88fb      	ldrh	r3, [r7, #6]
 800124c:	b2db      	uxtb	r3, r3
 800124e:	7bfa      	ldrb	r2, [r7, #15]
 8001250:	21a4      	movs	r1, #164	; 0xa4
 8001252:	4618      	mov	r0, r3
 8001254:	f002 fb3a 	bl	80038cc <TS_IO_Write>
}
 8001258:	bf00      	nop
 800125a:	3710      	adds	r7, #16
 800125c:	46bd      	mov	sp, r7
 800125e:	bd80      	pop	{r7, pc}

08001260 <ft5336_TS_DisableIT>:
  *         connected to MCU as EXTI.
  * @param  DeviceAddr: Device address on communication Bus (Slave I2C address of FT5336).
  * @retval None
  */
void ft5336_TS_DisableIT(uint16_t DeviceAddr)
{
 8001260:	b580      	push	{r7, lr}
 8001262:	b084      	sub	sp, #16
 8001264:	af00      	add	r7, sp, #0
 8001266:	4603      	mov	r3, r0
 8001268:	80fb      	strh	r3, [r7, #6]
  uint8_t regValue = 0;
 800126a:	2300      	movs	r3, #0
 800126c:	73fb      	strb	r3, [r7, #15]
  regValue = (FT5336_G_MODE_INTERRUPT_POLLING & (FT5336_G_MODE_INTERRUPT_MASK >> FT5336_G_MODE_INTERRUPT_SHIFT)) << FT5336_G_MODE_INTERRUPT_SHIFT;
 800126e:	2300      	movs	r3, #0
 8001270:	73fb      	strb	r3, [r7, #15]

  /* Set interrupt polling mode in FT5336_GMODE_REG */
  TS_IO_Write(DeviceAddr, FT5336_GMODE_REG, regValue);
 8001272:	88fb      	ldrh	r3, [r7, #6]
 8001274:	b2db      	uxtb	r3, r3
 8001276:	7bfa      	ldrb	r2, [r7, #15]
 8001278:	21a4      	movs	r1, #164	; 0xa4
 800127a:	4618      	mov	r0, r3
 800127c:	f002 fb26 	bl	80038cc <TS_IO_Write>
}
 8001280:	bf00      	nop
 8001282:	3710      	adds	r7, #16
 8001284:	46bd      	mov	sp, r7
 8001286:	bd80      	pop	{r7, pc}

08001288 <ft5336_TS_ITStatus>:
  *         @note : This feature is not applicable to FT5336.
  * @param  DeviceAddr: Device address on communication Bus (I2C slave address of FT5336).
  * @retval TS interrupts status : always return 0 here
  */
uint8_t ft5336_TS_ITStatus(uint16_t DeviceAddr)
{
 8001288:	b480      	push	{r7}
 800128a:	b083      	sub	sp, #12
 800128c:	af00      	add	r7, sp, #0
 800128e:	4603      	mov	r3, r0
 8001290:	80fb      	strh	r3, [r7, #6]
  /* Always return 0 as feature not applicable to FT5336 */
  return 0;
 8001292:	2300      	movs	r3, #0
}
 8001294:	4618      	mov	r0, r3
 8001296:	370c      	adds	r7, #12
 8001298:	46bd      	mov	sp, r7
 800129a:	f85d 7b04 	ldr.w	r7, [sp], #4
 800129e:	4770      	bx	lr

080012a0 <ft5336_TS_ClearIT>:
  *         @note : This feature is not applicable to FT5336.
  * @param  DeviceAddr: Device address on communication Bus (I2C slave address of FT5336).
  * @retval None
  */
void ft5336_TS_ClearIT(uint16_t DeviceAddr)
{
 80012a0:	b480      	push	{r7}
 80012a2:	b083      	sub	sp, #12
 80012a4:	af00      	add	r7, sp, #0
 80012a6:	4603      	mov	r3, r0
 80012a8:	80fb      	strh	r3, [r7, #6]
  /* Nothing to be done here for FT5336 */
}
 80012aa:	bf00      	nop
 80012ac:	370c      	adds	r7, #12
 80012ae:	46bd      	mov	sp, r7
 80012b0:	f85d 7b04 	ldr.w	r7, [sp], #4
 80012b4:	4770      	bx	lr

080012b6 <ft5336_TS_GetGestureID>:
  * @param  DeviceAddr: Device address on communication Bus (I2C slave address of FT5336).
  * @param  pGestureId : Pointer to get last touch gesture Identification.
  * @retval None.
  */
void ft5336_TS_GetGestureID(uint16_t DeviceAddr, uint32_t * pGestureId)
{
 80012b6:	b580      	push	{r7, lr}
 80012b8:	b084      	sub	sp, #16
 80012ba:	af00      	add	r7, sp, #0
 80012bc:	4603      	mov	r3, r0
 80012be:	6039      	str	r1, [r7, #0]
 80012c0:	80fb      	strh	r3, [r7, #6]
  volatile uint8_t ucReadData = 0;
 80012c2:	2300      	movs	r3, #0
 80012c4:	73fb      	strb	r3, [r7, #15]

  ucReadData = TS_IO_Read(DeviceAddr, FT5336_GEST_ID_REG);
 80012c6:	88fb      	ldrh	r3, [r7, #6]
 80012c8:	b2db      	uxtb	r3, r3
 80012ca:	2101      	movs	r1, #1
 80012cc:	4618      	mov	r0, r3
 80012ce:	f002 fb17 	bl	8003900 <TS_IO_Read>
 80012d2:	4603      	mov	r3, r0
 80012d4:	73fb      	strb	r3, [r7, #15]

  * pGestureId = ucReadData;
 80012d6:	7bfb      	ldrb	r3, [r7, #15]
 80012d8:	b2db      	uxtb	r3, r3
 80012da:	461a      	mov	r2, r3
 80012dc:	683b      	ldr	r3, [r7, #0]
 80012de:	601a      	str	r2, [r3, #0]
}
 80012e0:	bf00      	nop
 80012e2:	3710      	adds	r7, #16
 80012e4:	46bd      	mov	sp, r7
 80012e6:	bd80      	pop	{r7, pc}

080012e8 <ft5336_TS_GetTouchInfo>:
void ft5336_TS_GetTouchInfo(uint16_t   DeviceAddr,
                            uint32_t   touchIdx,
                            uint32_t * pWeight,
                            uint32_t * pArea,
                            uint32_t * pEvent)
{
 80012e8:	b580      	push	{r7, lr}
 80012ea:	b086      	sub	sp, #24
 80012ec:	af00      	add	r7, sp, #0
 80012ee:	60b9      	str	r1, [r7, #8]
 80012f0:	607a      	str	r2, [r7, #4]
 80012f2:	603b      	str	r3, [r7, #0]
 80012f4:	4603      	mov	r3, r0
 80012f6:	81fb      	strh	r3, [r7, #14]
  volatile uint8_t ucReadData = 0;
 80012f8:	2300      	movs	r3, #0
 80012fa:	753b      	strb	r3, [r7, #20]
  uint8_t regAddressXHigh = 0;
 80012fc:	2300      	movs	r3, #0
 80012fe:	75fb      	strb	r3, [r7, #23]
  uint8_t regAddressPWeight = 0;
 8001300:	2300      	movs	r3, #0
 8001302:	75bb      	strb	r3, [r7, #22]
  uint8_t regAddressPMisc = 0;
 8001304:	2300      	movs	r3, #0
 8001306:	757b      	strb	r3, [r7, #21]

  if(touchIdx < ft5336_handle.currActiveTouchNb)
 8001308:	4b4d      	ldr	r3, [pc, #308]	; (8001440 <ft5336_TS_GetTouchInfo+0x158>)
 800130a:	785b      	ldrb	r3, [r3, #1]
 800130c:	461a      	mov	r2, r3
 800130e:	68bb      	ldr	r3, [r7, #8]
 8001310:	4293      	cmp	r3, r2
 8001312:	f080 8090 	bcs.w	8001436 <ft5336_TS_GetTouchInfo+0x14e>
  {
    switch(touchIdx)
 8001316:	68bb      	ldr	r3, [r7, #8]
 8001318:	2b09      	cmp	r3, #9
 800131a:	d85d      	bhi.n	80013d8 <ft5336_TS_GetTouchInfo+0xf0>
 800131c:	a201      	add	r2, pc, #4	; (adr r2, 8001324 <ft5336_TS_GetTouchInfo+0x3c>)
 800131e:	f852 f023 	ldr.w	pc, [r2, r3, lsl #2]
 8001322:	bf00      	nop
 8001324:	0800134d 	.word	0x0800134d
 8001328:	0800135b 	.word	0x0800135b
 800132c:	08001369 	.word	0x08001369
 8001330:	08001377 	.word	0x08001377
 8001334:	08001385 	.word	0x08001385
 8001338:	08001393 	.word	0x08001393
 800133c:	080013a1 	.word	0x080013a1
 8001340:	080013af 	.word	0x080013af
 8001344:	080013bd 	.word	0x080013bd
 8001348:	080013cb 	.word	0x080013cb
    {
    case 0 :
      regAddressXHigh   = FT5336_P1_XH_REG;
 800134c:	2303      	movs	r3, #3
 800134e:	75fb      	strb	r3, [r7, #23]
      regAddressPWeight = FT5336_P1_WEIGHT_REG;
 8001350:	2307      	movs	r3, #7
 8001352:	75bb      	strb	r3, [r7, #22]
      regAddressPMisc   = FT5336_P1_MISC_REG;
 8001354:	2308      	movs	r3, #8
 8001356:	757b      	strb	r3, [r7, #21]
      break;
 8001358:	e03f      	b.n	80013da <ft5336_TS_GetTouchInfo+0xf2>

    case 1 :
      regAddressXHigh   = FT5336_P2_XH_REG;
 800135a:	2309      	movs	r3, #9
 800135c:	75fb      	strb	r3, [r7, #23]
      regAddressPWeight = FT5336_P2_WEIGHT_REG;
 800135e:	230d      	movs	r3, #13
 8001360:	75bb      	strb	r3, [r7, #22]
      regAddressPMisc   = FT5336_P2_MISC_REG;
 8001362:	230e      	movs	r3, #14
 8001364:	757b      	strb	r3, [r7, #21]
      break;
 8001366:	e038      	b.n	80013da <ft5336_TS_GetTouchInfo+0xf2>

    case 2 :
      regAddressXHigh   = FT5336_P3_XH_REG;
 8001368:	230f      	movs	r3, #15
 800136a:	75fb      	strb	r3, [r7, #23]
      regAddressPWeight = FT5336_P3_WEIGHT_REG;
 800136c:	2313      	movs	r3, #19
 800136e:	75bb      	strb	r3, [r7, #22]
      regAddressPMisc   = FT5336_P3_MISC_REG;
 8001370:	2314      	movs	r3, #20
 8001372:	757b      	strb	r3, [r7, #21]
      break;
 8001374:	e031      	b.n	80013da <ft5336_TS_GetTouchInfo+0xf2>

    case 3 :
      regAddressXHigh   = FT5336_P4_XH_REG;
 8001376:	2315      	movs	r3, #21
 8001378:	75fb      	strb	r3, [r7, #23]
      regAddressPWeight = FT5336_P4_WEIGHT_REG;
 800137a:	2319      	movs	r3, #25
 800137c:	75bb      	strb	r3, [r7, #22]
      regAddressPMisc   = FT5336_P4_MISC_REG;
 800137e:	231a      	movs	r3, #26
 8001380:	757b      	strb	r3, [r7, #21]
      break;
 8001382:	e02a      	b.n	80013da <ft5336_TS_GetTouchInfo+0xf2>

    case 4 :
      regAddressXHigh   = FT5336_P5_XH_REG;
 8001384:	231b      	movs	r3, #27
 8001386:	75fb      	strb	r3, [r7, #23]
      regAddressPWeight = FT5336_P5_WEIGHT_REG;
 8001388:	231f      	movs	r3, #31
 800138a:	75bb      	strb	r3, [r7, #22]
      regAddressPMisc   = FT5336_P5_MISC_REG;
 800138c:	2320      	movs	r3, #32
 800138e:	757b      	strb	r3, [r7, #21]
      break;
 8001390:	e023      	b.n	80013da <ft5336_TS_GetTouchInfo+0xf2>

    case 5 :
      regAddressXHigh   = FT5336_P6_XH_REG;
 8001392:	2321      	movs	r3, #33	; 0x21
 8001394:	75fb      	strb	r3, [r7, #23]
      regAddressPWeight = FT5336_P6_WEIGHT_REG;
 8001396:	2325      	movs	r3, #37	; 0x25
 8001398:	75bb      	strb	r3, [r7, #22]
      regAddressPMisc   = FT5336_P6_MISC_REG;
 800139a:	2326      	movs	r3, #38	; 0x26
 800139c:	757b      	strb	r3, [r7, #21]
      break;
 800139e:	e01c      	b.n	80013da <ft5336_TS_GetTouchInfo+0xf2>

    case 6 :
      regAddressXHigh   = FT5336_P7_XH_REG;
 80013a0:	2327      	movs	r3, #39	; 0x27
 80013a2:	75fb      	strb	r3, [r7, #23]
      regAddressPWeight = FT5336_P7_WEIGHT_REG;
 80013a4:	232b      	movs	r3, #43	; 0x2b
 80013a6:	75bb      	strb	r3, [r7, #22]
      regAddressPMisc   = FT5336_P7_MISC_REG;
 80013a8:	232c      	movs	r3, #44	; 0x2c
 80013aa:	757b      	strb	r3, [r7, #21]
      break;
 80013ac:	e015      	b.n	80013da <ft5336_TS_GetTouchInfo+0xf2>

    case 7 :
      regAddressXHigh   = FT5336_P8_XH_REG;
 80013ae:	232d      	movs	r3, #45	; 0x2d
 80013b0:	75fb      	strb	r3, [r7, #23]
      regAddressPWeight = FT5336_P8_WEIGHT_REG;
 80013b2:	2331      	movs	r3, #49	; 0x31
 80013b4:	75bb      	strb	r3, [r7, #22]
      regAddressPMisc   = FT5336_P8_MISC_REG;
 80013b6:	2332      	movs	r3, #50	; 0x32
 80013b8:	757b      	strb	r3, [r7, #21]
      break;
 80013ba:	e00e      	b.n	80013da <ft5336_TS_GetTouchInfo+0xf2>

    case 8 :
      regAddressXHigh   = FT5336_P9_XH_REG;
 80013bc:	2333      	movs	r3, #51	; 0x33
 80013be:	75fb      	strb	r3, [r7, #23]
      regAddressPWeight = FT5336_P9_WEIGHT_REG;
 80013c0:	2337      	movs	r3, #55	; 0x37
 80013c2:	75bb      	strb	r3, [r7, #22]
      regAddressPMisc   = FT5336_P9_MISC_REG;
 80013c4:	2338      	movs	r3, #56	; 0x38
 80013c6:	757b      	strb	r3, [r7, #21]
      break;
 80013c8:	e007      	b.n	80013da <ft5336_TS_GetTouchInfo+0xf2>

    case 9 :
      regAddressXHigh   = FT5336_P10_XH_REG;
 80013ca:	2339      	movs	r3, #57	; 0x39
 80013cc:	75fb      	strb	r3, [r7, #23]
      regAddressPWeight = FT5336_P10_WEIGHT_REG;
 80013ce:	233d      	movs	r3, #61	; 0x3d
 80013d0:	75bb      	strb	r3, [r7, #22]
      regAddressPMisc   = FT5336_P10_MISC_REG;
 80013d2:	233e      	movs	r3, #62	; 0x3e
 80013d4:	757b      	strb	r3, [r7, #21]
      break;
 80013d6:	e000      	b.n	80013da <ft5336_TS_GetTouchInfo+0xf2>

    default :
      break;
 80013d8:	bf00      	nop

    } /* end switch(touchIdx) */

    /* Read Event Id of touch index */
    ucReadData = TS_IO_Read(DeviceAddr, regAddressXHigh);
 80013da:	89fb      	ldrh	r3, [r7, #14]
 80013dc:	b2db      	uxtb	r3, r3
 80013de:	7dfa      	ldrb	r2, [r7, #23]
 80013e0:	4611      	mov	r1, r2
 80013e2:	4618      	mov	r0, r3
 80013e4:	f002 fa8c 	bl	8003900 <TS_IO_Read>
 80013e8:	4603      	mov	r3, r0
 80013ea:	753b      	strb	r3, [r7, #20]
    * pEvent = (ucReadData & FT5336_TOUCH_EVT_FLAG_MASK) >> FT5336_TOUCH_EVT_FLAG_SHIFT;
 80013ec:	7d3b      	ldrb	r3, [r7, #20]
 80013ee:	b2db      	uxtb	r3, r3
 80013f0:	119b      	asrs	r3, r3, #6
 80013f2:	f003 0203 	and.w	r2, r3, #3
 80013f6:	6a3b      	ldr	r3, [r7, #32]
 80013f8:	601a      	str	r2, [r3, #0]

    /* Read weight of touch index */
    ucReadData = TS_IO_Read(DeviceAddr, regAddressPWeight);
 80013fa:	89fb      	ldrh	r3, [r7, #14]
 80013fc:	b2db      	uxtb	r3, r3
 80013fe:	7dba      	ldrb	r2, [r7, #22]
 8001400:	4611      	mov	r1, r2
 8001402:	4618      	mov	r0, r3
 8001404:	f002 fa7c 	bl	8003900 <TS_IO_Read>
 8001408:	4603      	mov	r3, r0
 800140a:	753b      	strb	r3, [r7, #20]
    * pWeight = (ucReadData & FT5336_TOUCH_WEIGHT_MASK) >> FT5336_TOUCH_WEIGHT_SHIFT;
 800140c:	7d3b      	ldrb	r3, [r7, #20]
 800140e:	b2db      	uxtb	r3, r3
 8001410:	461a      	mov	r2, r3
 8001412:	687b      	ldr	r3, [r7, #4]
 8001414:	601a      	str	r2, [r3, #0]

    /* Read area of touch index */
    ucReadData = TS_IO_Read(DeviceAddr, regAddressPMisc);
 8001416:	89fb      	ldrh	r3, [r7, #14]
 8001418:	b2db      	uxtb	r3, r3
 800141a:	7d7a      	ldrb	r2, [r7, #21]
 800141c:	4611      	mov	r1, r2
 800141e:	4618      	mov	r0, r3
 8001420:	f002 fa6e 	bl	8003900 <TS_IO_Read>
 8001424:	4603      	mov	r3, r0
 8001426:	753b      	strb	r3, [r7, #20]
    * pArea = (ucReadData & FT5336_TOUCH_AREA_MASK) >> FT5336_TOUCH_AREA_SHIFT;
 8001428:	7d3b      	ldrb	r3, [r7, #20]
 800142a:	b2db      	uxtb	r3, r3
 800142c:	111b      	asrs	r3, r3, #4
 800142e:	f003 0204 	and.w	r2, r3, #4
 8001432:	683b      	ldr	r3, [r7, #0]
 8001434:	601a      	str	r2, [r3, #0]

  } /* of if(touchIdx < ft5336_handle.currActiveTouchNb) */
}
 8001436:	bf00      	nop
 8001438:	3718      	adds	r7, #24
 800143a:	46bd      	mov	sp, r7
 800143c:	bd80      	pop	{r7, pc}
 800143e:	bf00      	nop
 8001440:	20000328 	.word	0x20000328

08001444 <ft5336_Get_I2C_InitializedStatus>:
  * @brief  Return the status of I2C was initialized or not.
  * @param  None.
  * @retval : I2C initialization status.
  */
static uint8_t ft5336_Get_I2C_InitializedStatus(void)
{
 8001444:	b480      	push	{r7}
 8001446:	af00      	add	r7, sp, #0
  return(ft5336_handle.i2cInitialized);
 8001448:	4b03      	ldr	r3, [pc, #12]	; (8001458 <ft5336_Get_I2C_InitializedStatus+0x14>)
 800144a:	781b      	ldrb	r3, [r3, #0]
}
 800144c:	4618      	mov	r0, r3
 800144e:	46bd      	mov	sp, r7
 8001450:	f85d 7b04 	ldr.w	r7, [sp], #4
 8001454:	4770      	bx	lr
 8001456:	bf00      	nop
 8001458:	20000328 	.word	0x20000328

0800145c <ft5336_I2C_InitializeIfRequired>:
  * @brief  I2C initialize if needed.
  * @param  None.
  * @retval : None.
  */
static void ft5336_I2C_InitializeIfRequired(void)
{
 800145c:	b580      	push	{r7, lr}
 800145e:	af00      	add	r7, sp, #0
  if(ft5336_Get_I2C_InitializedStatus() == FT5336_I2C_NOT_INITIALIZED)
 8001460:	f7ff fff0 	bl	8001444 <ft5336_Get_I2C_InitializedStatus>
 8001464:	4603      	mov	r3, r0
 8001466:	2b00      	cmp	r3, #0
 8001468:	d104      	bne.n	8001474 <ft5336_I2C_InitializeIfRequired+0x18>
  {
    /* Initialize TS IO BUS layer (I2C) */
    TS_IO_Init();
 800146a:	f002 fa25 	bl	80038b8 <TS_IO_Init>

    /* Set state to initialized */
    ft5336_handle.i2cInitialized = FT5336_I2C_INITIALIZED;
 800146e:	4b02      	ldr	r3, [pc, #8]	; (8001478 <ft5336_I2C_InitializeIfRequired+0x1c>)
 8001470:	2201      	movs	r2, #1
 8001472:	701a      	strb	r2, [r3, #0]
  }
}
 8001474:	bf00      	nop
 8001476:	bd80      	pop	{r7, pc}
 8001478:	20000328 	.word	0x20000328

0800147c <ft5336_TS_Configure>:
  * @brief  Basic static configuration of TouchScreen
  * @param  DeviceAddr: FT5336 Device address for communication on I2C Bus.
  * @retval Status FT5336_STATUS_OK or FT5336_STATUS_NOT_OK.
  */
static uint32_t ft5336_TS_Configure(uint16_t DeviceAddr)
{
 800147c:	b480      	push	{r7}
 800147e:	b085      	sub	sp, #20
 8001480:	af00      	add	r7, sp, #0
 8001482:	4603      	mov	r3, r0
 8001484:	80fb      	strh	r3, [r7, #6]
  uint32_t status = FT5336_STATUS_OK;
 8001486:	2300      	movs	r3, #0
 8001488:	60fb      	str	r3, [r7, #12]

  /* Nothing special to be done for FT5336 */

  return(status);
 800148a:	68fb      	ldr	r3, [r7, #12]
}
 800148c:	4618      	mov	r0, r3
 800148e:	3714      	adds	r7, #20
 8001490:	46bd      	mov	sp, r7
 8001492:	f85d 7b04 	ldr.w	r7, [sp], #4
 8001496:	4770      	bx	lr

08001498 <main>:
/**
  * @brief  The application entry point.
  * @retval int
  */
int main(void)
{
 8001498:	b5b0      	push	{r4, r5, r7, lr}
 800149a:	b0c0      	sub	sp, #256	; 0x100
 800149c:	af02      	add	r7, sp, #8
  /* USER CODE BEGIN 1 */
	int BP1 = 0;
 800149e:	2300      	movs	r3, #0
 80014a0:	f8c7 30e4 	str.w	r3, [r7, #228]	; 0xe4
	int etatBP =0;
 80014a4:	2300      	movs	r3, #0
 80014a6:	f8c7 30f4 	str.w	r3, [r7, #244]	; 0xf4
	int x = 565/2;int y = 285/2;
 80014aa:	f44f 738d 	mov.w	r3, #282	; 0x11a
 80014ae:	f8c7 30f0 	str.w	r3, [r7, #240]	; 0xf0
 80014b2:	238e      	movs	r3, #142	; 0x8e
 80014b4:	f8c7 30ec 	str.w	r3, [r7, #236]	; 0xec
	int couleur=0;
 80014b8:	2300      	movs	r3, #0
 80014ba:	f8c7 30e8 	str.w	r3, [r7, #232]	; 0xe8
	char touche;
	char text[50]={};
 80014be:	f107 03a0 	add.w	r3, r7, #160	; 0xa0
 80014c2:	2232      	movs	r2, #50	; 0x32
 80014c4:	2100      	movs	r1, #0
 80014c6:	4618      	mov	r0, r3
 80014c8:	f00d fec9 	bl	800f25e <memset>
	static TS_StateTypeDef  TS_State;
	uint32_t potl,potr,joystick_h, joystick_v;
	ADC_ChannelConfTypeDef sConfig = {0};
 80014cc:	f107 0390 	add.w	r3, r7, #144	; 0x90
 80014d0:	2200      	movs	r2, #0
 80014d2:	601a      	str	r2, [r3, #0]
 80014d4:	605a      	str	r2, [r3, #4]
 80014d6:	609a      	str	r2, [r3, #8]
 80014d8:	60da      	str	r2, [r3, #12]
	sConfig.Rank = ADC_REGULAR_RANK_1;
 80014da:	2301      	movs	r3, #1
 80014dc:	f8c7 3094 	str.w	r3, [r7, #148]	; 0x94
	sConfig.SamplingTime = ADC_SAMPLETIME_3CYCLES;
 80014e0:	2300      	movs	r3, #0
 80014e2:	f8c7 3098 	str.w	r3, [r7, #152]	; 0x98
  /* USER CODE END 1 */

  /* MCU Configuration--------------------------------------------------------*/

  /* Reset of all peripherals, Initializes the Flash interface and the Systick. */
  HAL_Init();
 80014e6:	f004 fce2 	bl	8005eae <HAL_Init>
  /* USER CODE BEGIN Init */

  /* USER CODE END Init */

  /* Configure the system clock */
  SystemClock_Config();
 80014ea:	f000 fab7 	bl	8001a5c <SystemClock_Config>
  /* USER CODE BEGIN SysInit */

  /* USER CODE END SysInit */

  /* Initialize all configured peripherals */
  MX_GPIO_Init();
 80014ee:	f001 f951 	bl	8002794 <MX_GPIO_Init>
  MX_ADC3_Init();
 80014f2:	f000 fbb5 	bl	8001c60 <MX_ADC3_Init>
  MX_I2C1_Init();
 80014f6:	f000 fc61 	bl	8001dbc <MX_I2C1_Init>
  MX_I2C3_Init();
 80014fa:	f000 fc9f 	bl	8001e3c <MX_I2C3_Init>
  MX_LTDC_Init();
 80014fe:	f000 fcdd 	bl	8001ebc <MX_LTDC_Init>
  MX_RTC_Init();
 8001502:	f000 fd5d 	bl	8001fc0 <MX_RTC_Init>
  MX_SPI2_Init();
 8001506:	f000 fe01 	bl	800210c <MX_SPI2_Init>
  MX_TIM1_Init();
 800150a:	f000 fe3d 	bl	8002188 <MX_TIM1_Init>
  MX_TIM2_Init();
 800150e:	f000 fe8f 	bl	8002230 <MX_TIM2_Init>
  MX_TIM3_Init();
 8001512:	f000 fedb 	bl	80022cc <MX_TIM3_Init>
  MX_TIM5_Init();
 8001516:	f000 ff67 	bl	80023e8 <MX_TIM5_Init>
  MX_TIM8_Init();
 800151a:	f000 ffb3 	bl	8002484 <MX_TIM8_Init>
  MX_USART1_UART_Init();
 800151e:	f001 f88b 	bl	8002638 <MX_USART1_UART_Init>
  MX_USART6_UART_Init();
 8001522:	f001 f8b9 	bl	8002698 <MX_USART6_UART_Init>
  MX_ADC1_Init();
 8001526:	f000 fb49 	bl	8001bbc <MX_ADC1_Init>
  MX_DAC_Init();
 800152a:	f000 fbeb 	bl	8001d04 <MX_DAC_Init>
  MX_UART7_Init();
 800152e:	f001 f853 	bl	80025d8 <MX_UART7_Init>
  MX_FMC_Init();
 8001532:	f001 f8e1 	bl	80026f8 <MX_FMC_Init>
  MX_DMA2D_Init();
 8001536:	f000 fc0f 	bl	8001d58 <MX_DMA2D_Init>
  /* USER CODE BEGIN 2 */
  BSP_LCD_Init();
 800153a:	f002 fa0b 	bl	8003954 <BSP_LCD_Init>
  BSP_LCD_LayerDefaultInit(0, LCD_FB_START_ADDRESS);
 800153e:	f04f 4140 	mov.w	r1, #3221225472	; 0xc0000000
 8001542:	2000      	movs	r0, #0
 8001544:	f002 fa9e 	bl	8003a84 <BSP_LCD_LayerDefaultInit>
  BSP_LCD_LayerDefaultInit(1, LCD_FB_START_ADDRESS+ BSP_LCD_GetXSize()*BSP_LCD_GetYSize()*4);
 8001548:	f002 fa74 	bl	8003a34 <BSP_LCD_GetXSize>
 800154c:	4604      	mov	r4, r0
 800154e:	f002 fa85 	bl	8003a5c <BSP_LCD_GetYSize>
 8001552:	4603      	mov	r3, r0
 8001554:	fb03 f304 	mul.w	r3, r3, r4
 8001558:	f103 5340 	add.w	r3, r3, #805306368	; 0x30000000
 800155c:	009b      	lsls	r3, r3, #2
 800155e:	4619      	mov	r1, r3
 8001560:	2001      	movs	r0, #1
 8001562:	f002 fa8f 	bl	8003a84 <BSP_LCD_LayerDefaultInit>
  BSP_LCD_DisplayOn();
 8001566:	f003 f823 	bl	80045b0 <BSP_LCD_DisplayOn>
  BSP_LCD_SelectLayer(1);
 800156a:	2001      	movs	r0, #1
 800156c:	f002 faea 	bl	8003b44 <BSP_LCD_SelectLayer>
  BSP_LCD_Clear(LCD_COLOR_RED);
 8001570:	4873      	ldr	r0, [pc, #460]	; (8001740 <main+0x2a8>)
 8001572:	f002 fb59 	bl	8003c28 <BSP_LCD_Clear>
  BSP_LCD_SetFont(&Font12);
 8001576:	4873      	ldr	r0, [pc, #460]	; (8001744 <main+0x2ac>)
 8001578:	f002 fb26 	bl	8003bc8 <BSP_LCD_SetFont>
  BSP_LCD_SetTextColor(LCD_COLOR_WHITE);
 800157c:	f04f 30ff 	mov.w	r0, #4294967295
 8001580:	f002 faf0 	bl	8003b64 <BSP_LCD_SetTextColor>
  BSP_LCD_SetBackColor(LCD_COLOR_RED);
 8001584:	486e      	ldr	r0, [pc, #440]	; (8001740 <main+0x2a8>)
 8001586:	f002 fb05 	bl	8003b94 <BSP_LCD_SetBackColor>

  BSP_TS_Init(BSP_LCD_GetXSize(), BSP_LCD_GetYSize());
 800158a:	f002 fa53 	bl	8003a34 <BSP_LCD_GetXSize>
 800158e:	4603      	mov	r3, r0
 8001590:	b29c      	uxth	r4, r3
 8001592:	f002 fa63 	bl	8003a5c <BSP_LCD_GetYSize>
 8001596:	4603      	mov	r3, r0
 8001598:	b29b      	uxth	r3, r3
 800159a:	4619      	mov	r1, r3
 800159c:	4620      	mov	r0, r4
 800159e:	f003 fbd5 	bl	8004d4c <BSP_TS_Init>
  //HAL_UART_Receive_IT(&huart1,rxbuffer,1);
  HAL_UART_Receive_IT(&huart7,rxbuffer,8);
 80015a2:	2208      	movs	r2, #8
 80015a4:	4968      	ldr	r1, [pc, #416]	; (8001748 <main+0x2b0>)
 80015a6:	4869      	ldr	r0, [pc, #420]	; (800174c <main+0x2b4>)
 80015a8:	f00a fb40 	bl	800bc2c <HAL_UART_Receive_IT>
  /* start timers, add new ones, ... */
  /* USER CODE END RTOS_TIMERS */

  /* Create the queue(s) */
  /* definition and creation of LancerCalcul */
  osMessageQDef(LancerCalcul, 1, uint64_t);
 80015ac:	4b68      	ldr	r3, [pc, #416]	; (8001750 <main+0x2b8>)
 80015ae:	f107 0480 	add.w	r4, r7, #128	; 0x80
 80015b2:	cb0f      	ldmia	r3, {r0, r1, r2, r3}
 80015b4:	e884 000f 	stmia.w	r4, {r0, r1, r2, r3}
  LancerCalculHandle = osMessageCreate(osMessageQ(LancerCalcul), NULL);
 80015b8:	f107 0380 	add.w	r3, r7, #128	; 0x80
 80015bc:	2100      	movs	r1, #0
 80015be:	4618      	mov	r0, r3
 80015c0:	f00b fc23 	bl	800ce0a <osMessageCreate>
 80015c4:	4602      	mov	r2, r0
 80015c6:	4b63      	ldr	r3, [pc, #396]	; (8001754 <main+0x2bc>)
 80015c8:	601a      	str	r2, [r3, #0]

  /* definition and creation of QueueComm */
  osMessageQDef(QueueComm, 1, uint32_t);
 80015ca:	4b63      	ldr	r3, [pc, #396]	; (8001758 <main+0x2c0>)
 80015cc:	f107 0470 	add.w	r4, r7, #112	; 0x70
 80015d0:	cb0f      	ldmia	r3, {r0, r1, r2, r3}
 80015d2:	e884 000f 	stmia.w	r4, {r0, r1, r2, r3}
  QueueCommHandle = osMessageCreate(osMessageQ(QueueComm), NULL);
 80015d6:	f107 0370 	add.w	r3, r7, #112	; 0x70
 80015da:	2100      	movs	r1, #0
 80015dc:	4618      	mov	r0, r3
 80015de:	f00b fc14 	bl	800ce0a <osMessageCreate>
 80015e2:	4602      	mov	r2, r0
 80015e4:	4b5d      	ldr	r3, [pc, #372]	; (800175c <main+0x2c4>)
 80015e6:	601a      	str	r2, [r3, #0]
  /* add queues, ... */
  /* USER CODE END RTOS_QUEUES */

  /* Create the thread(s) */
  /* definition and creation of defaultTask */
  osThreadDef(defaultTask, StartDefaultTask, osPriorityNormal, 0, 4096);
 80015e8:	4b5d      	ldr	r3, [pc, #372]	; (8001760 <main+0x2c8>)
 80015ea:	f107 0454 	add.w	r4, r7, #84	; 0x54
 80015ee:	461d      	mov	r5, r3
 80015f0:	cd0f      	ldmia	r5!, {r0, r1, r2, r3}
 80015f2:	c40f      	stmia	r4!, {r0, r1, r2, r3}
 80015f4:	e895 0007 	ldmia.w	r5, {r0, r1, r2}
 80015f8:	e884 0007 	stmia.w	r4, {r0, r1, r2}
  defaultTaskHandle = osThreadCreate(osThread(defaultTask), NULL);
 80015fc:	f107 0354 	add.w	r3, r7, #84	; 0x54
 8001600:	2100      	movs	r1, #0
 8001602:	4618      	mov	r0, r3
 8001604:	f00b fba1 	bl	800cd4a <osThreadCreate>
 8001608:	4602      	mov	r2, r0
 800160a:	4b56      	ldr	r3, [pc, #344]	; (8001764 <main+0x2cc>)
 800160c:	601a      	str	r2, [r3, #0]

  /* definition and creation of Comm */
  osThreadDef(Comm, TaskComm, osPriorityHigh, 0, 128);
 800160e:	4b56      	ldr	r3, [pc, #344]	; (8001768 <main+0x2d0>)
 8001610:	f107 0438 	add.w	r4, r7, #56	; 0x38
 8001614:	461d      	mov	r5, r3
 8001616:	cd0f      	ldmia	r5!, {r0, r1, r2, r3}
 8001618:	c40f      	stmia	r4!, {r0, r1, r2, r3}
 800161a:	e895 0007 	ldmia.w	r5, {r0, r1, r2}
 800161e:	e884 0007 	stmia.w	r4, {r0, r1, r2}
  CommHandle = osThreadCreate(osThread(Comm), NULL);
 8001622:	f107 0338 	add.w	r3, r7, #56	; 0x38
 8001626:	2100      	movs	r1, #0
 8001628:	4618      	mov	r0, r3
 800162a:	f00b fb8e 	bl	800cd4a <osThreadCreate>
 800162e:	4602      	mov	r2, r0
 8001630:	4b4e      	ldr	r3, [pc, #312]	; (800176c <main+0x2d4>)
 8001632:	601a      	str	r2, [r3, #0]

  /* definition and creation of CalcEtAffich */
  osThreadDef(CalcEtAffich, TaskCalcEtAffich, osPriorityNormal, 0, 1024);
 8001634:	4b4e      	ldr	r3, [pc, #312]	; (8001770 <main+0x2d8>)
 8001636:	f107 041c 	add.w	r4, r7, #28
 800163a:	461d      	mov	r5, r3
 800163c:	cd0f      	ldmia	r5!, {r0, r1, r2, r3}
 800163e:	c40f      	stmia	r4!, {r0, r1, r2, r3}
 8001640:	e895 0007 	ldmia.w	r5, {r0, r1, r2}
 8001644:	e884 0007 	stmia.w	r4, {r0, r1, r2}
  CalcEtAffichHandle = osThreadCreate(osThread(CalcEtAffich), NULL);
 8001648:	f107 031c 	add.w	r3, r7, #28
 800164c:	2100      	movs	r1, #0
 800164e:	4618      	mov	r0, r3
 8001650:	f00b fb7b 	bl	800cd4a <osThreadCreate>
 8001654:	4602      	mov	r2, r0
 8001656:	4b47      	ldr	r3, [pc, #284]	; (8001774 <main+0x2dc>)
 8001658:	601a      	str	r2, [r3, #0]

  /* definition and creation of LancerBalle */
  osThreadDef(LancerBalle, TaskLancerBalle, osPriorityAboveNormal, 0, 1024);
 800165a:	4b47      	ldr	r3, [pc, #284]	; (8001778 <main+0x2e0>)
 800165c:	463c      	mov	r4, r7
 800165e:	461d      	mov	r5, r3
 8001660:	cd0f      	ldmia	r5!, {r0, r1, r2, r3}
 8001662:	c40f      	stmia	r4!, {r0, r1, r2, r3}
 8001664:	e895 0007 	ldmia.w	r5, {r0, r1, r2}
 8001668:	e884 0007 	stmia.w	r4, {r0, r1, r2}
  LancerBalleHandle = osThreadCreate(osThread(LancerBalle), NULL);
 800166c:	463b      	mov	r3, r7
 800166e:	2100      	movs	r1, #0
 8001670:	4618      	mov	r0, r3
 8001672:	f00b fb6a 	bl	800cd4a <osThreadCreate>
 8001676:	4602      	mov	r2, r0
 8001678:	4b40      	ldr	r3, [pc, #256]	; (800177c <main+0x2e4>)
 800167a:	601a      	str	r2, [r3, #0]
  /* USER CODE BEGIN RTOS_THREADS */
  /* add threads, ... */
  /* USER CODE END RTOS_THREADS */

  /* Start scheduler */
  osKernelStart();
 800167c:	f00b fb5e 	bl	800cd3c <osKernelStart>
  /* We should never get here as control is now taken by the scheduler */
  /* Infinite loop */
  /* USER CODE BEGIN WHILE */
  while (1)
  {
	  BP1 = HAL_GPIO_ReadPin(BP1_GPIO_Port,BP1_Pin);
 8001680:	f44f 7180 	mov.w	r1, #256	; 0x100
 8001684:	483e      	ldr	r0, [pc, #248]	; (8001780 <main+0x2e8>)
 8001686:	f006 f909 	bl	800789c <HAL_GPIO_ReadPin>
 800168a:	4603      	mov	r3, r0
 800168c:	f8c7 30e4 	str.w	r3, [r7, #228]	; 0xe4

	  if((BP1 == 0)&& (etatBP == 1)){
 8001690:	f8d7 30e4 	ldr.w	r3, [r7, #228]	; 0xe4
 8001694:	2b00      	cmp	r3, #0
 8001696:	f040 8082 	bne.w	800179e <main+0x306>
 800169a:	f8d7 30f4 	ldr.w	r3, [r7, #244]	; 0xf4
 800169e:	2b01      	cmp	r3, #1
 80016a0:	d17d      	bne.n	800179e <main+0x306>
		  couleur++;
 80016a2:	f8d7 30e8 	ldr.w	r3, [r7, #232]	; 0xe8
 80016a6:	3301      	adds	r3, #1
 80016a8:	f8c7 30e8 	str.w	r3, [r7, #232]	; 0xe8
		  couleur = couleur%6;
 80016ac:	f8d7 20e8 	ldr.w	r2, [r7, #232]	; 0xe8
 80016b0:	4b34      	ldr	r3, [pc, #208]	; (8001784 <main+0x2ec>)
 80016b2:	fb83 3102 	smull	r3, r1, r3, r2
 80016b6:	17d3      	asrs	r3, r2, #31
 80016b8:	1ac9      	subs	r1, r1, r3
 80016ba:	460b      	mov	r3, r1
 80016bc:	005b      	lsls	r3, r3, #1
 80016be:	440b      	add	r3, r1
 80016c0:	005b      	lsls	r3, r3, #1
 80016c2:	1ad3      	subs	r3, r2, r3
 80016c4:	f8c7 30e8 	str.w	r3, [r7, #232]	; 0xe8
		  switch(couleur){
 80016c8:	f8d7 30e8 	ldr.w	r3, [r7, #232]	; 0xe8
 80016cc:	2b05      	cmp	r3, #5
 80016ce:	d866      	bhi.n	800179e <main+0x306>
 80016d0:	a201      	add	r2, pc, #4	; (adr r2, 80016d8 <main+0x240>)
 80016d2:	f852 f023 	ldr.w	pc, [r2, r3, lsl #2]
 80016d6:	bf00      	nop
 80016d8:	080016f1 	.word	0x080016f1
 80016dc:	080016ff 	.word	0x080016ff
 80016e0:	0800170d 	.word	0x0800170d
 80016e4:	0800171f 	.word	0x0800171f
 80016e8:	08001731 	.word	0x08001731
 80016ec:	08001791 	.word	0x08001791
		  	  case 0:BSP_LCD_Clear(LCD_COLOR_RED);BSP_LCD_SetBackColor(LCD_COLOR_RED);break;
 80016f0:	4813      	ldr	r0, [pc, #76]	; (8001740 <main+0x2a8>)
 80016f2:	f002 fa99 	bl	8003c28 <BSP_LCD_Clear>
 80016f6:	4812      	ldr	r0, [pc, #72]	; (8001740 <main+0x2a8>)
 80016f8:	f002 fa4c 	bl	8003b94 <BSP_LCD_SetBackColor>
 80016fc:	e04f      	b.n	800179e <main+0x306>
		  	  case 1:BSP_LCD_Clear(LCD_COLOR_ORANGE);BSP_LCD_SetBackColor(LCD_COLOR_ORANGE);break;
 80016fe:	4822      	ldr	r0, [pc, #136]	; (8001788 <main+0x2f0>)
 8001700:	f002 fa92 	bl	8003c28 <BSP_LCD_Clear>
 8001704:	4820      	ldr	r0, [pc, #128]	; (8001788 <main+0x2f0>)
 8001706:	f002 fa45 	bl	8003b94 <BSP_LCD_SetBackColor>
 800170a:	e048      	b.n	800179e <main+0x306>
		  	  case 2:BSP_LCD_Clear(LCD_COLOR_YELLOW);BSP_LCD_SetBackColor(LCD_COLOR_YELLOW);break;
 800170c:	f06f 00ff 	mvn.w	r0, #255	; 0xff
 8001710:	f002 fa8a 	bl	8003c28 <BSP_LCD_Clear>
 8001714:	f06f 00ff 	mvn.w	r0, #255	; 0xff
 8001718:	f002 fa3c 	bl	8003b94 <BSP_LCD_SetBackColor>
 800171c:	e03f      	b.n	800179e <main+0x306>
		  	  case 3:BSP_LCD_Clear(LCD_COLOR_GREEN);BSP_LCD_SetBackColor(LCD_COLOR_GREEN);break;
 800171e:	f04f 20ff 	mov.w	r0, #4278255360	; 0xff00ff00
 8001722:	f002 fa81 	bl	8003c28 <BSP_LCD_Clear>
 8001726:	f04f 20ff 	mov.w	r0, #4278255360	; 0xff00ff00
 800172a:	f002 fa33 	bl	8003b94 <BSP_LCD_SetBackColor>
 800172e:	e036      	b.n	800179e <main+0x306>
		  	  case 4:BSP_LCD_Clear(LCD_COLOR_BLUE);BSP_LCD_SetBackColor(LCD_COLOR_BLUE);break;
 8001730:	4816      	ldr	r0, [pc, #88]	; (800178c <main+0x2f4>)
 8001732:	f002 fa79 	bl	8003c28 <BSP_LCD_Clear>
 8001736:	4815      	ldr	r0, [pc, #84]	; (800178c <main+0x2f4>)
 8001738:	f002 fa2c 	bl	8003b94 <BSP_LCD_SetBackColor>
 800173c:	e02f      	b.n	800179e <main+0x306>
 800173e:	bf00      	nop
 8001740:	ff00778b 	.word	0xff00778b
 8001744:	20000034 	.word	0x20000034
 8001748:	20008c58 	.word	0x20008c58
 800174c:	2000875c 	.word	0x2000875c
 8001750:	08010b6c 	.word	0x08010b6c
 8001754:	20008ba0 	.word	0x20008ba0
 8001758:	08010b7c 	.word	0x08010b7c
 800175c:	20008990 	.word	0x20008990
 8001760:	08010b98 	.word	0x08010b98
 8001764:	200086a4 	.word	0x200086a4
 8001768:	08010bbc 	.word	0x08010bbc
 800176c:	20008994 	.word	0x20008994
 8001770:	08010be8 	.word	0x08010be8
 8001774:	20008abc 	.word	0x20008abc
 8001778:	08010c10 	.word	0x08010c10
 800177c:	200086f4 	.word	0x200086f4
 8001780:	40020000 	.word	0x40020000
 8001784:	2aaaaaab 	.word	0x2aaaaaab
 8001788:	ffffa500 	.word	0xffffa500
 800178c:	ff0000ff 	.word	0xff0000ff
		  	  case 5:BSP_LCD_Clear(LCD_COLOR_DARKMAGENTA);BSP_LCD_SetBackColor(LCD_COLOR_DARKMAGENTA);break;
 8001790:	48a7      	ldr	r0, [pc, #668]	; (8001a30 <main+0x598>)
 8001792:	f002 fa49 	bl	8003c28 <BSP_LCD_Clear>
 8001796:	48a6      	ldr	r0, [pc, #664]	; (8001a30 <main+0x598>)
 8001798:	f002 f9fc 	bl	8003b94 <BSP_LCD_SetBackColor>
 800179c:	bf00      	nop
		  }
	  }
	  etatBP = HAL_GPIO_ReadPin(BP1_GPIO_Port,BP1_Pin);
 800179e:	f44f 7180 	mov.w	r1, #256	; 0x100
 80017a2:	48a4      	ldr	r0, [pc, #656]	; (8001a34 <main+0x59c>)
 80017a4:	f006 f87a 	bl	800789c <HAL_GPIO_ReadPin>
 80017a8:	4603      	mov	r3, r0
 80017aa:	f8c7 30f4 	str.w	r3, [r7, #244]	; 0xf4
	  HAL_GPIO_WritePin(LED11_GPIO_Port,LED11_Pin,HAL_GPIO_ReadPin(BP1_GPIO_Port,BP1_Pin));
 80017ae:	f44f 7180 	mov.w	r1, #256	; 0x100
 80017b2:	48a0      	ldr	r0, [pc, #640]	; (8001a34 <main+0x59c>)
 80017b4:	f006 f872 	bl	800789c <HAL_GPIO_ReadPin>
 80017b8:	4603      	mov	r3, r0
 80017ba:	461a      	mov	r2, r3
 80017bc:	f44f 7100 	mov.w	r1, #512	; 0x200
 80017c0:	489d      	ldr	r0, [pc, #628]	; (8001a38 <main+0x5a0>)
 80017c2:	f006 f883 	bl	80078cc <HAL_GPIO_WritePin>
	  HAL_GPIO_WritePin(LED12_GPIO_Port,LED12_Pin,HAL_GPIO_ReadPin(BP2_GPIO_Port,BP2_Pin));
 80017c6:	f44f 4100 	mov.w	r1, #32768	; 0x8000
 80017ca:	489a      	ldr	r0, [pc, #616]	; (8001a34 <main+0x59c>)
 80017cc:	f006 f866 	bl	800789c <HAL_GPIO_ReadPin>
 80017d0:	4603      	mov	r3, r0
 80017d2:	461a      	mov	r2, r3
 80017d4:	f44f 6100 	mov.w	r1, #2048	; 0x800
 80017d8:	4897      	ldr	r0, [pc, #604]	; (8001a38 <main+0x5a0>)
 80017da:	f006 f877 	bl	80078cc <HAL_GPIO_WritePin>
	  HAL_GPIO_WritePin(LED13_GPIO_Port,LED13_Pin,HAL_GPIO_ReadPin(BP1_GPIO_Port,BP1_Pin));
 80017de:	f44f 7180 	mov.w	r1, #256	; 0x100
 80017e2:	4894      	ldr	r0, [pc, #592]	; (8001a34 <main+0x59c>)
 80017e4:	f006 f85a 	bl	800789c <HAL_GPIO_ReadPin>
 80017e8:	4603      	mov	r3, r0
 80017ea:	461a      	mov	r2, r3
 80017ec:	f44f 4180 	mov.w	r1, #16384	; 0x4000
 80017f0:	4891      	ldr	r0, [pc, #580]	; (8001a38 <main+0x5a0>)
 80017f2:	f006 f86b 	bl	80078cc <HAL_GPIO_WritePin>
	  HAL_GPIO_WritePin(LED14_GPIO_Port,LED14_Pin,HAL_GPIO_ReadPin(BP2_GPIO_Port,BP2_Pin));
 80017f6:	f44f 4100 	mov.w	r1, #32768	; 0x8000
 80017fa:	488e      	ldr	r0, [pc, #568]	; (8001a34 <main+0x59c>)
 80017fc:	f006 f84e 	bl	800789c <HAL_GPIO_ReadPin>
 8001800:	4603      	mov	r3, r0
 8001802:	461a      	mov	r2, r3
 8001804:	2120      	movs	r1, #32
 8001806:	488d      	ldr	r0, [pc, #564]	; (8001a3c <main+0x5a4>)
 8001808:	f006 f860 	bl	80078cc <HAL_GPIO_WritePin>
	  HAL_GPIO_WritePin(LED15_GPIO_Port,LED15_Pin,HAL_GPIO_ReadPin(BP1_GPIO_Port,BP1_Pin));
 800180c:	f44f 7180 	mov.w	r1, #256	; 0x100
 8001810:	4888      	ldr	r0, [pc, #544]	; (8001a34 <main+0x59c>)
 8001812:	f006 f843 	bl	800789c <HAL_GPIO_ReadPin>
 8001816:	4603      	mov	r3, r0
 8001818:	461a      	mov	r2, r3
 800181a:	2140      	movs	r1, #64	; 0x40
 800181c:	4887      	ldr	r0, [pc, #540]	; (8001a3c <main+0x5a4>)
 800181e:	f006 f855 	bl	80078cc <HAL_GPIO_WritePin>
	  HAL_GPIO_WritePin(LED16_GPIO_Port,LED16_Pin,HAL_GPIO_ReadPin(BP2_GPIO_Port,BP2_Pin));
 8001822:	f44f 4100 	mov.w	r1, #32768	; 0x8000
 8001826:	4883      	ldr	r0, [pc, #524]	; (8001a34 <main+0x59c>)
 8001828:	f006 f838 	bl	800789c <HAL_GPIO_ReadPin>
 800182c:	4603      	mov	r3, r0
 800182e:	461a      	mov	r2, r3
 8001830:	2108      	movs	r1, #8
 8001832:	4883      	ldr	r0, [pc, #524]	; (8001a40 <main+0x5a8>)
 8001834:	f006 f84a 	bl	80078cc <HAL_GPIO_WritePin>

	  sprintf(text,"BP1 : %d",HAL_GPIO_ReadPin(BP1_GPIO_Port,BP1_Pin));
 8001838:	f44f 7180 	mov.w	r1, #256	; 0x100
 800183c:	487d      	ldr	r0, [pc, #500]	; (8001a34 <main+0x59c>)
 800183e:	f006 f82d 	bl	800789c <HAL_GPIO_ReadPin>
 8001842:	4603      	mov	r3, r0
 8001844:	461a      	mov	r2, r3
 8001846:	f107 03a0 	add.w	r3, r7, #160	; 0xa0
 800184a:	497e      	ldr	r1, [pc, #504]	; (8001a44 <main+0x5ac>)
 800184c:	4618      	mov	r0, r3
 800184e:	f00d fd0f 	bl	800f270 <siprintf>
	  BSP_LCD_DisplayStringAtLine(5,(uint8_t*) text);
 8001852:	f107 03a0 	add.w	r3, r7, #160	; 0xa0
 8001856:	4619      	mov	r1, r3
 8001858:	2005      	movs	r0, #5
 800185a:	f002 fb15 	bl	8003e88 <BSP_LCD_DisplayStringAtLine>

	  sConfig.Channel = ADC_CHANNEL_6;
 800185e:	2306      	movs	r3, #6
 8001860:	f8c7 3090 	str.w	r3, [r7, #144]	; 0x90
	  HAL_ADC_ConfigChannel(&hadc3, &sConfig);
 8001864:	f107 0390 	add.w	r3, r7, #144	; 0x90
 8001868:	4619      	mov	r1, r3
 800186a:	4877      	ldr	r0, [pc, #476]	; (8001a48 <main+0x5b0>)
 800186c:	f004 fd04 	bl	8006278 <HAL_ADC_ConfigChannel>
	  HAL_ADC_Start(&hadc3);
 8001870:	4875      	ldr	r0, [pc, #468]	; (8001a48 <main+0x5b0>)
 8001872:	f004 fbaf 	bl	8005fd4 <HAL_ADC_Start>
	  while(HAL_ADC_PollForConversion(&hadc3, 100)!=HAL_OK);
 8001876:	bf00      	nop
 8001878:	2164      	movs	r1, #100	; 0x64
 800187a:	4873      	ldr	r0, [pc, #460]	; (8001a48 <main+0x5b0>)
 800187c:	f004 fc6a 	bl	8006154 <HAL_ADC_PollForConversion>
 8001880:	4603      	mov	r3, r0
 8001882:	2b00      	cmp	r3, #0
 8001884:	d1f8      	bne.n	8001878 <main+0x3e0>
	  potr = HAL_ADC_GetValue(&hadc3);
 8001886:	4870      	ldr	r0, [pc, #448]	; (8001a48 <main+0x5b0>)
 8001888:	f004 fce8 	bl	800625c <HAL_ADC_GetValue>
 800188c:	f8c7 00e0 	str.w	r0, [r7, #224]	; 0xe0

	  sConfig.Channel = ADC_CHANNEL_7;
 8001890:	2307      	movs	r3, #7
 8001892:	f8c7 3090 	str.w	r3, [r7, #144]	; 0x90
	  HAL_ADC_ConfigChannel(&hadc3, &sConfig);
 8001896:	f107 0390 	add.w	r3, r7, #144	; 0x90
 800189a:	4619      	mov	r1, r3
 800189c:	486a      	ldr	r0, [pc, #424]	; (8001a48 <main+0x5b0>)
 800189e:	f004 fceb 	bl	8006278 <HAL_ADC_ConfigChannel>
	  HAL_ADC_Start(&hadc3);
 80018a2:	4869      	ldr	r0, [pc, #420]	; (8001a48 <main+0x5b0>)
 80018a4:	f004 fb96 	bl	8005fd4 <HAL_ADC_Start>
	  while(HAL_ADC_PollForConversion(&hadc3, 100)!=HAL_OK);
 80018a8:	bf00      	nop
 80018aa:	2164      	movs	r1, #100	; 0x64
 80018ac:	4866      	ldr	r0, [pc, #408]	; (8001a48 <main+0x5b0>)
 80018ae:	f004 fc51 	bl	8006154 <HAL_ADC_PollForConversion>
 80018b2:	4603      	mov	r3, r0
 80018b4:	2b00      	cmp	r3, #0
 80018b6:	d1f8      	bne.n	80018aa <main+0x412>
	  potl = HAL_ADC_GetValue(&hadc3);
 80018b8:	4863      	ldr	r0, [pc, #396]	; (8001a48 <main+0x5b0>)
 80018ba:	f004 fccf 	bl	800625c <HAL_ADC_GetValue>
 80018be:	f8c7 00dc 	str.w	r0, [r7, #220]	; 0xdc

	  sConfig.Channel = ADC_CHANNEL_8;
 80018c2:	2308      	movs	r3, #8
 80018c4:	f8c7 3090 	str.w	r3, [r7, #144]	; 0x90
	  HAL_ADC_ConfigChannel(&hadc3, &sConfig);
 80018c8:	f107 0390 	add.w	r3, r7, #144	; 0x90
 80018cc:	4619      	mov	r1, r3
 80018ce:	485e      	ldr	r0, [pc, #376]	; (8001a48 <main+0x5b0>)
 80018d0:	f004 fcd2 	bl	8006278 <HAL_ADC_ConfigChannel>
	  HAL_ADC_Start(&hadc3);
 80018d4:	485c      	ldr	r0, [pc, #368]	; (8001a48 <main+0x5b0>)
 80018d6:	f004 fb7d 	bl	8005fd4 <HAL_ADC_Start>
	  while(HAL_ADC_PollForConversion(&hadc3, 100)!=HAL_OK);
 80018da:	bf00      	nop
 80018dc:	2164      	movs	r1, #100	; 0x64
 80018de:	485a      	ldr	r0, [pc, #360]	; (8001a48 <main+0x5b0>)
 80018e0:	f004 fc38 	bl	8006154 <HAL_ADC_PollForConversion>
 80018e4:	4603      	mov	r3, r0
 80018e6:	2b00      	cmp	r3, #0
 80018e8:	d1f8      	bne.n	80018dc <main+0x444>
	  joystick_v = HAL_ADC_GetValue(&hadc3);
 80018ea:	4857      	ldr	r0, [pc, #348]	; (8001a48 <main+0x5b0>)
 80018ec:	f004 fcb6 	bl	800625c <HAL_ADC_GetValue>
 80018f0:	f8c7 00d8 	str.w	r0, [r7, #216]	; 0xd8

	  HAL_ADC_Start(&hadc1);
 80018f4:	4855      	ldr	r0, [pc, #340]	; (8001a4c <main+0x5b4>)
 80018f6:	f004 fb6d 	bl	8005fd4 <HAL_ADC_Start>
	  while(HAL_ADC_PollForConversion(&hadc1, 100)!=HAL_OK);
 80018fa:	bf00      	nop
 80018fc:	2164      	movs	r1, #100	; 0x64
 80018fe:	4853      	ldr	r0, [pc, #332]	; (8001a4c <main+0x5b4>)
 8001900:	f004 fc28 	bl	8006154 <HAL_ADC_PollForConversion>
 8001904:	4603      	mov	r3, r0
 8001906:	2b00      	cmp	r3, #0
 8001908:	d1f8      	bne.n	80018fc <main+0x464>
	  joystick_h = HAL_ADC_GetValue(&hadc1);
 800190a:	4850      	ldr	r0, [pc, #320]	; (8001a4c <main+0x5b4>)
 800190c:	f004 fca6 	bl	800625c <HAL_ADC_GetValue>
 8001910:	f8c7 00d4 	str.w	r0, [r7, #212]	; 0xd4

	  sprintf(text,"POTL : %4u POTR : %4u joy_v : %4u joy_h : %4u",(uint)potl,(uint)potr,(uint)joystick_v,(uint)joystick_h);
 8001914:	f107 00a0 	add.w	r0, r7, #160	; 0xa0
 8001918:	f8d7 30d4 	ldr.w	r3, [r7, #212]	; 0xd4
 800191c:	9301      	str	r3, [sp, #4]
 800191e:	f8d7 30d8 	ldr.w	r3, [r7, #216]	; 0xd8
 8001922:	9300      	str	r3, [sp, #0]
 8001924:	f8d7 30e0 	ldr.w	r3, [r7, #224]	; 0xe0
 8001928:	f8d7 20dc 	ldr.w	r2, [r7, #220]	; 0xdc
 800192c:	4948      	ldr	r1, [pc, #288]	; (8001a50 <main+0x5b8>)
 800192e:	f00d fc9f 	bl	800f270 <siprintf>
	  BSP_LCD_DisplayStringAtLine(9,(uint8_t*) text);
 8001932:	f107 03a0 	add.w	r3, r7, #160	; 0xa0
 8001936:	4619      	mov	r1, r3
 8001938:	2009      	movs	r0, #9
 800193a:	f002 faa5 	bl	8003e88 <BSP_LCD_DisplayStringAtLine>
	  //UART
	  HAL_UART_Receive(&huart1,&touche,1,10);
 800193e:	f107 01d3 	add.w	r1, r7, #211	; 0xd3
 8001942:	230a      	movs	r3, #10
 8001944:	2201      	movs	r2, #1
 8001946:	4843      	ldr	r0, [pc, #268]	; (8001a54 <main+0x5bc>)
 8001948:	f00a f848 	bl	800b9dc <HAL_UART_Receive>
	  if(touche == 'q'){x--;}
 800194c:	f897 30d3 	ldrb.w	r3, [r7, #211]	; 0xd3
 8001950:	2b71      	cmp	r3, #113	; 0x71
 8001952:	d104      	bne.n	800195e <main+0x4c6>
 8001954:	f8d7 30f0 	ldr.w	r3, [r7, #240]	; 0xf0
 8001958:	3b01      	subs	r3, #1
 800195a:	f8c7 30f0 	str.w	r3, [r7, #240]	; 0xf0
	  if(touche == 'z'){y--;}
 800195e:	f897 30d3 	ldrb.w	r3, [r7, #211]	; 0xd3
 8001962:	2b7a      	cmp	r3, #122	; 0x7a
 8001964:	d104      	bne.n	8001970 <main+0x4d8>
 8001966:	f8d7 30ec 	ldr.w	r3, [r7, #236]	; 0xec
 800196a:	3b01      	subs	r3, #1
 800196c:	f8c7 30ec 	str.w	r3, [r7, #236]	; 0xec
	  if(touche == 'd'){x++;}
 8001970:	f897 30d3 	ldrb.w	r3, [r7, #211]	; 0xd3
 8001974:	2b64      	cmp	r3, #100	; 0x64
 8001976:	d104      	bne.n	8001982 <main+0x4ea>
 8001978:	f8d7 30f0 	ldr.w	r3, [r7, #240]	; 0xf0
 800197c:	3301      	adds	r3, #1
 800197e:	f8c7 30f0 	str.w	r3, [r7, #240]	; 0xf0
	  if(touche == 's'){y++;}
 8001982:	f897 30d3 	ldrb.w	r3, [r7, #211]	; 0xd3
 8001986:	2b73      	cmp	r3, #115	; 0x73
 8001988:	d104      	bne.n	8001994 <main+0x4fc>
 800198a:	f8d7 30ec 	ldr.w	r3, [r7, #236]	; 0xec
 800198e:	3301      	adds	r3, #1
 8001990:	f8c7 30ec 	str.w	r3, [r7, #236]	; 0xec
	  touche = '\0';
 8001994:	2300      	movs	r3, #0
 8001996:	f887 30d3 	strb.w	r3, [r7, #211]	; 0xd3
	  //ENTREE ANALOG
	  if(joystick_h>4000){x--;}
 800199a:	f8d7 30d4 	ldr.w	r3, [r7, #212]	; 0xd4
 800199e:	f5b3 6f7a 	cmp.w	r3, #4000	; 0xfa0
 80019a2:	d904      	bls.n	80019ae <main+0x516>
 80019a4:	f8d7 30f0 	ldr.w	r3, [r7, #240]	; 0xf0
 80019a8:	3b01      	subs	r3, #1
 80019aa:	f8c7 30f0 	str.w	r3, [r7, #240]	; 0xf0
	  if(joystick_v>4000){y--;}
 80019ae:	f8d7 30d8 	ldr.w	r3, [r7, #216]	; 0xd8
 80019b2:	f5b3 6f7a 	cmp.w	r3, #4000	; 0xfa0
 80019b6:	d904      	bls.n	80019c2 <main+0x52a>
 80019b8:	f8d7 30ec 	ldr.w	r3, [r7, #236]	; 0xec
 80019bc:	3b01      	subs	r3, #1
 80019be:	f8c7 30ec 	str.w	r3, [r7, #236]	; 0xec
	  if(joystick_h<50){x++;}
 80019c2:	f8d7 30d4 	ldr.w	r3, [r7, #212]	; 0xd4
 80019c6:	2b31      	cmp	r3, #49	; 0x31
 80019c8:	d804      	bhi.n	80019d4 <main+0x53c>
 80019ca:	f8d7 30f0 	ldr.w	r3, [r7, #240]	; 0xf0
 80019ce:	3301      	adds	r3, #1
 80019d0:	f8c7 30f0 	str.w	r3, [r7, #240]	; 0xf0
	  if(joystick_v<50){y++;}
 80019d4:	f8d7 30d8 	ldr.w	r3, [r7, #216]	; 0xd8
 80019d8:	2b31      	cmp	r3, #49	; 0x31
 80019da:	d804      	bhi.n	80019e6 <main+0x54e>
 80019dc:	f8d7 30ec 	ldr.w	r3, [r7, #236]	; 0xec
 80019e0:	3301      	adds	r3, #1
 80019e2:	f8c7 30ec 	str.w	r3, [r7, #236]	; 0xec
	  BSP_LCD_FillCircle(x,y,4);
 80019e6:	f8d7 30f0 	ldr.w	r3, [r7, #240]	; 0xf0
 80019ea:	b29b      	uxth	r3, r3
 80019ec:	f8d7 20ec 	ldr.w	r2, [r7, #236]	; 0xec
 80019f0:	b291      	uxth	r1, r2
 80019f2:	2204      	movs	r2, #4
 80019f4:	4618      	mov	r0, r3
 80019f6:	f002 fd3b 	bl	8004470 <BSP_LCD_FillCircle>
	  BSP_TS_GetState(&TS_State);
 80019fa:	4817      	ldr	r0, [pc, #92]	; (8001a58 <main+0x5c0>)
 80019fc:	f003 f9e6 	bl	8004dcc <BSP_TS_GetState>
	  if(TS_State.touchDetected){
 8001a00:	4b15      	ldr	r3, [pc, #84]	; (8001a58 <main+0x5c0>)
 8001a02:	781b      	ldrb	r3, [r3, #0]
 8001a04:	2b00      	cmp	r3, #0
 8001a06:	d007      	beq.n	8001a18 <main+0x580>
		  BSP_LCD_FillRect(TS_State.touchX[0],TS_State.touchY[0],4,4);
 8001a08:	4b13      	ldr	r3, [pc, #76]	; (8001a58 <main+0x5c0>)
 8001a0a:	8858      	ldrh	r0, [r3, #2]
 8001a0c:	4b12      	ldr	r3, [pc, #72]	; (8001a58 <main+0x5c0>)
 8001a0e:	8999      	ldrh	r1, [r3, #12]
 8001a10:	2304      	movs	r3, #4
 8001a12:	2204      	movs	r2, #4
 8001a14:	f002 fcb2 	bl	800437c <BSP_LCD_FillRect>
	  }

    /* USER CODE END WHILE */

    /* USER CODE BEGIN 3 */
	  BSP_LCD_DrawLine(50, 50, 100, 100); // dessiner une ligne
 8001a18:	2364      	movs	r3, #100	; 0x64
 8001a1a:	2264      	movs	r2, #100	; 0x64
 8001a1c:	2132      	movs	r1, #50	; 0x32
 8001a1e:	2032      	movs	r0, #50	; 0x32
 8001a20:	f002 faa8 	bl	8003f74 <BSP_LCD_DrawLine>
	  BSP_LCD_FillCircle(80, 80, 10); // dessiner un cercle
 8001a24:	220a      	movs	r2, #10
 8001a26:	2150      	movs	r1, #80	; 0x50
 8001a28:	2050      	movs	r0, #80	; 0x50
 8001a2a:	f002 fd21 	bl	8004470 <BSP_LCD_FillCircle>
	  BP1 = HAL_GPIO_ReadPin(BP1_GPIO_Port,BP1_Pin);
 8001a2e:	e627      	b.n	8001680 <main+0x1e8>
 8001a30:	ff800080 	.word	0xff800080
 8001a34:	40020000 	.word	0x40020000
 8001a38:	40021c00 	.word	0x40021c00
 8001a3c:	40021000 	.word	0x40021000
 8001a40:	40020c00 	.word	0x40020c00
 8001a44:	08010b30 	.word	0x08010b30
 8001a48:	200089e0 	.word	0x200089e0
 8001a4c:	20008998 	.word	0x20008998
 8001a50:	08010b3c 	.word	0x08010b3c
 8001a54:	20008a28 	.word	0x20008a28
 8001a58:	20000330 	.word	0x20000330

08001a5c <SystemClock_Config>:
/**
  * @brief System Clock Configuration
  * @retval None
  */
void SystemClock_Config(void)
{
 8001a5c:	b580      	push	{r7, lr}
 8001a5e:	b0b4      	sub	sp, #208	; 0xd0
 8001a60:	af00      	add	r7, sp, #0
  RCC_OscInitTypeDef RCC_OscInitStruct = {0};
 8001a62:	f107 03a0 	add.w	r3, r7, #160	; 0xa0
 8001a66:	2230      	movs	r2, #48	; 0x30
 8001a68:	2100      	movs	r1, #0
 8001a6a:	4618      	mov	r0, r3
 8001a6c:	f00d fbf7 	bl	800f25e <memset>
  RCC_ClkInitTypeDef RCC_ClkInitStruct = {0};
 8001a70:	f107 038c 	add.w	r3, r7, #140	; 0x8c
 8001a74:	2200      	movs	r2, #0
 8001a76:	601a      	str	r2, [r3, #0]
 8001a78:	605a      	str	r2, [r3, #4]
 8001a7a:	609a      	str	r2, [r3, #8]
 8001a7c:	60da      	str	r2, [r3, #12]
 8001a7e:	611a      	str	r2, [r3, #16]
  RCC_PeriphCLKInitTypeDef PeriphClkInitStruct = {0};
 8001a80:	f107 0308 	add.w	r3, r7, #8
 8001a84:	2284      	movs	r2, #132	; 0x84
 8001a86:	2100      	movs	r1, #0
 8001a88:	4618      	mov	r0, r3
 8001a8a:	f00d fbe8 	bl	800f25e <memset>

  /** Configure LSE Drive Capability
  */
  HAL_PWR_EnableBkUpAccess();
 8001a8e:	f007 f85f 	bl	8008b50 <HAL_PWR_EnableBkUpAccess>
  /** Configure the main internal regulator output voltage
  */
  __HAL_RCC_PWR_CLK_ENABLE();
 8001a92:	4b47      	ldr	r3, [pc, #284]	; (8001bb0 <SystemClock_Config+0x154>)
 8001a94:	6c1b      	ldr	r3, [r3, #64]	; 0x40
 8001a96:	4a46      	ldr	r2, [pc, #280]	; (8001bb0 <SystemClock_Config+0x154>)
 8001a98:	f043 5380 	orr.w	r3, r3, #268435456	; 0x10000000
 8001a9c:	6413      	str	r3, [r2, #64]	; 0x40
 8001a9e:	4b44      	ldr	r3, [pc, #272]	; (8001bb0 <SystemClock_Config+0x154>)
 8001aa0:	6c1b      	ldr	r3, [r3, #64]	; 0x40
 8001aa2:	f003 5380 	and.w	r3, r3, #268435456	; 0x10000000
 8001aa6:	607b      	str	r3, [r7, #4]
 8001aa8:	687b      	ldr	r3, [r7, #4]
  __HAL_PWR_VOLTAGESCALING_CONFIG(PWR_REGULATOR_VOLTAGE_SCALE1);
 8001aaa:	4b42      	ldr	r3, [pc, #264]	; (8001bb4 <SystemClock_Config+0x158>)
 8001aac:	681b      	ldr	r3, [r3, #0]
 8001aae:	4a41      	ldr	r2, [pc, #260]	; (8001bb4 <SystemClock_Config+0x158>)
 8001ab0:	f443 4340 	orr.w	r3, r3, #49152	; 0xc000
 8001ab4:	6013      	str	r3, [r2, #0]
 8001ab6:	4b3f      	ldr	r3, [pc, #252]	; (8001bb4 <SystemClock_Config+0x158>)
 8001ab8:	681b      	ldr	r3, [r3, #0]
 8001aba:	f403 4340 	and.w	r3, r3, #49152	; 0xc000
 8001abe:	603b      	str	r3, [r7, #0]
 8001ac0:	683b      	ldr	r3, [r7, #0]
  /** Initializes the RCC Oscillators according to the specified parameters
  * in the RCC_OscInitTypeDef structure.
  */
  RCC_OscInitStruct.OscillatorType = RCC_OSCILLATORTYPE_LSI|RCC_OSCILLATORTYPE_HSE;
 8001ac2:	2309      	movs	r3, #9
 8001ac4:	f8c7 30a0 	str.w	r3, [r7, #160]	; 0xa0
  RCC_OscInitStruct.HSEState = RCC_HSE_ON;
 8001ac8:	f44f 3380 	mov.w	r3, #65536	; 0x10000
 8001acc:	f8c7 30a4 	str.w	r3, [r7, #164]	; 0xa4
  RCC_OscInitStruct.LSIState = RCC_LSI_ON;
 8001ad0:	2301      	movs	r3, #1
 8001ad2:	f8c7 30b4 	str.w	r3, [r7, #180]	; 0xb4
  RCC_OscInitStruct.PLL.PLLState = RCC_PLL_ON;
 8001ad6:	2302      	movs	r3, #2
 8001ad8:	f8c7 30b8 	str.w	r3, [r7, #184]	; 0xb8
  RCC_OscInitStruct.PLL.PLLSource = RCC_PLLSOURCE_HSE;
 8001adc:	f44f 0380 	mov.w	r3, #4194304	; 0x400000
 8001ae0:	f8c7 30bc 	str.w	r3, [r7, #188]	; 0xbc
  RCC_OscInitStruct.PLL.PLLM = 25;
 8001ae4:	2319      	movs	r3, #25
 8001ae6:	f8c7 30c0 	str.w	r3, [r7, #192]	; 0xc0
  RCC_OscInitStruct.PLL.PLLN = 400;
 8001aea:	f44f 73c8 	mov.w	r3, #400	; 0x190
 8001aee:	f8c7 30c4 	str.w	r3, [r7, #196]	; 0xc4
  RCC_OscInitStruct.PLL.PLLP = RCC_PLLP_DIV2;
 8001af2:	2302      	movs	r3, #2
 8001af4:	f8c7 30c8 	str.w	r3, [r7, #200]	; 0xc8
  RCC_OscInitStruct.PLL.PLLQ = 9;
 8001af8:	2309      	movs	r3, #9
 8001afa:	f8c7 30cc 	str.w	r3, [r7, #204]	; 0xcc
  if (HAL_RCC_OscConfig(&RCC_OscInitStruct) != HAL_OK)
 8001afe:	f107 03a0 	add.w	r3, r7, #160	; 0xa0
 8001b02:	4618      	mov	r0, r3
 8001b04:	f007 f884 	bl	8008c10 <HAL_RCC_OscConfig>
 8001b08:	4603      	mov	r3, r0
 8001b0a:	2b00      	cmp	r3, #0
 8001b0c:	d001      	beq.n	8001b12 <SystemClock_Config+0xb6>
  {
    Error_Handler();
 8001b0e:	f001 fd79 	bl	8003604 <Error_Handler>
  }
  /** Activate the Over-Drive mode
  */
  if (HAL_PWREx_EnableOverDrive() != HAL_OK)
 8001b12:	f007 f82d 	bl	8008b70 <HAL_PWREx_EnableOverDrive>
 8001b16:	4603      	mov	r3, r0
 8001b18:	2b00      	cmp	r3, #0
 8001b1a:	d001      	beq.n	8001b20 <SystemClock_Config+0xc4>
  {
    Error_Handler();
 8001b1c:	f001 fd72 	bl	8003604 <Error_Handler>
  }
  /** Initializes the CPU, AHB and APB buses clocks
  */
  RCC_ClkInitStruct.ClockType = RCC_CLOCKTYPE_HCLK|RCC_CLOCKTYPE_SYSCLK
 8001b20:	230f      	movs	r3, #15
 8001b22:	f8c7 308c 	str.w	r3, [r7, #140]	; 0x8c
                              |RCC_CLOCKTYPE_PCLK1|RCC_CLOCKTYPE_PCLK2;
  RCC_ClkInitStruct.SYSCLKSource = RCC_SYSCLKSOURCE_PLLCLK;
 8001b26:	2302      	movs	r3, #2
 8001b28:	f8c7 3090 	str.w	r3, [r7, #144]	; 0x90
  RCC_ClkInitStruct.AHBCLKDivider = RCC_SYSCLK_DIV1;
 8001b2c:	2300      	movs	r3, #0
 8001b2e:	f8c7 3094 	str.w	r3, [r7, #148]	; 0x94
  RCC_ClkInitStruct.APB1CLKDivider = RCC_HCLK_DIV4;
 8001b32:	f44f 53a0 	mov.w	r3, #5120	; 0x1400
 8001b36:	f8c7 3098 	str.w	r3, [r7, #152]	; 0x98
  RCC_ClkInitStruct.APB2CLKDivider = RCC_HCLK_DIV2;
 8001b3a:	f44f 5380 	mov.w	r3, #4096	; 0x1000
 8001b3e:	f8c7 309c 	str.w	r3, [r7, #156]	; 0x9c

  if (HAL_RCC_ClockConfig(&RCC_ClkInitStruct, FLASH_LATENCY_6) != HAL_OK)
 8001b42:	f107 038c 	add.w	r3, r7, #140	; 0x8c
 8001b46:	2106      	movs	r1, #6
 8001b48:	4618      	mov	r0, r3
 8001b4a:	f007 fb05 	bl	8009158 <HAL_RCC_ClockConfig>
 8001b4e:	4603      	mov	r3, r0
 8001b50:	2b00      	cmp	r3, #0
 8001b52:	d001      	beq.n	8001b58 <SystemClock_Config+0xfc>
  {
    Error_Handler();
 8001b54:	f001 fd56 	bl	8003604 <Error_Handler>
  }
  PeriphClkInitStruct.PeriphClockSelection = RCC_PERIPHCLK_LTDC|RCC_PERIPHCLK_RTC
 8001b58:	4b17      	ldr	r3, [pc, #92]	; (8001bb8 <SystemClock_Config+0x15c>)
 8001b5a:	60bb      	str	r3, [r7, #8]
                              |RCC_PERIPHCLK_USART1|RCC_PERIPHCLK_USART6
                              |RCC_PERIPHCLK_UART7|RCC_PERIPHCLK_I2C1
                              |RCC_PERIPHCLK_I2C3;
  PeriphClkInitStruct.PLLSAI.PLLSAIN = 384;
 8001b5c:	f44f 73c0 	mov.w	r3, #384	; 0x180
 8001b60:	61fb      	str	r3, [r7, #28]
  PeriphClkInitStruct.PLLSAI.PLLSAIR = 5;
 8001b62:	2305      	movs	r3, #5
 8001b64:	627b      	str	r3, [r7, #36]	; 0x24
  PeriphClkInitStruct.PLLSAI.PLLSAIQ = 2;
 8001b66:	2302      	movs	r3, #2
 8001b68:	623b      	str	r3, [r7, #32]
  PeriphClkInitStruct.PLLSAI.PLLSAIP = RCC_PLLSAIP_DIV8;
 8001b6a:	2303      	movs	r3, #3
 8001b6c:	62bb      	str	r3, [r7, #40]	; 0x28
  PeriphClkInitStruct.PLLSAIDivQ = 1;
 8001b6e:	2301      	movs	r3, #1
 8001b70:	633b      	str	r3, [r7, #48]	; 0x30
  PeriphClkInitStruct.PLLSAIDivR = RCC_PLLSAIDIVR_8;
 8001b72:	f44f 3300 	mov.w	r3, #131072	; 0x20000
 8001b76:	637b      	str	r3, [r7, #52]	; 0x34
  PeriphClkInitStruct.RTCClockSelection = RCC_RTCCLKSOURCE_LSI;
 8001b78:	f44f 7300 	mov.w	r3, #512	; 0x200
 8001b7c:	63bb      	str	r3, [r7, #56]	; 0x38
  PeriphClkInitStruct.Usart1ClockSelection = RCC_USART1CLKSOURCE_PCLK2;
 8001b7e:	2300      	movs	r3, #0
 8001b80:	64fb      	str	r3, [r7, #76]	; 0x4c
  PeriphClkInitStruct.Usart6ClockSelection = RCC_USART6CLKSOURCE_PCLK2;
 8001b82:	2300      	movs	r3, #0
 8001b84:	663b      	str	r3, [r7, #96]	; 0x60
  PeriphClkInitStruct.Uart7ClockSelection = RCC_UART7CLKSOURCE_PCLK1;
 8001b86:	2300      	movs	r3, #0
 8001b88:	667b      	str	r3, [r7, #100]	; 0x64
  PeriphClkInitStruct.I2c1ClockSelection = RCC_I2C1CLKSOURCE_PCLK1;
 8001b8a:	2300      	movs	r3, #0
 8001b8c:	66fb      	str	r3, [r7, #108]	; 0x6c
  PeriphClkInitStruct.I2c3ClockSelection = RCC_I2C3CLKSOURCE_PCLK1;
 8001b8e:	2300      	movs	r3, #0
 8001b90:	677b      	str	r3, [r7, #116]	; 0x74
  if (HAL_RCCEx_PeriphCLKConfig(&PeriphClkInitStruct) != HAL_OK)
 8001b92:	f107 0308 	add.w	r3, r7, #8
 8001b96:	4618      	mov	r0, r3
 8001b98:	f007 fce2 	bl	8009560 <HAL_RCCEx_PeriphCLKConfig>
 8001b9c:	4603      	mov	r3, r0
 8001b9e:	2b00      	cmp	r3, #0
 8001ba0:	d001      	beq.n	8001ba6 <SystemClock_Config+0x14a>
  {
    Error_Handler();
 8001ba2:	f001 fd2f 	bl	8003604 <Error_Handler>
  }
}
 8001ba6:	bf00      	nop
 8001ba8:	37d0      	adds	r7, #208	; 0xd0
 8001baa:	46bd      	mov	sp, r7
 8001bac:	bd80      	pop	{r7, pc}
 8001bae:	bf00      	nop
 8001bb0:	40023800 	.word	0x40023800
 8001bb4:	40007000 	.word	0x40007000
 8001bb8:	00015868 	.word	0x00015868

08001bbc <MX_ADC1_Init>:
  * @brief ADC1 Initialization Function
  * @param None
  * @retval None
  */
static void MX_ADC1_Init(void)
{
 8001bbc:	b580      	push	{r7, lr}
 8001bbe:	b084      	sub	sp, #16
 8001bc0:	af00      	add	r7, sp, #0

  /* USER CODE BEGIN ADC1_Init 0 */

  /* USER CODE END ADC1_Init 0 */

  ADC_ChannelConfTypeDef sConfig = {0};
 8001bc2:	463b      	mov	r3, r7
 8001bc4:	2200      	movs	r2, #0
 8001bc6:	601a      	str	r2, [r3, #0]
 8001bc8:	605a      	str	r2, [r3, #4]
 8001bca:	609a      	str	r2, [r3, #8]
 8001bcc:	60da      	str	r2, [r3, #12]
  /* USER CODE BEGIN ADC1_Init 1 */

  /* USER CODE END ADC1_Init 1 */
  /** Configure the global features of the ADC (Clock, Resolution, Data Alignment and number of conversion)
  */
  hadc1.Instance = ADC1;
 8001bce:	4b21      	ldr	r3, [pc, #132]	; (8001c54 <MX_ADC1_Init+0x98>)
 8001bd0:	4a21      	ldr	r2, [pc, #132]	; (8001c58 <MX_ADC1_Init+0x9c>)
 8001bd2:	601a      	str	r2, [r3, #0]
  hadc1.Init.ClockPrescaler = ADC_CLOCK_SYNC_PCLK_DIV4;
 8001bd4:	4b1f      	ldr	r3, [pc, #124]	; (8001c54 <MX_ADC1_Init+0x98>)
 8001bd6:	f44f 3280 	mov.w	r2, #65536	; 0x10000
 8001bda:	605a      	str	r2, [r3, #4]
  hadc1.Init.Resolution = ADC_RESOLUTION_12B;
 8001bdc:	4b1d      	ldr	r3, [pc, #116]	; (8001c54 <MX_ADC1_Init+0x98>)
 8001bde:	2200      	movs	r2, #0
 8001be0:	609a      	str	r2, [r3, #8]
  hadc1.Init.ScanConvMode = ADC_SCAN_DISABLE;
 8001be2:	4b1c      	ldr	r3, [pc, #112]	; (8001c54 <MX_ADC1_Init+0x98>)
 8001be4:	2200      	movs	r2, #0
 8001be6:	611a      	str	r2, [r3, #16]
  hadc1.Init.ContinuousConvMode = DISABLE;
 8001be8:	4b1a      	ldr	r3, [pc, #104]	; (8001c54 <MX_ADC1_Init+0x98>)
 8001bea:	2200      	movs	r2, #0
 8001bec:	619a      	str	r2, [r3, #24]
  hadc1.Init.DiscontinuousConvMode = DISABLE;
 8001bee:	4b19      	ldr	r3, [pc, #100]	; (8001c54 <MX_ADC1_Init+0x98>)
 8001bf0:	2200      	movs	r2, #0
 8001bf2:	f883 2020 	strb.w	r2, [r3, #32]
  hadc1.Init.ExternalTrigConvEdge = ADC_EXTERNALTRIGCONVEDGE_NONE;
 8001bf6:	4b17      	ldr	r3, [pc, #92]	; (8001c54 <MX_ADC1_Init+0x98>)
 8001bf8:	2200      	movs	r2, #0
 8001bfa:	62da      	str	r2, [r3, #44]	; 0x2c
  hadc1.Init.ExternalTrigConv = ADC_SOFTWARE_START;
 8001bfc:	4b15      	ldr	r3, [pc, #84]	; (8001c54 <MX_ADC1_Init+0x98>)
 8001bfe:	4a17      	ldr	r2, [pc, #92]	; (8001c5c <MX_ADC1_Init+0xa0>)
 8001c00:	629a      	str	r2, [r3, #40]	; 0x28
  hadc1.Init.DataAlign = ADC_DATAALIGN_RIGHT;
 8001c02:	4b14      	ldr	r3, [pc, #80]	; (8001c54 <MX_ADC1_Init+0x98>)
 8001c04:	2200      	movs	r2, #0
 8001c06:	60da      	str	r2, [r3, #12]
  hadc1.Init.NbrOfConversion = 1;
 8001c08:	4b12      	ldr	r3, [pc, #72]	; (8001c54 <MX_ADC1_Init+0x98>)
 8001c0a:	2201      	movs	r2, #1
 8001c0c:	61da      	str	r2, [r3, #28]
  hadc1.Init.DMAContinuousRequests = DISABLE;
 8001c0e:	4b11      	ldr	r3, [pc, #68]	; (8001c54 <MX_ADC1_Init+0x98>)
 8001c10:	2200      	movs	r2, #0
 8001c12:	f883 2030 	strb.w	r2, [r3, #48]	; 0x30
  hadc1.Init.EOCSelection = ADC_EOC_SINGLE_CONV;
 8001c16:	4b0f      	ldr	r3, [pc, #60]	; (8001c54 <MX_ADC1_Init+0x98>)
 8001c18:	2201      	movs	r2, #1
 8001c1a:	615a      	str	r2, [r3, #20]
  if (HAL_ADC_Init(&hadc1) != HAL_OK)
 8001c1c:	480d      	ldr	r0, [pc, #52]	; (8001c54 <MX_ADC1_Init+0x98>)
 8001c1e:	f004 f995 	bl	8005f4c <HAL_ADC_Init>
 8001c22:	4603      	mov	r3, r0
 8001c24:	2b00      	cmp	r3, #0
 8001c26:	d001      	beq.n	8001c2c <MX_ADC1_Init+0x70>
  {
    Error_Handler();
 8001c28:	f001 fcec 	bl	8003604 <Error_Handler>
  }
  /** Configure for the selected ADC regular channel its corresponding rank in the sequencer and its sample time.
  */
  sConfig.Channel = ADC_CHANNEL_0;
 8001c2c:	2300      	movs	r3, #0
 8001c2e:	603b      	str	r3, [r7, #0]
  sConfig.Rank = ADC_REGULAR_RANK_1;
 8001c30:	2301      	movs	r3, #1
 8001c32:	607b      	str	r3, [r7, #4]
  sConfig.SamplingTime = ADC_SAMPLETIME_3CYCLES;
 8001c34:	2300      	movs	r3, #0
 8001c36:	60bb      	str	r3, [r7, #8]
  if (HAL_ADC_ConfigChannel(&hadc1, &sConfig) != HAL_OK)
 8001c38:	463b      	mov	r3, r7
 8001c3a:	4619      	mov	r1, r3
 8001c3c:	4805      	ldr	r0, [pc, #20]	; (8001c54 <MX_ADC1_Init+0x98>)
 8001c3e:	f004 fb1b 	bl	8006278 <HAL_ADC_ConfigChannel>
 8001c42:	4603      	mov	r3, r0
 8001c44:	2b00      	cmp	r3, #0
 8001c46:	d001      	beq.n	8001c4c <MX_ADC1_Init+0x90>
  {
    Error_Handler();
 8001c48:	f001 fcdc 	bl	8003604 <Error_Handler>
  }
  /* USER CODE BEGIN ADC1_Init 2 */

  /* USER CODE END ADC1_Init 2 */

}
 8001c4c:	bf00      	nop
 8001c4e:	3710      	adds	r7, #16
 8001c50:	46bd      	mov	sp, r7
 8001c52:	bd80      	pop	{r7, pc}
 8001c54:	20008998 	.word	0x20008998
 8001c58:	40012000 	.word	0x40012000
 8001c5c:	0f000001 	.word	0x0f000001

08001c60 <MX_ADC3_Init>:
  * @brief ADC3 Initialization Function
  * @param None
  * @retval None
  */
static void MX_ADC3_Init(void)
{
 8001c60:	b580      	push	{r7, lr}
 8001c62:	b084      	sub	sp, #16
 8001c64:	af00      	add	r7, sp, #0

  /* USER CODE BEGIN ADC3_Init 0 */

  /* USER CODE END ADC3_Init 0 */

  ADC_ChannelConfTypeDef sConfig = {0};
 8001c66:	463b      	mov	r3, r7
 8001c68:	2200      	movs	r2, #0
 8001c6a:	601a      	str	r2, [r3, #0]
 8001c6c:	605a      	str	r2, [r3, #4]
 8001c6e:	609a      	str	r2, [r3, #8]
 8001c70:	60da      	str	r2, [r3, #12]
  /* USER CODE BEGIN ADC3_Init 1 */

  /* USER CODE END ADC3_Init 1 */
  /** Configure the global features of the ADC (Clock, Resolution, Data Alignment and number of conversion)
  */
  hadc3.Instance = ADC3;
 8001c72:	4b21      	ldr	r3, [pc, #132]	; (8001cf8 <MX_ADC3_Init+0x98>)
 8001c74:	4a21      	ldr	r2, [pc, #132]	; (8001cfc <MX_ADC3_Init+0x9c>)
 8001c76:	601a      	str	r2, [r3, #0]
  hadc3.Init.ClockPrescaler = ADC_CLOCK_SYNC_PCLK_DIV4;
 8001c78:	4b1f      	ldr	r3, [pc, #124]	; (8001cf8 <MX_ADC3_Init+0x98>)
 8001c7a:	f44f 3280 	mov.w	r2, #65536	; 0x10000
 8001c7e:	605a      	str	r2, [r3, #4]
  hadc3.Init.Resolution = ADC_RESOLUTION_12B;
 8001c80:	4b1d      	ldr	r3, [pc, #116]	; (8001cf8 <MX_ADC3_Init+0x98>)
 8001c82:	2200      	movs	r2, #0
 8001c84:	609a      	str	r2, [r3, #8]
  hadc3.Init.ScanConvMode = ADC_SCAN_DISABLE;
 8001c86:	4b1c      	ldr	r3, [pc, #112]	; (8001cf8 <MX_ADC3_Init+0x98>)
 8001c88:	2200      	movs	r2, #0
 8001c8a:	611a      	str	r2, [r3, #16]
  hadc3.Init.ContinuousConvMode = DISABLE;
 8001c8c:	4b1a      	ldr	r3, [pc, #104]	; (8001cf8 <MX_ADC3_Init+0x98>)
 8001c8e:	2200      	movs	r2, #0
 8001c90:	619a      	str	r2, [r3, #24]
  hadc3.Init.DiscontinuousConvMode = DISABLE;
 8001c92:	4b19      	ldr	r3, [pc, #100]	; (8001cf8 <MX_ADC3_Init+0x98>)
 8001c94:	2200      	movs	r2, #0
 8001c96:	f883 2020 	strb.w	r2, [r3, #32]
  hadc3.Init.ExternalTrigConvEdge = ADC_EXTERNALTRIGCONVEDGE_NONE;
 8001c9a:	4b17      	ldr	r3, [pc, #92]	; (8001cf8 <MX_ADC3_Init+0x98>)
 8001c9c:	2200      	movs	r2, #0
 8001c9e:	62da      	str	r2, [r3, #44]	; 0x2c
  hadc3.Init.ExternalTrigConv = ADC_SOFTWARE_START;
 8001ca0:	4b15      	ldr	r3, [pc, #84]	; (8001cf8 <MX_ADC3_Init+0x98>)
 8001ca2:	4a17      	ldr	r2, [pc, #92]	; (8001d00 <MX_ADC3_Init+0xa0>)
 8001ca4:	629a      	str	r2, [r3, #40]	; 0x28
  hadc3.Init.DataAlign = ADC_DATAALIGN_RIGHT;
 8001ca6:	4b14      	ldr	r3, [pc, #80]	; (8001cf8 <MX_ADC3_Init+0x98>)
 8001ca8:	2200      	movs	r2, #0
 8001caa:	60da      	str	r2, [r3, #12]
  hadc3.Init.NbrOfConversion = 1;
 8001cac:	4b12      	ldr	r3, [pc, #72]	; (8001cf8 <MX_ADC3_Init+0x98>)
 8001cae:	2201      	movs	r2, #1
 8001cb0:	61da      	str	r2, [r3, #28]
  hadc3.Init.DMAContinuousRequests = DISABLE;
 8001cb2:	4b11      	ldr	r3, [pc, #68]	; (8001cf8 <MX_ADC3_Init+0x98>)
 8001cb4:	2200      	movs	r2, #0
 8001cb6:	f883 2030 	strb.w	r2, [r3, #48]	; 0x30
  hadc3.Init.EOCSelection = ADC_EOC_SINGLE_CONV;
 8001cba:	4b0f      	ldr	r3, [pc, #60]	; (8001cf8 <MX_ADC3_Init+0x98>)
 8001cbc:	2201      	movs	r2, #1
 8001cbe:	615a      	str	r2, [r3, #20]
  if (HAL_ADC_Init(&hadc3) != HAL_OK)
 8001cc0:	480d      	ldr	r0, [pc, #52]	; (8001cf8 <MX_ADC3_Init+0x98>)
 8001cc2:	f004 f943 	bl	8005f4c <HAL_ADC_Init>
 8001cc6:	4603      	mov	r3, r0
 8001cc8:	2b00      	cmp	r3, #0
 8001cca:	d001      	beq.n	8001cd0 <MX_ADC3_Init+0x70>
  {
    Error_Handler();
 8001ccc:	f001 fc9a 	bl	8003604 <Error_Handler>
  }
  /** Configure for the selected ADC regular channel its corresponding rank in the sequencer and its sample time.
  */
  sConfig.Channel = ADC_CHANNEL_6;
 8001cd0:	2306      	movs	r3, #6
 8001cd2:	603b      	str	r3, [r7, #0]
  sConfig.Rank = ADC_REGULAR_RANK_1;
 8001cd4:	2301      	movs	r3, #1
 8001cd6:	607b      	str	r3, [r7, #4]
  sConfig.SamplingTime = ADC_SAMPLETIME_3CYCLES;
 8001cd8:	2300      	movs	r3, #0
 8001cda:	60bb      	str	r3, [r7, #8]
  if (HAL_ADC_ConfigChannel(&hadc3, &sConfig) != HAL_OK)
 8001cdc:	463b      	mov	r3, r7
 8001cde:	4619      	mov	r1, r3
 8001ce0:	4805      	ldr	r0, [pc, #20]	; (8001cf8 <MX_ADC3_Init+0x98>)
 8001ce2:	f004 fac9 	bl	8006278 <HAL_ADC_ConfigChannel>
 8001ce6:	4603      	mov	r3, r0
 8001ce8:	2b00      	cmp	r3, #0
 8001cea:	d001      	beq.n	8001cf0 <MX_ADC3_Init+0x90>
  {
    Error_Handler();
 8001cec:	f001 fc8a 	bl	8003604 <Error_Handler>
  }
  /* USER CODE BEGIN ADC3_Init 2 */

  /* USER CODE END ADC3_Init 2 */

}
 8001cf0:	bf00      	nop
 8001cf2:	3710      	adds	r7, #16
 8001cf4:	46bd      	mov	sp, r7
 8001cf6:	bd80      	pop	{r7, pc}
 8001cf8:	200089e0 	.word	0x200089e0
 8001cfc:	40012200 	.word	0x40012200
 8001d00:	0f000001 	.word	0x0f000001

08001d04 <MX_DAC_Init>:
  * @brief DAC Initialization Function
  * @param None
  * @retval None
  */
static void MX_DAC_Init(void)
{
 8001d04:	b580      	push	{r7, lr}
 8001d06:	b082      	sub	sp, #8
 8001d08:	af00      	add	r7, sp, #0

  /* USER CODE BEGIN DAC_Init 0 */

  /* USER CODE END DAC_Init 0 */

  DAC_ChannelConfTypeDef sConfig = {0};
 8001d0a:	463b      	mov	r3, r7
 8001d0c:	2200      	movs	r2, #0
 8001d0e:	601a      	str	r2, [r3, #0]
 8001d10:	605a      	str	r2, [r3, #4]
  /* USER CODE BEGIN DAC_Init 1 */

  /* USER CODE END DAC_Init 1 */
  /** DAC Initialization
  */
  hdac.Instance = DAC;
 8001d12:	4b0f      	ldr	r3, [pc, #60]	; (8001d50 <MX_DAC_Init+0x4c>)
 8001d14:	4a0f      	ldr	r2, [pc, #60]	; (8001d54 <MX_DAC_Init+0x50>)
 8001d16:	601a      	str	r2, [r3, #0]
  if (HAL_DAC_Init(&hdac) != HAL_OK)
 8001d18:	480d      	ldr	r0, [pc, #52]	; (8001d50 <MX_DAC_Init+0x4c>)
 8001d1a:	f004 fdd3 	bl	80068c4 <HAL_DAC_Init>
 8001d1e:	4603      	mov	r3, r0
 8001d20:	2b00      	cmp	r3, #0
 8001d22:	d001      	beq.n	8001d28 <MX_DAC_Init+0x24>
  {
    Error_Handler();
 8001d24:	f001 fc6e 	bl	8003604 <Error_Handler>
  }
  /** DAC channel OUT1 config
  */
  sConfig.DAC_Trigger = DAC_TRIGGER_NONE;
 8001d28:	2300      	movs	r3, #0
 8001d2a:	603b      	str	r3, [r7, #0]
  sConfig.DAC_OutputBuffer = DAC_OUTPUTBUFFER_ENABLE;
 8001d2c:	2300      	movs	r3, #0
 8001d2e:	607b      	str	r3, [r7, #4]
  if (HAL_DAC_ConfigChannel(&hdac, &sConfig, DAC_CHANNEL_1) != HAL_OK)
 8001d30:	463b      	mov	r3, r7
 8001d32:	2200      	movs	r2, #0
 8001d34:	4619      	mov	r1, r3
 8001d36:	4806      	ldr	r0, [pc, #24]	; (8001d50 <MX_DAC_Init+0x4c>)
 8001d38:	f004 fe3a 	bl	80069b0 <HAL_DAC_ConfigChannel>
 8001d3c:	4603      	mov	r3, r0
 8001d3e:	2b00      	cmp	r3, #0
 8001d40:	d001      	beq.n	8001d46 <MX_DAC_Init+0x42>
  {
    Error_Handler();
 8001d42:	f001 fc5f 	bl	8003604 <Error_Handler>
  }
  /* USER CODE BEGIN DAC_Init 2 */

  /* USER CODE END DAC_Init 2 */

}
 8001d46:	bf00      	nop
 8001d48:	3708      	adds	r7, #8
 8001d4a:	46bd      	mov	sp, r7
 8001d4c:	bd80      	pop	{r7, pc}
 8001d4e:	bf00      	nop
 8001d50:	20008aa8 	.word	0x20008aa8
 8001d54:	40007400 	.word	0x40007400

08001d58 <MX_DMA2D_Init>:
  * @brief DMA2D Initialization Function
  * @param None
  * @retval None
  */
static void MX_DMA2D_Init(void)
{
 8001d58:	b580      	push	{r7, lr}
 8001d5a:	af00      	add	r7, sp, #0
  /* USER CODE END DMA2D_Init 0 */

  /* USER CODE BEGIN DMA2D_Init 1 */

  /* USER CODE END DMA2D_Init 1 */
  hdma2d.Instance = DMA2D;
 8001d5c:	4b15      	ldr	r3, [pc, #84]	; (8001db4 <MX_DMA2D_Init+0x5c>)
 8001d5e:	4a16      	ldr	r2, [pc, #88]	; (8001db8 <MX_DMA2D_Init+0x60>)
 8001d60:	601a      	str	r2, [r3, #0]
  hdma2d.Init.Mode = DMA2D_M2M;
 8001d62:	4b14      	ldr	r3, [pc, #80]	; (8001db4 <MX_DMA2D_Init+0x5c>)
 8001d64:	2200      	movs	r2, #0
 8001d66:	605a      	str	r2, [r3, #4]
  hdma2d.Init.ColorMode = DMA2D_OUTPUT_ARGB8888;
 8001d68:	4b12      	ldr	r3, [pc, #72]	; (8001db4 <MX_DMA2D_Init+0x5c>)
 8001d6a:	2200      	movs	r2, #0
 8001d6c:	609a      	str	r2, [r3, #8]
  hdma2d.Init.OutputOffset = 0;
 8001d6e:	4b11      	ldr	r3, [pc, #68]	; (8001db4 <MX_DMA2D_Init+0x5c>)
 8001d70:	2200      	movs	r2, #0
 8001d72:	60da      	str	r2, [r3, #12]
  hdma2d.LayerCfg[1].InputOffset = 0;
 8001d74:	4b0f      	ldr	r3, [pc, #60]	; (8001db4 <MX_DMA2D_Init+0x5c>)
 8001d76:	2200      	movs	r2, #0
 8001d78:	629a      	str	r2, [r3, #40]	; 0x28
  hdma2d.LayerCfg[1].InputColorMode = DMA2D_INPUT_ARGB8888;
 8001d7a:	4b0e      	ldr	r3, [pc, #56]	; (8001db4 <MX_DMA2D_Init+0x5c>)
 8001d7c:	2200      	movs	r2, #0
 8001d7e:	62da      	str	r2, [r3, #44]	; 0x2c
  hdma2d.LayerCfg[1].AlphaMode = DMA2D_NO_MODIF_ALPHA;
 8001d80:	4b0c      	ldr	r3, [pc, #48]	; (8001db4 <MX_DMA2D_Init+0x5c>)
 8001d82:	2200      	movs	r2, #0
 8001d84:	631a      	str	r2, [r3, #48]	; 0x30
  hdma2d.LayerCfg[1].InputAlpha = 0;
 8001d86:	4b0b      	ldr	r3, [pc, #44]	; (8001db4 <MX_DMA2D_Init+0x5c>)
 8001d88:	2200      	movs	r2, #0
 8001d8a:	635a      	str	r2, [r3, #52]	; 0x34
  if (HAL_DMA2D_Init(&hdma2d) != HAL_OK)
 8001d8c:	4809      	ldr	r0, [pc, #36]	; (8001db4 <MX_DMA2D_Init+0x5c>)
 8001d8e:	f005 f845 	bl	8006e1c <HAL_DMA2D_Init>
 8001d92:	4603      	mov	r3, r0
 8001d94:	2b00      	cmp	r3, #0
 8001d96:	d001      	beq.n	8001d9c <MX_DMA2D_Init+0x44>
  {
    Error_Handler();
 8001d98:	f001 fc34 	bl	8003604 <Error_Handler>
  }
  if (HAL_DMA2D_ConfigLayer(&hdma2d, 1) != HAL_OK)
 8001d9c:	2101      	movs	r1, #1
 8001d9e:	4805      	ldr	r0, [pc, #20]	; (8001db4 <MX_DMA2D_Init+0x5c>)
 8001da0:	f005 f99a 	bl	80070d8 <HAL_DMA2D_ConfigLayer>
 8001da4:	4603      	mov	r3, r0
 8001da6:	2b00      	cmp	r3, #0
 8001da8:	d001      	beq.n	8001dae <MX_DMA2D_Init+0x56>
  {
    Error_Handler();
 8001daa:	f001 fc2b 	bl	8003604 <Error_Handler>
  }
  /* USER CODE BEGIN DMA2D_Init 2 */

  /* USER CODE END DMA2D_Init 2 */

}
 8001dae:	bf00      	nop
 8001db0:	bd80      	pop	{r7, pc}
 8001db2:	bf00      	nop
 8001db4:	20008ba4 	.word	0x20008ba4
 8001db8:	4002b000 	.word	0x4002b000

08001dbc <MX_I2C1_Init>:
  * @brief I2C1 Initialization Function
  * @param None
  * @retval None
  */
static void MX_I2C1_Init(void)
{
 8001dbc:	b580      	push	{r7, lr}
 8001dbe:	af00      	add	r7, sp, #0
  /* USER CODE END I2C1_Init 0 */

  /* USER CODE BEGIN I2C1_Init 1 */

  /* USER CODE END I2C1_Init 1 */
  hi2c1.Instance = I2C1;
 8001dc0:	4b1b      	ldr	r3, [pc, #108]	; (8001e30 <MX_I2C1_Init+0x74>)
 8001dc2:	4a1c      	ldr	r2, [pc, #112]	; (8001e34 <MX_I2C1_Init+0x78>)
 8001dc4:	601a      	str	r2, [r3, #0]
  hi2c1.Init.Timing = 0x00C0EAFF;
 8001dc6:	4b1a      	ldr	r3, [pc, #104]	; (8001e30 <MX_I2C1_Init+0x74>)
 8001dc8:	4a1b      	ldr	r2, [pc, #108]	; (8001e38 <MX_I2C1_Init+0x7c>)
 8001dca:	605a      	str	r2, [r3, #4]
  hi2c1.Init.OwnAddress1 = 0;
 8001dcc:	4b18      	ldr	r3, [pc, #96]	; (8001e30 <MX_I2C1_Init+0x74>)
 8001dce:	2200      	movs	r2, #0
 8001dd0:	609a      	str	r2, [r3, #8]
  hi2c1.Init.AddressingMode = I2C_ADDRESSINGMODE_7BIT;
 8001dd2:	4b17      	ldr	r3, [pc, #92]	; (8001e30 <MX_I2C1_Init+0x74>)
 8001dd4:	2201      	movs	r2, #1
 8001dd6:	60da      	str	r2, [r3, #12]
  hi2c1.Init.DualAddressMode = I2C_DUALADDRESS_DISABLE;
 8001dd8:	4b15      	ldr	r3, [pc, #84]	; (8001e30 <MX_I2C1_Init+0x74>)
 8001dda:	2200      	movs	r2, #0
 8001ddc:	611a      	str	r2, [r3, #16]
  hi2c1.Init.OwnAddress2 = 0;
 8001dde:	4b14      	ldr	r3, [pc, #80]	; (8001e30 <MX_I2C1_Init+0x74>)
 8001de0:	2200      	movs	r2, #0
 8001de2:	615a      	str	r2, [r3, #20]
  hi2c1.Init.OwnAddress2Masks = I2C_OA2_NOMASK;
 8001de4:	4b12      	ldr	r3, [pc, #72]	; (8001e30 <MX_I2C1_Init+0x74>)
 8001de6:	2200      	movs	r2, #0
 8001de8:	619a      	str	r2, [r3, #24]
  hi2c1.Init.GeneralCallMode = I2C_GENERALCALL_DISABLE;
 8001dea:	4b11      	ldr	r3, [pc, #68]	; (8001e30 <MX_I2C1_Init+0x74>)
 8001dec:	2200      	movs	r2, #0
 8001dee:	61da      	str	r2, [r3, #28]
  hi2c1.Init.NoStretchMode = I2C_NOSTRETCH_DISABLE;
 8001df0:	4b0f      	ldr	r3, [pc, #60]	; (8001e30 <MX_I2C1_Init+0x74>)
 8001df2:	2200      	movs	r2, #0
 8001df4:	621a      	str	r2, [r3, #32]
  if (HAL_I2C_Init(&hi2c1) != HAL_OK)
 8001df6:	480e      	ldr	r0, [pc, #56]	; (8001e30 <MX_I2C1_Init+0x74>)
 8001df8:	f005 fd82 	bl	8007900 <HAL_I2C_Init>
 8001dfc:	4603      	mov	r3, r0
 8001dfe:	2b00      	cmp	r3, #0
 8001e00:	d001      	beq.n	8001e06 <MX_I2C1_Init+0x4a>
  {
    Error_Handler();
 8001e02:	f001 fbff 	bl	8003604 <Error_Handler>
  }
  /** Configure Analogue filter
  */
  if (HAL_I2CEx_ConfigAnalogFilter(&hi2c1, I2C_ANALOGFILTER_ENABLE) != HAL_OK)
 8001e06:	2100      	movs	r1, #0
 8001e08:	4809      	ldr	r0, [pc, #36]	; (8001e30 <MX_I2C1_Init+0x74>)
 8001e0a:	f006 fa91 	bl	8008330 <HAL_I2CEx_ConfigAnalogFilter>
 8001e0e:	4603      	mov	r3, r0
 8001e10:	2b00      	cmp	r3, #0
 8001e12:	d001      	beq.n	8001e18 <MX_I2C1_Init+0x5c>
  {
    Error_Handler();
 8001e14:	f001 fbf6 	bl	8003604 <Error_Handler>
  }
  /** Configure Digital filter
  */
  if (HAL_I2CEx_ConfigDigitalFilter(&hi2c1, 0) != HAL_OK)
 8001e18:	2100      	movs	r1, #0
 8001e1a:	4805      	ldr	r0, [pc, #20]	; (8001e30 <MX_I2C1_Init+0x74>)
 8001e1c:	f006 fad3 	bl	80083c6 <HAL_I2CEx_ConfigDigitalFilter>
 8001e20:	4603      	mov	r3, r0
 8001e22:	2b00      	cmp	r3, #0
 8001e24:	d001      	beq.n	8001e2a <MX_I2C1_Init+0x6e>
  {
    Error_Handler();
 8001e26:	f001 fbed 	bl	8003604 <Error_Handler>
  }
  /* USER CODE BEGIN I2C1_Init 2 */

  /* USER CODE END I2C1_Init 2 */

}
 8001e2a:	bf00      	nop
 8001e2c:	bd80      	pop	{r7, pc}
 8001e2e:	bf00      	nop
 8001e30:	2000881c 	.word	0x2000881c
 8001e34:	40005400 	.word	0x40005400
 8001e38:	00c0eaff 	.word	0x00c0eaff

08001e3c <MX_I2C3_Init>:
  * @brief I2C3 Initialization Function
  * @param None
  * @retval None
  */
static void MX_I2C3_Init(void)
{
 8001e3c:	b580      	push	{r7, lr}
 8001e3e:	af00      	add	r7, sp, #0
  /* USER CODE END I2C3_Init 0 */

  /* USER CODE BEGIN I2C3_Init 1 */

  /* USER CODE END I2C3_Init 1 */
  hi2c3.Instance = I2C3;
 8001e40:	4b1b      	ldr	r3, [pc, #108]	; (8001eb0 <MX_I2C3_Init+0x74>)
 8001e42:	4a1c      	ldr	r2, [pc, #112]	; (8001eb4 <MX_I2C3_Init+0x78>)
 8001e44:	601a      	str	r2, [r3, #0]
  hi2c3.Init.Timing = 0x00C0EAFF;
 8001e46:	4b1a      	ldr	r3, [pc, #104]	; (8001eb0 <MX_I2C3_Init+0x74>)
 8001e48:	4a1b      	ldr	r2, [pc, #108]	; (8001eb8 <MX_I2C3_Init+0x7c>)
 8001e4a:	605a      	str	r2, [r3, #4]
  hi2c3.Init.OwnAddress1 = 0;
 8001e4c:	4b18      	ldr	r3, [pc, #96]	; (8001eb0 <MX_I2C3_Init+0x74>)
 8001e4e:	2200      	movs	r2, #0
 8001e50:	609a      	str	r2, [r3, #8]
  hi2c3.Init.AddressingMode = I2C_ADDRESSINGMODE_7BIT;
 8001e52:	4b17      	ldr	r3, [pc, #92]	; (8001eb0 <MX_I2C3_Init+0x74>)
 8001e54:	2201      	movs	r2, #1
 8001e56:	60da      	str	r2, [r3, #12]
  hi2c3.Init.DualAddressMode = I2C_DUALADDRESS_DISABLE;
 8001e58:	4b15      	ldr	r3, [pc, #84]	; (8001eb0 <MX_I2C3_Init+0x74>)
 8001e5a:	2200      	movs	r2, #0
 8001e5c:	611a      	str	r2, [r3, #16]
  hi2c3.Init.OwnAddress2 = 0;
 8001e5e:	4b14      	ldr	r3, [pc, #80]	; (8001eb0 <MX_I2C3_Init+0x74>)
 8001e60:	2200      	movs	r2, #0
 8001e62:	615a      	str	r2, [r3, #20]
  hi2c3.Init.OwnAddress2Masks = I2C_OA2_NOMASK;
 8001e64:	4b12      	ldr	r3, [pc, #72]	; (8001eb0 <MX_I2C3_Init+0x74>)
 8001e66:	2200      	movs	r2, #0
 8001e68:	619a      	str	r2, [r3, #24]
  hi2c3.Init.GeneralCallMode = I2C_GENERALCALL_DISABLE;
 8001e6a:	4b11      	ldr	r3, [pc, #68]	; (8001eb0 <MX_I2C3_Init+0x74>)
 8001e6c:	2200      	movs	r2, #0
 8001e6e:	61da      	str	r2, [r3, #28]
  hi2c3.Init.NoStretchMode = I2C_NOSTRETCH_DISABLE;
 8001e70:	4b0f      	ldr	r3, [pc, #60]	; (8001eb0 <MX_I2C3_Init+0x74>)
 8001e72:	2200      	movs	r2, #0
 8001e74:	621a      	str	r2, [r3, #32]
  if (HAL_I2C_Init(&hi2c3) != HAL_OK)
 8001e76:	480e      	ldr	r0, [pc, #56]	; (8001eb0 <MX_I2C3_Init+0x74>)
 8001e78:	f005 fd42 	bl	8007900 <HAL_I2C_Init>
 8001e7c:	4603      	mov	r3, r0
 8001e7e:	2b00      	cmp	r3, #0
 8001e80:	d001      	beq.n	8001e86 <MX_I2C3_Init+0x4a>
  {
    Error_Handler();
 8001e82:	f001 fbbf 	bl	8003604 <Error_Handler>
  }
  /** Configure Analogue filter
  */
  if (HAL_I2CEx_ConfigAnalogFilter(&hi2c3, I2C_ANALOGFILTER_ENABLE) != HAL_OK)
 8001e86:	2100      	movs	r1, #0
 8001e88:	4809      	ldr	r0, [pc, #36]	; (8001eb0 <MX_I2C3_Init+0x74>)
 8001e8a:	f006 fa51 	bl	8008330 <HAL_I2CEx_ConfigAnalogFilter>
 8001e8e:	4603      	mov	r3, r0
 8001e90:	2b00      	cmp	r3, #0
 8001e92:	d001      	beq.n	8001e98 <MX_I2C3_Init+0x5c>
  {
    Error_Handler();
 8001e94:	f001 fbb6 	bl	8003604 <Error_Handler>
  }
  /** Configure Digital filter
  */
  if (HAL_I2CEx_ConfigDigitalFilter(&hi2c3, 0) != HAL_OK)
 8001e98:	2100      	movs	r1, #0
 8001e9a:	4805      	ldr	r0, [pc, #20]	; (8001eb0 <MX_I2C3_Init+0x74>)
 8001e9c:	f006 fa93 	bl	80083c6 <HAL_I2CEx_ConfigDigitalFilter>
 8001ea0:	4603      	mov	r3, r0
 8001ea2:	2b00      	cmp	r3, #0
 8001ea4:	d001      	beq.n	8001eaa <MX_I2C3_Init+0x6e>
  {
    Error_Handler();
 8001ea6:	f001 fbad 	bl	8003604 <Error_Handler>
  }
  /* USER CODE BEGIN I2C3_Init 2 */

  /* USER CODE END I2C3_Init 2 */

}
 8001eaa:	bf00      	nop
 8001eac:	bd80      	pop	{r7, pc}
 8001eae:	bf00      	nop
 8001eb0:	200086a8 	.word	0x200086a8
 8001eb4:	40005c00 	.word	0x40005c00
 8001eb8:	00c0eaff 	.word	0x00c0eaff

08001ebc <MX_LTDC_Init>:
  * @brief LTDC Initialization Function
  * @param None
  * @retval None
  */
static void MX_LTDC_Init(void)
{
 8001ebc:	b580      	push	{r7, lr}
 8001ebe:	b08e      	sub	sp, #56	; 0x38
 8001ec0:	af00      	add	r7, sp, #0

  /* USER CODE BEGIN LTDC_Init 0 */

  /* USER CODE END LTDC_Init 0 */

  LTDC_LayerCfgTypeDef pLayerCfg = {0};
 8001ec2:	1d3b      	adds	r3, r7, #4
 8001ec4:	2234      	movs	r2, #52	; 0x34
 8001ec6:	2100      	movs	r1, #0
 8001ec8:	4618      	mov	r0, r3
 8001eca:	f00d f9c8 	bl	800f25e <memset>

  /* USER CODE BEGIN LTDC_Init 1 */

  /* USER CODE END LTDC_Init 1 */
  hltdc.Instance = LTDC;
 8001ece:	4b3a      	ldr	r3, [pc, #232]	; (8001fb8 <MX_LTDC_Init+0xfc>)
 8001ed0:	4a3a      	ldr	r2, [pc, #232]	; (8001fbc <MX_LTDC_Init+0x100>)
 8001ed2:	601a      	str	r2, [r3, #0]
  hltdc.Init.HSPolarity = LTDC_HSPOLARITY_AL;
 8001ed4:	4b38      	ldr	r3, [pc, #224]	; (8001fb8 <MX_LTDC_Init+0xfc>)
 8001ed6:	2200      	movs	r2, #0
 8001ed8:	605a      	str	r2, [r3, #4]
  hltdc.Init.VSPolarity = LTDC_VSPOLARITY_AL;
 8001eda:	4b37      	ldr	r3, [pc, #220]	; (8001fb8 <MX_LTDC_Init+0xfc>)
 8001edc:	2200      	movs	r2, #0
 8001ede:	609a      	str	r2, [r3, #8]
  hltdc.Init.DEPolarity = LTDC_DEPOLARITY_AL;
 8001ee0:	4b35      	ldr	r3, [pc, #212]	; (8001fb8 <MX_LTDC_Init+0xfc>)
 8001ee2:	2200      	movs	r2, #0
 8001ee4:	60da      	str	r2, [r3, #12]
  hltdc.Init.PCPolarity = LTDC_PCPOLARITY_IPC;
 8001ee6:	4b34      	ldr	r3, [pc, #208]	; (8001fb8 <MX_LTDC_Init+0xfc>)
 8001ee8:	2200      	movs	r2, #0
 8001eea:	611a      	str	r2, [r3, #16]
  hltdc.Init.HorizontalSync = 40;
 8001eec:	4b32      	ldr	r3, [pc, #200]	; (8001fb8 <MX_LTDC_Init+0xfc>)
 8001eee:	2228      	movs	r2, #40	; 0x28
 8001ef0:	615a      	str	r2, [r3, #20]
  hltdc.Init.VerticalSync = 9;
 8001ef2:	4b31      	ldr	r3, [pc, #196]	; (8001fb8 <MX_LTDC_Init+0xfc>)
 8001ef4:	2209      	movs	r2, #9
 8001ef6:	619a      	str	r2, [r3, #24]
  hltdc.Init.AccumulatedHBP = 53;
 8001ef8:	4b2f      	ldr	r3, [pc, #188]	; (8001fb8 <MX_LTDC_Init+0xfc>)
 8001efa:	2235      	movs	r2, #53	; 0x35
 8001efc:	61da      	str	r2, [r3, #28]
  hltdc.Init.AccumulatedVBP = 11;
 8001efe:	4b2e      	ldr	r3, [pc, #184]	; (8001fb8 <MX_LTDC_Init+0xfc>)
 8001f00:	220b      	movs	r2, #11
 8001f02:	621a      	str	r2, [r3, #32]
  hltdc.Init.AccumulatedActiveW = 533;
 8001f04:	4b2c      	ldr	r3, [pc, #176]	; (8001fb8 <MX_LTDC_Init+0xfc>)
 8001f06:	f240 2215 	movw	r2, #533	; 0x215
 8001f0a:	625a      	str	r2, [r3, #36]	; 0x24
  hltdc.Init.AccumulatedActiveH = 283;
 8001f0c:	4b2a      	ldr	r3, [pc, #168]	; (8001fb8 <MX_LTDC_Init+0xfc>)
 8001f0e:	f240 121b 	movw	r2, #283	; 0x11b
 8001f12:	629a      	str	r2, [r3, #40]	; 0x28
  hltdc.Init.TotalWidth = 565;
 8001f14:	4b28      	ldr	r3, [pc, #160]	; (8001fb8 <MX_LTDC_Init+0xfc>)
 8001f16:	f240 2235 	movw	r2, #565	; 0x235
 8001f1a:	62da      	str	r2, [r3, #44]	; 0x2c
  hltdc.Init.TotalHeigh = 285;
 8001f1c:	4b26      	ldr	r3, [pc, #152]	; (8001fb8 <MX_LTDC_Init+0xfc>)
 8001f1e:	f240 121d 	movw	r2, #285	; 0x11d
 8001f22:	631a      	str	r2, [r3, #48]	; 0x30
  hltdc.Init.Backcolor.Blue = 0;
 8001f24:	4b24      	ldr	r3, [pc, #144]	; (8001fb8 <MX_LTDC_Init+0xfc>)
 8001f26:	2200      	movs	r2, #0
 8001f28:	f883 2034 	strb.w	r2, [r3, #52]	; 0x34
  hltdc.Init.Backcolor.Green = 0;
 8001f2c:	4b22      	ldr	r3, [pc, #136]	; (8001fb8 <MX_LTDC_Init+0xfc>)
 8001f2e:	2200      	movs	r2, #0
 8001f30:	f883 2035 	strb.w	r2, [r3, #53]	; 0x35
  hltdc.Init.Backcolor.Red = 0;
 8001f34:	4b20      	ldr	r3, [pc, #128]	; (8001fb8 <MX_LTDC_Init+0xfc>)
 8001f36:	2200      	movs	r2, #0
 8001f38:	f883 2036 	strb.w	r2, [r3, #54]	; 0x36
  if (HAL_LTDC_Init(&hltdc) != HAL_OK)
 8001f3c:	481e      	ldr	r0, [pc, #120]	; (8001fb8 <MX_LTDC_Init+0xfc>)
 8001f3e:	f006 fa8f 	bl	8008460 <HAL_LTDC_Init>
 8001f42:	4603      	mov	r3, r0
 8001f44:	2b00      	cmp	r3, #0
 8001f46:	d001      	beq.n	8001f4c <MX_LTDC_Init+0x90>
  {
    Error_Handler();
 8001f48:	f001 fb5c 	bl	8003604 <Error_Handler>
  }
  pLayerCfg.WindowX0 = 0;
 8001f4c:	2300      	movs	r3, #0
 8001f4e:	607b      	str	r3, [r7, #4]
  pLayerCfg.WindowX1 = 480;
 8001f50:	f44f 73f0 	mov.w	r3, #480	; 0x1e0
 8001f54:	60bb      	str	r3, [r7, #8]
  pLayerCfg.WindowY0 = 0;
 8001f56:	2300      	movs	r3, #0
 8001f58:	60fb      	str	r3, [r7, #12]
  pLayerCfg.WindowY1 = 272;
 8001f5a:	f44f 7388 	mov.w	r3, #272	; 0x110
 8001f5e:	613b      	str	r3, [r7, #16]
  pLayerCfg.PixelFormat = LTDC_PIXEL_FORMAT_RGB565;
 8001f60:	2302      	movs	r3, #2
 8001f62:	617b      	str	r3, [r7, #20]
  pLayerCfg.Alpha = 255;
 8001f64:	23ff      	movs	r3, #255	; 0xff
 8001f66:	61bb      	str	r3, [r7, #24]
  pLayerCfg.Alpha0 = 0;
 8001f68:	2300      	movs	r3, #0
 8001f6a:	61fb      	str	r3, [r7, #28]
  pLayerCfg.BlendingFactor1 = LTDC_BLENDING_FACTOR1_PAxCA;
 8001f6c:	f44f 63c0 	mov.w	r3, #1536	; 0x600
 8001f70:	623b      	str	r3, [r7, #32]
  pLayerCfg.BlendingFactor2 = LTDC_BLENDING_FACTOR2_PAxCA;
 8001f72:	2307      	movs	r3, #7
 8001f74:	627b      	str	r3, [r7, #36]	; 0x24
  pLayerCfg.FBStartAdress = 0xC0000000;
 8001f76:	f04f 4340 	mov.w	r3, #3221225472	; 0xc0000000
 8001f7a:	62bb      	str	r3, [r7, #40]	; 0x28
  pLayerCfg.ImageWidth = 480;
 8001f7c:	f44f 73f0 	mov.w	r3, #480	; 0x1e0
 8001f80:	62fb      	str	r3, [r7, #44]	; 0x2c
  pLayerCfg.ImageHeight = 272;
 8001f82:	f44f 7388 	mov.w	r3, #272	; 0x110
 8001f86:	633b      	str	r3, [r7, #48]	; 0x30
  pLayerCfg.Backcolor.Blue = 0;
 8001f88:	2300      	movs	r3, #0
 8001f8a:	f887 3034 	strb.w	r3, [r7, #52]	; 0x34
  pLayerCfg.Backcolor.Green = 0;
 8001f8e:	2300      	movs	r3, #0
 8001f90:	f887 3035 	strb.w	r3, [r7, #53]	; 0x35
  pLayerCfg.Backcolor.Red = 0;
 8001f94:	2300      	movs	r3, #0
 8001f96:	f887 3036 	strb.w	r3, [r7, #54]	; 0x36
  if (HAL_LTDC_ConfigLayer(&hltdc, &pLayerCfg, 0) != HAL_OK)
 8001f9a:	1d3b      	adds	r3, r7, #4
 8001f9c:	2200      	movs	r2, #0
 8001f9e:	4619      	mov	r1, r3
 8001fa0:	4805      	ldr	r0, [pc, #20]	; (8001fb8 <MX_LTDC_Init+0xfc>)
 8001fa2:	f006 fbef 	bl	8008784 <HAL_LTDC_ConfigLayer>
 8001fa6:	4603      	mov	r3, r0
 8001fa8:	2b00      	cmp	r3, #0
 8001faa:	d001      	beq.n	8001fb0 <MX_LTDC_Init+0xf4>
  {
    Error_Handler();
 8001fac:	f001 fb2a 	bl	8003604 <Error_Handler>
  }
  /* USER CODE BEGIN LTDC_Init 2 */

  /* USER CODE END LTDC_Init 2 */

}
 8001fb0:	bf00      	nop
 8001fb2:	3738      	adds	r7, #56	; 0x38
 8001fb4:	46bd      	mov	sp, r7
 8001fb6:	bd80      	pop	{r7, pc}
 8001fb8:	200088e8 	.word	0x200088e8
 8001fbc:	40016800 	.word	0x40016800

08001fc0 <MX_RTC_Init>:
  * @brief RTC Initialization Function
  * @param None
  * @retval None
  */
static void MX_RTC_Init(void)
{
 8001fc0:	b580      	push	{r7, lr}
 8001fc2:	b092      	sub	sp, #72	; 0x48
 8001fc4:	af00      	add	r7, sp, #0

  /* USER CODE BEGIN RTC_Init 0 */

  /* USER CODE END RTC_Init 0 */

  RTC_TimeTypeDef sTime = {0};
 8001fc6:	f107 0330 	add.w	r3, r7, #48	; 0x30
 8001fca:	2200      	movs	r2, #0
 8001fcc:	601a      	str	r2, [r3, #0]
 8001fce:	605a      	str	r2, [r3, #4]
 8001fd0:	609a      	str	r2, [r3, #8]
 8001fd2:	60da      	str	r2, [r3, #12]
 8001fd4:	611a      	str	r2, [r3, #16]
 8001fd6:	615a      	str	r2, [r3, #20]
  RTC_DateTypeDef sDate = {0};
 8001fd8:	2300      	movs	r3, #0
 8001fda:	62fb      	str	r3, [r7, #44]	; 0x2c
  RTC_AlarmTypeDef sAlarm = {0};
 8001fdc:	463b      	mov	r3, r7
 8001fde:	222c      	movs	r2, #44	; 0x2c
 8001fe0:	2100      	movs	r1, #0
 8001fe2:	4618      	mov	r0, r3
 8001fe4:	f00d f93b 	bl	800f25e <memset>
  /* USER CODE BEGIN RTC_Init 1 */

  /* USER CODE END RTC_Init 1 */
  /** Initialize RTC Only
  */
  hrtc.Instance = RTC;
 8001fe8:	4b46      	ldr	r3, [pc, #280]	; (8002104 <MX_RTC_Init+0x144>)
 8001fea:	4a47      	ldr	r2, [pc, #284]	; (8002108 <MX_RTC_Init+0x148>)
 8001fec:	601a      	str	r2, [r3, #0]
  hrtc.Init.HourFormat = RTC_HOURFORMAT_24;
 8001fee:	4b45      	ldr	r3, [pc, #276]	; (8002104 <MX_RTC_Init+0x144>)
 8001ff0:	2200      	movs	r2, #0
 8001ff2:	605a      	str	r2, [r3, #4]
  hrtc.Init.AsynchPrediv = 127;
 8001ff4:	4b43      	ldr	r3, [pc, #268]	; (8002104 <MX_RTC_Init+0x144>)
 8001ff6:	227f      	movs	r2, #127	; 0x7f
 8001ff8:	609a      	str	r2, [r3, #8]
  hrtc.Init.SynchPrediv = 255;
 8001ffa:	4b42      	ldr	r3, [pc, #264]	; (8002104 <MX_RTC_Init+0x144>)
 8001ffc:	22ff      	movs	r2, #255	; 0xff
 8001ffe:	60da      	str	r2, [r3, #12]
  hrtc.Init.OutPut = RTC_OUTPUT_DISABLE;
 8002000:	4b40      	ldr	r3, [pc, #256]	; (8002104 <MX_RTC_Init+0x144>)
 8002002:	2200      	movs	r2, #0
 8002004:	611a      	str	r2, [r3, #16]
  hrtc.Init.OutPutPolarity = RTC_OUTPUT_POLARITY_HIGH;
 8002006:	4b3f      	ldr	r3, [pc, #252]	; (8002104 <MX_RTC_Init+0x144>)
 8002008:	2200      	movs	r2, #0
 800200a:	615a      	str	r2, [r3, #20]
  hrtc.Init.OutPutType = RTC_OUTPUT_TYPE_OPENDRAIN;
 800200c:	4b3d      	ldr	r3, [pc, #244]	; (8002104 <MX_RTC_Init+0x144>)
 800200e:	2200      	movs	r2, #0
 8002010:	619a      	str	r2, [r3, #24]
  if (HAL_RTC_Init(&hrtc) != HAL_OK)
 8002012:	483c      	ldr	r0, [pc, #240]	; (8002104 <MX_RTC_Init+0x144>)
 8002014:	f007 fe92 	bl	8009d3c <HAL_RTC_Init>
 8002018:	4603      	mov	r3, r0
 800201a:	2b00      	cmp	r3, #0
 800201c:	d001      	beq.n	8002022 <MX_RTC_Init+0x62>
  {
    Error_Handler();
 800201e:	f001 faf1 	bl	8003604 <Error_Handler>

  /* USER CODE END Check_RTC_BKUP */

  /** Initialize RTC and set the Time and Date
  */
  sTime.Hours = 0x0;
 8002022:	2300      	movs	r3, #0
 8002024:	f887 3030 	strb.w	r3, [r7, #48]	; 0x30
  sTime.Minutes = 0x0;
 8002028:	2300      	movs	r3, #0
 800202a:	f887 3031 	strb.w	r3, [r7, #49]	; 0x31
  sTime.Seconds = 0x0;
 800202e:	2300      	movs	r3, #0
 8002030:	f887 3032 	strb.w	r3, [r7, #50]	; 0x32
  sTime.DayLightSaving = RTC_DAYLIGHTSAVING_NONE;
 8002034:	2300      	movs	r3, #0
 8002036:	643b      	str	r3, [r7, #64]	; 0x40
  sTime.StoreOperation = RTC_STOREOPERATION_RESET;
 8002038:	2300      	movs	r3, #0
 800203a:	647b      	str	r3, [r7, #68]	; 0x44
  if (HAL_RTC_SetTime(&hrtc, &sTime, RTC_FORMAT_BCD) != HAL_OK)
 800203c:	f107 0330 	add.w	r3, r7, #48	; 0x30
 8002040:	2201      	movs	r2, #1
 8002042:	4619      	mov	r1, r3
 8002044:	482f      	ldr	r0, [pc, #188]	; (8002104 <MX_RTC_Init+0x144>)
 8002046:	f007 fef5 	bl	8009e34 <HAL_RTC_SetTime>
 800204a:	4603      	mov	r3, r0
 800204c:	2b00      	cmp	r3, #0
 800204e:	d001      	beq.n	8002054 <MX_RTC_Init+0x94>
  {
    Error_Handler();
 8002050:	f001 fad8 	bl	8003604 <Error_Handler>
  }
  sDate.WeekDay = RTC_WEEKDAY_MONDAY;
 8002054:	2301      	movs	r3, #1
 8002056:	f887 302c 	strb.w	r3, [r7, #44]	; 0x2c
  sDate.Month = RTC_MONTH_JANUARY;
 800205a:	2301      	movs	r3, #1
 800205c:	f887 302d 	strb.w	r3, [r7, #45]	; 0x2d
  sDate.Date = 0x1;
 8002060:	2301      	movs	r3, #1
 8002062:	f887 302e 	strb.w	r3, [r7, #46]	; 0x2e
  sDate.Year = 0x0;
 8002066:	2300      	movs	r3, #0
 8002068:	f887 302f 	strb.w	r3, [r7, #47]	; 0x2f
  if (HAL_RTC_SetDate(&hrtc, &sDate, RTC_FORMAT_BCD) != HAL_OK)
 800206c:	f107 032c 	add.w	r3, r7, #44	; 0x2c
 8002070:	2201      	movs	r2, #1
 8002072:	4619      	mov	r1, r3
 8002074:	4823      	ldr	r0, [pc, #140]	; (8002104 <MX_RTC_Init+0x144>)
 8002076:	f007 ff9b 	bl	8009fb0 <HAL_RTC_SetDate>
 800207a:	4603      	mov	r3, r0
 800207c:	2b00      	cmp	r3, #0
 800207e:	d001      	beq.n	8002084 <MX_RTC_Init+0xc4>
  {
    Error_Handler();
 8002080:	f001 fac0 	bl	8003604 <Error_Handler>
  }
  /** Enable the Alarm A
  */
  sAlarm.AlarmTime.Hours = 0x0;
 8002084:	2300      	movs	r3, #0
 8002086:	703b      	strb	r3, [r7, #0]
  sAlarm.AlarmTime.Minutes = 0x0;
 8002088:	2300      	movs	r3, #0
 800208a:	707b      	strb	r3, [r7, #1]
  sAlarm.AlarmTime.Seconds = 0x0;
 800208c:	2300      	movs	r3, #0
 800208e:	70bb      	strb	r3, [r7, #2]
  sAlarm.AlarmTime.SubSeconds = 0x0;
 8002090:	2300      	movs	r3, #0
 8002092:	607b      	str	r3, [r7, #4]
  sAlarm.AlarmTime.DayLightSaving = RTC_DAYLIGHTSAVING_NONE;
 8002094:	2300      	movs	r3, #0
 8002096:	613b      	str	r3, [r7, #16]
  sAlarm.AlarmTime.StoreOperation = RTC_STOREOPERATION_RESET;
 8002098:	2300      	movs	r3, #0
 800209a:	617b      	str	r3, [r7, #20]
  sAlarm.AlarmMask = RTC_ALARMMASK_NONE;
 800209c:	2300      	movs	r3, #0
 800209e:	61bb      	str	r3, [r7, #24]
  sAlarm.AlarmSubSecondMask = RTC_ALARMSUBSECONDMASK_ALL;
 80020a0:	2300      	movs	r3, #0
 80020a2:	61fb      	str	r3, [r7, #28]
  sAlarm.AlarmDateWeekDaySel = RTC_ALARMDATEWEEKDAYSEL_DATE;
 80020a4:	2300      	movs	r3, #0
 80020a6:	623b      	str	r3, [r7, #32]
  sAlarm.AlarmDateWeekDay = 0x1;
 80020a8:	2301      	movs	r3, #1
 80020aa:	f887 3024 	strb.w	r3, [r7, #36]	; 0x24
  sAlarm.Alarm = RTC_ALARM_A;
 80020ae:	f44f 7380 	mov.w	r3, #256	; 0x100
 80020b2:	62bb      	str	r3, [r7, #40]	; 0x28
  if (HAL_RTC_SetAlarm(&hrtc, &sAlarm, RTC_FORMAT_BCD) != HAL_OK)
 80020b4:	463b      	mov	r3, r7
 80020b6:	2201      	movs	r2, #1
 80020b8:	4619      	mov	r1, r3
 80020ba:	4812      	ldr	r0, [pc, #72]	; (8002104 <MX_RTC_Init+0x144>)
 80020bc:	f008 f820 	bl	800a100 <HAL_RTC_SetAlarm>
 80020c0:	4603      	mov	r3, r0
 80020c2:	2b00      	cmp	r3, #0
 80020c4:	d001      	beq.n	80020ca <MX_RTC_Init+0x10a>
  {
    Error_Handler();
 80020c6:	f001 fa9d 	bl	8003604 <Error_Handler>
  }
  /** Enable the Alarm B
  */
  sAlarm.Alarm = RTC_ALARM_B;
 80020ca:	f44f 7300 	mov.w	r3, #512	; 0x200
 80020ce:	62bb      	str	r3, [r7, #40]	; 0x28
  if (HAL_RTC_SetAlarm(&hrtc, &sAlarm, RTC_FORMAT_BCD) != HAL_OK)
 80020d0:	463b      	mov	r3, r7
 80020d2:	2201      	movs	r2, #1
 80020d4:	4619      	mov	r1, r3
 80020d6:	480b      	ldr	r0, [pc, #44]	; (8002104 <MX_RTC_Init+0x144>)
 80020d8:	f008 f812 	bl	800a100 <HAL_RTC_SetAlarm>
 80020dc:	4603      	mov	r3, r0
 80020de:	2b00      	cmp	r3, #0
 80020e0:	d001      	beq.n	80020e6 <MX_RTC_Init+0x126>
  {
    Error_Handler();
 80020e2:	f001 fa8f 	bl	8003604 <Error_Handler>
  }
  /** Enable the TimeStamp
  */
  if (HAL_RTCEx_SetTimeStamp(&hrtc, RTC_TIMESTAMPEDGE_RISING, RTC_TIMESTAMPPIN_POS1) != HAL_OK)
 80020e6:	2202      	movs	r2, #2
 80020e8:	2100      	movs	r1, #0
 80020ea:	4806      	ldr	r0, [pc, #24]	; (8002104 <MX_RTC_Init+0x144>)
 80020ec:	f008 f992 	bl	800a414 <HAL_RTCEx_SetTimeStamp>
 80020f0:	4603      	mov	r3, r0
 80020f2:	2b00      	cmp	r3, #0
 80020f4:	d001      	beq.n	80020fa <MX_RTC_Init+0x13a>
  {
    Error_Handler();
 80020f6:	f001 fa85 	bl	8003604 <Error_Handler>
  }
  /* USER CODE BEGIN RTC_Init 2 */

  /* USER CODE END RTC_Init 2 */

}
 80020fa:	bf00      	nop
 80020fc:	3748      	adds	r7, #72	; 0x48
 80020fe:	46bd      	mov	sp, r7
 8002100:	bd80      	pop	{r7, pc}
 8002102:	bf00      	nop
 8002104:	20008ac0 	.word	0x20008ac0
 8002108:	40002800 	.word	0x40002800

0800210c <MX_SPI2_Init>:
  * @brief SPI2 Initialization Function
  * @param None
  * @retval None
  */
static void MX_SPI2_Init(void)
{
 800210c:	b580      	push	{r7, lr}
 800210e:	af00      	add	r7, sp, #0

  /* USER CODE BEGIN SPI2_Init 1 */

  /* USER CODE END SPI2_Init 1 */
  /* SPI2 parameter configuration*/
  hspi2.Instance = SPI2;
 8002110:	4b1b      	ldr	r3, [pc, #108]	; (8002180 <MX_SPI2_Init+0x74>)
 8002112:	4a1c      	ldr	r2, [pc, #112]	; (8002184 <MX_SPI2_Init+0x78>)
 8002114:	601a      	str	r2, [r3, #0]
  hspi2.Init.Mode = SPI_MODE_MASTER;
 8002116:	4b1a      	ldr	r3, [pc, #104]	; (8002180 <MX_SPI2_Init+0x74>)
 8002118:	f44f 7282 	mov.w	r2, #260	; 0x104
 800211c:	605a      	str	r2, [r3, #4]
  hspi2.Init.Direction = SPI_DIRECTION_2LINES;
 800211e:	4b18      	ldr	r3, [pc, #96]	; (8002180 <MX_SPI2_Init+0x74>)
 8002120:	2200      	movs	r2, #0
 8002122:	609a      	str	r2, [r3, #8]
  hspi2.Init.DataSize = SPI_DATASIZE_4BIT;
 8002124:	4b16      	ldr	r3, [pc, #88]	; (8002180 <MX_SPI2_Init+0x74>)
 8002126:	f44f 7240 	mov.w	r2, #768	; 0x300
 800212a:	60da      	str	r2, [r3, #12]
  hspi2.Init.CLKPolarity = SPI_POLARITY_LOW;
 800212c:	4b14      	ldr	r3, [pc, #80]	; (8002180 <MX_SPI2_Init+0x74>)
 800212e:	2200      	movs	r2, #0
 8002130:	611a      	str	r2, [r3, #16]
  hspi2.Init.CLKPhase = SPI_PHASE_1EDGE;
 8002132:	4b13      	ldr	r3, [pc, #76]	; (8002180 <MX_SPI2_Init+0x74>)
 8002134:	2200      	movs	r2, #0
 8002136:	615a      	str	r2, [r3, #20]
  hspi2.Init.NSS = SPI_NSS_HARD_OUTPUT;
 8002138:	4b11      	ldr	r3, [pc, #68]	; (8002180 <MX_SPI2_Init+0x74>)
 800213a:	f44f 2280 	mov.w	r2, #262144	; 0x40000
 800213e:	619a      	str	r2, [r3, #24]
  hspi2.Init.BaudRatePrescaler = SPI_BAUDRATEPRESCALER_2;
 8002140:	4b0f      	ldr	r3, [pc, #60]	; (8002180 <MX_SPI2_Init+0x74>)
 8002142:	2200      	movs	r2, #0
 8002144:	61da      	str	r2, [r3, #28]
  hspi2.Init.FirstBit = SPI_FIRSTBIT_MSB;
 8002146:	4b0e      	ldr	r3, [pc, #56]	; (8002180 <MX_SPI2_Init+0x74>)
 8002148:	2200      	movs	r2, #0
 800214a:	621a      	str	r2, [r3, #32]
  hspi2.Init.TIMode = SPI_TIMODE_DISABLE;
 800214c:	4b0c      	ldr	r3, [pc, #48]	; (8002180 <MX_SPI2_Init+0x74>)
 800214e:	2200      	movs	r2, #0
 8002150:	625a      	str	r2, [r3, #36]	; 0x24
  hspi2.Init.CRCCalculation = SPI_CRCCALCULATION_DISABLE;
 8002152:	4b0b      	ldr	r3, [pc, #44]	; (8002180 <MX_SPI2_Init+0x74>)
 8002154:	2200      	movs	r2, #0
 8002156:	629a      	str	r2, [r3, #40]	; 0x28
  hspi2.Init.CRCPolynomial = 7;
 8002158:	4b09      	ldr	r3, [pc, #36]	; (8002180 <MX_SPI2_Init+0x74>)
 800215a:	2207      	movs	r2, #7
 800215c:	62da      	str	r2, [r3, #44]	; 0x2c
  hspi2.Init.CRCLength = SPI_CRC_LENGTH_DATASIZE;
 800215e:	4b08      	ldr	r3, [pc, #32]	; (8002180 <MX_SPI2_Init+0x74>)
 8002160:	2200      	movs	r2, #0
 8002162:	631a      	str	r2, [r3, #48]	; 0x30
  hspi2.Init.NSSPMode = SPI_NSS_PULSE_ENABLE;
 8002164:	4b06      	ldr	r3, [pc, #24]	; (8002180 <MX_SPI2_Init+0x74>)
 8002166:	2208      	movs	r2, #8
 8002168:	635a      	str	r2, [r3, #52]	; 0x34
  if (HAL_SPI_Init(&hspi2) != HAL_OK)
 800216a:	4805      	ldr	r0, [pc, #20]	; (8002180 <MX_SPI2_Init+0x74>)
 800216c:	f008 fa27 	bl	800a5be <HAL_SPI_Init>
 8002170:	4603      	mov	r3, r0
 8002172:	2b00      	cmp	r3, #0
 8002174:	d001      	beq.n	800217a <MX_SPI2_Init+0x6e>
  {
    Error_Handler();
 8002176:	f001 fa45 	bl	8003604 <Error_Handler>
  }
  /* USER CODE BEGIN SPI2_Init 2 */

  /* USER CODE END SPI2_Init 2 */

}
 800217a:	bf00      	nop
 800217c:	bd80      	pop	{r7, pc}
 800217e:	bf00      	nop
 8002180:	200086f8 	.word	0x200086f8
 8002184:	40003800 	.word	0x40003800

08002188 <MX_TIM1_Init>:
  * @brief TIM1 Initialization Function
  * @param None
  * @retval None
  */
static void MX_TIM1_Init(void)
{
 8002188:	b580      	push	{r7, lr}
 800218a:	b088      	sub	sp, #32
 800218c:	af00      	add	r7, sp, #0

  /* USER CODE BEGIN TIM1_Init 0 */

  /* USER CODE END TIM1_Init 0 */

  TIM_ClockConfigTypeDef sClockSourceConfig = {0};
 800218e:	f107 0310 	add.w	r3, r7, #16
 8002192:	2200      	movs	r2, #0
 8002194:	601a      	str	r2, [r3, #0]
 8002196:	605a      	str	r2, [r3, #4]
 8002198:	609a      	str	r2, [r3, #8]
 800219a:	60da      	str	r2, [r3, #12]
  TIM_MasterConfigTypeDef sMasterConfig = {0};
 800219c:	1d3b      	adds	r3, r7, #4
 800219e:	2200      	movs	r2, #0
 80021a0:	601a      	str	r2, [r3, #0]
 80021a2:	605a      	str	r2, [r3, #4]
 80021a4:	609a      	str	r2, [r3, #8]

  /* USER CODE BEGIN TIM1_Init 1 */

  /* USER CODE END TIM1_Init 1 */
  htim1.Instance = TIM1;
 80021a6:	4b20      	ldr	r3, [pc, #128]	; (8002228 <MX_TIM1_Init+0xa0>)
 80021a8:	4a20      	ldr	r2, [pc, #128]	; (800222c <MX_TIM1_Init+0xa4>)
 80021aa:	601a      	str	r2, [r3, #0]
  htim1.Init.Prescaler = 0;
 80021ac:	4b1e      	ldr	r3, [pc, #120]	; (8002228 <MX_TIM1_Init+0xa0>)
 80021ae:	2200      	movs	r2, #0
 80021b0:	605a      	str	r2, [r3, #4]
  htim1.Init.CounterMode = TIM_COUNTERMODE_UP;
 80021b2:	4b1d      	ldr	r3, [pc, #116]	; (8002228 <MX_TIM1_Init+0xa0>)
 80021b4:	2200      	movs	r2, #0
 80021b6:	609a      	str	r2, [r3, #8]
  htim1.Init.Period = 65535;
 80021b8:	4b1b      	ldr	r3, [pc, #108]	; (8002228 <MX_TIM1_Init+0xa0>)
 80021ba:	f64f 72ff 	movw	r2, #65535	; 0xffff
 80021be:	60da      	str	r2, [r3, #12]
  htim1.Init.ClockDivision = TIM_CLOCKDIVISION_DIV1;
 80021c0:	4b19      	ldr	r3, [pc, #100]	; (8002228 <MX_TIM1_Init+0xa0>)
 80021c2:	2200      	movs	r2, #0
 80021c4:	611a      	str	r2, [r3, #16]
  htim1.Init.RepetitionCounter = 0;
 80021c6:	4b18      	ldr	r3, [pc, #96]	; (8002228 <MX_TIM1_Init+0xa0>)
 80021c8:	2200      	movs	r2, #0
 80021ca:	615a      	str	r2, [r3, #20]
  htim1.Init.AutoReloadPreload = TIM_AUTORELOAD_PRELOAD_DISABLE;
 80021cc:	4b16      	ldr	r3, [pc, #88]	; (8002228 <MX_TIM1_Init+0xa0>)
 80021ce:	2200      	movs	r2, #0
 80021d0:	619a      	str	r2, [r3, #24]
  if (HAL_TIM_Base_Init(&htim1) != HAL_OK)
 80021d2:	4815      	ldr	r0, [pc, #84]	; (8002228 <MX_TIM1_Init+0xa0>)
 80021d4:	f008 fa85 	bl	800a6e2 <HAL_TIM_Base_Init>
 80021d8:	4603      	mov	r3, r0
 80021da:	2b00      	cmp	r3, #0
 80021dc:	d001      	beq.n	80021e2 <MX_TIM1_Init+0x5a>
  {
    Error_Handler();
 80021de:	f001 fa11 	bl	8003604 <Error_Handler>
  }
  sClockSourceConfig.ClockSource = TIM_CLOCKSOURCE_INTERNAL;
 80021e2:	f44f 5380 	mov.w	r3, #4096	; 0x1000
 80021e6:	613b      	str	r3, [r7, #16]
  if (HAL_TIM_ConfigClockSource(&htim1, &sClockSourceConfig) != HAL_OK)
 80021e8:	f107 0310 	add.w	r3, r7, #16
 80021ec:	4619      	mov	r1, r3
 80021ee:	480e      	ldr	r0, [pc, #56]	; (8002228 <MX_TIM1_Init+0xa0>)
 80021f0:	f008 fd38 	bl	800ac64 <HAL_TIM_ConfigClockSource>
 80021f4:	4603      	mov	r3, r0
 80021f6:	2b00      	cmp	r3, #0
 80021f8:	d001      	beq.n	80021fe <MX_TIM1_Init+0x76>
  {
    Error_Handler();
 80021fa:	f001 fa03 	bl	8003604 <Error_Handler>
  }
  sMasterConfig.MasterOutputTrigger = TIM_TRGO_RESET;
 80021fe:	2300      	movs	r3, #0
 8002200:	607b      	str	r3, [r7, #4]
  sMasterConfig.MasterOutputTrigger2 = TIM_TRGO2_RESET;
 8002202:	2300      	movs	r3, #0
 8002204:	60bb      	str	r3, [r7, #8]
  sMasterConfig.MasterSlaveMode = TIM_MASTERSLAVEMODE_DISABLE;
 8002206:	2300      	movs	r3, #0
 8002208:	60fb      	str	r3, [r7, #12]
  if (HAL_TIMEx_MasterConfigSynchronization(&htim1, &sMasterConfig) != HAL_OK)
 800220a:	1d3b      	adds	r3, r7, #4
 800220c:	4619      	mov	r1, r3
 800220e:	4806      	ldr	r0, [pc, #24]	; (8002228 <MX_TIM1_Init+0xa0>)
 8002210:	f009 fa6c 	bl	800b6ec <HAL_TIMEx_MasterConfigSynchronization>
 8002214:	4603      	mov	r3, r0
 8002216:	2b00      	cmp	r3, #0
 8002218:	d001      	beq.n	800221e <MX_TIM1_Init+0x96>
  {
    Error_Handler();
 800221a:	f001 f9f3 	bl	8003604 <Error_Handler>
  }
  /* USER CODE BEGIN TIM1_Init 2 */

  /* USER CODE END TIM1_Init 2 */

}
 800221e:	bf00      	nop
 8002220:	3720      	adds	r7, #32
 8002222:	46bd      	mov	sp, r7
 8002224:	bd80      	pop	{r7, pc}
 8002226:	bf00      	nop
 8002228:	20008ae0 	.word	0x20008ae0
 800222c:	40010000 	.word	0x40010000

08002230 <MX_TIM2_Init>:
  * @brief TIM2 Initialization Function
  * @param None
  * @retval None
  */
static void MX_TIM2_Init(void)
{
 8002230:	b580      	push	{r7, lr}
 8002232:	b088      	sub	sp, #32
 8002234:	af00      	add	r7, sp, #0

  /* USER CODE BEGIN TIM2_Init 0 */

  /* USER CODE END TIM2_Init 0 */

  TIM_ClockConfigTypeDef sClockSourceConfig = {0};
 8002236:	f107 0310 	add.w	r3, r7, #16
 800223a:	2200      	movs	r2, #0
 800223c:	601a      	str	r2, [r3, #0]
 800223e:	605a      	str	r2, [r3, #4]
 8002240:	609a      	str	r2, [r3, #8]
 8002242:	60da      	str	r2, [r3, #12]
  TIM_MasterConfigTypeDef sMasterConfig = {0};
 8002244:	1d3b      	adds	r3, r7, #4
 8002246:	2200      	movs	r2, #0
 8002248:	601a      	str	r2, [r3, #0]
 800224a:	605a      	str	r2, [r3, #4]
 800224c:	609a      	str	r2, [r3, #8]

  /* USER CODE BEGIN TIM2_Init 1 */

  /* USER CODE END TIM2_Init 1 */
  htim2.Instance = TIM2;
 800224e:	4b1e      	ldr	r3, [pc, #120]	; (80022c8 <MX_TIM2_Init+0x98>)
 8002250:	f04f 4280 	mov.w	r2, #1073741824	; 0x40000000
 8002254:	601a      	str	r2, [r3, #0]
  htim2.Init.Prescaler = 0;
 8002256:	4b1c      	ldr	r3, [pc, #112]	; (80022c8 <MX_TIM2_Init+0x98>)
 8002258:	2200      	movs	r2, #0
 800225a:	605a      	str	r2, [r3, #4]
  htim2.Init.CounterMode = TIM_COUNTERMODE_UP;
 800225c:	4b1a      	ldr	r3, [pc, #104]	; (80022c8 <MX_TIM2_Init+0x98>)
 800225e:	2200      	movs	r2, #0
 8002260:	609a      	str	r2, [r3, #8]
  htim2.Init.Period = 4294967295;
 8002262:	4b19      	ldr	r3, [pc, #100]	; (80022c8 <MX_TIM2_Init+0x98>)
 8002264:	f04f 32ff 	mov.w	r2, #4294967295
 8002268:	60da      	str	r2, [r3, #12]
  htim2.Init.ClockDivision = TIM_CLOCKDIVISION_DIV1;
 800226a:	4b17      	ldr	r3, [pc, #92]	; (80022c8 <MX_TIM2_Init+0x98>)
 800226c:	2200      	movs	r2, #0
 800226e:	611a      	str	r2, [r3, #16]
  htim2.Init.AutoReloadPreload = TIM_AUTORELOAD_PRELOAD_DISABLE;
 8002270:	4b15      	ldr	r3, [pc, #84]	; (80022c8 <MX_TIM2_Init+0x98>)
 8002272:	2200      	movs	r2, #0
 8002274:	619a      	str	r2, [r3, #24]
  if (HAL_TIM_Base_Init(&htim2) != HAL_OK)
 8002276:	4814      	ldr	r0, [pc, #80]	; (80022c8 <MX_TIM2_Init+0x98>)
 8002278:	f008 fa33 	bl	800a6e2 <HAL_TIM_Base_Init>
 800227c:	4603      	mov	r3, r0
 800227e:	2b00      	cmp	r3, #0
 8002280:	d001      	beq.n	8002286 <MX_TIM2_Init+0x56>
  {
    Error_Handler();
 8002282:	f001 f9bf 	bl	8003604 <Error_Handler>
  }
  sClockSourceConfig.ClockSource = TIM_CLOCKSOURCE_INTERNAL;
 8002286:	f44f 5380 	mov.w	r3, #4096	; 0x1000
 800228a:	613b      	str	r3, [r7, #16]
  if (HAL_TIM_ConfigClockSource(&htim2, &sClockSourceConfig) != HAL_OK)
 800228c:	f107 0310 	add.w	r3, r7, #16
 8002290:	4619      	mov	r1, r3
 8002292:	480d      	ldr	r0, [pc, #52]	; (80022c8 <MX_TIM2_Init+0x98>)
 8002294:	f008 fce6 	bl	800ac64 <HAL_TIM_ConfigClockSource>
 8002298:	4603      	mov	r3, r0
 800229a:	2b00      	cmp	r3, #0
 800229c:	d001      	beq.n	80022a2 <MX_TIM2_Init+0x72>
  {
    Error_Handler();
 800229e:	f001 f9b1 	bl	8003604 <Error_Handler>
  }
  sMasterConfig.MasterOutputTrigger = TIM_TRGO_RESET;
 80022a2:	2300      	movs	r3, #0
 80022a4:	607b      	str	r3, [r7, #4]
  sMasterConfig.MasterSlaveMode = TIM_MASTERSLAVEMODE_DISABLE;
 80022a6:	2300      	movs	r3, #0
 80022a8:	60fb      	str	r3, [r7, #12]
  if (HAL_TIMEx_MasterConfigSynchronization(&htim2, &sMasterConfig) != HAL_OK)
 80022aa:	1d3b      	adds	r3, r7, #4
 80022ac:	4619      	mov	r1, r3
 80022ae:	4806      	ldr	r0, [pc, #24]	; (80022c8 <MX_TIM2_Init+0x98>)
 80022b0:	f009 fa1c 	bl	800b6ec <HAL_TIMEx_MasterConfigSynchronization>
 80022b4:	4603      	mov	r3, r0
 80022b6:	2b00      	cmp	r3, #0
 80022b8:	d001      	beq.n	80022be <MX_TIM2_Init+0x8e>
  {
    Error_Handler();
 80022ba:	f001 f9a3 	bl	8003604 <Error_Handler>
  }
  /* USER CODE BEGIN TIM2_Init 2 */

  /* USER CODE END TIM2_Init 2 */

}
 80022be:	bf00      	nop
 80022c0:	3720      	adds	r7, #32
 80022c2:	46bd      	mov	sp, r7
 80022c4:	bd80      	pop	{r7, pc}
 80022c6:	bf00      	nop
 80022c8:	20008be4 	.word	0x20008be4

080022cc <MX_TIM3_Init>:
  * @brief TIM3 Initialization Function
  * @param None
  * @retval None
  */
static void MX_TIM3_Init(void)
{
 80022cc:	b580      	push	{r7, lr}
 80022ce:	b094      	sub	sp, #80	; 0x50
 80022d0:	af00      	add	r7, sp, #0

  /* USER CODE BEGIN TIM3_Init 0 */

  /* USER CODE END TIM3_Init 0 */

  TIM_ClockConfigTypeDef sClockSourceConfig = {0};
 80022d2:	f107 0340 	add.w	r3, r7, #64	; 0x40
 80022d6:	2200      	movs	r2, #0
 80022d8:	601a      	str	r2, [r3, #0]
 80022da:	605a      	str	r2, [r3, #4]
 80022dc:	609a      	str	r2, [r3, #8]
 80022de:	60da      	str	r2, [r3, #12]
  TIM_SlaveConfigTypeDef sSlaveConfig = {0};
 80022e0:	f107 032c 	add.w	r3, r7, #44	; 0x2c
 80022e4:	2200      	movs	r2, #0
 80022e6:	601a      	str	r2, [r3, #0]
 80022e8:	605a      	str	r2, [r3, #4]
 80022ea:	609a      	str	r2, [r3, #8]
 80022ec:	60da      	str	r2, [r3, #12]
 80022ee:	611a      	str	r2, [r3, #16]
  TIM_MasterConfigTypeDef sMasterConfig = {0};
 80022f0:	f107 0320 	add.w	r3, r7, #32
 80022f4:	2200      	movs	r2, #0
 80022f6:	601a      	str	r2, [r3, #0]
 80022f8:	605a      	str	r2, [r3, #4]
 80022fa:	609a      	str	r2, [r3, #8]
  TIM_OC_InitTypeDef sConfigOC = {0};
 80022fc:	1d3b      	adds	r3, r7, #4
 80022fe:	2200      	movs	r2, #0
 8002300:	601a      	str	r2, [r3, #0]
 8002302:	605a      	str	r2, [r3, #4]
 8002304:	609a      	str	r2, [r3, #8]
 8002306:	60da      	str	r2, [r3, #12]
 8002308:	611a      	str	r2, [r3, #16]
 800230a:	615a      	str	r2, [r3, #20]
 800230c:	619a      	str	r2, [r3, #24]

  /* USER CODE BEGIN TIM3_Init 1 */

  /* USER CODE END TIM3_Init 1 */
  htim3.Instance = TIM3;
 800230e:	4b34      	ldr	r3, [pc, #208]	; (80023e0 <MX_TIM3_Init+0x114>)
 8002310:	4a34      	ldr	r2, [pc, #208]	; (80023e4 <MX_TIM3_Init+0x118>)
 8002312:	601a      	str	r2, [r3, #0]
  htim3.Init.Prescaler = 0;
 8002314:	4b32      	ldr	r3, [pc, #200]	; (80023e0 <MX_TIM3_Init+0x114>)
 8002316:	2200      	movs	r2, #0
 8002318:	605a      	str	r2, [r3, #4]
  htim3.Init.CounterMode = TIM_COUNTERMODE_UP;
 800231a:	4b31      	ldr	r3, [pc, #196]	; (80023e0 <MX_TIM3_Init+0x114>)
 800231c:	2200      	movs	r2, #0
 800231e:	609a      	str	r2, [r3, #8]
  htim3.Init.Period = 65535;
 8002320:	4b2f      	ldr	r3, [pc, #188]	; (80023e0 <MX_TIM3_Init+0x114>)
 8002322:	f64f 72ff 	movw	r2, #65535	; 0xffff
 8002326:	60da      	str	r2, [r3, #12]
  htim3.Init.ClockDivision = TIM_CLOCKDIVISION_DIV1;
 8002328:	4b2d      	ldr	r3, [pc, #180]	; (80023e0 <MX_TIM3_Init+0x114>)
 800232a:	2200      	movs	r2, #0
 800232c:	611a      	str	r2, [r3, #16]
  htim3.Init.AutoReloadPreload = TIM_AUTORELOAD_PRELOAD_DISABLE;
 800232e:	4b2c      	ldr	r3, [pc, #176]	; (80023e0 <MX_TIM3_Init+0x114>)
 8002330:	2200      	movs	r2, #0
 8002332:	619a      	str	r2, [r3, #24]
  if (HAL_TIM_Base_Init(&htim3) != HAL_OK)
 8002334:	482a      	ldr	r0, [pc, #168]	; (80023e0 <MX_TIM3_Init+0x114>)
 8002336:	f008 f9d4 	bl	800a6e2 <HAL_TIM_Base_Init>
 800233a:	4603      	mov	r3, r0
 800233c:	2b00      	cmp	r3, #0
 800233e:	d001      	beq.n	8002344 <MX_TIM3_Init+0x78>
  {
    Error_Handler();
 8002340:	f001 f960 	bl	8003604 <Error_Handler>
  }
  sClockSourceConfig.ClockSource = TIM_CLOCKSOURCE_INTERNAL;
 8002344:	f44f 5380 	mov.w	r3, #4096	; 0x1000
 8002348:	643b      	str	r3, [r7, #64]	; 0x40
  if (HAL_TIM_ConfigClockSource(&htim3, &sClockSourceConfig) != HAL_OK)
 800234a:	f107 0340 	add.w	r3, r7, #64	; 0x40
 800234e:	4619      	mov	r1, r3
 8002350:	4823      	ldr	r0, [pc, #140]	; (80023e0 <MX_TIM3_Init+0x114>)
 8002352:	f008 fc87 	bl	800ac64 <HAL_TIM_ConfigClockSource>
 8002356:	4603      	mov	r3, r0
 8002358:	2b00      	cmp	r3, #0
 800235a:	d001      	beq.n	8002360 <MX_TIM3_Init+0x94>
  {
    Error_Handler();
 800235c:	f001 f952 	bl	8003604 <Error_Handler>
  }
  if (HAL_TIM_PWM_Init(&htim3) != HAL_OK)
 8002360:	481f      	ldr	r0, [pc, #124]	; (80023e0 <MX_TIM3_Init+0x114>)
 8002362:	f008 fa13 	bl	800a78c <HAL_TIM_PWM_Init>
 8002366:	4603      	mov	r3, r0
 8002368:	2b00      	cmp	r3, #0
 800236a:	d001      	beq.n	8002370 <MX_TIM3_Init+0xa4>
  {
    Error_Handler();
 800236c:	f001 f94a 	bl	8003604 <Error_Handler>
  }
  sSlaveConfig.SlaveMode = TIM_SLAVEMODE_DISABLE;
 8002370:	2300      	movs	r3, #0
 8002372:	62fb      	str	r3, [r7, #44]	; 0x2c
  sSlaveConfig.InputTrigger = TIM_TS_ITR0;
 8002374:	2300      	movs	r3, #0
 8002376:	633b      	str	r3, [r7, #48]	; 0x30
  if (HAL_TIM_SlaveConfigSynchro(&htim3, &sSlaveConfig) != HAL_OK)
 8002378:	f107 032c 	add.w	r3, r7, #44	; 0x2c
 800237c:	4619      	mov	r1, r3
 800237e:	4818      	ldr	r0, [pc, #96]	; (80023e0 <MX_TIM3_Init+0x114>)
 8002380:	f008 fd2a 	bl	800add8 <HAL_TIM_SlaveConfigSynchro>
 8002384:	4603      	mov	r3, r0
 8002386:	2b00      	cmp	r3, #0
 8002388:	d001      	beq.n	800238e <MX_TIM3_Init+0xc2>
  {
    Error_Handler();
 800238a:	f001 f93b 	bl	8003604 <Error_Handler>
  }
  sMasterConfig.MasterOutputTrigger = TIM_TRGO_RESET;
 800238e:	2300      	movs	r3, #0
 8002390:	623b      	str	r3, [r7, #32]
  sMasterConfig.MasterSlaveMode = TIM_MASTERSLAVEMODE_DISABLE;
 8002392:	2300      	movs	r3, #0
 8002394:	62bb      	str	r3, [r7, #40]	; 0x28
  if (HAL_TIMEx_MasterConfigSynchronization(&htim3, &sMasterConfig) != HAL_OK)
 8002396:	f107 0320 	add.w	r3, r7, #32
 800239a:	4619      	mov	r1, r3
 800239c:	4810      	ldr	r0, [pc, #64]	; (80023e0 <MX_TIM3_Init+0x114>)
 800239e:	f009 f9a5 	bl	800b6ec <HAL_TIMEx_MasterConfigSynchronization>
 80023a2:	4603      	mov	r3, r0
 80023a4:	2b00      	cmp	r3, #0
 80023a6:	d001      	beq.n	80023ac <MX_TIM3_Init+0xe0>
  {
    Error_Handler();
 80023a8:	f001 f92c 	bl	8003604 <Error_Handler>
  }
  sConfigOC.OCMode = TIM_OCMODE_PWM1;
 80023ac:	2360      	movs	r3, #96	; 0x60
 80023ae:	607b      	str	r3, [r7, #4]
  sConfigOC.Pulse = 0;
 80023b0:	2300      	movs	r3, #0
 80023b2:	60bb      	str	r3, [r7, #8]
  sConfigOC.OCPolarity = TIM_OCPOLARITY_HIGH;
 80023b4:	2300      	movs	r3, #0
 80023b6:	60fb      	str	r3, [r7, #12]
  sConfigOC.OCFastMode = TIM_OCFAST_DISABLE;
 80023b8:	2300      	movs	r3, #0
 80023ba:	617b      	str	r3, [r7, #20]
  if (HAL_TIM_PWM_ConfigChannel(&htim3, &sConfigOC, TIM_CHANNEL_1) != HAL_OK)
 80023bc:	1d3b      	adds	r3, r7, #4
 80023be:	2200      	movs	r2, #0
 80023c0:	4619      	mov	r1, r3
 80023c2:	4807      	ldr	r0, [pc, #28]	; (80023e0 <MX_TIM3_Init+0x114>)
 80023c4:	f008 fb36 	bl	800aa34 <HAL_TIM_PWM_ConfigChannel>
 80023c8:	4603      	mov	r3, r0
 80023ca:	2b00      	cmp	r3, #0
 80023cc:	d001      	beq.n	80023d2 <MX_TIM3_Init+0x106>
  {
    Error_Handler();
 80023ce:	f001 f919 	bl	8003604 <Error_Handler>
  }
  /* USER CODE BEGIN TIM3_Init 2 */

  /* USER CODE END TIM3_Init 2 */
  HAL_TIM_MspPostInit(&htim3);
 80023d2:	4803      	ldr	r0, [pc, #12]	; (80023e0 <MX_TIM3_Init+0x114>)
 80023d4:	f003 fa8e 	bl	80058f4 <HAL_TIM_MspPostInit>

}
 80023d8:	bf00      	nop
 80023da:	3750      	adds	r7, #80	; 0x50
 80023dc:	46bd      	mov	sp, r7
 80023de:	bd80      	pop	{r7, pc}
 80023e0:	200088a8 	.word	0x200088a8
 80023e4:	40000400 	.word	0x40000400

080023e8 <MX_TIM5_Init>:
  * @brief TIM5 Initialization Function
  * @param None
  * @retval None
  */
static void MX_TIM5_Init(void)
{
 80023e8:	b580      	push	{r7, lr}
 80023ea:	b088      	sub	sp, #32
 80023ec:	af00      	add	r7, sp, #0

  /* USER CODE BEGIN TIM5_Init 0 */

  /* USER CODE END TIM5_Init 0 */

  TIM_ClockConfigTypeDef sClockSourceConfig = {0};
 80023ee:	f107 0310 	add.w	r3, r7, #16
 80023f2:	2200      	movs	r2, #0
 80023f4:	601a      	str	r2, [r3, #0]
 80023f6:	605a      	str	r2, [r3, #4]
 80023f8:	609a      	str	r2, [r3, #8]
 80023fa:	60da      	str	r2, [r3, #12]
  TIM_MasterConfigTypeDef sMasterConfig = {0};
 80023fc:	1d3b      	adds	r3, r7, #4
 80023fe:	2200      	movs	r2, #0
 8002400:	601a      	str	r2, [r3, #0]
 8002402:	605a      	str	r2, [r3, #4]
 8002404:	609a      	str	r2, [r3, #8]

  /* USER CODE BEGIN TIM5_Init 1 */

  /* USER CODE END TIM5_Init 1 */
  htim5.Instance = TIM5;
 8002406:	4b1d      	ldr	r3, [pc, #116]	; (800247c <MX_TIM5_Init+0x94>)
 8002408:	4a1d      	ldr	r2, [pc, #116]	; (8002480 <MX_TIM5_Init+0x98>)
 800240a:	601a      	str	r2, [r3, #0]
  htim5.Init.Prescaler = 0;
 800240c:	4b1b      	ldr	r3, [pc, #108]	; (800247c <MX_TIM5_Init+0x94>)
 800240e:	2200      	movs	r2, #0
 8002410:	605a      	str	r2, [r3, #4]
  htim5.Init.CounterMode = TIM_COUNTERMODE_UP;
 8002412:	4b1a      	ldr	r3, [pc, #104]	; (800247c <MX_TIM5_Init+0x94>)
 8002414:	2200      	movs	r2, #0
 8002416:	609a      	str	r2, [r3, #8]
  htim5.Init.Period = 4294967295;
 8002418:	4b18      	ldr	r3, [pc, #96]	; (800247c <MX_TIM5_Init+0x94>)
 800241a:	f04f 32ff 	mov.w	r2, #4294967295
 800241e:	60da      	str	r2, [r3, #12]
  htim5.Init.ClockDivision = TIM_CLOCKDIVISION_DIV1;
 8002420:	4b16      	ldr	r3, [pc, #88]	; (800247c <MX_TIM5_Init+0x94>)
 8002422:	2200      	movs	r2, #0
 8002424:	611a      	str	r2, [r3, #16]
  htim5.Init.AutoReloadPreload = TIM_AUTORELOAD_PRELOAD_DISABLE;
 8002426:	4b15      	ldr	r3, [pc, #84]	; (800247c <MX_TIM5_Init+0x94>)
 8002428:	2200      	movs	r2, #0
 800242a:	619a      	str	r2, [r3, #24]
  if (HAL_TIM_Base_Init(&htim5) != HAL_OK)
 800242c:	4813      	ldr	r0, [pc, #76]	; (800247c <MX_TIM5_Init+0x94>)
 800242e:	f008 f958 	bl	800a6e2 <HAL_TIM_Base_Init>
 8002432:	4603      	mov	r3, r0
 8002434:	2b00      	cmp	r3, #0
 8002436:	d001      	beq.n	800243c <MX_TIM5_Init+0x54>
  {
    Error_Handler();
 8002438:	f001 f8e4 	bl	8003604 <Error_Handler>
  }
  sClockSourceConfig.ClockSource = TIM_CLOCKSOURCE_INTERNAL;
 800243c:	f44f 5380 	mov.w	r3, #4096	; 0x1000
 8002440:	613b      	str	r3, [r7, #16]
  if (HAL_TIM_ConfigClockSource(&htim5, &sClockSourceConfig) != HAL_OK)
 8002442:	f107 0310 	add.w	r3, r7, #16
 8002446:	4619      	mov	r1, r3
 8002448:	480c      	ldr	r0, [pc, #48]	; (800247c <MX_TIM5_Init+0x94>)
 800244a:	f008 fc0b 	bl	800ac64 <HAL_TIM_ConfigClockSource>
 800244e:	4603      	mov	r3, r0
 8002450:	2b00      	cmp	r3, #0
 8002452:	d001      	beq.n	8002458 <MX_TIM5_Init+0x70>
  {
    Error_Handler();
 8002454:	f001 f8d6 	bl	8003604 <Error_Handler>
  }
  sMasterConfig.MasterOutputTrigger = TIM_TRGO_RESET;
 8002458:	2300      	movs	r3, #0
 800245a:	607b      	str	r3, [r7, #4]
  sMasterConfig.MasterSlaveMode = TIM_MASTERSLAVEMODE_DISABLE;
 800245c:	2300      	movs	r3, #0
 800245e:	60fb      	str	r3, [r7, #12]
  if (HAL_TIMEx_MasterConfigSynchronization(&htim5, &sMasterConfig) != HAL_OK)
 8002460:	1d3b      	adds	r3, r7, #4
 8002462:	4619      	mov	r1, r3
 8002464:	4805      	ldr	r0, [pc, #20]	; (800247c <MX_TIM5_Init+0x94>)
 8002466:	f009 f941 	bl	800b6ec <HAL_TIMEx_MasterConfigSynchronization>
 800246a:	4603      	mov	r3, r0
 800246c:	2b00      	cmp	r3, #0
 800246e:	d001      	beq.n	8002474 <MX_TIM5_Init+0x8c>
  {
    Error_Handler();
 8002470:	f001 f8c8 	bl	8003604 <Error_Handler>
  }
  /* USER CODE BEGIN TIM5_Init 2 */

  /* USER CODE END TIM5_Init 2 */

}
 8002474:	bf00      	nop
 8002476:	3720      	adds	r7, #32
 8002478:	46bd      	mov	sp, r7
 800247a:	bd80      	pop	{r7, pc}
 800247c:	20008868 	.word	0x20008868
 8002480:	40000c00 	.word	0x40000c00

08002484 <MX_TIM8_Init>:
  * @brief TIM8 Initialization Function
  * @param None
  * @retval None
  */
static void MX_TIM8_Init(void)
{
 8002484:	b580      	push	{r7, lr}
 8002486:	b09a      	sub	sp, #104	; 0x68
 8002488:	af00      	add	r7, sp, #0

  /* USER CODE BEGIN TIM8_Init 0 */

  /* USER CODE END TIM8_Init 0 */

  TIM_ClockConfigTypeDef sClockSourceConfig = {0};
 800248a:	f107 0358 	add.w	r3, r7, #88	; 0x58
 800248e:	2200      	movs	r2, #0
 8002490:	601a      	str	r2, [r3, #0]
 8002492:	605a      	str	r2, [r3, #4]
 8002494:	609a      	str	r2, [r3, #8]
 8002496:	60da      	str	r2, [r3, #12]
  TIM_MasterConfigTypeDef sMasterConfig = {0};
 8002498:	f107 034c 	add.w	r3, r7, #76	; 0x4c
 800249c:	2200      	movs	r2, #0
 800249e:	601a      	str	r2, [r3, #0]
 80024a0:	605a      	str	r2, [r3, #4]
 80024a2:	609a      	str	r2, [r3, #8]
  TIM_OC_InitTypeDef sConfigOC = {0};
 80024a4:	f107 0330 	add.w	r3, r7, #48	; 0x30
 80024a8:	2200      	movs	r2, #0
 80024aa:	601a      	str	r2, [r3, #0]
 80024ac:	605a      	str	r2, [r3, #4]
 80024ae:	609a      	str	r2, [r3, #8]
 80024b0:	60da      	str	r2, [r3, #12]
 80024b2:	611a      	str	r2, [r3, #16]
 80024b4:	615a      	str	r2, [r3, #20]
 80024b6:	619a      	str	r2, [r3, #24]
  TIM_BreakDeadTimeConfigTypeDef sBreakDeadTimeConfig = {0};
 80024b8:	1d3b      	adds	r3, r7, #4
 80024ba:	222c      	movs	r2, #44	; 0x2c
 80024bc:	2100      	movs	r1, #0
 80024be:	4618      	mov	r0, r3
 80024c0:	f00c fecd 	bl	800f25e <memset>

  /* USER CODE BEGIN TIM8_Init 1 */

  /* USER CODE END TIM8_Init 1 */
  htim8.Instance = TIM8;
 80024c4:	4b42      	ldr	r3, [pc, #264]	; (80025d0 <MX_TIM8_Init+0x14c>)
 80024c6:	4a43      	ldr	r2, [pc, #268]	; (80025d4 <MX_TIM8_Init+0x150>)
 80024c8:	601a      	str	r2, [r3, #0]
  htim8.Init.Prescaler = 0;
 80024ca:	4b41      	ldr	r3, [pc, #260]	; (80025d0 <MX_TIM8_Init+0x14c>)
 80024cc:	2200      	movs	r2, #0
 80024ce:	605a      	str	r2, [r3, #4]
  htim8.Init.CounterMode = TIM_COUNTERMODE_UP;
 80024d0:	4b3f      	ldr	r3, [pc, #252]	; (80025d0 <MX_TIM8_Init+0x14c>)
 80024d2:	2200      	movs	r2, #0
 80024d4:	609a      	str	r2, [r3, #8]
  htim8.Init.Period = 65535;
 80024d6:	4b3e      	ldr	r3, [pc, #248]	; (80025d0 <MX_TIM8_Init+0x14c>)
 80024d8:	f64f 72ff 	movw	r2, #65535	; 0xffff
 80024dc:	60da      	str	r2, [r3, #12]
  htim8.Init.ClockDivision = TIM_CLOCKDIVISION_DIV1;
 80024de:	4b3c      	ldr	r3, [pc, #240]	; (80025d0 <MX_TIM8_Init+0x14c>)
 80024e0:	2200      	movs	r2, #0
 80024e2:	611a      	str	r2, [r3, #16]
  htim8.Init.RepetitionCounter = 0;
 80024e4:	4b3a      	ldr	r3, [pc, #232]	; (80025d0 <MX_TIM8_Init+0x14c>)
 80024e6:	2200      	movs	r2, #0
 80024e8:	615a      	str	r2, [r3, #20]
  htim8.Init.AutoReloadPreload = TIM_AUTORELOAD_PRELOAD_DISABLE;
 80024ea:	4b39      	ldr	r3, [pc, #228]	; (80025d0 <MX_TIM8_Init+0x14c>)
 80024ec:	2200      	movs	r2, #0
 80024ee:	619a      	str	r2, [r3, #24]
  if (HAL_TIM_Base_Init(&htim8) != HAL_OK)
 80024f0:	4837      	ldr	r0, [pc, #220]	; (80025d0 <MX_TIM8_Init+0x14c>)
 80024f2:	f008 f8f6 	bl	800a6e2 <HAL_TIM_Base_Init>
 80024f6:	4603      	mov	r3, r0
 80024f8:	2b00      	cmp	r3, #0
 80024fa:	d001      	beq.n	8002500 <MX_TIM8_Init+0x7c>
  {
    Error_Handler();
 80024fc:	f001 f882 	bl	8003604 <Error_Handler>
  }
  sClockSourceConfig.ClockSource = TIM_CLOCKSOURCE_INTERNAL;
 8002500:	f44f 5380 	mov.w	r3, #4096	; 0x1000
 8002504:	65bb      	str	r3, [r7, #88]	; 0x58
  if (HAL_TIM_ConfigClockSource(&htim8, &sClockSourceConfig) != HAL_OK)
 8002506:	f107 0358 	add.w	r3, r7, #88	; 0x58
 800250a:	4619      	mov	r1, r3
 800250c:	4830      	ldr	r0, [pc, #192]	; (80025d0 <MX_TIM8_Init+0x14c>)
 800250e:	f008 fba9 	bl	800ac64 <HAL_TIM_ConfigClockSource>
 8002512:	4603      	mov	r3, r0
 8002514:	2b00      	cmp	r3, #0
 8002516:	d001      	beq.n	800251c <MX_TIM8_Init+0x98>
  {
    Error_Handler();
 8002518:	f001 f874 	bl	8003604 <Error_Handler>
  }
  if (HAL_TIM_PWM_Init(&htim8) != HAL_OK)
 800251c:	482c      	ldr	r0, [pc, #176]	; (80025d0 <MX_TIM8_Init+0x14c>)
 800251e:	f008 f935 	bl	800a78c <HAL_TIM_PWM_Init>
 8002522:	4603      	mov	r3, r0
 8002524:	2b00      	cmp	r3, #0
 8002526:	d001      	beq.n	800252c <MX_TIM8_Init+0xa8>
  {
    Error_Handler();
 8002528:	f001 f86c 	bl	8003604 <Error_Handler>
  }
  sMasterConfig.MasterOutputTrigger = TIM_TRGO_RESET;
 800252c:	2300      	movs	r3, #0
 800252e:	64fb      	str	r3, [r7, #76]	; 0x4c
  sMasterConfig.MasterOutputTrigger2 = TIM_TRGO2_RESET;
 8002530:	2300      	movs	r3, #0
 8002532:	653b      	str	r3, [r7, #80]	; 0x50
  sMasterConfig.MasterSlaveMode = TIM_MASTERSLAVEMODE_DISABLE;
 8002534:	2300      	movs	r3, #0
 8002536:	657b      	str	r3, [r7, #84]	; 0x54
  if (HAL_TIMEx_MasterConfigSynchronization(&htim8, &sMasterConfig) != HAL_OK)
 8002538:	f107 034c 	add.w	r3, r7, #76	; 0x4c
 800253c:	4619      	mov	r1, r3
 800253e:	4824      	ldr	r0, [pc, #144]	; (80025d0 <MX_TIM8_Init+0x14c>)
 8002540:	f009 f8d4 	bl	800b6ec <HAL_TIMEx_MasterConfigSynchronization>
 8002544:	4603      	mov	r3, r0
 8002546:	2b00      	cmp	r3, #0
 8002548:	d001      	beq.n	800254e <MX_TIM8_Init+0xca>
  {
    Error_Handler();
 800254a:	f001 f85b 	bl	8003604 <Error_Handler>
  }
  sConfigOC.OCMode = TIM_OCMODE_PWM1;
 800254e:	2360      	movs	r3, #96	; 0x60
 8002550:	633b      	str	r3, [r7, #48]	; 0x30
  sConfigOC.Pulse = 0;
 8002552:	2300      	movs	r3, #0
 8002554:	637b      	str	r3, [r7, #52]	; 0x34
  sConfigOC.OCPolarity = TIM_OCPOLARITY_HIGH;
 8002556:	2300      	movs	r3, #0
 8002558:	63bb      	str	r3, [r7, #56]	; 0x38
  sConfigOC.OCFastMode = TIM_OCFAST_DISABLE;
 800255a:	2300      	movs	r3, #0
 800255c:	643b      	str	r3, [r7, #64]	; 0x40
  sConfigOC.OCIdleState = TIM_OCIDLESTATE_RESET;
 800255e:	2300      	movs	r3, #0
 8002560:	647b      	str	r3, [r7, #68]	; 0x44
  sConfigOC.OCNIdleState = TIM_OCNIDLESTATE_RESET;
 8002562:	2300      	movs	r3, #0
 8002564:	64bb      	str	r3, [r7, #72]	; 0x48
  if (HAL_TIM_PWM_ConfigChannel(&htim8, &sConfigOC, TIM_CHANNEL_4) != HAL_OK)
 8002566:	f107 0330 	add.w	r3, r7, #48	; 0x30
 800256a:	220c      	movs	r2, #12
 800256c:	4619      	mov	r1, r3
 800256e:	4818      	ldr	r0, [pc, #96]	; (80025d0 <MX_TIM8_Init+0x14c>)
 8002570:	f008 fa60 	bl	800aa34 <HAL_TIM_PWM_ConfigChannel>
 8002574:	4603      	mov	r3, r0
 8002576:	2b00      	cmp	r3, #0
 8002578:	d001      	beq.n	800257e <MX_TIM8_Init+0xfa>
  {
    Error_Handler();
 800257a:	f001 f843 	bl	8003604 <Error_Handler>
  }
  sBreakDeadTimeConfig.OffStateRunMode = TIM_OSSR_DISABLE;
 800257e:	2300      	movs	r3, #0
 8002580:	607b      	str	r3, [r7, #4]
  sBreakDeadTimeConfig.OffStateIDLEMode = TIM_OSSI_DISABLE;
 8002582:	2300      	movs	r3, #0
 8002584:	60bb      	str	r3, [r7, #8]
  sBreakDeadTimeConfig.LockLevel = TIM_LOCKLEVEL_OFF;
 8002586:	2300      	movs	r3, #0
 8002588:	60fb      	str	r3, [r7, #12]
  sBreakDeadTimeConfig.DeadTime = 0;
 800258a:	2300      	movs	r3, #0
 800258c:	613b      	str	r3, [r7, #16]
  sBreakDeadTimeConfig.BreakState = TIM_BREAK_DISABLE;
 800258e:	2300      	movs	r3, #0
 8002590:	617b      	str	r3, [r7, #20]
  sBreakDeadTimeConfig.BreakPolarity = TIM_BREAKPOLARITY_HIGH;
 8002592:	f44f 5300 	mov.w	r3, #8192	; 0x2000
 8002596:	61bb      	str	r3, [r7, #24]
  sBreakDeadTimeConfig.BreakFilter = 0;
 8002598:	2300      	movs	r3, #0
 800259a:	61fb      	str	r3, [r7, #28]
  sBreakDeadTimeConfig.Break2State = TIM_BREAK2_DISABLE;
 800259c:	2300      	movs	r3, #0
 800259e:	623b      	str	r3, [r7, #32]
  sBreakDeadTimeConfig.Break2Polarity = TIM_BREAK2POLARITY_HIGH;
 80025a0:	f04f 7300 	mov.w	r3, #33554432	; 0x2000000
 80025a4:	627b      	str	r3, [r7, #36]	; 0x24
  sBreakDeadTimeConfig.Break2Filter = 0;
 80025a6:	2300      	movs	r3, #0
 80025a8:	62bb      	str	r3, [r7, #40]	; 0x28
  sBreakDeadTimeConfig.AutomaticOutput = TIM_AUTOMATICOUTPUT_DISABLE;
 80025aa:	2300      	movs	r3, #0
 80025ac:	62fb      	str	r3, [r7, #44]	; 0x2c
  if (HAL_TIMEx_ConfigBreakDeadTime(&htim8, &sBreakDeadTimeConfig) != HAL_OK)
 80025ae:	1d3b      	adds	r3, r7, #4
 80025b0:	4619      	mov	r1, r3
 80025b2:	4807      	ldr	r0, [pc, #28]	; (80025d0 <MX_TIM8_Init+0x14c>)
 80025b4:	f009 f928 	bl	800b808 <HAL_TIMEx_ConfigBreakDeadTime>
 80025b8:	4603      	mov	r3, r0
 80025ba:	2b00      	cmp	r3, #0
 80025bc:	d001      	beq.n	80025c2 <MX_TIM8_Init+0x13e>
  {
    Error_Handler();
 80025be:	f001 f821 	bl	8003604 <Error_Handler>
  }
  /* USER CODE BEGIN TIM8_Init 2 */

  /* USER CODE END TIM8_Init 2 */
  HAL_TIM_MspPostInit(&htim8);
 80025c2:	4803      	ldr	r0, [pc, #12]	; (80025d0 <MX_TIM8_Init+0x14c>)
 80025c4:	f003 f996 	bl	80058f4 <HAL_TIM_MspPostInit>

}
 80025c8:	bf00      	nop
 80025ca:	3768      	adds	r7, #104	; 0x68
 80025cc:	46bd      	mov	sp, r7
 80025ce:	bd80      	pop	{r7, pc}
 80025d0:	200087dc 	.word	0x200087dc
 80025d4:	40010400 	.word	0x40010400

080025d8 <MX_UART7_Init>:
  * @brief UART7 Initialization Function
  * @param None
  * @retval None
  */
static void MX_UART7_Init(void)
{
 80025d8:	b580      	push	{r7, lr}
 80025da:	af00      	add	r7, sp, #0
  /* USER CODE END UART7_Init 0 */

  /* USER CODE BEGIN UART7_Init 1 */

  /* USER CODE END UART7_Init 1 */
  huart7.Instance = UART7;
 80025dc:	4b14      	ldr	r3, [pc, #80]	; (8002630 <MX_UART7_Init+0x58>)
 80025de:	4a15      	ldr	r2, [pc, #84]	; (8002634 <MX_UART7_Init+0x5c>)
 80025e0:	601a      	str	r2, [r3, #0]
  huart7.Init.BaudRate = 115200;
