
Projet3bis.elf:     file format elf32-littlearm

Sections:
Idx Name          Size      VMA       LMA       File off  Algn
  0 .isr_vector   000001c8  08000000  08000000  00010000  2**0
                  CONTENTS, ALLOC, LOAD, READONLY, DATA
  1 .text         0001029c  080001d0  080001d0  000101d0  2**4
                  CONTENTS, ALLOC, LOAD, READONLY, CODE
  2 .rodata       00002250  08010470  08010470  00020470  2**3
                  CONTENTS, ALLOC, LOAD, READONLY, DATA
  3 .ARM.extab    00000000  080126c0  080126c0  00030050  2**0
                  CONTENTS
  4 .ARM          00000008  080126c0  080126c0  000226c0  2**2
                  CONTENTS, ALLOC, LOAD, READONLY, DATA
  5 .preinit_array 00000000  080126c8  080126c8  00030050  2**0
                  CONTENTS, ALLOC, LOAD, DATA
  6 .init_array   00000004  080126c8  080126c8  000226c8  2**2
                  CONTENTS, ALLOC, LOAD, DATA
  7 .fini_array   00000004  080126cc  080126cc  000226cc  2**2
                  CONTENTS, ALLOC, LOAD, DATA
  8 .data         00000050  20000000  080126d0  00030000  2**2
                  CONTENTS, ALLOC, LOAD, DATA
  9 .bss          00008cc0  20000050  08012720  00030050  2**2
                  ALLOC
 10 ._user_heap_stack 00000600  20008d10  08012720  00038d10  2**0
                  ALLOC
 11 .ARM.attributes 00000030  00000000  00000000  00030050  2**0
                  CONTENTS, READONLY
 12 .debug_info   0002c1ee  00000000  00000000  00030080  2**0
                  CONTENTS, READONLY, DEBUGGING
 13 .debug_abbrev 000053ba  00000000  00000000  0005c26e  2**0
                  CONTENTS, READONLY, DEBUGGING
 14 .debug_aranges 000025d0  00000000  00000000  00061628  2**3
                  CONTENTS, READONLY, DEBUGGING
 15 .debug_ranges 00002348  00000000  00000000  00063bf8  2**3
                  CONTENTS, READONLY, DEBUGGING
 16 .debug_macro  0002e0b4  00000000  00000000  00065f40  2**0
                  CONTENTS, READONLY, DEBUGGING
 17 .debug_line   0001f08c  00000000  00000000  00093ff4  2**0
                  CONTENTS, READONLY, DEBUGGING
 18 .debug_str    00114fd0  00000000  00000000  000b3080  2**0
                  CONTENTS, READONLY, DEBUGGING
 19 .comment      0000007b  00000000  00000000  001c8050  2**0
                  CONTENTS, READONLY
 20 .debug_frame  0000a464  00000000  00000000  001c80cc  2**2
                  CONTENTS, READONLY, DEBUGGING

Disassembly of section .text:

080001d0 <__do_global_dtors_aux>:
 80001d0:	b510      	push	{r4, lr}
 80001d2:	4c05      	ldr	r4, [pc, #20]	; (80001e8 <__do_global_dtors_aux+0x18>)
 80001d4:	7823      	ldrb	r3, [r4, #0]
 80001d6:	b933      	cbnz	r3, 80001e6 <__do_global_dtors_aux+0x16>
 80001d8:	4b04      	ldr	r3, [pc, #16]	; (80001ec <__do_global_dtors_aux+0x1c>)
 80001da:	b113      	cbz	r3, 80001e2 <__do_global_dtors_aux+0x12>
 80001dc:	4804      	ldr	r0, [pc, #16]	; (80001f0 <__do_global_dtors_aux+0x20>)
 80001de:	f3af 8000 	nop.w
 80001e2:	2301      	movs	r3, #1
 80001e4:	7023      	strb	r3, [r4, #0]
 80001e6:	bd10      	pop	{r4, pc}
 80001e8:	20000050 	.word	0x20000050
 80001ec:	00000000 	.word	0x00000000
 80001f0:	08010454 	.word	0x08010454

080001f4 <frame_dummy>:
 80001f4:	b508      	push	{r3, lr}
 80001f6:	4b03      	ldr	r3, [pc, #12]	; (8000204 <frame_dummy+0x10>)
 80001f8:	b11b      	cbz	r3, 8000202 <frame_dummy+0xe>
 80001fa:	4903      	ldr	r1, [pc, #12]	; (8000208 <frame_dummy+0x14>)
 80001fc:	4803      	ldr	r0, [pc, #12]	; (800020c <frame_dummy+0x18>)
 80001fe:	f3af 8000 	nop.w
 8000202:	bd08      	pop	{r3, pc}
 8000204:	00000000 	.word	0x00000000
 8000208:	20000054 	.word	0x20000054
 800020c:	08010454 	.word	0x08010454

08000210 <__aeabi_drsub>:
 8000210:	f081 4100 	eor.w	r1, r1, #2147483648	; 0x80000000
 8000214:	e002      	b.n	800021c <__adddf3>
 8000216:	bf00      	nop

08000218 <__aeabi_dsub>:
 8000218:	f083 4300 	eor.w	r3, r3, #2147483648	; 0x80000000

0800021c <__adddf3>:
 800021c:	b530      	push	{r4, r5, lr}
 800021e:	ea4f 0441 	mov.w	r4, r1, lsl #1
 8000222:	ea4f 0543 	mov.w	r5, r3, lsl #1
 8000226:	ea94 0f05 	teq	r4, r5
 800022a:	bf08      	it	eq
 800022c:	ea90 0f02 	teqeq	r0, r2
 8000230:	bf1f      	itttt	ne
 8000232:	ea54 0c00 	orrsne.w	ip, r4, r0
 8000236:	ea55 0c02 	orrsne.w	ip, r5, r2
 800023a:	ea7f 5c64 	mvnsne.w	ip, r4, asr #21
 800023e:	ea7f 5c65 	mvnsne.w	ip, r5, asr #21
 8000242:	f000 80e2 	beq.w	800040a <__adddf3+0x1ee>
 8000246:	ea4f 5454 	mov.w	r4, r4, lsr #21
 800024a:	ebd4 5555 	rsbs	r5, r4, r5, lsr #21
 800024e:	bfb8      	it	lt
 8000250:	426d      	neglt	r5, r5
 8000252:	dd0c      	ble.n	800026e <__adddf3+0x52>
 8000254:	442c      	add	r4, r5
 8000256:	ea80 0202 	eor.w	r2, r0, r2
 800025a:	ea81 0303 	eor.w	r3, r1, r3
 800025e:	ea82 0000 	eor.w	r0, r2, r0
 8000262:	ea83 0101 	eor.w	r1, r3, r1
 8000266:	ea80 0202 	eor.w	r2, r0, r2
 800026a:	ea81 0303 	eor.w	r3, r1, r3
 800026e:	2d36      	cmp	r5, #54	; 0x36
 8000270:	bf88      	it	hi
 8000272:	bd30      	pophi	{r4, r5, pc}
 8000274:	f011 4f00 	tst.w	r1, #2147483648	; 0x80000000
 8000278:	ea4f 3101 	mov.w	r1, r1, lsl #12
 800027c:	f44f 1c80 	mov.w	ip, #1048576	; 0x100000
 8000280:	ea4c 3111 	orr.w	r1, ip, r1, lsr #12
 8000284:	d002      	beq.n	800028c <__adddf3+0x70>
 8000286:	4240      	negs	r0, r0
 8000288:	eb61 0141 	sbc.w	r1, r1, r1, lsl #1
 800028c:	f013 4f00 	tst.w	r3, #2147483648	; 0x80000000
 8000290:	ea4f 3303 	mov.w	r3, r3, lsl #12
 8000294:	ea4c 3313 	orr.w	r3, ip, r3, lsr #12
 8000298:	d002      	beq.n	80002a0 <__adddf3+0x84>
 800029a:	4252      	negs	r2, r2
 800029c:	eb63 0343 	sbc.w	r3, r3, r3, lsl #1
 80002a0:	ea94 0f05 	teq	r4, r5
 80002a4:	f000 80a7 	beq.w	80003f6 <__adddf3+0x1da>
 80002a8:	f1a4 0401 	sub.w	r4, r4, #1
 80002ac:	f1d5 0e20 	rsbs	lr, r5, #32
 80002b0:	db0d      	blt.n	80002ce <__adddf3+0xb2>
 80002b2:	fa02 fc0e 	lsl.w	ip, r2, lr
 80002b6:	fa22 f205 	lsr.w	r2, r2, r5
 80002ba:	1880      	adds	r0, r0, r2
 80002bc:	f141 0100 	adc.w	r1, r1, #0
 80002c0:	fa03 f20e 	lsl.w	r2, r3, lr
 80002c4:	1880      	adds	r0, r0, r2
 80002c6:	fa43 f305 	asr.w	r3, r3, r5
 80002ca:	4159      	adcs	r1, r3
 80002cc:	e00e      	b.n	80002ec <__adddf3+0xd0>
 80002ce:	f1a5 0520 	sub.w	r5, r5, #32
 80002d2:	f10e 0e20 	add.w	lr, lr, #32
 80002d6:	2a01      	cmp	r2, #1
 80002d8:	fa03 fc0e 	lsl.w	ip, r3, lr
 80002dc:	bf28      	it	cs
 80002de:	f04c 0c02 	orrcs.w	ip, ip, #2
 80002e2:	fa43 f305 	asr.w	r3, r3, r5
 80002e6:	18c0      	adds	r0, r0, r3
 80002e8:	eb51 71e3 	adcs.w	r1, r1, r3, asr #31
 80002ec:	f001 4500 	and.w	r5, r1, #2147483648	; 0x80000000
 80002f0:	d507      	bpl.n	8000302 <__adddf3+0xe6>
 80002f2:	f04f 0e00 	mov.w	lr, #0
 80002f6:	f1dc 0c00 	rsbs	ip, ip, #0
 80002fa:	eb7e 0000 	sbcs.w	r0, lr, r0
 80002fe:	eb6e 0101 	sbc.w	r1, lr, r1
 8000302:	f5b1 1f80 	cmp.w	r1, #1048576	; 0x100000
 8000306:	d31b      	bcc.n	8000340 <__adddf3+0x124>
 8000308:	f5b1 1f00 	cmp.w	r1, #2097152	; 0x200000
 800030c:	d30c      	bcc.n	8000328 <__adddf3+0x10c>
 800030e:	0849      	lsrs	r1, r1, #1
 8000310:	ea5f 0030 	movs.w	r0, r0, rrx
 8000314:	ea4f 0c3c 	mov.w	ip, ip, rrx
 8000318:	f104 0401 	add.w	r4, r4, #1
 800031c:	ea4f 5244 	mov.w	r2, r4, lsl #21
 8000320:	f512 0f80 	cmn.w	r2, #4194304	; 0x400000
 8000324:	f080 809a 	bcs.w	800045c <__adddf3+0x240>
 8000328:	f1bc 4f00 	cmp.w	ip, #2147483648	; 0x80000000
 800032c:	bf08      	it	eq
 800032e:	ea5f 0c50 	movseq.w	ip, r0, lsr #1
 8000332:	f150 0000 	adcs.w	r0, r0, #0
 8000336:	eb41 5104 	adc.w	r1, r1, r4, lsl #20
 800033a:	ea41 0105 	orr.w	r1, r1, r5
 800033e:	bd30      	pop	{r4, r5, pc}
 8000340:	ea5f 0c4c 	movs.w	ip, ip, lsl #1
 8000344:	4140      	adcs	r0, r0
 8000346:	eb41 0101 	adc.w	r1, r1, r1
 800034a:	f411 1f80 	tst.w	r1, #1048576	; 0x100000
 800034e:	f1a4 0401 	sub.w	r4, r4, #1
 8000352:	d1e9      	bne.n	8000328 <__adddf3+0x10c>
 8000354:	f091 0f00 	teq	r1, #0
 8000358:	bf04      	itt	eq
 800035a:	4601      	moveq	r1, r0
 800035c:	2000      	moveq	r0, #0
 800035e:	fab1 f381 	clz	r3, r1
 8000362:	bf08      	it	eq
 8000364:	3320      	addeq	r3, #32
 8000366:	f1a3 030b 	sub.w	r3, r3, #11
 800036a:	f1b3 0220 	subs.w	r2, r3, #32
 800036e:	da0c      	bge.n	800038a <__adddf3+0x16e>
 8000370:	320c      	adds	r2, #12
 8000372:	dd08      	ble.n	8000386 <__adddf3+0x16a>
 8000374:	f102 0c14 	add.w	ip, r2, #20
 8000378:	f1c2 020c 	rsb	r2, r2, #12
 800037c:	fa01 f00c 	lsl.w	r0, r1, ip
 8000380:	fa21 f102 	lsr.w	r1, r1, r2
 8000384:	e00c      	b.n	80003a0 <__adddf3+0x184>
 8000386:	f102 0214 	add.w	r2, r2, #20
 800038a:	bfd8      	it	le
 800038c:	f1c2 0c20 	rsble	ip, r2, #32
 8000390:	fa01 f102 	lsl.w	r1, r1, r2
 8000394:	fa20 fc0c 	lsr.w	ip, r0, ip
 8000398:	bfdc      	itt	le
 800039a:	ea41 010c 	orrle.w	r1, r1, ip
 800039e:	4090      	lslle	r0, r2
 80003a0:	1ae4      	subs	r4, r4, r3
 80003a2:	bfa2      	ittt	ge
 80003a4:	eb01 5104 	addge.w	r1, r1, r4, lsl #20
 80003a8:	4329      	orrge	r1, r5
 80003aa:	bd30      	popge	{r4, r5, pc}
 80003ac:	ea6f 0404 	mvn.w	r4, r4
 80003b0:	3c1f      	subs	r4, #31
 80003b2:	da1c      	bge.n	80003ee <__adddf3+0x1d2>
 80003b4:	340c      	adds	r4, #12
 80003b6:	dc0e      	bgt.n	80003d6 <__adddf3+0x1ba>
 80003b8:	f104 0414 	add.w	r4, r4, #20
 80003bc:	f1c4 0220 	rsb	r2, r4, #32
 80003c0:	fa20 f004 	lsr.w	r0, r0, r4
 80003c4:	fa01 f302 	lsl.w	r3, r1, r2
 80003c8:	ea40 0003 	orr.w	r0, r0, r3
 80003cc:	fa21 f304 	lsr.w	r3, r1, r4
 80003d0:	ea45 0103 	orr.w	r1, r5, r3
 80003d4:	bd30      	pop	{r4, r5, pc}
 80003d6:	f1c4 040c 	rsb	r4, r4, #12
 80003da:	f1c4 0220 	rsb	r2, r4, #32
 80003de:	fa20 f002 	lsr.w	r0, r0, r2
 80003e2:	fa01 f304 	lsl.w	r3, r1, r4
 80003e6:	ea40 0003 	orr.w	r0, r0, r3
 80003ea:	4629      	mov	r1, r5
 80003ec:	bd30      	pop	{r4, r5, pc}
 80003ee:	fa21 f004 	lsr.w	r0, r1, r4
 80003f2:	4629      	mov	r1, r5
 80003f4:	bd30      	pop	{r4, r5, pc}
 80003f6:	f094 0f00 	teq	r4, #0
 80003fa:	f483 1380 	eor.w	r3, r3, #1048576	; 0x100000
 80003fe:	bf06      	itte	eq
 8000400:	f481 1180 	eoreq.w	r1, r1, #1048576	; 0x100000
 8000404:	3401      	addeq	r4, #1
 8000406:	3d01      	subne	r5, #1
 8000408:	e74e      	b.n	80002a8 <__adddf3+0x8c>
 800040a:	ea7f 5c64 	mvns.w	ip, r4, asr #21
 800040e:	bf18      	it	ne
 8000410:	ea7f 5c65 	mvnsne.w	ip, r5, asr #21
 8000414:	d029      	beq.n	800046a <__adddf3+0x24e>
 8000416:	ea94 0f05 	teq	r4, r5
 800041a:	bf08      	it	eq
 800041c:	ea90 0f02 	teqeq	r0, r2
 8000420:	d005      	beq.n	800042e <__adddf3+0x212>
 8000422:	ea54 0c00 	orrs.w	ip, r4, r0
 8000426:	bf04      	itt	eq
 8000428:	4619      	moveq	r1, r3
 800042a:	4610      	moveq	r0, r2
 800042c:	bd30      	pop	{r4, r5, pc}
 800042e:	ea91 0f03 	teq	r1, r3
 8000432:	bf1e      	ittt	ne
 8000434:	2100      	movne	r1, #0
 8000436:	2000      	movne	r0, #0
 8000438:	bd30      	popne	{r4, r5, pc}
 800043a:	ea5f 5c54 	movs.w	ip, r4, lsr #21
 800043e:	d105      	bne.n	800044c <__adddf3+0x230>
 8000440:	0040      	lsls	r0, r0, #1
 8000442:	4149      	adcs	r1, r1
 8000444:	bf28      	it	cs
 8000446:	f041 4100 	orrcs.w	r1, r1, #2147483648	; 0x80000000
 800044a:	bd30      	pop	{r4, r5, pc}
 800044c:	f514 0480 	adds.w	r4, r4, #4194304	; 0x400000
 8000450:	bf3c      	itt	cc
 8000452:	f501 1180 	addcc.w	r1, r1, #1048576	; 0x100000
 8000456:	bd30      	popcc	{r4, r5, pc}
 8000458:	f001 4500 	and.w	r5, r1, #2147483648	; 0x80000000
 800045c:	f045 41fe 	orr.w	r1, r5, #2130706432	; 0x7f000000
 8000460:	f441 0170 	orr.w	r1, r1, #15728640	; 0xf00000
 8000464:	f04f 0000 	mov.w	r0, #0
 8000468:	bd30      	pop	{r4, r5, pc}
 800046a:	ea7f 5c64 	mvns.w	ip, r4, asr #21
 800046e:	bf1a      	itte	ne
 8000470:	4619      	movne	r1, r3
 8000472:	4610      	movne	r0, r2
 8000474:	ea7f 5c65 	mvnseq.w	ip, r5, asr #21
 8000478:	bf1c      	itt	ne
 800047a:	460b      	movne	r3, r1
 800047c:	4602      	movne	r2, r0
 800047e:	ea50 3401 	orrs.w	r4, r0, r1, lsl #12
 8000482:	bf06      	itte	eq
 8000484:	ea52 3503 	orrseq.w	r5, r2, r3, lsl #12
 8000488:	ea91 0f03 	teqeq	r1, r3
 800048c:	f441 2100 	orrne.w	r1, r1, #524288	; 0x80000
 8000490:	bd30      	pop	{r4, r5, pc}
 8000492:	bf00      	nop

08000494 <__aeabi_ui2d>:
 8000494:	f090 0f00 	teq	r0, #0
 8000498:	bf04      	itt	eq
 800049a:	2100      	moveq	r1, #0
 800049c:	4770      	bxeq	lr
 800049e:	b530      	push	{r4, r5, lr}
 80004a0:	f44f 6480 	mov.w	r4, #1024	; 0x400
 80004a4:	f104 0432 	add.w	r4, r4, #50	; 0x32
 80004a8:	f04f 0500 	mov.w	r5, #0
 80004ac:	f04f 0100 	mov.w	r1, #0
 80004b0:	e750      	b.n	8000354 <__adddf3+0x138>
 80004b2:	bf00      	nop

080004b4 <__aeabi_i2d>:
 80004b4:	f090 0f00 	teq	r0, #0
 80004b8:	bf04      	itt	eq
 80004ba:	2100      	moveq	r1, #0
 80004bc:	4770      	bxeq	lr
 80004be:	b530      	push	{r4, r5, lr}
 80004c0:	f44f 6480 	mov.w	r4, #1024	; 0x400
 80004c4:	f104 0432 	add.w	r4, r4, #50	; 0x32
 80004c8:	f010 4500 	ands.w	r5, r0, #2147483648	; 0x80000000
 80004cc:	bf48      	it	mi
 80004ce:	4240      	negmi	r0, r0
 80004d0:	f04f 0100 	mov.w	r1, #0
 80004d4:	e73e      	b.n	8000354 <__adddf3+0x138>
 80004d6:	bf00      	nop

080004d8 <__aeabi_f2d>:
 80004d8:	0042      	lsls	r2, r0, #1
 80004da:	ea4f 01e2 	mov.w	r1, r2, asr #3
 80004de:	ea4f 0131 	mov.w	r1, r1, rrx
 80004e2:	ea4f 7002 	mov.w	r0, r2, lsl #28
 80004e6:	bf1f      	itttt	ne
 80004e8:	f012 437f 	andsne.w	r3, r2, #4278190080	; 0xff000000
 80004ec:	f093 4f7f 	teqne	r3, #4278190080	; 0xff000000
 80004f0:	f081 5160 	eorne.w	r1, r1, #939524096	; 0x38000000
 80004f4:	4770      	bxne	lr
 80004f6:	f032 427f 	bics.w	r2, r2, #4278190080	; 0xff000000
 80004fa:	bf08      	it	eq
 80004fc:	4770      	bxeq	lr
 80004fe:	f093 4f7f 	teq	r3, #4278190080	; 0xff000000
 8000502:	bf04      	itt	eq
 8000504:	f441 2100 	orreq.w	r1, r1, #524288	; 0x80000
 8000508:	4770      	bxeq	lr
 800050a:	b530      	push	{r4, r5, lr}
 800050c:	f44f 7460 	mov.w	r4, #896	; 0x380
 8000510:	f001 4500 	and.w	r5, r1, #2147483648	; 0x80000000
 8000514:	f021 4100 	bic.w	r1, r1, #2147483648	; 0x80000000
 8000518:	e71c      	b.n	8000354 <__adddf3+0x138>
 800051a:	bf00      	nop

0800051c <__aeabi_ul2d>:
 800051c:	ea50 0201 	orrs.w	r2, r0, r1
 8000520:	bf08      	it	eq
 8000522:	4770      	bxeq	lr
 8000524:	b530      	push	{r4, r5, lr}
 8000526:	f04f 0500 	mov.w	r5, #0
 800052a:	e00a      	b.n	8000542 <__aeabi_l2d+0x16>

0800052c <__aeabi_l2d>:
 800052c:	ea50 0201 	orrs.w	r2, r0, r1
 8000530:	bf08      	it	eq
 8000532:	4770      	bxeq	lr
 8000534:	b530      	push	{r4, r5, lr}
 8000536:	f011 4500 	ands.w	r5, r1, #2147483648	; 0x80000000
 800053a:	d502      	bpl.n	8000542 <__aeabi_l2d+0x16>
 800053c:	4240      	negs	r0, r0
 800053e:	eb61 0141 	sbc.w	r1, r1, r1, lsl #1
 8000542:	f44f 6480 	mov.w	r4, #1024	; 0x400
 8000546:	f104 0432 	add.w	r4, r4, #50	; 0x32
 800054a:	ea5f 5c91 	movs.w	ip, r1, lsr #22
 800054e:	f43f aed8 	beq.w	8000302 <__adddf3+0xe6>
 8000552:	f04f 0203 	mov.w	r2, #3
 8000556:	ea5f 0cdc 	movs.w	ip, ip, lsr #3
 800055a:	bf18      	it	ne
 800055c:	3203      	addne	r2, #3
 800055e:	ea5f 0cdc 	movs.w	ip, ip, lsr #3
 8000562:	bf18      	it	ne
 8000564:	3203      	addne	r2, #3
 8000566:	eb02 02dc 	add.w	r2, r2, ip, lsr #3
 800056a:	f1c2 0320 	rsb	r3, r2, #32
 800056e:	fa00 fc03 	lsl.w	ip, r0, r3
 8000572:	fa20 f002 	lsr.w	r0, r0, r2
 8000576:	fa01 fe03 	lsl.w	lr, r1, r3
 800057a:	ea40 000e 	orr.w	r0, r0, lr
 800057e:	fa21 f102 	lsr.w	r1, r1, r2
 8000582:	4414      	add	r4, r2
 8000584:	e6bd      	b.n	8000302 <__adddf3+0xe6>
 8000586:	bf00      	nop

08000588 <__aeabi_dmul>:
 8000588:	b570      	push	{r4, r5, r6, lr}
 800058a:	f04f 0cff 	mov.w	ip, #255	; 0xff
 800058e:	f44c 6ce0 	orr.w	ip, ip, #1792	; 0x700
 8000592:	ea1c 5411 	ands.w	r4, ip, r1, lsr #20
 8000596:	bf1d      	ittte	ne
 8000598:	ea1c 5513 	andsne.w	r5, ip, r3, lsr #20
 800059c:	ea94 0f0c 	teqne	r4, ip
 80005a0:	ea95 0f0c 	teqne	r5, ip
 80005a4:	f000 f8de 	bleq	8000764 <__aeabi_dmul+0x1dc>
 80005a8:	442c      	add	r4, r5
 80005aa:	ea81 0603 	eor.w	r6, r1, r3
 80005ae:	ea21 514c 	bic.w	r1, r1, ip, lsl #21
 80005b2:	ea23 534c 	bic.w	r3, r3, ip, lsl #21
 80005b6:	ea50 3501 	orrs.w	r5, r0, r1, lsl #12
 80005ba:	bf18      	it	ne
 80005bc:	ea52 3503 	orrsne.w	r5, r2, r3, lsl #12
 80005c0:	f441 1180 	orr.w	r1, r1, #1048576	; 0x100000
 80005c4:	f443 1380 	orr.w	r3, r3, #1048576	; 0x100000
 80005c8:	d038      	beq.n	800063c <__aeabi_dmul+0xb4>
 80005ca:	fba0 ce02 	umull	ip, lr, r0, r2
 80005ce:	f04f 0500 	mov.w	r5, #0
 80005d2:	fbe1 e502 	umlal	lr, r5, r1, r2
 80005d6:	f006 4200 	and.w	r2, r6, #2147483648	; 0x80000000
 80005da:	fbe0 e503 	umlal	lr, r5, r0, r3
 80005de:	f04f 0600 	mov.w	r6, #0
 80005e2:	fbe1 5603 	umlal	r5, r6, r1, r3
 80005e6:	f09c 0f00 	teq	ip, #0
 80005ea:	bf18      	it	ne
 80005ec:	f04e 0e01 	orrne.w	lr, lr, #1
 80005f0:	f1a4 04ff 	sub.w	r4, r4, #255	; 0xff
 80005f4:	f5b6 7f00 	cmp.w	r6, #512	; 0x200
 80005f8:	f564 7440 	sbc.w	r4, r4, #768	; 0x300
 80005fc:	d204      	bcs.n	8000608 <__aeabi_dmul+0x80>
 80005fe:	ea5f 0e4e 	movs.w	lr, lr, lsl #1
 8000602:	416d      	adcs	r5, r5
 8000604:	eb46 0606 	adc.w	r6, r6, r6
 8000608:	ea42 21c6 	orr.w	r1, r2, r6, lsl #11
 800060c:	ea41 5155 	orr.w	r1, r1, r5, lsr #21
 8000610:	ea4f 20c5 	mov.w	r0, r5, lsl #11
 8000614:	ea40 505e 	orr.w	r0, r0, lr, lsr #21
 8000618:	ea4f 2ece 	mov.w	lr, lr, lsl #11
 800061c:	f1b4 0cfd 	subs.w	ip, r4, #253	; 0xfd
 8000620:	bf88      	it	hi
 8000622:	f5bc 6fe0 	cmphi.w	ip, #1792	; 0x700
 8000626:	d81e      	bhi.n	8000666 <__aeabi_dmul+0xde>
 8000628:	f1be 4f00 	cmp.w	lr, #2147483648	; 0x80000000
 800062c:	bf08      	it	eq
 800062e:	ea5f 0e50 	movseq.w	lr, r0, lsr #1
 8000632:	f150 0000 	adcs.w	r0, r0, #0
 8000636:	eb41 5104 	adc.w	r1, r1, r4, lsl #20
 800063a:	bd70      	pop	{r4, r5, r6, pc}
 800063c:	f006 4600 	and.w	r6, r6, #2147483648	; 0x80000000
 8000640:	ea46 0101 	orr.w	r1, r6, r1
 8000644:	ea40 0002 	orr.w	r0, r0, r2
 8000648:	ea81 0103 	eor.w	r1, r1, r3
 800064c:	ebb4 045c 	subs.w	r4, r4, ip, lsr #1
 8000650:	bfc2      	ittt	gt
 8000652:	ebd4 050c 	rsbsgt	r5, r4, ip
 8000656:	ea41 5104 	orrgt.w	r1, r1, r4, lsl #20
 800065a:	bd70      	popgt	{r4, r5, r6, pc}
 800065c:	f441 1180 	orr.w	r1, r1, #1048576	; 0x100000
 8000660:	f04f 0e00 	mov.w	lr, #0
 8000664:	3c01      	subs	r4, #1
 8000666:	f300 80ab 	bgt.w	80007c0 <__aeabi_dmul+0x238>
 800066a:	f114 0f36 	cmn.w	r4, #54	; 0x36
 800066e:	bfde      	ittt	le
 8000670:	2000      	movle	r0, #0
 8000672:	f001 4100 	andle.w	r1, r1, #2147483648	; 0x80000000
 8000676:	bd70      	pople	{r4, r5, r6, pc}
 8000678:	f1c4 0400 	rsb	r4, r4, #0
 800067c:	3c20      	subs	r4, #32
 800067e:	da35      	bge.n	80006ec <__aeabi_dmul+0x164>
 8000680:	340c      	adds	r4, #12
 8000682:	dc1b      	bgt.n	80006bc <__aeabi_dmul+0x134>
 8000684:	f104 0414 	add.w	r4, r4, #20
 8000688:	f1c4 0520 	rsb	r5, r4, #32
 800068c:	fa00 f305 	lsl.w	r3, r0, r5
 8000690:	fa20 f004 	lsr.w	r0, r0, r4
 8000694:	fa01 f205 	lsl.w	r2, r1, r5
 8000698:	ea40 0002 	orr.w	r0, r0, r2
 800069c:	f001 4200 	and.w	r2, r1, #2147483648	; 0x80000000
 80006a0:	f021 4100 	bic.w	r1, r1, #2147483648	; 0x80000000
 80006a4:	eb10 70d3 	adds.w	r0, r0, r3, lsr #31
 80006a8:	fa21 f604 	lsr.w	r6, r1, r4
 80006ac:	eb42 0106 	adc.w	r1, r2, r6
 80006b0:	ea5e 0e43 	orrs.w	lr, lr, r3, lsl #1
 80006b4:	bf08      	it	eq
 80006b6:	ea20 70d3 	biceq.w	r0, r0, r3, lsr #31
 80006ba:	bd70      	pop	{r4, r5, r6, pc}
 80006bc:	f1c4 040c 	rsb	r4, r4, #12
 80006c0:	f1c4 0520 	rsb	r5, r4, #32
 80006c4:	fa00 f304 	lsl.w	r3, r0, r4
 80006c8:	fa20 f005 	lsr.w	r0, r0, r5
 80006cc:	fa01 f204 	lsl.w	r2, r1, r4
 80006d0:	ea40 0002 	orr.w	r0, r0, r2
 80006d4:	f001 4100 	and.w	r1, r1, #2147483648	; 0x80000000
 80006d8:	eb10 70d3 	adds.w	r0, r0, r3, lsr #31
 80006dc:	f141 0100 	adc.w	r1, r1, #0
 80006e0:	ea5e 0e43 	orrs.w	lr, lr, r3, lsl #1
 80006e4:	bf08      	it	eq
 80006e6:	ea20 70d3 	biceq.w	r0, r0, r3, lsr #31
 80006ea:	bd70      	pop	{r4, r5, r6, pc}
 80006ec:	f1c4 0520 	rsb	r5, r4, #32
 80006f0:	fa00 f205 	lsl.w	r2, r0, r5
 80006f4:	ea4e 0e02 	orr.w	lr, lr, r2
 80006f8:	fa20 f304 	lsr.w	r3, r0, r4
 80006fc:	fa01 f205 	lsl.w	r2, r1, r5
 8000700:	ea43 0302 	orr.w	r3, r3, r2
 8000704:	fa21 f004 	lsr.w	r0, r1, r4
 8000708:	f001 4100 	and.w	r1, r1, #2147483648	; 0x80000000
 800070c:	fa21 f204 	lsr.w	r2, r1, r4
 8000710:	ea20 0002 	bic.w	r0, r0, r2
 8000714:	eb00 70d3 	add.w	r0, r0, r3, lsr #31
 8000718:	ea5e 0e43 	orrs.w	lr, lr, r3, lsl #1
 800071c:	bf08      	it	eq
 800071e:	ea20 70d3 	biceq.w	r0, r0, r3, lsr #31
 8000722:	bd70      	pop	{r4, r5, r6, pc}
 8000724:	f094 0f00 	teq	r4, #0
 8000728:	d10f      	bne.n	800074a <__aeabi_dmul+0x1c2>
 800072a:	f001 4600 	and.w	r6, r1, #2147483648	; 0x80000000
 800072e:	0040      	lsls	r0, r0, #1
 8000730:	eb41 0101 	adc.w	r1, r1, r1
 8000734:	f411 1f80 	tst.w	r1, #1048576	; 0x100000
 8000738:	bf08      	it	eq
 800073a:	3c01      	subeq	r4, #1
 800073c:	d0f7      	beq.n	800072e <__aeabi_dmul+0x1a6>
 800073e:	ea41 0106 	orr.w	r1, r1, r6
 8000742:	f095 0f00 	teq	r5, #0
 8000746:	bf18      	it	ne
 8000748:	4770      	bxne	lr
 800074a:	f003 4600 	and.w	r6, r3, #2147483648	; 0x80000000
 800074e:	0052      	lsls	r2, r2, #1
 8000750:	eb43 0303 	adc.w	r3, r3, r3
 8000754:	f413 1f80 	tst.w	r3, #1048576	; 0x100000
 8000758:	bf08      	it	eq
 800075a:	3d01      	subeq	r5, #1
 800075c:	d0f7      	beq.n	800074e <__aeabi_dmul+0x1c6>
 800075e:	ea43 0306 	orr.w	r3, r3, r6
 8000762:	4770      	bx	lr
 8000764:	ea94 0f0c 	teq	r4, ip
 8000768:	ea0c 5513 	and.w	r5, ip, r3, lsr #20
 800076c:	bf18      	it	ne
 800076e:	ea95 0f0c 	teqne	r5, ip
 8000772:	d00c      	beq.n	800078e <__aeabi_dmul+0x206>
 8000774:	ea50 0641 	orrs.w	r6, r0, r1, lsl #1
 8000778:	bf18      	it	ne
 800077a:	ea52 0643 	orrsne.w	r6, r2, r3, lsl #1
 800077e:	d1d1      	bne.n	8000724 <__aeabi_dmul+0x19c>
 8000780:	ea81 0103 	eor.w	r1, r1, r3
 8000784:	f001 4100 	and.w	r1, r1, #2147483648	; 0x80000000
 8000788:	f04f 0000 	mov.w	r0, #0
 800078c:	bd70      	pop	{r4, r5, r6, pc}
 800078e:	ea50 0641 	orrs.w	r6, r0, r1, lsl #1
 8000792:	bf06      	itte	eq
 8000794:	4610      	moveq	r0, r2
 8000796:	4619      	moveq	r1, r3
 8000798:	ea52 0643 	orrsne.w	r6, r2, r3, lsl #1
 800079c:	d019      	beq.n	80007d2 <__aeabi_dmul+0x24a>
 800079e:	ea94 0f0c 	teq	r4, ip
 80007a2:	d102      	bne.n	80007aa <__aeabi_dmul+0x222>
 80007a4:	ea50 3601 	orrs.w	r6, r0, r1, lsl #12
 80007a8:	d113      	bne.n	80007d2 <__aeabi_dmul+0x24a>
 80007aa:	ea95 0f0c 	teq	r5, ip
 80007ae:	d105      	bne.n	80007bc <__aeabi_dmul+0x234>
 80007b0:	ea52 3603 	orrs.w	r6, r2, r3, lsl #12
 80007b4:	bf1c      	itt	ne
 80007b6:	4610      	movne	r0, r2
 80007b8:	4619      	movne	r1, r3
 80007ba:	d10a      	bne.n	80007d2 <__aeabi_dmul+0x24a>
 80007bc:	ea81 0103 	eor.w	r1, r1, r3
 80007c0:	f001 4100 	and.w	r1, r1, #2147483648	; 0x80000000
 80007c4:	f041 41fe 	orr.w	r1, r1, #2130706432	; 0x7f000000
 80007c8:	f441 0170 	orr.w	r1, r1, #15728640	; 0xf00000
 80007cc:	f04f 0000 	mov.w	r0, #0
 80007d0:	bd70      	pop	{r4, r5, r6, pc}
 80007d2:	f041 41fe 	orr.w	r1, r1, #2130706432	; 0x7f000000
 80007d6:	f441 0178 	orr.w	r1, r1, #16252928	; 0xf80000
 80007da:	bd70      	pop	{r4, r5, r6, pc}

080007dc <__aeabi_ddiv>:
 80007dc:	b570      	push	{r4, r5, r6, lr}
 80007de:	f04f 0cff 	mov.w	ip, #255	; 0xff
 80007e2:	f44c 6ce0 	orr.w	ip, ip, #1792	; 0x700
 80007e6:	ea1c 5411 	ands.w	r4, ip, r1, lsr #20
 80007ea:	bf1d      	ittte	ne
 80007ec:	ea1c 5513 	andsne.w	r5, ip, r3, lsr #20
 80007f0:	ea94 0f0c 	teqne	r4, ip
 80007f4:	ea95 0f0c 	teqne	r5, ip
 80007f8:	f000 f8a7 	bleq	800094a <__aeabi_ddiv+0x16e>
 80007fc:	eba4 0405 	sub.w	r4, r4, r5
 8000800:	ea81 0e03 	eor.w	lr, r1, r3
 8000804:	ea52 3503 	orrs.w	r5, r2, r3, lsl #12
 8000808:	ea4f 3101 	mov.w	r1, r1, lsl #12
 800080c:	f000 8088 	beq.w	8000920 <__aeabi_ddiv+0x144>
 8000810:	ea4f 3303 	mov.w	r3, r3, lsl #12
 8000814:	f04f 5580 	mov.w	r5, #268435456	; 0x10000000
 8000818:	ea45 1313 	orr.w	r3, r5, r3, lsr #4
 800081c:	ea43 6312 	orr.w	r3, r3, r2, lsr #24
 8000820:	ea4f 2202 	mov.w	r2, r2, lsl #8
 8000824:	ea45 1511 	orr.w	r5, r5, r1, lsr #4
 8000828:	ea45 6510 	orr.w	r5, r5, r0, lsr #24
 800082c:	ea4f 2600 	mov.w	r6, r0, lsl #8
 8000830:	f00e 4100 	and.w	r1, lr, #2147483648	; 0x80000000
 8000834:	429d      	cmp	r5, r3
 8000836:	bf08      	it	eq
 8000838:	4296      	cmpeq	r6, r2
 800083a:	f144 04fd 	adc.w	r4, r4, #253	; 0xfd
 800083e:	f504 7440 	add.w	r4, r4, #768	; 0x300
 8000842:	d202      	bcs.n	800084a <__aeabi_ddiv+0x6e>
 8000844:	085b      	lsrs	r3, r3, #1
 8000846:	ea4f 0232 	mov.w	r2, r2, rrx
 800084a:	1ab6      	subs	r6, r6, r2
 800084c:	eb65 0503 	sbc.w	r5, r5, r3
 8000850:	085b      	lsrs	r3, r3, #1
 8000852:	ea4f 0232 	mov.w	r2, r2, rrx
 8000856:	f44f 1080 	mov.w	r0, #1048576	; 0x100000
 800085a:	f44f 2c00 	mov.w	ip, #524288	; 0x80000
 800085e:	ebb6 0e02 	subs.w	lr, r6, r2
 8000862:	eb75 0e03 	sbcs.w	lr, r5, r3
 8000866:	bf22      	ittt	cs
 8000868:	1ab6      	subcs	r6, r6, r2
 800086a:	4675      	movcs	r5, lr
 800086c:	ea40 000c 	orrcs.w	r0, r0, ip
 8000870:	085b      	lsrs	r3, r3, #1
 8000872:	ea4f 0232 	mov.w	r2, r2, rrx
 8000876:	ebb6 0e02 	subs.w	lr, r6, r2
 800087a:	eb75 0e03 	sbcs.w	lr, r5, r3
 800087e:	bf22      	ittt	cs
 8000880:	1ab6      	subcs	r6, r6, r2
 8000882:	4675      	movcs	r5, lr
 8000884:	ea40 005c 	orrcs.w	r0, r0, ip, lsr #1
 8000888:	085b      	lsrs	r3, r3, #1
 800088a:	ea4f 0232 	mov.w	r2, r2, rrx
 800088e:	ebb6 0e02 	subs.w	lr, r6, r2
 8000892:	eb75 0e03 	sbcs.w	lr, r5, r3
 8000896:	bf22      	ittt	cs
 8000898:	1ab6      	subcs	r6, r6, r2
 800089a:	4675      	movcs	r5, lr
 800089c:	ea40 009c 	orrcs.w	r0, r0, ip, lsr #2
 80008a0:	085b      	lsrs	r3, r3, #1
 80008a2:	ea4f 0232 	mov.w	r2, r2, rrx
 80008a6:	ebb6 0e02 	subs.w	lr, r6, r2
 80008aa:	eb75 0e03 	sbcs.w	lr, r5, r3
 80008ae:	bf22      	ittt	cs
 80008b0:	1ab6      	subcs	r6, r6, r2
 80008b2:	4675      	movcs	r5, lr
 80008b4:	ea40 00dc 	orrcs.w	r0, r0, ip, lsr #3
 80008b8:	ea55 0e06 	orrs.w	lr, r5, r6
 80008bc:	d018      	beq.n	80008f0 <__aeabi_ddiv+0x114>
 80008be:	ea4f 1505 	mov.w	r5, r5, lsl #4
 80008c2:	ea45 7516 	orr.w	r5, r5, r6, lsr #28
 80008c6:	ea4f 1606 	mov.w	r6, r6, lsl #4
 80008ca:	ea4f 03c3 	mov.w	r3, r3, lsl #3
 80008ce:	ea43 7352 	orr.w	r3, r3, r2, lsr #29
 80008d2:	ea4f 02c2 	mov.w	r2, r2, lsl #3
 80008d6:	ea5f 1c1c 	movs.w	ip, ip, lsr #4
 80008da:	d1c0      	bne.n	800085e <__aeabi_ddiv+0x82>
 80008dc:	f411 1f80 	tst.w	r1, #1048576	; 0x100000
 80008e0:	d10b      	bne.n	80008fa <__aeabi_ddiv+0x11e>
 80008e2:	ea41 0100 	orr.w	r1, r1, r0
 80008e6:	f04f 0000 	mov.w	r0, #0
 80008ea:	f04f 4c00 	mov.w	ip, #2147483648	; 0x80000000
 80008ee:	e7b6      	b.n	800085e <__aeabi_ddiv+0x82>
 80008f0:	f411 1f80 	tst.w	r1, #1048576	; 0x100000
 80008f4:	bf04      	itt	eq
 80008f6:	4301      	orreq	r1, r0
 80008f8:	2000      	moveq	r0, #0
 80008fa:	f1b4 0cfd 	subs.w	ip, r4, #253	; 0xfd
 80008fe:	bf88      	it	hi
 8000900:	f5bc 6fe0 	cmphi.w	ip, #1792	; 0x700
 8000904:	f63f aeaf 	bhi.w	8000666 <__aeabi_dmul+0xde>
 8000908:	ebb5 0c03 	subs.w	ip, r5, r3
 800090c:	bf04      	itt	eq
 800090e:	ebb6 0c02 	subseq.w	ip, r6, r2
 8000912:	ea5f 0c50 	movseq.w	ip, r0, lsr #1
 8000916:	f150 0000 	adcs.w	r0, r0, #0
 800091a:	eb41 5104 	adc.w	r1, r1, r4, lsl #20
 800091e:	bd70      	pop	{r4, r5, r6, pc}
 8000920:	f00e 4e00 	and.w	lr, lr, #2147483648	; 0x80000000
 8000924:	ea4e 3111 	orr.w	r1, lr, r1, lsr #12
 8000928:	eb14 045c 	adds.w	r4, r4, ip, lsr #1
 800092c:	bfc2      	ittt	gt
 800092e:	ebd4 050c 	rsbsgt	r5, r4, ip
 8000932:	ea41 5104 	orrgt.w	r1, r1, r4, lsl #20
 8000936:	bd70      	popgt	{r4, r5, r6, pc}
 8000938:	f441 1180 	orr.w	r1, r1, #1048576	; 0x100000
 800093c:	f04f 0e00 	mov.w	lr, #0
 8000940:	3c01      	subs	r4, #1
 8000942:	e690      	b.n	8000666 <__aeabi_dmul+0xde>
 8000944:	ea45 0e06 	orr.w	lr, r5, r6
 8000948:	e68d      	b.n	8000666 <__aeabi_dmul+0xde>
 800094a:	ea0c 5513 	and.w	r5, ip, r3, lsr #20
 800094e:	ea94 0f0c 	teq	r4, ip
 8000952:	bf08      	it	eq
 8000954:	ea95 0f0c 	teqeq	r5, ip
 8000958:	f43f af3b 	beq.w	80007d2 <__aeabi_dmul+0x24a>
 800095c:	ea94 0f0c 	teq	r4, ip
 8000960:	d10a      	bne.n	8000978 <__aeabi_ddiv+0x19c>
 8000962:	ea50 3401 	orrs.w	r4, r0, r1, lsl #12
 8000966:	f47f af34 	bne.w	80007d2 <__aeabi_dmul+0x24a>
 800096a:	ea95 0f0c 	teq	r5, ip
 800096e:	f47f af25 	bne.w	80007bc <__aeabi_dmul+0x234>
 8000972:	4610      	mov	r0, r2
 8000974:	4619      	mov	r1, r3
 8000976:	e72c      	b.n	80007d2 <__aeabi_dmul+0x24a>
 8000978:	ea95 0f0c 	teq	r5, ip
 800097c:	d106      	bne.n	800098c <__aeabi_ddiv+0x1b0>
 800097e:	ea52 3503 	orrs.w	r5, r2, r3, lsl #12
 8000982:	f43f aefd 	beq.w	8000780 <__aeabi_dmul+0x1f8>
 8000986:	4610      	mov	r0, r2
 8000988:	4619      	mov	r1, r3
 800098a:	e722      	b.n	80007d2 <__aeabi_dmul+0x24a>
 800098c:	ea50 0641 	orrs.w	r6, r0, r1, lsl #1
 8000990:	bf18      	it	ne
 8000992:	ea52 0643 	orrsne.w	r6, r2, r3, lsl #1
 8000996:	f47f aec5 	bne.w	8000724 <__aeabi_dmul+0x19c>
 800099a:	ea50 0441 	orrs.w	r4, r0, r1, lsl #1
 800099e:	f47f af0d 	bne.w	80007bc <__aeabi_dmul+0x234>
 80009a2:	ea52 0543 	orrs.w	r5, r2, r3, lsl #1
 80009a6:	f47f aeeb 	bne.w	8000780 <__aeabi_dmul+0x1f8>
 80009aa:	e712      	b.n	80007d2 <__aeabi_dmul+0x24a>

080009ac <__gedf2>:
 80009ac:	f04f 3cff 	mov.w	ip, #4294967295
 80009b0:	e006      	b.n	80009c0 <__cmpdf2+0x4>
 80009b2:	bf00      	nop

080009b4 <__ledf2>:
 80009b4:	f04f 0c01 	mov.w	ip, #1
 80009b8:	e002      	b.n	80009c0 <__cmpdf2+0x4>
 80009ba:	bf00      	nop

080009bc <__cmpdf2>:
 80009bc:	f04f 0c01 	mov.w	ip, #1
 80009c0:	f84d cd04 	str.w	ip, [sp, #-4]!
 80009c4:	ea4f 0c41 	mov.w	ip, r1, lsl #1
 80009c8:	ea7f 5c6c 	mvns.w	ip, ip, asr #21
 80009cc:	ea4f 0c43 	mov.w	ip, r3, lsl #1
 80009d0:	bf18      	it	ne
 80009d2:	ea7f 5c6c 	mvnsne.w	ip, ip, asr #21
 80009d6:	d01b      	beq.n	8000a10 <__cmpdf2+0x54>
 80009d8:	b001      	add	sp, #4
 80009da:	ea50 0c41 	orrs.w	ip, r0, r1, lsl #1
 80009de:	bf0c      	ite	eq
 80009e0:	ea52 0c43 	orrseq.w	ip, r2, r3, lsl #1
 80009e4:	ea91 0f03 	teqne	r1, r3
 80009e8:	bf02      	ittt	eq
 80009ea:	ea90 0f02 	teqeq	r0, r2
 80009ee:	2000      	moveq	r0, #0
 80009f0:	4770      	bxeq	lr
 80009f2:	f110 0f00 	cmn.w	r0, #0
 80009f6:	ea91 0f03 	teq	r1, r3
 80009fa:	bf58      	it	pl
 80009fc:	4299      	cmppl	r1, r3
 80009fe:	bf08      	it	eq
 8000a00:	4290      	cmpeq	r0, r2
 8000a02:	bf2c      	ite	cs
 8000a04:	17d8      	asrcs	r0, r3, #31
 8000a06:	ea6f 70e3 	mvncc.w	r0, r3, asr #31
 8000a0a:	f040 0001 	orr.w	r0, r0, #1
 8000a0e:	4770      	bx	lr
 8000a10:	ea4f 0c41 	mov.w	ip, r1, lsl #1
 8000a14:	ea7f 5c6c 	mvns.w	ip, ip, asr #21
 8000a18:	d102      	bne.n	8000a20 <__cmpdf2+0x64>
 8000a1a:	ea50 3c01 	orrs.w	ip, r0, r1, lsl #12
 8000a1e:	d107      	bne.n	8000a30 <__cmpdf2+0x74>
 8000a20:	ea4f 0c43 	mov.w	ip, r3, lsl #1
 8000a24:	ea7f 5c6c 	mvns.w	ip, ip, asr #21
 8000a28:	d1d6      	bne.n	80009d8 <__cmpdf2+0x1c>
 8000a2a:	ea52 3c03 	orrs.w	ip, r2, r3, lsl #12
 8000a2e:	d0d3      	beq.n	80009d8 <__cmpdf2+0x1c>
 8000a30:	f85d 0b04 	ldr.w	r0, [sp], #4
 8000a34:	4770      	bx	lr
 8000a36:	bf00      	nop

08000a38 <__aeabi_cdrcmple>:
 8000a38:	4684      	mov	ip, r0
 8000a3a:	4610      	mov	r0, r2
 8000a3c:	4662      	mov	r2, ip
 8000a3e:	468c      	mov	ip, r1
 8000a40:	4619      	mov	r1, r3
 8000a42:	4663      	mov	r3, ip
 8000a44:	e000      	b.n	8000a48 <__aeabi_cdcmpeq>
 8000a46:	bf00      	nop

08000a48 <__aeabi_cdcmpeq>:
 8000a48:	b501      	push	{r0, lr}
 8000a4a:	f7ff ffb7 	bl	80009bc <__cmpdf2>
 8000a4e:	2800      	cmp	r0, #0
 8000a50:	bf48      	it	mi
 8000a52:	f110 0f00 	cmnmi.w	r0, #0
 8000a56:	bd01      	pop	{r0, pc}

08000a58 <__aeabi_dcmpeq>:
 8000a58:	f84d ed08 	str.w	lr, [sp, #-8]!
 8000a5c:	f7ff fff4 	bl	8000a48 <__aeabi_cdcmpeq>
 8000a60:	bf0c      	ite	eq
 8000a62:	2001      	moveq	r0, #1
 8000a64:	2000      	movne	r0, #0
 8000a66:	f85d fb08 	ldr.w	pc, [sp], #8
 8000a6a:	bf00      	nop

08000a6c <__aeabi_dcmplt>:
 8000a6c:	f84d ed08 	str.w	lr, [sp, #-8]!
 8000a70:	f7ff ffea 	bl	8000a48 <__aeabi_cdcmpeq>
 8000a74:	bf34      	ite	cc
 8000a76:	2001      	movcc	r0, #1
 8000a78:	2000      	movcs	r0, #0
 8000a7a:	f85d fb08 	ldr.w	pc, [sp], #8
 8000a7e:	bf00      	nop

08000a80 <__aeabi_dcmple>:
 8000a80:	f84d ed08 	str.w	lr, [sp, #-8]!
 8000a84:	f7ff ffe0 	bl	8000a48 <__aeabi_cdcmpeq>
 8000a88:	bf94      	ite	ls
 8000a8a:	2001      	movls	r0, #1
 8000a8c:	2000      	movhi	r0, #0
 8000a8e:	f85d fb08 	ldr.w	pc, [sp], #8
 8000a92:	bf00      	nop

08000a94 <__aeabi_dcmpge>:
 8000a94:	f84d ed08 	str.w	lr, [sp, #-8]!
 8000a98:	f7ff ffce 	bl	8000a38 <__aeabi_cdrcmple>
 8000a9c:	bf94      	ite	ls
 8000a9e:	2001      	movls	r0, #1
 8000aa0:	2000      	movhi	r0, #0
 8000aa2:	f85d fb08 	ldr.w	pc, [sp], #8
 8000aa6:	bf00      	nop

08000aa8 <__aeabi_dcmpgt>:
 8000aa8:	f84d ed08 	str.w	lr, [sp, #-8]!
 8000aac:	f7ff ffc4 	bl	8000a38 <__aeabi_cdrcmple>
 8000ab0:	bf34      	ite	cc
 8000ab2:	2001      	movcc	r0, #1
 8000ab4:	2000      	movcs	r0, #0
 8000ab6:	f85d fb08 	ldr.w	pc, [sp], #8
 8000aba:	bf00      	nop

08000abc <__aeabi_d2iz>:
 8000abc:	ea4f 0241 	mov.w	r2, r1, lsl #1
 8000ac0:	f512 1200 	adds.w	r2, r2, #2097152	; 0x200000
 8000ac4:	d215      	bcs.n	8000af2 <__aeabi_d2iz+0x36>
 8000ac6:	d511      	bpl.n	8000aec <__aeabi_d2iz+0x30>
 8000ac8:	f46f 7378 	mvn.w	r3, #992	; 0x3e0
 8000acc:	ebb3 5262 	subs.w	r2, r3, r2, asr #21
 8000ad0:	d912      	bls.n	8000af8 <__aeabi_d2iz+0x3c>
 8000ad2:	ea4f 23c1 	mov.w	r3, r1, lsl #11
 8000ad6:	f043 4300 	orr.w	r3, r3, #2147483648	; 0x80000000
 8000ada:	ea43 5350 	orr.w	r3, r3, r0, lsr #21
 8000ade:	f011 4f00 	tst.w	r1, #2147483648	; 0x80000000
 8000ae2:	fa23 f002 	lsr.w	r0, r3, r2
 8000ae6:	bf18      	it	ne
 8000ae8:	4240      	negne	r0, r0
 8000aea:	4770      	bx	lr
 8000aec:	f04f 0000 	mov.w	r0, #0
 8000af0:	4770      	bx	lr
 8000af2:	ea50 3001 	orrs.w	r0, r0, r1, lsl #12
 8000af6:	d105      	bne.n	8000b04 <__aeabi_d2iz+0x48>
 8000af8:	f011 4000 	ands.w	r0, r1, #2147483648	; 0x80000000
 8000afc:	bf08      	it	eq
 8000afe:	f06f 4000 	mvneq.w	r0, #2147483648	; 0x80000000
 8000b02:	4770      	bx	lr
 8000b04:	f04f 0000 	mov.w	r0, #0
 8000b08:	4770      	bx	lr
 8000b0a:	bf00      	nop

08000b0c <__aeabi_d2uiz>:
 8000b0c:	004a      	lsls	r2, r1, #1
 8000b0e:	d211      	bcs.n	8000b34 <__aeabi_d2uiz+0x28>
 8000b10:	f512 1200 	adds.w	r2, r2, #2097152	; 0x200000
 8000b14:	d211      	bcs.n	8000b3a <__aeabi_d2uiz+0x2e>
 8000b16:	d50d      	bpl.n	8000b34 <__aeabi_d2uiz+0x28>
 8000b18:	f46f 7378 	mvn.w	r3, #992	; 0x3e0
 8000b1c:	ebb3 5262 	subs.w	r2, r3, r2, asr #21
 8000b20:	d40e      	bmi.n	8000b40 <__aeabi_d2uiz+0x34>
 8000b22:	ea4f 23c1 	mov.w	r3, r1, lsl #11
 8000b26:	f043 4300 	orr.w	r3, r3, #2147483648	; 0x80000000
 8000b2a:	ea43 5350 	orr.w	r3, r3, r0, lsr #21
 8000b2e:	fa23 f002 	lsr.w	r0, r3, r2
 8000b32:	4770      	bx	lr
 8000b34:	f04f 0000 	mov.w	r0, #0
 8000b38:	4770      	bx	lr
 8000b3a:	ea50 3001 	orrs.w	r0, r0, r1, lsl #12
 8000b3e:	d102      	bne.n	8000b46 <__aeabi_d2uiz+0x3a>
 8000b40:	f04f 30ff 	mov.w	r0, #4294967295
 8000b44:	4770      	bx	lr
 8000b46:	f04f 0000 	mov.w	r0, #0
 8000b4a:	4770      	bx	lr

08000b4c <__aeabi_uldivmod>:
 8000b4c:	b953      	cbnz	r3, 8000b64 <__aeabi_uldivmod+0x18>
 8000b4e:	b94a      	cbnz	r2, 8000b64 <__aeabi_uldivmod+0x18>
 8000b50:	2900      	cmp	r1, #0
 8000b52:	bf08      	it	eq
 8000b54:	2800      	cmpeq	r0, #0
 8000b56:	bf1c      	itt	ne
 8000b58:	f04f 31ff 	movne.w	r1, #4294967295
 8000b5c:	f04f 30ff 	movne.w	r0, #4294967295
 8000b60:	f000 b972 	b.w	8000e48 <__aeabi_idiv0>
 8000b64:	f1ad 0c08 	sub.w	ip, sp, #8
 8000b68:	e96d ce04 	strd	ip, lr, [sp, #-16]!
 8000b6c:	f000 f806 	bl	8000b7c <__udivmoddi4>
 8000b70:	f8dd e004 	ldr.w	lr, [sp, #4]
 8000b74:	e9dd 2302 	ldrd	r2, r3, [sp, #8]
 8000b78:	b004      	add	sp, #16
 8000b7a:	4770      	bx	lr

08000b7c <__udivmoddi4>:
 8000b7c:	e92d 47f0 	stmdb	sp!, {r4, r5, r6, r7, r8, r9, sl, lr}
 8000b80:	9e08      	ldr	r6, [sp, #32]
 8000b82:	4604      	mov	r4, r0
 8000b84:	4688      	mov	r8, r1
 8000b86:	2b00      	cmp	r3, #0
 8000b88:	d14b      	bne.n	8000c22 <__udivmoddi4+0xa6>
 8000b8a:	428a      	cmp	r2, r1
 8000b8c:	4615      	mov	r5, r2
 8000b8e:	d967      	bls.n	8000c60 <__udivmoddi4+0xe4>
 8000b90:	fab2 f282 	clz	r2, r2
 8000b94:	b14a      	cbz	r2, 8000baa <__udivmoddi4+0x2e>
 8000b96:	f1c2 0720 	rsb	r7, r2, #32
 8000b9a:	fa01 f302 	lsl.w	r3, r1, r2
 8000b9e:	fa20 f707 	lsr.w	r7, r0, r7
 8000ba2:	4095      	lsls	r5, r2
 8000ba4:	ea47 0803 	orr.w	r8, r7, r3
 8000ba8:	4094      	lsls	r4, r2
 8000baa:	ea4f 4e15 	mov.w	lr, r5, lsr #16
 8000bae:	0c23      	lsrs	r3, r4, #16
 8000bb0:	fbb8 f7fe 	udiv	r7, r8, lr
 8000bb4:	fa1f fc85 	uxth.w	ip, r5
 8000bb8:	fb0e 8817 	mls	r8, lr, r7, r8
 8000bbc:	ea43 4308 	orr.w	r3, r3, r8, lsl #16
 8000bc0:	fb07 f10c 	mul.w	r1, r7, ip
 8000bc4:	4299      	cmp	r1, r3
 8000bc6:	d909      	bls.n	8000bdc <__udivmoddi4+0x60>
 8000bc8:	18eb      	adds	r3, r5, r3
 8000bca:	f107 30ff 	add.w	r0, r7, #4294967295
 8000bce:	f080 811b 	bcs.w	8000e08 <__udivmoddi4+0x28c>
 8000bd2:	4299      	cmp	r1, r3
 8000bd4:	f240 8118 	bls.w	8000e08 <__udivmoddi4+0x28c>
 8000bd8:	3f02      	subs	r7, #2
 8000bda:	442b      	add	r3, r5
 8000bdc:	1a5b      	subs	r3, r3, r1
 8000bde:	b2a4      	uxth	r4, r4
 8000be0:	fbb3 f0fe 	udiv	r0, r3, lr
 8000be4:	fb0e 3310 	mls	r3, lr, r0, r3
 8000be8:	ea44 4403 	orr.w	r4, r4, r3, lsl #16
 8000bec:	fb00 fc0c 	mul.w	ip, r0, ip
 8000bf0:	45a4      	cmp	ip, r4
 8000bf2:	d909      	bls.n	8000c08 <__udivmoddi4+0x8c>
 8000bf4:	192c      	adds	r4, r5, r4
 8000bf6:	f100 33ff 	add.w	r3, r0, #4294967295
 8000bfa:	f080 8107 	bcs.w	8000e0c <__udivmoddi4+0x290>
 8000bfe:	45a4      	cmp	ip, r4
 8000c00:	f240 8104 	bls.w	8000e0c <__udivmoddi4+0x290>
 8000c04:	3802      	subs	r0, #2
 8000c06:	442c      	add	r4, r5
 8000c08:	ea40 4007 	orr.w	r0, r0, r7, lsl #16
 8000c0c:	eba4 040c 	sub.w	r4, r4, ip
 8000c10:	2700      	movs	r7, #0
 8000c12:	b11e      	cbz	r6, 8000c1c <__udivmoddi4+0xa0>
 8000c14:	40d4      	lsrs	r4, r2
 8000c16:	2300      	movs	r3, #0
 8000c18:	e9c6 4300 	strd	r4, r3, [r6]
 8000c1c:	4639      	mov	r1, r7
 8000c1e:	e8bd 87f0 	ldmia.w	sp!, {r4, r5, r6, r7, r8, r9, sl, pc}
 8000c22:	428b      	cmp	r3, r1
 8000c24:	d909      	bls.n	8000c3a <__udivmoddi4+0xbe>
 8000c26:	2e00      	cmp	r6, #0
 8000c28:	f000 80eb 	beq.w	8000e02 <__udivmoddi4+0x286>
 8000c2c:	2700      	movs	r7, #0
 8000c2e:	e9c6 0100 	strd	r0, r1, [r6]
 8000c32:	4638      	mov	r0, r7
 8000c34:	4639      	mov	r1, r7
 8000c36:	e8bd 87f0 	ldmia.w	sp!, {r4, r5, r6, r7, r8, r9, sl, pc}
 8000c3a:	fab3 f783 	clz	r7, r3
 8000c3e:	2f00      	cmp	r7, #0
 8000c40:	d147      	bne.n	8000cd2 <__udivmoddi4+0x156>
 8000c42:	428b      	cmp	r3, r1
 8000c44:	d302      	bcc.n	8000c4c <__udivmoddi4+0xd0>
 8000c46:	4282      	cmp	r2, r0
 8000c48:	f200 80fa 	bhi.w	8000e40 <__udivmoddi4+0x2c4>
 8000c4c:	1a84      	subs	r4, r0, r2
 8000c4e:	eb61 0303 	sbc.w	r3, r1, r3
 8000c52:	2001      	movs	r0, #1
 8000c54:	4698      	mov	r8, r3
 8000c56:	2e00      	cmp	r6, #0
 8000c58:	d0e0      	beq.n	8000c1c <__udivmoddi4+0xa0>
 8000c5a:	e9c6 4800 	strd	r4, r8, [r6]
 8000c5e:	e7dd      	b.n	8000c1c <__udivmoddi4+0xa0>
 8000c60:	b902      	cbnz	r2, 8000c64 <__udivmoddi4+0xe8>
 8000c62:	deff      	udf	#255	; 0xff
 8000c64:	fab2 f282 	clz	r2, r2
 8000c68:	2a00      	cmp	r2, #0
 8000c6a:	f040 808f 	bne.w	8000d8c <__udivmoddi4+0x210>
 8000c6e:	1b49      	subs	r1, r1, r5
 8000c70:	ea4f 4e15 	mov.w	lr, r5, lsr #16
 8000c74:	fa1f f885 	uxth.w	r8, r5
 8000c78:	2701      	movs	r7, #1
 8000c7a:	fbb1 fcfe 	udiv	ip, r1, lr
 8000c7e:	0c23      	lsrs	r3, r4, #16
 8000c80:	fb0e 111c 	mls	r1, lr, ip, r1
 8000c84:	ea43 4301 	orr.w	r3, r3, r1, lsl #16
 8000c88:	fb08 f10c 	mul.w	r1, r8, ip
 8000c8c:	4299      	cmp	r1, r3
 8000c8e:	d907      	bls.n	8000ca0 <__udivmoddi4+0x124>
 8000c90:	18eb      	adds	r3, r5, r3
 8000c92:	f10c 30ff 	add.w	r0, ip, #4294967295
 8000c96:	d202      	bcs.n	8000c9e <__udivmoddi4+0x122>
 8000c98:	4299      	cmp	r1, r3
 8000c9a:	f200 80cd 	bhi.w	8000e38 <__udivmoddi4+0x2bc>
 8000c9e:	4684      	mov	ip, r0
 8000ca0:	1a59      	subs	r1, r3, r1
 8000ca2:	b2a3      	uxth	r3, r4
 8000ca4:	fbb1 f0fe 	udiv	r0, r1, lr
 8000ca8:	fb0e 1410 	mls	r4, lr, r0, r1
 8000cac:	ea43 4404 	orr.w	r4, r3, r4, lsl #16
 8000cb0:	fb08 f800 	mul.w	r8, r8, r0
 8000cb4:	45a0      	cmp	r8, r4
 8000cb6:	d907      	bls.n	8000cc8 <__udivmoddi4+0x14c>
 8000cb8:	192c      	adds	r4, r5, r4
 8000cba:	f100 33ff 	add.w	r3, r0, #4294967295
 8000cbe:	d202      	bcs.n	8000cc6 <__udivmoddi4+0x14a>
 8000cc0:	45a0      	cmp	r8, r4
 8000cc2:	f200 80b6 	bhi.w	8000e32 <__udivmoddi4+0x2b6>
 8000cc6:	4618      	mov	r0, r3
 8000cc8:	eba4 0408 	sub.w	r4, r4, r8
 8000ccc:	ea40 400c 	orr.w	r0, r0, ip, lsl #16
 8000cd0:	e79f      	b.n	8000c12 <__udivmoddi4+0x96>
 8000cd2:	f1c7 0c20 	rsb	ip, r7, #32
 8000cd6:	40bb      	lsls	r3, r7
 8000cd8:	fa22 fe0c 	lsr.w	lr, r2, ip
 8000cdc:	ea4e 0e03 	orr.w	lr, lr, r3
 8000ce0:	fa01 f407 	lsl.w	r4, r1, r7
 8000ce4:	fa20 f50c 	lsr.w	r5, r0, ip
 8000ce8:	fa21 f30c 	lsr.w	r3, r1, ip
 8000cec:	ea4f 481e 	mov.w	r8, lr, lsr #16
 8000cf0:	4325      	orrs	r5, r4
 8000cf2:	fbb3 f9f8 	udiv	r9, r3, r8
 8000cf6:	0c2c      	lsrs	r4, r5, #16
 8000cf8:	fb08 3319 	mls	r3, r8, r9, r3
 8000cfc:	fa1f fa8e 	uxth.w	sl, lr
 8000d00:	ea44 4303 	orr.w	r3, r4, r3, lsl #16
 8000d04:	fb09 f40a 	mul.w	r4, r9, sl
 8000d08:	429c      	cmp	r4, r3
 8000d0a:	fa02 f207 	lsl.w	r2, r2, r7
 8000d0e:	fa00 f107 	lsl.w	r1, r0, r7
 8000d12:	d90b      	bls.n	8000d2c <__udivmoddi4+0x1b0>
 8000d14:	eb1e 0303 	adds.w	r3, lr, r3
 8000d18:	f109 30ff 	add.w	r0, r9, #4294967295
 8000d1c:	f080 8087 	bcs.w	8000e2e <__udivmoddi4+0x2b2>
 8000d20:	429c      	cmp	r4, r3
 8000d22:	f240 8084 	bls.w	8000e2e <__udivmoddi4+0x2b2>
 8000d26:	f1a9 0902 	sub.w	r9, r9, #2
 8000d2a:	4473      	add	r3, lr
 8000d2c:	1b1b      	subs	r3, r3, r4
 8000d2e:	b2ad      	uxth	r5, r5
 8000d30:	fbb3 f0f8 	udiv	r0, r3, r8
 8000d34:	fb08 3310 	mls	r3, r8, r0, r3
 8000d38:	ea45 4403 	orr.w	r4, r5, r3, lsl #16
 8000d3c:	fb00 fa0a 	mul.w	sl, r0, sl
 8000d40:	45a2      	cmp	sl, r4
 8000d42:	d908      	bls.n	8000d56 <__udivmoddi4+0x1da>
 8000d44:	eb1e 0404 	adds.w	r4, lr, r4
 8000d48:	f100 33ff 	add.w	r3, r0, #4294967295
 8000d4c:	d26b      	bcs.n	8000e26 <__udivmoddi4+0x2aa>
 8000d4e:	45a2      	cmp	sl, r4
 8000d50:	d969      	bls.n	8000e26 <__udivmoddi4+0x2aa>
 8000d52:	3802      	subs	r0, #2
 8000d54:	4474      	add	r4, lr
 8000d56:	ea40 4009 	orr.w	r0, r0, r9, lsl #16
 8000d5a:	fba0 8902 	umull	r8, r9, r0, r2
 8000d5e:	eba4 040a 	sub.w	r4, r4, sl
 8000d62:	454c      	cmp	r4, r9
 8000d64:	46c2      	mov	sl, r8
 8000d66:	464b      	mov	r3, r9
 8000d68:	d354      	bcc.n	8000e14 <__udivmoddi4+0x298>
 8000d6a:	d051      	beq.n	8000e10 <__udivmoddi4+0x294>
 8000d6c:	2e00      	cmp	r6, #0
 8000d6e:	d069      	beq.n	8000e44 <__udivmoddi4+0x2c8>
 8000d70:	ebb1 050a 	subs.w	r5, r1, sl
 8000d74:	eb64 0403 	sbc.w	r4, r4, r3
 8000d78:	fa04 fc0c 	lsl.w	ip, r4, ip
 8000d7c:	40fd      	lsrs	r5, r7
 8000d7e:	40fc      	lsrs	r4, r7
 8000d80:	ea4c 0505 	orr.w	r5, ip, r5
 8000d84:	e9c6 5400 	strd	r5, r4, [r6]
 8000d88:	2700      	movs	r7, #0
 8000d8a:	e747      	b.n	8000c1c <__udivmoddi4+0xa0>
 8000d8c:	f1c2 0320 	rsb	r3, r2, #32
 8000d90:	fa20 f703 	lsr.w	r7, r0, r3
 8000d94:	4095      	lsls	r5, r2
 8000d96:	fa01 f002 	lsl.w	r0, r1, r2
 8000d9a:	fa21 f303 	lsr.w	r3, r1, r3
 8000d9e:	ea4f 4e15 	mov.w	lr, r5, lsr #16
 8000da2:	4338      	orrs	r0, r7
 8000da4:	0c01      	lsrs	r1, r0, #16
 8000da6:	fbb3 f7fe 	udiv	r7, r3, lr
 8000daa:	fa1f f885 	uxth.w	r8, r5
 8000dae:	fb0e 3317 	mls	r3, lr, r7, r3
 8000db2:	ea41 4103 	orr.w	r1, r1, r3, lsl #16
 8000db6:	fb07 f308 	mul.w	r3, r7, r8
 8000dba:	428b      	cmp	r3, r1
 8000dbc:	fa04 f402 	lsl.w	r4, r4, r2
 8000dc0:	d907      	bls.n	8000dd2 <__udivmoddi4+0x256>
 8000dc2:	1869      	adds	r1, r5, r1
 8000dc4:	f107 3cff 	add.w	ip, r7, #4294967295
 8000dc8:	d22f      	bcs.n	8000e2a <__udivmoddi4+0x2ae>
 8000dca:	428b      	cmp	r3, r1
 8000dcc:	d92d      	bls.n	8000e2a <__udivmoddi4+0x2ae>
 8000dce:	3f02      	subs	r7, #2
 8000dd0:	4429      	add	r1, r5
 8000dd2:	1acb      	subs	r3, r1, r3
 8000dd4:	b281      	uxth	r1, r0
 8000dd6:	fbb3 f0fe 	udiv	r0, r3, lr
 8000dda:	fb0e 3310 	mls	r3, lr, r0, r3
 8000dde:	ea41 4103 	orr.w	r1, r1, r3, lsl #16
 8000de2:	fb00 f308 	mul.w	r3, r0, r8
 8000de6:	428b      	cmp	r3, r1
 8000de8:	d907      	bls.n	8000dfa <__udivmoddi4+0x27e>
 8000dea:	1869      	adds	r1, r5, r1
 8000dec:	f100 3cff 	add.w	ip, r0, #4294967295
 8000df0:	d217      	bcs.n	8000e22 <__udivmoddi4+0x2a6>
 8000df2:	428b      	cmp	r3, r1
 8000df4:	d915      	bls.n	8000e22 <__udivmoddi4+0x2a6>
 8000df6:	3802      	subs	r0, #2
 8000df8:	4429      	add	r1, r5
 8000dfa:	1ac9      	subs	r1, r1, r3
 8000dfc:	ea40 4707 	orr.w	r7, r0, r7, lsl #16
 8000e00:	e73b      	b.n	8000c7a <__udivmoddi4+0xfe>
 8000e02:	4637      	mov	r7, r6
 8000e04:	4630      	mov	r0, r6
 8000e06:	e709      	b.n	8000c1c <__udivmoddi4+0xa0>
 8000e08:	4607      	mov	r7, r0
 8000e0a:	e6e7      	b.n	8000bdc <__udivmoddi4+0x60>
 8000e0c:	4618      	mov	r0, r3
 8000e0e:	e6fb      	b.n	8000c08 <__udivmoddi4+0x8c>
 8000e10:	4541      	cmp	r1, r8
 8000e12:	d2ab      	bcs.n	8000d6c <__udivmoddi4+0x1f0>
 8000e14:	ebb8 0a02 	subs.w	sl, r8, r2
 8000e18:	eb69 020e 	sbc.w	r2, r9, lr
 8000e1c:	3801      	subs	r0, #1
 8000e1e:	4613      	mov	r3, r2
 8000e20:	e7a4      	b.n	8000d6c <__udivmoddi4+0x1f0>
 8000e22:	4660      	mov	r0, ip
 8000e24:	e7e9      	b.n	8000dfa <__udivmoddi4+0x27e>
 8000e26:	4618      	mov	r0, r3
 8000e28:	e795      	b.n	8000d56 <__udivmoddi4+0x1da>
 8000e2a:	4667      	mov	r7, ip
 8000e2c:	e7d1      	b.n	8000dd2 <__udivmoddi4+0x256>
 8000e2e:	4681      	mov	r9, r0
 8000e30:	e77c      	b.n	8000d2c <__udivmoddi4+0x1b0>
 8000e32:	3802      	subs	r0, #2
 8000e34:	442c      	add	r4, r5
 8000e36:	e747      	b.n	8000cc8 <__udivmoddi4+0x14c>
 8000e38:	f1ac 0c02 	sub.w	ip, ip, #2
 8000e3c:	442b      	add	r3, r5
 8000e3e:	e72f      	b.n	8000ca0 <__udivmoddi4+0x124>
 8000e40:	4638      	mov	r0, r7
 8000e42:	e708      	b.n	8000c56 <__udivmoddi4+0xda>
 8000e44:	4637      	mov	r7, r6
 8000e46:	e6e9      	b.n	8000c1c <__udivmoddi4+0xa0>

08000e48 <__aeabi_idiv0>:
 8000e48:	4770      	bx	lr
 8000e4a:	bf00      	nop

08000e4c <vApplicationIdleHook>:
void vApplicationStackOverflowHook(xTaskHandle xTask, signed char *pcTaskName);
void vApplicationMallocFailedHook(void);

/* USER CODE BEGIN 2 */
__weak void vApplicationIdleHook( void )
{
 8000e4c:	b480      	push	{r7}
 8000e4e:	af00      	add	r7, sp, #0
   specified, or call vTaskDelay()). If the application makes use of the
   vTaskDelete() API function (as this demo application does) then it is also
   important that vApplicationIdleHook() is permitted to return to its calling
   function, because it is the responsibility of the idle task to clean up
   memory allocated by the kernel to any task that has since been deleted. */
}
 8000e50:	bf00      	nop
 8000e52:	46bd      	mov	sp, r7
 8000e54:	f85d 7b04 	ldr.w	r7, [sp], #4
 8000e58:	4770      	bx	lr

08000e5a <vApplicationStackOverflowHook>:
/* USER CODE END 2 */

/* USER CODE BEGIN 4 */
__weak void vApplicationStackOverflowHook(xTaskHandle xTask, signed char *pcTaskName)
{
 8000e5a:	b480      	push	{r7}
 8000e5c:	b083      	sub	sp, #12
 8000e5e:	af00      	add	r7, sp, #0
 8000e60:	6078      	str	r0, [r7, #4]
 8000e62:	6039      	str	r1, [r7, #0]
   /* Run time stack overflow checking is performed if
   configCHECK_FOR_STACK_OVERFLOW is defined to 1 or 2. This hook function is
   called if a stack overflow is detected. */
}
 8000e64:	bf00      	nop
 8000e66:	370c      	adds	r7, #12
 8000e68:	46bd      	mov	sp, r7
 8000e6a:	f85d 7b04 	ldr.w	r7, [sp], #4
 8000e6e:	4770      	bx	lr

08000e70 <vApplicationMallocFailedHook>:
/* USER CODE END 4 */

/* USER CODE BEGIN 5 */
__weak void vApplicationMallocFailedHook(void)
{
 8000e70:	b480      	push	{r7}
 8000e72:	af00      	add	r7, sp, #0
   demo application. If heap_1.c or heap_2.c are used, then the size of the
   heap available to pvPortMalloc() is defined by configTOTAL_HEAP_SIZE in
   FreeRTOSConfig.h, and the xPortGetFreeHeapSize() API function can be used
   to query the size of free heap space that remains (although it does not
   provide information on how the remaining heap might be fragmented). */
}
 8000e74:	bf00      	nop
 8000e76:	46bd      	mov	sp, r7
 8000e78:	f85d 7b04 	ldr.w	r7, [sp], #4
 8000e7c:	4770      	bx	lr
	...

08000e80 <vApplicationGetIdleTaskMemory>:
/* USER CODE BEGIN GET_IDLE_TASK_MEMORY */
static StaticTask_t xIdleTaskTCBBuffer;
static StackType_t xIdleStack[configMINIMAL_STACK_SIZE];

void vApplicationGetIdleTaskMemory( StaticTask_t **ppxIdleTaskTCBBuffer, StackType_t **ppxIdleTaskStackBuffer, uint32_t *pulIdleTaskStackSize )
{
 8000e80:	b480      	push	{r7}
 8000e82:	b085      	sub	sp, #20
 8000e84:	af00      	add	r7, sp, #0
 8000e86:	60f8      	str	r0, [r7, #12]
 8000e88:	60b9      	str	r1, [r7, #8]
 8000e8a:	607a      	str	r2, [r7, #4]
  *ppxIdleTaskTCBBuffer = &xIdleTaskTCBBuffer;
 8000e8c:	68fb      	ldr	r3, [r7, #12]
 8000e8e:	4a07      	ldr	r2, [pc, #28]	; (8000eac <vApplicationGetIdleTaskMemory+0x2c>)
 8000e90:	601a      	str	r2, [r3, #0]
  *ppxIdleTaskStackBuffer = &xIdleStack[0];
 8000e92:	68bb      	ldr	r3, [r7, #8]
 8000e94:	4a06      	ldr	r2, [pc, #24]	; (8000eb0 <vApplicationGetIdleTaskMemory+0x30>)
 8000e96:	601a      	str	r2, [r3, #0]
  *pulIdleTaskStackSize = configMINIMAL_STACK_SIZE;
 8000e98:	687b      	ldr	r3, [r7, #4]
 8000e9a:	2280      	movs	r2, #128	; 0x80
 8000e9c:	601a      	str	r2, [r3, #0]
  /* place for user code */
}
 8000e9e:	bf00      	nop
 8000ea0:	3714      	adds	r7, #20
 8000ea2:	46bd      	mov	sp, r7
 8000ea4:	f85d 7b04 	ldr.w	r7, [sp], #4
 8000ea8:	4770      	bx	lr
 8000eaa:	bf00      	nop
 8000eac:	2000006c 	.word	0x2000006c
 8000eb0:	200000c4 	.word	0x200000c4

08000eb4 <ft5336_Init>:
  *         from MCU to FT5336 : ie I2C channel initialization (if required).
  * @param  DeviceAddr: Device address on communication Bus (I2C slave address of FT5336).
  * @retval None
  */
void ft5336_Init(uint16_t DeviceAddr)
{
 8000eb4:	b580      	push	{r7, lr}
 8000eb6:	b082      	sub	sp, #8
 8000eb8:	af00      	add	r7, sp, #0
 8000eba:	4603      	mov	r3, r0
 8000ebc:	80fb      	strh	r3, [r7, #6]
  /* Wait at least 200ms after power up before accessing registers
   * Trsi timing (Time of starting to report point after resetting) from FT5336GQQ datasheet */
  TS_IO_Delay(200);
 8000ebe:	20c8      	movs	r0, #200	; 0xc8
 8000ec0:	f002 fe10 	bl	8003ae4 <TS_IO_Delay>

  /* Initialize I2C link if needed */
  ft5336_I2C_InitializeIfRequired();
 8000ec4:	f000 fa7a 	bl	80013bc <ft5336_I2C_InitializeIfRequired>
}
 8000ec8:	bf00      	nop
 8000eca:	3708      	adds	r7, #8
 8000ecc:	46bd      	mov	sp, r7
 8000ece:	bd80      	pop	{r7, pc}

08000ed0 <ft5336_Reset>:
  *         @note : Not applicable to FT5336.
  * @param  DeviceAddr: Device address on communication Bus (I2C slave address of FT5336).
  * @retval None
  */
void ft5336_Reset(uint16_t DeviceAddr)
{
 8000ed0:	b480      	push	{r7}
 8000ed2:	b083      	sub	sp, #12
 8000ed4:	af00      	add	r7, sp, #0
 8000ed6:	4603      	mov	r3, r0
 8000ed8:	80fb      	strh	r3, [r7, #6]
  /* Do nothing */
  /* No software reset sequence available in FT5336 IC */
}
 8000eda:	bf00      	nop
 8000edc:	370c      	adds	r7, #12
 8000ede:	46bd      	mov	sp, r7
 8000ee0:	f85d 7b04 	ldr.w	r7, [sp], #4
 8000ee4:	4770      	bx	lr

08000ee6 <ft5336_ReadID>:
  *         able to read the FT5336 device ID, and verify this is a FT5336.
  * @param  DeviceAddr: I2C FT5336 Slave address.
  * @retval The Device ID (two bytes).
  */
uint16_t ft5336_ReadID(uint16_t DeviceAddr)
{
 8000ee6:	b580      	push	{r7, lr}
 8000ee8:	b084      	sub	sp, #16
 8000eea:	af00      	add	r7, sp, #0
 8000eec:	4603      	mov	r3, r0
 8000eee:	80fb      	strh	r3, [r7, #6]
  volatile uint8_t ucReadId = 0;
 8000ef0:	2300      	movs	r3, #0
 8000ef2:	737b      	strb	r3, [r7, #13]
  uint8_t nbReadAttempts = 0;
 8000ef4:	2300      	movs	r3, #0
 8000ef6:	73fb      	strb	r3, [r7, #15]
  uint8_t bFoundDevice = 0; /* Device not found by default */
 8000ef8:	2300      	movs	r3, #0
 8000efa:	73bb      	strb	r3, [r7, #14]

  /* Initialize I2C link if needed */
  ft5336_I2C_InitializeIfRequired();
 8000efc:	f000 fa5e 	bl	80013bc <ft5336_I2C_InitializeIfRequired>

  /* At maximum 4 attempts to read ID : exit at first finding of the searched device ID */
  for(nbReadAttempts = 0; ((nbReadAttempts < 3) && !(bFoundDevice)); nbReadAttempts++)
 8000f00:	2300      	movs	r3, #0
 8000f02:	73fb      	strb	r3, [r7, #15]
 8000f04:	e010      	b.n	8000f28 <ft5336_ReadID+0x42>
  {
    /* Read register FT5336_CHIP_ID_REG as DeviceID detection */
    ucReadId = TS_IO_Read(DeviceAddr, FT5336_CHIP_ID_REG);
 8000f06:	88fb      	ldrh	r3, [r7, #6]
 8000f08:	b2db      	uxtb	r3, r3
 8000f0a:	21a8      	movs	r1, #168	; 0xa8
 8000f0c:	4618      	mov	r0, r3
 8000f0e:	f002 fdcb 	bl	8003aa8 <TS_IO_Read>
 8000f12:	4603      	mov	r3, r0
 8000f14:	737b      	strb	r3, [r7, #13]

    /* Found the searched device ID ? */
    if(ucReadId == FT5336_ID_VALUE)
 8000f16:	7b7b      	ldrb	r3, [r7, #13]
 8000f18:	b2db      	uxtb	r3, r3
 8000f1a:	2b51      	cmp	r3, #81	; 0x51
 8000f1c:	d101      	bne.n	8000f22 <ft5336_ReadID+0x3c>
    {
      /* Set device as found */
      bFoundDevice = 1;
 8000f1e:	2301      	movs	r3, #1
 8000f20:	73bb      	strb	r3, [r7, #14]
  for(nbReadAttempts = 0; ((nbReadAttempts < 3) && !(bFoundDevice)); nbReadAttempts++)
 8000f22:	7bfb      	ldrb	r3, [r7, #15]
 8000f24:	3301      	adds	r3, #1
 8000f26:	73fb      	strb	r3, [r7, #15]
 8000f28:	7bfb      	ldrb	r3, [r7, #15]
 8000f2a:	2b02      	cmp	r3, #2
 8000f2c:	d802      	bhi.n	8000f34 <ft5336_ReadID+0x4e>
 8000f2e:	7bbb      	ldrb	r3, [r7, #14]
 8000f30:	2b00      	cmp	r3, #0
 8000f32:	d0e8      	beq.n	8000f06 <ft5336_ReadID+0x20>
    }
  }

  /* Return the device ID value */
  return (ucReadId);
 8000f34:	7b7b      	ldrb	r3, [r7, #13]
 8000f36:	b2db      	uxtb	r3, r3
 8000f38:	b29b      	uxth	r3, r3
}
 8000f3a:	4618      	mov	r0, r3
 8000f3c:	3710      	adds	r7, #16
 8000f3e:	46bd      	mov	sp, r7
 8000f40:	bd80      	pop	{r7, pc}

08000f42 <ft5336_TS_Start>:
  * @brief  Configures the touch Screen IC device to start detecting touches
  * @param  DeviceAddr: Device address on communication Bus (I2C slave address).
  * @retval None.
  */
void ft5336_TS_Start(uint16_t DeviceAddr)
{
 8000f42:	b580      	push	{r7, lr}
 8000f44:	b082      	sub	sp, #8
 8000f46:	af00      	add	r7, sp, #0
 8000f48:	4603      	mov	r3, r0
 8000f4a:	80fb      	strh	r3, [r7, #6]
  /* Minimum static configuration of FT5336 */
  FT5336_ASSERT(ft5336_TS_Configure(DeviceAddr));
 8000f4c:	88fb      	ldrh	r3, [r7, #6]
 8000f4e:	4618      	mov	r0, r3
 8000f50:	f000 fa44 	bl	80013dc <ft5336_TS_Configure>

  /* By default set FT5336 IC in Polling mode : no INT generation on FT5336 for new touch available */
  /* Note TS_INT is active low                                                                      */
  ft5336_TS_DisableIT(DeviceAddr);
 8000f54:	88fb      	ldrh	r3, [r7, #6]
 8000f56:	4618      	mov	r0, r3
 8000f58:	f000 f932 	bl	80011c0 <ft5336_TS_DisableIT>
}
 8000f5c:	bf00      	nop
 8000f5e:	3708      	adds	r7, #8
 8000f60:	46bd      	mov	sp, r7
 8000f62:	bd80      	pop	{r7, pc}

08000f64 <ft5336_TS_DetectTouch>:
  *         variables).
  * @param  DeviceAddr: Device address on communication Bus.
  * @retval : Number of active touches detected (can be 0, 1 or 2).
  */
uint8_t ft5336_TS_DetectTouch(uint16_t DeviceAddr)
{
 8000f64:	b580      	push	{r7, lr}
 8000f66:	b084      	sub	sp, #16
 8000f68:	af00      	add	r7, sp, #0
 8000f6a:	4603      	mov	r3, r0
 8000f6c:	80fb      	strh	r3, [r7, #6]
  volatile uint8_t nbTouch = 0;
 8000f6e:	2300      	movs	r3, #0
 8000f70:	73fb      	strb	r3, [r7, #15]

  /* Read register FT5336_TD_STAT_REG to check number of touches detection */
  nbTouch = TS_IO_Read(DeviceAddr, FT5336_TD_STAT_REG);
 8000f72:	88fb      	ldrh	r3, [r7, #6]
 8000f74:	b2db      	uxtb	r3, r3
 8000f76:	2102      	movs	r1, #2
 8000f78:	4618      	mov	r0, r3
 8000f7a:	f002 fd95 	bl	8003aa8 <TS_IO_Read>
 8000f7e:	4603      	mov	r3, r0
 8000f80:	73fb      	strb	r3, [r7, #15]
  nbTouch &= FT5336_TD_STAT_MASK;
 8000f82:	7bfb      	ldrb	r3, [r7, #15]
 8000f84:	b2db      	uxtb	r3, r3
 8000f86:	f003 030f 	and.w	r3, r3, #15
 8000f8a:	b2db      	uxtb	r3, r3
 8000f8c:	73fb      	strb	r3, [r7, #15]

  if(nbTouch > FT5336_MAX_DETECTABLE_TOUCH)
 8000f8e:	7bfb      	ldrb	r3, [r7, #15]
 8000f90:	b2db      	uxtb	r3, r3
 8000f92:	2b05      	cmp	r3, #5
 8000f94:	d901      	bls.n	8000f9a <ft5336_TS_DetectTouch+0x36>
  {
    /* If invalid number of touch detected, set it to zero */
    nbTouch = 0;
 8000f96:	2300      	movs	r3, #0
 8000f98:	73fb      	strb	r3, [r7, #15]
  }

  /* Update ft5336 driver internal global : current number of active touches */
  ft5336_handle.currActiveTouchNb = nbTouch;
 8000f9a:	7bfb      	ldrb	r3, [r7, #15]
 8000f9c:	b2da      	uxtb	r2, r3
 8000f9e:	4b05      	ldr	r3, [pc, #20]	; (8000fb4 <ft5336_TS_DetectTouch+0x50>)
 8000fa0:	705a      	strb	r2, [r3, #1]

  /* Reset current active touch index on which to work on */
  ft5336_handle.currActiveTouchIdx = 0;
 8000fa2:	4b04      	ldr	r3, [pc, #16]	; (8000fb4 <ft5336_TS_DetectTouch+0x50>)
 8000fa4:	2200      	movs	r2, #0
 8000fa6:	709a      	strb	r2, [r3, #2]

  return(nbTouch);
 8000fa8:	7bfb      	ldrb	r3, [r7, #15]
 8000faa:	b2db      	uxtb	r3, r3
}
 8000fac:	4618      	mov	r0, r3
 8000fae:	3710      	adds	r7, #16
 8000fb0:	46bd      	mov	sp, r7
 8000fb2:	bd80      	pop	{r7, pc}
 8000fb4:	200002c4 	.word	0x200002c4

08000fb8 <ft5336_TS_GetXY>:
  * @param  X: Pointer to X position value
  * @param  Y: Pointer to Y position value
  * @retval None.
  */
void ft5336_TS_GetXY(uint16_t DeviceAddr, uint16_t *X, uint16_t *Y)
{
 8000fb8:	b580      	push	{r7, lr}
 8000fba:	b086      	sub	sp, #24
 8000fbc:	af00      	add	r7, sp, #0
 8000fbe:	4603      	mov	r3, r0
 8000fc0:	60b9      	str	r1, [r7, #8]
 8000fc2:	607a      	str	r2, [r7, #4]
 8000fc4:	81fb      	strh	r3, [r7, #14]
  volatile uint8_t ucReadData = 0;
 8000fc6:	2300      	movs	r3, #0
 8000fc8:	74fb      	strb	r3, [r7, #19]
  static uint16_t coord;
  uint8_t regAddressXLow = 0;
 8000fca:	2300      	movs	r3, #0
 8000fcc:	75fb      	strb	r3, [r7, #23]
  uint8_t regAddressXHigh = 0;
 8000fce:	2300      	movs	r3, #0
 8000fd0:	75bb      	strb	r3, [r7, #22]
  uint8_t regAddressYLow = 0;
 8000fd2:	2300      	movs	r3, #0
 8000fd4:	757b      	strb	r3, [r7, #21]
  uint8_t regAddressYHigh = 0;
 8000fd6:	2300      	movs	r3, #0
 8000fd8:	753b      	strb	r3, [r7, #20]

  if(ft5336_handle.currActiveTouchIdx < ft5336_handle.currActiveTouchNb)
 8000fda:	4b6d      	ldr	r3, [pc, #436]	; (8001190 <ft5336_TS_GetXY+0x1d8>)
 8000fdc:	789a      	ldrb	r2, [r3, #2]
 8000fde:	4b6c      	ldr	r3, [pc, #432]	; (8001190 <ft5336_TS_GetXY+0x1d8>)
 8000fe0:	785b      	ldrb	r3, [r3, #1]
 8000fe2:	429a      	cmp	r2, r3
 8000fe4:	f080 80cf 	bcs.w	8001186 <ft5336_TS_GetXY+0x1ce>
  {
    switch(ft5336_handle.currActiveTouchIdx)
 8000fe8:	4b69      	ldr	r3, [pc, #420]	; (8001190 <ft5336_TS_GetXY+0x1d8>)
 8000fea:	789b      	ldrb	r3, [r3, #2]
 8000fec:	2b09      	cmp	r3, #9
 8000fee:	d871      	bhi.n	80010d4 <ft5336_TS_GetXY+0x11c>
 8000ff0:	a201      	add	r2, pc, #4	; (adr r2, 8000ff8 <ft5336_TS_GetXY+0x40>)
 8000ff2:	f852 f023 	ldr.w	pc, [r2, r3, lsl #2]
 8000ff6:	bf00      	nop
 8000ff8:	08001021 	.word	0x08001021
 8000ffc:	08001033 	.word	0x08001033
 8001000:	08001045 	.word	0x08001045
 8001004:	08001057 	.word	0x08001057
 8001008:	08001069 	.word	0x08001069
 800100c:	0800107b 	.word	0x0800107b
 8001010:	0800108d 	.word	0x0800108d
 8001014:	0800109f 	.word	0x0800109f
 8001018:	080010b1 	.word	0x080010b1
 800101c:	080010c3 	.word	0x080010c3
    {
    case 0 :
      regAddressXLow  = FT5336_P1_XL_REG;
 8001020:	2304      	movs	r3, #4
 8001022:	75fb      	strb	r3, [r7, #23]
      regAddressXHigh = FT5336_P1_XH_REG;
 8001024:	2303      	movs	r3, #3
 8001026:	75bb      	strb	r3, [r7, #22]
      regAddressYLow  = FT5336_P1_YL_REG;
 8001028:	2306      	movs	r3, #6
 800102a:	757b      	strb	r3, [r7, #21]
      regAddressYHigh = FT5336_P1_YH_REG;
 800102c:	2305      	movs	r3, #5
 800102e:	753b      	strb	r3, [r7, #20]
      break;
 8001030:	e051      	b.n	80010d6 <ft5336_TS_GetXY+0x11e>

    case 1 :
      regAddressXLow  = FT5336_P2_XL_REG;
 8001032:	230a      	movs	r3, #10
 8001034:	75fb      	strb	r3, [r7, #23]
      regAddressXHigh = FT5336_P2_XH_REG;
 8001036:	2309      	movs	r3, #9
 8001038:	75bb      	strb	r3, [r7, #22]
      regAddressYLow  = FT5336_P2_YL_REG;
 800103a:	230c      	movs	r3, #12
 800103c:	757b      	strb	r3, [r7, #21]
      regAddressYHigh = FT5336_P2_YH_REG;
 800103e:	230b      	movs	r3, #11
 8001040:	753b      	strb	r3, [r7, #20]
      break;
 8001042:	e048      	b.n	80010d6 <ft5336_TS_GetXY+0x11e>

    case 2 :
      regAddressXLow  = FT5336_P3_XL_REG;
 8001044:	2310      	movs	r3, #16
 8001046:	75fb      	strb	r3, [r7, #23]
      regAddressXHigh = FT5336_P3_XH_REG;
 8001048:	230f      	movs	r3, #15
 800104a:	75bb      	strb	r3, [r7, #22]
      regAddressYLow  = FT5336_P3_YL_REG;
 800104c:	2312      	movs	r3, #18
 800104e:	757b      	strb	r3, [r7, #21]
      regAddressYHigh = FT5336_P3_YH_REG;
 8001050:	2311      	movs	r3, #17
 8001052:	753b      	strb	r3, [r7, #20]
      break;
 8001054:	e03f      	b.n	80010d6 <ft5336_TS_GetXY+0x11e>

    case 3 :
      regAddressXLow  = FT5336_P4_XL_REG;
 8001056:	2316      	movs	r3, #22
 8001058:	75fb      	strb	r3, [r7, #23]
      regAddressXHigh = FT5336_P4_XH_REG;
 800105a:	2315      	movs	r3, #21
 800105c:	75bb      	strb	r3, [r7, #22]
      regAddressYLow  = FT5336_P4_YL_REG;
 800105e:	2318      	movs	r3, #24
 8001060:	757b      	strb	r3, [r7, #21]
      regAddressYHigh = FT5336_P4_YH_REG;
 8001062:	2317      	movs	r3, #23
 8001064:	753b      	strb	r3, [r7, #20]
      break;
 8001066:	e036      	b.n	80010d6 <ft5336_TS_GetXY+0x11e>

    case 4 :
      regAddressXLow  = FT5336_P5_XL_REG;
 8001068:	231c      	movs	r3, #28
 800106a:	75fb      	strb	r3, [r7, #23]
      regAddressXHigh = FT5336_P5_XH_REG;
 800106c:	231b      	movs	r3, #27
 800106e:	75bb      	strb	r3, [r7, #22]
      regAddressYLow  = FT5336_P5_YL_REG;
 8001070:	231e      	movs	r3, #30
 8001072:	757b      	strb	r3, [r7, #21]
      regAddressYHigh = FT5336_P5_YH_REG;
 8001074:	231d      	movs	r3, #29
 8001076:	753b      	strb	r3, [r7, #20]
      break;
 8001078:	e02d      	b.n	80010d6 <ft5336_TS_GetXY+0x11e>

    case 5 :
      regAddressXLow  = FT5336_P6_XL_REG;
 800107a:	2322      	movs	r3, #34	; 0x22
 800107c:	75fb      	strb	r3, [r7, #23]
      regAddressXHigh = FT5336_P6_XH_REG;
 800107e:	2321      	movs	r3, #33	; 0x21
 8001080:	75bb      	strb	r3, [r7, #22]
      regAddressYLow  = FT5336_P6_YL_REG;
 8001082:	2324      	movs	r3, #36	; 0x24
 8001084:	757b      	strb	r3, [r7, #21]
      regAddressYHigh = FT5336_P6_YH_REG;
 8001086:	2323      	movs	r3, #35	; 0x23
 8001088:	753b      	strb	r3, [r7, #20]
      break;
 800108a:	e024      	b.n	80010d6 <ft5336_TS_GetXY+0x11e>

    case 6 :
      regAddressXLow  = FT5336_P7_XL_REG;
 800108c:	2328      	movs	r3, #40	; 0x28
 800108e:	75fb      	strb	r3, [r7, #23]
      regAddressXHigh = FT5336_P7_XH_REG;
 8001090:	2327      	movs	r3, #39	; 0x27
 8001092:	75bb      	strb	r3, [r7, #22]
      regAddressYLow  = FT5336_P7_YL_REG;
 8001094:	232a      	movs	r3, #42	; 0x2a
 8001096:	757b      	strb	r3, [r7, #21]
      regAddressYHigh = FT5336_P7_YH_REG;
 8001098:	2329      	movs	r3, #41	; 0x29
 800109a:	753b      	strb	r3, [r7, #20]
      break;
 800109c:	e01b      	b.n	80010d6 <ft5336_TS_GetXY+0x11e>

    case 7 :
      regAddressXLow  = FT5336_P8_XL_REG;
 800109e:	232e      	movs	r3, #46	; 0x2e
 80010a0:	75fb      	strb	r3, [r7, #23]
      regAddressXHigh = FT5336_P8_XH_REG;
 80010a2:	232d      	movs	r3, #45	; 0x2d
 80010a4:	75bb      	strb	r3, [r7, #22]
      regAddressYLow  = FT5336_P8_YL_REG;
 80010a6:	2330      	movs	r3, #48	; 0x30
 80010a8:	757b      	strb	r3, [r7, #21]
      regAddressYHigh = FT5336_P8_YH_REG;
 80010aa:	232f      	movs	r3, #47	; 0x2f
 80010ac:	753b      	strb	r3, [r7, #20]
      break;
 80010ae:	e012      	b.n	80010d6 <ft5336_TS_GetXY+0x11e>

    case 8 :
      regAddressXLow  = FT5336_P9_XL_REG;
 80010b0:	2334      	movs	r3, #52	; 0x34
 80010b2:	75fb      	strb	r3, [r7, #23]
      regAddressXHigh = FT5336_P9_XH_REG;
 80010b4:	2333      	movs	r3, #51	; 0x33
 80010b6:	75bb      	strb	r3, [r7, #22]
      regAddressYLow  = FT5336_P9_YL_REG;
 80010b8:	2336      	movs	r3, #54	; 0x36
 80010ba:	757b      	strb	r3, [r7, #21]
      regAddressYHigh = FT5336_P9_YH_REG;
 80010bc:	2335      	movs	r3, #53	; 0x35
 80010be:	753b      	strb	r3, [r7, #20]
      break;
 80010c0:	e009      	b.n	80010d6 <ft5336_TS_GetXY+0x11e>

    case 9 :
      regAddressXLow  = FT5336_P10_XL_REG;
 80010c2:	233a      	movs	r3, #58	; 0x3a
 80010c4:	75fb      	strb	r3, [r7, #23]
      regAddressXHigh = FT5336_P10_XH_REG;
 80010c6:	2339      	movs	r3, #57	; 0x39
 80010c8:	75bb      	strb	r3, [r7, #22]
      regAddressYLow  = FT5336_P10_YL_REG;
 80010ca:	233c      	movs	r3, #60	; 0x3c
 80010cc:	757b      	strb	r3, [r7, #21]
      regAddressYHigh = FT5336_P10_YH_REG;
 80010ce:	233b      	movs	r3, #59	; 0x3b
 80010d0:	753b      	strb	r3, [r7, #20]
      break;
 80010d2:	e000      	b.n	80010d6 <ft5336_TS_GetXY+0x11e>

    default :
      break;
 80010d4:	bf00      	nop

    } /* end switch(ft5336_handle.currActiveTouchIdx) */

    /* Read low part of X position */
    ucReadData = TS_IO_Read(DeviceAddr, regAddressXLow);
 80010d6:	89fb      	ldrh	r3, [r7, #14]
 80010d8:	b2db      	uxtb	r3, r3
 80010da:	7dfa      	ldrb	r2, [r7, #23]
 80010dc:	4611      	mov	r1, r2
 80010de:	4618      	mov	r0, r3
 80010e0:	f002 fce2 	bl	8003aa8 <TS_IO_Read>
 80010e4:	4603      	mov	r3, r0
 80010e6:	74fb      	strb	r3, [r7, #19]
    coord = (ucReadData & FT5336_TOUCH_POS_LSB_MASK) >> FT5336_TOUCH_POS_LSB_SHIFT;
 80010e8:	7cfb      	ldrb	r3, [r7, #19]
 80010ea:	b2db      	uxtb	r3, r3
 80010ec:	b29a      	uxth	r2, r3
 80010ee:	4b29      	ldr	r3, [pc, #164]	; (8001194 <ft5336_TS_GetXY+0x1dc>)
 80010f0:	801a      	strh	r2, [r3, #0]

    /* Read high part of X position */
    ucReadData = TS_IO_Read(DeviceAddr, regAddressXHigh);
 80010f2:	89fb      	ldrh	r3, [r7, #14]
 80010f4:	b2db      	uxtb	r3, r3
 80010f6:	7dba      	ldrb	r2, [r7, #22]
 80010f8:	4611      	mov	r1, r2
 80010fa:	4618      	mov	r0, r3
 80010fc:	f002 fcd4 	bl	8003aa8 <TS_IO_Read>
 8001100:	4603      	mov	r3, r0
 8001102:	74fb      	strb	r3, [r7, #19]
    coord |= ((ucReadData & FT5336_TOUCH_POS_MSB_MASK) >> FT5336_TOUCH_POS_MSB_SHIFT) << 8;
 8001104:	7cfb      	ldrb	r3, [r7, #19]
 8001106:	b2db      	uxtb	r3, r3
 8001108:	021b      	lsls	r3, r3, #8
 800110a:	f403 6370 	and.w	r3, r3, #3840	; 0xf00
 800110e:	b21a      	sxth	r2, r3
 8001110:	4b20      	ldr	r3, [pc, #128]	; (8001194 <ft5336_TS_GetXY+0x1dc>)
 8001112:	881b      	ldrh	r3, [r3, #0]
 8001114:	b21b      	sxth	r3, r3
 8001116:	4313      	orrs	r3, r2
 8001118:	b21b      	sxth	r3, r3
 800111a:	b29a      	uxth	r2, r3
 800111c:	4b1d      	ldr	r3, [pc, #116]	; (8001194 <ft5336_TS_GetXY+0x1dc>)
 800111e:	801a      	strh	r2, [r3, #0]

    /* Send back ready X position to caller */
    *X = coord;
 8001120:	4b1c      	ldr	r3, [pc, #112]	; (8001194 <ft5336_TS_GetXY+0x1dc>)
 8001122:	881a      	ldrh	r2, [r3, #0]
 8001124:	68bb      	ldr	r3, [r7, #8]
 8001126:	801a      	strh	r2, [r3, #0]

    /* Read low part of Y position */
    ucReadData = TS_IO_Read(DeviceAddr, regAddressYLow);
 8001128:	89fb      	ldrh	r3, [r7, #14]
 800112a:	b2db      	uxtb	r3, r3
 800112c:	7d7a      	ldrb	r2, [r7, #21]
 800112e:	4611      	mov	r1, r2
 8001130:	4618      	mov	r0, r3
 8001132:	f002 fcb9 	bl	8003aa8 <TS_IO_Read>
 8001136:	4603      	mov	r3, r0
 8001138:	74fb      	strb	r3, [r7, #19]
    coord = (ucReadData & FT5336_TOUCH_POS_LSB_MASK) >> FT5336_TOUCH_POS_LSB_SHIFT;
 800113a:	7cfb      	ldrb	r3, [r7, #19]
 800113c:	b2db      	uxtb	r3, r3
 800113e:	b29a      	uxth	r2, r3
 8001140:	4b14      	ldr	r3, [pc, #80]	; (8001194 <ft5336_TS_GetXY+0x1dc>)
 8001142:	801a      	strh	r2, [r3, #0]

    /* Read high part of Y position */
    ucReadData = TS_IO_Read(DeviceAddr, regAddressYHigh);
 8001144:	89fb      	ldrh	r3, [r7, #14]
 8001146:	b2db      	uxtb	r3, r3
 8001148:	7d3a      	ldrb	r2, [r7, #20]
 800114a:	4611      	mov	r1, r2
 800114c:	4618      	mov	r0, r3
 800114e:	f002 fcab 	bl	8003aa8 <TS_IO_Read>
 8001152:	4603      	mov	r3, r0
 8001154:	74fb      	strb	r3, [r7, #19]
    coord |= ((ucReadData & FT5336_TOUCH_POS_MSB_MASK) >> FT5336_TOUCH_POS_MSB_SHIFT) << 8;
 8001156:	7cfb      	ldrb	r3, [r7, #19]
 8001158:	b2db      	uxtb	r3, r3
 800115a:	021b      	lsls	r3, r3, #8
 800115c:	f403 6370 	and.w	r3, r3, #3840	; 0xf00
 8001160:	b21a      	sxth	r2, r3
 8001162:	4b0c      	ldr	r3, [pc, #48]	; (8001194 <ft5336_TS_GetXY+0x1dc>)
 8001164:	881b      	ldrh	r3, [r3, #0]
 8001166:	b21b      	sxth	r3, r3
 8001168:	4313      	orrs	r3, r2
 800116a:	b21b      	sxth	r3, r3
 800116c:	b29a      	uxth	r2, r3
 800116e:	4b09      	ldr	r3, [pc, #36]	; (8001194 <ft5336_TS_GetXY+0x1dc>)
 8001170:	801a      	strh	r2, [r3, #0]

    /* Send back ready Y position to caller */
    *Y = coord;
 8001172:	4b08      	ldr	r3, [pc, #32]	; (8001194 <ft5336_TS_GetXY+0x1dc>)
 8001174:	881a      	ldrh	r2, [r3, #0]
 8001176:	687b      	ldr	r3, [r7, #4]
 8001178:	801a      	strh	r2, [r3, #0]

    ft5336_handle.currActiveTouchIdx++; /* next call will work on next touch */
 800117a:	4b05      	ldr	r3, [pc, #20]	; (8001190 <ft5336_TS_GetXY+0x1d8>)
 800117c:	789b      	ldrb	r3, [r3, #2]
 800117e:	3301      	adds	r3, #1
 8001180:	b2da      	uxtb	r2, r3
 8001182:	4b03      	ldr	r3, [pc, #12]	; (8001190 <ft5336_TS_GetXY+0x1d8>)
 8001184:	709a      	strb	r2, [r3, #2]

  } /* of if(ft5336_handle.currActiveTouchIdx < ft5336_handle.currActiveTouchNb) */
}
 8001186:	bf00      	nop
 8001188:	3718      	adds	r7, #24
 800118a:	46bd      	mov	sp, r7
 800118c:	bd80      	pop	{r7, pc}
 800118e:	bf00      	nop
 8001190:	200002c4 	.word	0x200002c4
 8001194:	200002c8 	.word	0x200002c8

08001198 <ft5336_TS_EnableIT>:
  *         connected to MCU as EXTI.
  * @param  DeviceAddr: Device address on communication Bus (Slave I2C address of FT5336).
  * @retval None
  */
void ft5336_TS_EnableIT(uint16_t DeviceAddr)
{
 8001198:	b580      	push	{r7, lr}
 800119a:	b084      	sub	sp, #16
 800119c:	af00      	add	r7, sp, #0
 800119e:	4603      	mov	r3, r0
 80011a0:	80fb      	strh	r3, [r7, #6]
   uint8_t regValue = 0;
 80011a2:	2300      	movs	r3, #0
 80011a4:	73fb      	strb	r3, [r7, #15]
   regValue = (FT5336_G_MODE_INTERRUPT_TRIGGER & (FT5336_G_MODE_INTERRUPT_MASK >> FT5336_G_MODE_INTERRUPT_SHIFT)) << FT5336_G_MODE_INTERRUPT_SHIFT;
 80011a6:	2301      	movs	r3, #1
 80011a8:	73fb      	strb	r3, [r7, #15]

   /* Set interrupt trigger mode in FT5336_GMODE_REG */
   TS_IO_Write(DeviceAddr, FT5336_GMODE_REG, regValue);
 80011aa:	88fb      	ldrh	r3, [r7, #6]
 80011ac:	b2db      	uxtb	r3, r3
 80011ae:	7bfa      	ldrb	r2, [r7, #15]
 80011b0:	21a4      	movs	r1, #164	; 0xa4
 80011b2:	4618      	mov	r0, r3
 80011b4:	f002 fc5e 	bl	8003a74 <TS_IO_Write>
}
 80011b8:	bf00      	nop
 80011ba:	3710      	adds	r7, #16
 80011bc:	46bd      	mov	sp, r7
 80011be:	bd80      	pop	{r7, pc}

080011c0 <ft5336_TS_DisableIT>:
  *         connected to MCU as EXTI.
  * @param  DeviceAddr: Device address on communication Bus (Slave I2C address of FT5336).
  * @retval None
  */
void ft5336_TS_DisableIT(uint16_t DeviceAddr)
{
 80011c0:	b580      	push	{r7, lr}
 80011c2:	b084      	sub	sp, #16
 80011c4:	af00      	add	r7, sp, #0
 80011c6:	4603      	mov	r3, r0
 80011c8:	80fb      	strh	r3, [r7, #6]
  uint8_t regValue = 0;
 80011ca:	2300      	movs	r3, #0
 80011cc:	73fb      	strb	r3, [r7, #15]
  regValue = (FT5336_G_MODE_INTERRUPT_POLLING & (FT5336_G_MODE_INTERRUPT_MASK >> FT5336_G_MODE_INTERRUPT_SHIFT)) << FT5336_G_MODE_INTERRUPT_SHIFT;
 80011ce:	2300      	movs	r3, #0
 80011d0:	73fb      	strb	r3, [r7, #15]

  /* Set interrupt polling mode in FT5336_GMODE_REG */
  TS_IO_Write(DeviceAddr, FT5336_GMODE_REG, regValue);
 80011d2:	88fb      	ldrh	r3, [r7, #6]
 80011d4:	b2db      	uxtb	r3, r3
 80011d6:	7bfa      	ldrb	r2, [r7, #15]
 80011d8:	21a4      	movs	r1, #164	; 0xa4
 80011da:	4618      	mov	r0, r3
 80011dc:	f002 fc4a 	bl	8003a74 <TS_IO_Write>
}
 80011e0:	bf00      	nop
 80011e2:	3710      	adds	r7, #16
 80011e4:	46bd      	mov	sp, r7
 80011e6:	bd80      	pop	{r7, pc}

080011e8 <ft5336_TS_ITStatus>:
  *         @note : This feature is not applicable to FT5336.
  * @param  DeviceAddr: Device address on communication Bus (I2C slave address of FT5336).
  * @retval TS interrupts status : always return 0 here
  */
uint8_t ft5336_TS_ITStatus(uint16_t DeviceAddr)
{
 80011e8:	b480      	push	{r7}
 80011ea:	b083      	sub	sp, #12
 80011ec:	af00      	add	r7, sp, #0
 80011ee:	4603      	mov	r3, r0
 80011f0:	80fb      	strh	r3, [r7, #6]
  /* Always return 0 as feature not applicable to FT5336 */
  return 0;
 80011f2:	2300      	movs	r3, #0
}
 80011f4:	4618      	mov	r0, r3
 80011f6:	370c      	adds	r7, #12
 80011f8:	46bd      	mov	sp, r7
 80011fa:	f85d 7b04 	ldr.w	r7, [sp], #4
 80011fe:	4770      	bx	lr

08001200 <ft5336_TS_ClearIT>:
  *         @note : This feature is not applicable to FT5336.
  * @param  DeviceAddr: Device address on communication Bus (I2C slave address of FT5336).
  * @retval None
  */
void ft5336_TS_ClearIT(uint16_t DeviceAddr)
{
 8001200:	b480      	push	{r7}
 8001202:	b083      	sub	sp, #12
 8001204:	af00      	add	r7, sp, #0
 8001206:	4603      	mov	r3, r0
 8001208:	80fb      	strh	r3, [r7, #6]
  /* Nothing to be done here for FT5336 */
}
 800120a:	bf00      	nop
 800120c:	370c      	adds	r7, #12
 800120e:	46bd      	mov	sp, r7
 8001210:	f85d 7b04 	ldr.w	r7, [sp], #4
 8001214:	4770      	bx	lr

08001216 <ft5336_TS_GetGestureID>:
  * @param  DeviceAddr: Device address on communication Bus (I2C slave address of FT5336).
  * @param  pGestureId : Pointer to get last touch gesture Identification.
  * @retval None.
  */
void ft5336_TS_GetGestureID(uint16_t DeviceAddr, uint32_t * pGestureId)
{
 8001216:	b580      	push	{r7, lr}
 8001218:	b084      	sub	sp, #16
 800121a:	af00      	add	r7, sp, #0
 800121c:	4603      	mov	r3, r0
 800121e:	6039      	str	r1, [r7, #0]
 8001220:	80fb      	strh	r3, [r7, #6]
  volatile uint8_t ucReadData = 0;
 8001222:	2300      	movs	r3, #0
 8001224:	73fb      	strb	r3, [r7, #15]

  ucReadData = TS_IO_Read(DeviceAddr, FT5336_GEST_ID_REG);
 8001226:	88fb      	ldrh	r3, [r7, #6]
 8001228:	b2db      	uxtb	r3, r3
 800122a:	2101      	movs	r1, #1
 800122c:	4618      	mov	r0, r3
 800122e:	f002 fc3b 	bl	8003aa8 <TS_IO_Read>
 8001232:	4603      	mov	r3, r0
 8001234:	73fb      	strb	r3, [r7, #15]

  * pGestureId = ucReadData;
 8001236:	7bfb      	ldrb	r3, [r7, #15]
 8001238:	b2db      	uxtb	r3, r3
 800123a:	461a      	mov	r2, r3
 800123c:	683b      	ldr	r3, [r7, #0]
 800123e:	601a      	str	r2, [r3, #0]
}
 8001240:	bf00      	nop
 8001242:	3710      	adds	r7, #16
 8001244:	46bd      	mov	sp, r7
 8001246:	bd80      	pop	{r7, pc}

08001248 <ft5336_TS_GetTouchInfo>:
void ft5336_TS_GetTouchInfo(uint16_t   DeviceAddr,
                            uint32_t   touchIdx,
                            uint32_t * pWeight,
                            uint32_t * pArea,
                            uint32_t * pEvent)
{
 8001248:	b580      	push	{r7, lr}
 800124a:	b086      	sub	sp, #24
 800124c:	af00      	add	r7, sp, #0
 800124e:	60b9      	str	r1, [r7, #8]
 8001250:	607a      	str	r2, [r7, #4]
 8001252:	603b      	str	r3, [r7, #0]
 8001254:	4603      	mov	r3, r0
 8001256:	81fb      	strh	r3, [r7, #14]
  volatile uint8_t ucReadData = 0;
 8001258:	2300      	movs	r3, #0
 800125a:	753b      	strb	r3, [r7, #20]
  uint8_t regAddressXHigh = 0;
 800125c:	2300      	movs	r3, #0
 800125e:	75fb      	strb	r3, [r7, #23]
  uint8_t regAddressPWeight = 0;
 8001260:	2300      	movs	r3, #0
 8001262:	75bb      	strb	r3, [r7, #22]
  uint8_t regAddressPMisc = 0;
 8001264:	2300      	movs	r3, #0
 8001266:	757b      	strb	r3, [r7, #21]

  if(touchIdx < ft5336_handle.currActiveTouchNb)
 8001268:	4b4d      	ldr	r3, [pc, #308]	; (80013a0 <ft5336_TS_GetTouchInfo+0x158>)
 800126a:	785b      	ldrb	r3, [r3, #1]
 800126c:	461a      	mov	r2, r3
 800126e:	68bb      	ldr	r3, [r7, #8]
 8001270:	4293      	cmp	r3, r2
 8001272:	f080 8090 	bcs.w	8001396 <ft5336_TS_GetTouchInfo+0x14e>
  {
    switch(touchIdx)
 8001276:	68bb      	ldr	r3, [r7, #8]
 8001278:	2b09      	cmp	r3, #9
 800127a:	d85d      	bhi.n	8001338 <ft5336_TS_GetTouchInfo+0xf0>
 800127c:	a201      	add	r2, pc, #4	; (adr r2, 8001284 <ft5336_TS_GetTouchInfo+0x3c>)
 800127e:	f852 f023 	ldr.w	pc, [r2, r3, lsl #2]
 8001282:	bf00      	nop
 8001284:	080012ad 	.word	0x080012ad
 8001288:	080012bb 	.word	0x080012bb
 800128c:	080012c9 	.word	0x080012c9
 8001290:	080012d7 	.word	0x080012d7
 8001294:	080012e5 	.word	0x080012e5
 8001298:	080012f3 	.word	0x080012f3
 800129c:	08001301 	.word	0x08001301
 80012a0:	0800130f 	.word	0x0800130f
 80012a4:	0800131d 	.word	0x0800131d
 80012a8:	0800132b 	.word	0x0800132b
    {
    case 0 :
      regAddressXHigh   = FT5336_P1_XH_REG;
 80012ac:	2303      	movs	r3, #3
 80012ae:	75fb      	strb	r3, [r7, #23]
      regAddressPWeight = FT5336_P1_WEIGHT_REG;
 80012b0:	2307      	movs	r3, #7
 80012b2:	75bb      	strb	r3, [r7, #22]
      regAddressPMisc   = FT5336_P1_MISC_REG;
 80012b4:	2308      	movs	r3, #8
 80012b6:	757b      	strb	r3, [r7, #21]
      break;
 80012b8:	e03f      	b.n	800133a <ft5336_TS_GetTouchInfo+0xf2>

    case 1 :
      regAddressXHigh   = FT5336_P2_XH_REG;
 80012ba:	2309      	movs	r3, #9
 80012bc:	75fb      	strb	r3, [r7, #23]
      regAddressPWeight = FT5336_P2_WEIGHT_REG;
 80012be:	230d      	movs	r3, #13
 80012c0:	75bb      	strb	r3, [r7, #22]
      regAddressPMisc   = FT5336_P2_MISC_REG;
 80012c2:	230e      	movs	r3, #14
 80012c4:	757b      	strb	r3, [r7, #21]
      break;
 80012c6:	e038      	b.n	800133a <ft5336_TS_GetTouchInfo+0xf2>

    case 2 :
      regAddressXHigh   = FT5336_P3_XH_REG;
 80012c8:	230f      	movs	r3, #15
 80012ca:	75fb      	strb	r3, [r7, #23]
      regAddressPWeight = FT5336_P3_WEIGHT_REG;
 80012cc:	2313      	movs	r3, #19
 80012ce:	75bb      	strb	r3, [r7, #22]
      regAddressPMisc   = FT5336_P3_MISC_REG;
 80012d0:	2314      	movs	r3, #20
 80012d2:	757b      	strb	r3, [r7, #21]
      break;
 80012d4:	e031      	b.n	800133a <ft5336_TS_GetTouchInfo+0xf2>

    case 3 :
      regAddressXHigh   = FT5336_P4_XH_REG;
 80012d6:	2315      	movs	r3, #21
 80012d8:	75fb      	strb	r3, [r7, #23]
      regAddressPWeight = FT5336_P4_WEIGHT_REG;
 80012da:	2319      	movs	r3, #25
 80012dc:	75bb      	strb	r3, [r7, #22]
      regAddressPMisc   = FT5336_P4_MISC_REG;
 80012de:	231a      	movs	r3, #26
 80012e0:	757b      	strb	r3, [r7, #21]
      break;
 80012e2:	e02a      	b.n	800133a <ft5336_TS_GetTouchInfo+0xf2>

    case 4 :
      regAddressXHigh   = FT5336_P5_XH_REG;
 80012e4:	231b      	movs	r3, #27
 80012e6:	75fb      	strb	r3, [r7, #23]
      regAddressPWeight = FT5336_P5_WEIGHT_REG;
 80012e8:	231f      	movs	r3, #31
 80012ea:	75bb      	strb	r3, [r7, #22]
      regAddressPMisc   = FT5336_P5_MISC_REG;
 80012ec:	2320      	movs	r3, #32
 80012ee:	757b      	strb	r3, [r7, #21]
      break;
 80012f0:	e023      	b.n	800133a <ft5336_TS_GetTouchInfo+0xf2>

    case 5 :
      regAddressXHigh   = FT5336_P6_XH_REG;
 80012f2:	2321      	movs	r3, #33	; 0x21
 80012f4:	75fb      	strb	r3, [r7, #23]
      regAddressPWeight = FT5336_P6_WEIGHT_REG;
 80012f6:	2325      	movs	r3, #37	; 0x25
 80012f8:	75bb      	strb	r3, [r7, #22]
      regAddressPMisc   = FT5336_P6_MISC_REG;
 80012fa:	2326      	movs	r3, #38	; 0x26
 80012fc:	757b      	strb	r3, [r7, #21]
      break;
 80012fe:	e01c      	b.n	800133a <ft5336_TS_GetTouchInfo+0xf2>

    case 6 :
      regAddressXHigh   = FT5336_P7_XH_REG;
 8001300:	2327      	movs	r3, #39	; 0x27
 8001302:	75fb      	strb	r3, [r7, #23]
      regAddressPWeight = FT5336_P7_WEIGHT_REG;
 8001304:	232b      	movs	r3, #43	; 0x2b
 8001306:	75bb      	strb	r3, [r7, #22]
      regAddressPMisc   = FT5336_P7_MISC_REG;
 8001308:	232c      	movs	r3, #44	; 0x2c
 800130a:	757b      	strb	r3, [r7, #21]
      break;
 800130c:	e015      	b.n	800133a <ft5336_TS_GetTouchInfo+0xf2>

    case 7 :
      regAddressXHigh   = FT5336_P8_XH_REG;
 800130e:	232d      	movs	r3, #45	; 0x2d
 8001310:	75fb      	strb	r3, [r7, #23]
      regAddressPWeight = FT5336_P8_WEIGHT_REG;
 8001312:	2331      	movs	r3, #49	; 0x31
 8001314:	75bb      	strb	r3, [r7, #22]
      regAddressPMisc   = FT5336_P8_MISC_REG;
 8001316:	2332      	movs	r3, #50	; 0x32
 8001318:	757b      	strb	r3, [r7, #21]
      break;
 800131a:	e00e      	b.n	800133a <ft5336_TS_GetTouchInfo+0xf2>

    case 8 :
      regAddressXHigh   = FT5336_P9_XH_REG;
 800131c:	2333      	movs	r3, #51	; 0x33
 800131e:	75fb      	strb	r3, [r7, #23]
      regAddressPWeight = FT5336_P9_WEIGHT_REG;
 8001320:	2337      	movs	r3, #55	; 0x37
 8001322:	75bb      	strb	r3, [r7, #22]
      regAddressPMisc   = FT5336_P9_MISC_REG;
 8001324:	2338      	movs	r3, #56	; 0x38
 8001326:	757b      	strb	r3, [r7, #21]
      break;
 8001328:	e007      	b.n	800133a <ft5336_TS_GetTouchInfo+0xf2>

    case 9 :
      regAddressXHigh   = FT5336_P10_XH_REG;
 800132a:	2339      	movs	r3, #57	; 0x39
 800132c:	75fb      	strb	r3, [r7, #23]
      regAddressPWeight = FT5336_P10_WEIGHT_REG;
 800132e:	233d      	movs	r3, #61	; 0x3d
 8001330:	75bb      	strb	r3, [r7, #22]
      regAddressPMisc   = FT5336_P10_MISC_REG;
 8001332:	233e      	movs	r3, #62	; 0x3e
 8001334:	757b      	strb	r3, [r7, #21]
      break;
 8001336:	e000      	b.n	800133a <ft5336_TS_GetTouchInfo+0xf2>

    default :
      break;
 8001338:	bf00      	nop

    } /* end switch(touchIdx) */

    /* Read Event Id of touch index */
    ucReadData = TS_IO_Read(DeviceAddr, regAddressXHigh);
 800133a:	89fb      	ldrh	r3, [r7, #14]
 800133c:	b2db      	uxtb	r3, r3
 800133e:	7dfa      	ldrb	r2, [r7, #23]
 8001340:	4611      	mov	r1, r2
 8001342:	4618      	mov	r0, r3
 8001344:	f002 fbb0 	bl	8003aa8 <TS_IO_Read>
 8001348:	4603      	mov	r3, r0
 800134a:	753b      	strb	r3, [r7, #20]
    * pEvent = (ucReadData & FT5336_TOUCH_EVT_FLAG_MASK) >> FT5336_TOUCH_EVT_FLAG_SHIFT;
 800134c:	7d3b      	ldrb	r3, [r7, #20]
 800134e:	b2db      	uxtb	r3, r3
 8001350:	119b      	asrs	r3, r3, #6
 8001352:	f003 0203 	and.w	r2, r3, #3
 8001356:	6a3b      	ldr	r3, [r7, #32]
 8001358:	601a      	str	r2, [r3, #0]

    /* Read weight of touch index */
    ucReadData = TS_IO_Read(DeviceAddr, regAddressPWeight);
 800135a:	89fb      	ldrh	r3, [r7, #14]
 800135c:	b2db      	uxtb	r3, r3
 800135e:	7dba      	ldrb	r2, [r7, #22]
 8001360:	4611      	mov	r1, r2
 8001362:	4618      	mov	r0, r3
 8001364:	f002 fba0 	bl	8003aa8 <TS_IO_Read>
 8001368:	4603      	mov	r3, r0
 800136a:	753b      	strb	r3, [r7, #20]
    * pWeight = (ucReadData & FT5336_TOUCH_WEIGHT_MASK) >> FT5336_TOUCH_WEIGHT_SHIFT;
 800136c:	7d3b      	ldrb	r3, [r7, #20]
 800136e:	b2db      	uxtb	r3, r3
 8001370:	461a      	mov	r2, r3
 8001372:	687b      	ldr	r3, [r7, #4]
 8001374:	601a      	str	r2, [r3, #0]

    /* Read area of touch index */
    ucReadData = TS_IO_Read(DeviceAddr, regAddressPMisc);
 8001376:	89fb      	ldrh	r3, [r7, #14]
 8001378:	b2db      	uxtb	r3, r3
 800137a:	7d7a      	ldrb	r2, [r7, #21]
 800137c:	4611      	mov	r1, r2
 800137e:	4618      	mov	r0, r3
 8001380:	f002 fb92 	bl	8003aa8 <TS_IO_Read>
 8001384:	4603      	mov	r3, r0
 8001386:	753b      	strb	r3, [r7, #20]
    * pArea = (ucReadData & FT5336_TOUCH_AREA_MASK) >> FT5336_TOUCH_AREA_SHIFT;
 8001388:	7d3b      	ldrb	r3, [r7, #20]
 800138a:	b2db      	uxtb	r3, r3
 800138c:	111b      	asrs	r3, r3, #4
 800138e:	f003 0204 	and.w	r2, r3, #4
 8001392:	683b      	ldr	r3, [r7, #0]
 8001394:	601a      	str	r2, [r3, #0]

  } /* of if(touchIdx < ft5336_handle.currActiveTouchNb) */
}
 8001396:	bf00      	nop
 8001398:	3718      	adds	r7, #24
 800139a:	46bd      	mov	sp, r7
 800139c:	bd80      	pop	{r7, pc}
 800139e:	bf00      	nop
 80013a0:	200002c4 	.word	0x200002c4

080013a4 <ft5336_Get_I2C_InitializedStatus>:
  * @brief  Return the status of I2C was initialized or not.
  * @param  None.
  * @retval : I2C initialization status.
  */
static uint8_t ft5336_Get_I2C_InitializedStatus(void)
{
 80013a4:	b480      	push	{r7}
 80013a6:	af00      	add	r7, sp, #0
  return(ft5336_handle.i2cInitialized);
 80013a8:	4b03      	ldr	r3, [pc, #12]	; (80013b8 <ft5336_Get_I2C_InitializedStatus+0x14>)
 80013aa:	781b      	ldrb	r3, [r3, #0]
}
 80013ac:	4618      	mov	r0, r3
 80013ae:	46bd      	mov	sp, r7
 80013b0:	f85d 7b04 	ldr.w	r7, [sp], #4
 80013b4:	4770      	bx	lr
 80013b6:	bf00      	nop
 80013b8:	200002c4 	.word	0x200002c4

080013bc <ft5336_I2C_InitializeIfRequired>:
  * @brief  I2C initialize if needed.
  * @param  None.
  * @retval : None.
  */
static void ft5336_I2C_InitializeIfRequired(void)
{
 80013bc:	b580      	push	{r7, lr}
 80013be:	af00      	add	r7, sp, #0
  if(ft5336_Get_I2C_InitializedStatus() == FT5336_I2C_NOT_INITIALIZED)
 80013c0:	f7ff fff0 	bl	80013a4 <ft5336_Get_I2C_InitializedStatus>
 80013c4:	4603      	mov	r3, r0
 80013c6:	2b00      	cmp	r3, #0
 80013c8:	d104      	bne.n	80013d4 <ft5336_I2C_InitializeIfRequired+0x18>
  {
    /* Initialize TS IO BUS layer (I2C) */
    TS_IO_Init();
 80013ca:	f002 fb49 	bl	8003a60 <TS_IO_Init>

    /* Set state to initialized */
    ft5336_handle.i2cInitialized = FT5336_I2C_INITIALIZED;
 80013ce:	4b02      	ldr	r3, [pc, #8]	; (80013d8 <ft5336_I2C_InitializeIfRequired+0x1c>)
 80013d0:	2201      	movs	r2, #1
 80013d2:	701a      	strb	r2, [r3, #0]
  }
}
 80013d4:	bf00      	nop
 80013d6:	bd80      	pop	{r7, pc}
 80013d8:	200002c4 	.word	0x200002c4

080013dc <ft5336_TS_Configure>:
  * @brief  Basic static configuration of TouchScreen
  * @param  DeviceAddr: FT5336 Device address for communication on I2C Bus.
  * @retval Status FT5336_STATUS_OK or FT5336_STATUS_NOT_OK.
  */
static uint32_t ft5336_TS_Configure(uint16_t DeviceAddr)
{
 80013dc:	b480      	push	{r7}
 80013de:	b085      	sub	sp, #20
 80013e0:	af00      	add	r7, sp, #0
 80013e2:	4603      	mov	r3, r0
 80013e4:	80fb      	strh	r3, [r7, #6]
  uint32_t status = FT5336_STATUS_OK;
 80013e6:	2300      	movs	r3, #0
 80013e8:	60fb      	str	r3, [r7, #12]

  /* Nothing special to be done for FT5336 */

  return(status);
 80013ea:	68fb      	ldr	r3, [r7, #12]
}
 80013ec:	4618      	mov	r0, r3
 80013ee:	3714      	adds	r7, #20
 80013f0:	46bd      	mov	sp, r7
 80013f2:	f85d 7b04 	ldr.w	r7, [sp], #4
 80013f6:	4770      	bx	lr

080013f8 <main>:
/**
  * @brief  The application entry point.
  * @retval int
  */
int main(void)
{
 80013f8:	b5b0      	push	{r4, r5, r7, lr}
 80013fa:	b0b2      	sub	sp, #200	; 0xc8
 80013fc:	af00      	add	r7, sp, #0
  /* USER CODE BEGIN 1 */
	int BP1 = 0;
 80013fe:	2300      	movs	r3, #0
 8001400:	f8c7 30b4 	str.w	r3, [r7, #180]	; 0xb4
	int etatBP =0;
 8001404:	2300      	movs	r3, #0
 8001406:	f8c7 30c4 	str.w	r3, [r7, #196]	; 0xc4
	int x = 565/2;int y = 285/2;
 800140a:	f44f 738d 	mov.w	r3, #282	; 0x11a
 800140e:	f8c7 30c0 	str.w	r3, [r7, #192]	; 0xc0
 8001412:	238e      	movs	r3, #142	; 0x8e
 8001414:	f8c7 30bc 	str.w	r3, [r7, #188]	; 0xbc
	int couleur=0;
 8001418:	2300      	movs	r3, #0
 800141a:	f8c7 30b8 	str.w	r3, [r7, #184]	; 0xb8
	char touche;
	static TS_StateTypeDef  TS_State;
	uint32_t potl,potr,joystick_h, joystick_v;
	ADC_ChannelConfTypeDef sConfig = {0};
 800141e:	f107 0390 	add.w	r3, r7, #144	; 0x90
 8001422:	2200      	movs	r2, #0
 8001424:	601a      	str	r2, [r3, #0]
 8001426:	605a      	str	r2, [r3, #4]
 8001428:	609a      	str	r2, [r3, #8]
 800142a:	60da      	str	r2, [r3, #12]
	sConfig.Rank = ADC_REGULAR_RANK_1;
 800142c:	2301      	movs	r3, #1
 800142e:	f8c7 3094 	str.w	r3, [r7, #148]	; 0x94
	sConfig.SamplingTime = ADC_SAMPLETIME_3CYCLES;
 8001432:	2300      	movs	r3, #0
 8001434:	f8c7 3098 	str.w	r3, [r7, #152]	; 0x98
  /* USER CODE END 1 */

  /* MCU Configuration--------------------------------------------------------*/

  /* Reset of all peripherals, Initializes the Flash interface and the Systick. */
  HAL_Init();
 8001438:	f004 fdd7 	bl	8005fea <HAL_Init>
  /* USER CODE BEGIN Init */

  /* USER CODE END Init */

  /* Configure the system clock */
  SystemClock_Config();
 800143c:	f000 fa8a 	bl	8001954 <SystemClock_Config>
  /* USER CODE BEGIN SysInit */

  /* USER CODE END SysInit */

  /* Initialize all configured peripherals */
  MX_GPIO_Init();
 8001440:	f001 f924 	bl	800268c <MX_GPIO_Init>
  MX_ADC3_Init();
 8001444:	f000 fb88 	bl	8001b58 <MX_ADC3_Init>
  MX_I2C1_Init();
 8001448:	f000 fc34 	bl	8001cb4 <MX_I2C1_Init>
  MX_I2C3_Init();
 800144c:	f000 fc72 	bl	8001d34 <MX_I2C3_Init>
  MX_LTDC_Init();
 8001450:	f000 fcb0 	bl	8001db4 <MX_LTDC_Init>
  MX_RTC_Init();
 8001454:	f000 fd30 	bl	8001eb8 <MX_RTC_Init>
  MX_SPI2_Init();
 8001458:	f000 fdd4 	bl	8002004 <MX_SPI2_Init>
  MX_TIM1_Init();
 800145c:	f000 fe10 	bl	8002080 <MX_TIM1_Init>
  MX_TIM2_Init();
 8001460:	f000 fe62 	bl	8002128 <MX_TIM2_Init>
  MX_TIM3_Init();
 8001464:	f000 feae 	bl	80021c4 <MX_TIM3_Init>
  MX_TIM5_Init();
 8001468:	f000 ff3a 	bl	80022e0 <MX_TIM5_Init>
  MX_TIM8_Init();
 800146c:	f000 ff86 	bl	800237c <MX_TIM8_Init>
  MX_USART1_UART_Init();
 8001470:	f001 f85e 	bl	8002530 <MX_USART1_UART_Init>
  MX_USART6_UART_Init();
 8001474:	f001 f88c 	bl	8002590 <MX_USART6_UART_Init>
  MX_ADC1_Init();
 8001478:	f000 fb1c 	bl	8001ab4 <MX_ADC1_Init>
  MX_DAC_Init();
 800147c:	f000 fbbe 	bl	8001bfc <MX_DAC_Init>
  MX_UART7_Init();
 8001480:	f001 f826 	bl	80024d0 <MX_UART7_Init>
  MX_FMC_Init();
 8001484:	f001 f8b4 	bl	80025f0 <MX_FMC_Init>
  MX_DMA2D_Init();
 8001488:	f000 fbe2 	bl	8001c50 <MX_DMA2D_Init>
  /* USER CODE BEGIN 2 */
  BSP_LCD_Init();
 800148c:	f002 fb36 	bl	8003afc <BSP_LCD_Init>
  BSP_LCD_LayerDefaultInit(0, LCD_FB_START_ADDRESS);
 8001490:	f04f 4140 	mov.w	r1, #3221225472	; 0xc0000000
 8001494:	2000      	movs	r0, #0
 8001496:	f002 fbc9 	bl	8003c2c <BSP_LCD_LayerDefaultInit>
  BSP_LCD_LayerDefaultInit(1, LCD_FB_START_ADDRESS+ BSP_LCD_GetXSize()*BSP_LCD_GetYSize()*4);
 800149a:	f002 fb9f 	bl	8003bdc <BSP_LCD_GetXSize>
 800149e:	4604      	mov	r4, r0
 80014a0:	f002 fbb0 	bl	8003c04 <BSP_LCD_GetYSize>
 80014a4:	4603      	mov	r3, r0
 80014a6:	fb03 f304 	mul.w	r3, r3, r4
 80014aa:	f103 5340 	add.w	r3, r3, #805306368	; 0x30000000
 80014ae:	009b      	lsls	r3, r3, #2
 80014b0:	4619      	mov	r1, r3
 80014b2:	2001      	movs	r0, #1
 80014b4:	f002 fbba 	bl	8003c2c <BSP_LCD_LayerDefaultInit>
  BSP_LCD_DisplayOn();
 80014b8:	f003 f94e 	bl	8004758 <BSP_LCD_DisplayOn>
  BSP_LCD_SelectLayer(1);
 80014bc:	2001      	movs	r0, #1
 80014be:	f002 fc15 	bl	8003cec <BSP_LCD_SelectLayer>
  BSP_LCD_Clear(LCD_COLOR_RED);
 80014c2:	4873      	ldr	r0, [pc, #460]	; (8001690 <main+0x298>)
 80014c4:	f002 fc84 	bl	8003dd0 <BSP_LCD_Clear>
  BSP_LCD_SetFont(&Font12);
 80014c8:	4872      	ldr	r0, [pc, #456]	; (8001694 <main+0x29c>)
 80014ca:	f002 fc51 	bl	8003d70 <BSP_LCD_SetFont>
  BSP_LCD_SetTextColor(LCD_COLOR_WHITE);
 80014ce:	f04f 30ff 	mov.w	r0, #4294967295
 80014d2:	f002 fc1b 	bl	8003d0c <BSP_LCD_SetTextColor>
  BSP_LCD_SetBackColor(LCD_COLOR_RED);
 80014d6:	486e      	ldr	r0, [pc, #440]	; (8001690 <main+0x298>)
 80014d8:	f002 fc30 	bl	8003d3c <BSP_LCD_SetBackColor>

  BSP_TS_Init(BSP_LCD_GetXSize(), BSP_LCD_GetYSize());
 80014dc:	f002 fb7e 	bl	8003bdc <BSP_LCD_GetXSize>
 80014e0:	4603      	mov	r3, r0
 80014e2:	b29c      	uxth	r4, r3
 80014e4:	f002 fb8e 	bl	8003c04 <BSP_LCD_GetYSize>
 80014e8:	4603      	mov	r3, r0
 80014ea:	b29b      	uxth	r3, r3
 80014ec:	4619      	mov	r1, r3
 80014ee:	4620      	mov	r0, r4
 80014f0:	f003 fd00 	bl	8004ef4 <BSP_TS_Init>
  //HAL_UART_Receive_IT(&huart1,rxbuffer,1);
  HAL_UART_Receive_IT(&huart7,rxbuffer,8);
 80014f4:	2208      	movs	r2, #8
 80014f6:	4968      	ldr	r1, [pc, #416]	; (8001698 <main+0x2a0>)
 80014f8:	4868      	ldr	r0, [pc, #416]	; (800169c <main+0x2a4>)
 80014fa:	f00a fc35 	bl	800bd68 <HAL_UART_Receive_IT>
  /* start timers, add new ones, ... */
  /* USER CODE END RTOS_TIMERS */

  /* Create the queue(s) */
  /* definition and creation of LancerCalcul */
  osMessageQDef(LancerCalcul, 1, uint64_t);
 80014fe:	4b68      	ldr	r3, [pc, #416]	; (80016a0 <main+0x2a8>)
 8001500:	f107 0480 	add.w	r4, r7, #128	; 0x80
 8001504:	cb0f      	ldmia	r3, {r0, r1, r2, r3}
 8001506:	e884 000f 	stmia.w	r4, {r0, r1, r2, r3}
  LancerCalculHandle = osMessageCreate(osMessageQ(LancerCalcul), NULL);
 800150a:	f107 0380 	add.w	r3, r7, #128	; 0x80
 800150e:	2100      	movs	r1, #0
 8001510:	4618      	mov	r0, r3
 8001512:	f00b fd18 	bl	800cf46 <osMessageCreate>
 8001516:	4602      	mov	r2, r0
 8001518:	4b62      	ldr	r3, [pc, #392]	; (80016a4 <main+0x2ac>)
 800151a:	601a      	str	r2, [r3, #0]

  /* definition and creation of QueueComm */
  osMessageQDef(QueueComm, 1, uint32_t);
 800151c:	4b62      	ldr	r3, [pc, #392]	; (80016a8 <main+0x2b0>)
 800151e:	f107 0470 	add.w	r4, r7, #112	; 0x70
 8001522:	cb0f      	ldmia	r3, {r0, r1, r2, r3}
 8001524:	e884 000f 	stmia.w	r4, {r0, r1, r2, r3}
  QueueCommHandle = osMessageCreate(osMessageQ(QueueComm), NULL);
 8001528:	f107 0370 	add.w	r3, r7, #112	; 0x70
 800152c:	2100      	movs	r1, #0
 800152e:	4618      	mov	r0, r3
 8001530:	f00b fd09 	bl	800cf46 <osMessageCreate>
 8001534:	4602      	mov	r2, r0
 8001536:	4b5d      	ldr	r3, [pc, #372]	; (80016ac <main+0x2b4>)
 8001538:	601a      	str	r2, [r3, #0]
  /* add queues, ... */
  /* USER CODE END RTOS_QUEUES */

  /* Create the thread(s) */
  /* definition and creation of defaultTask */
  osThreadDef(defaultTask, StartDefaultTask, osPriorityNormal, 0, 128);
 800153a:	4b5d      	ldr	r3, [pc, #372]	; (80016b0 <main+0x2b8>)
 800153c:	f107 0454 	add.w	r4, r7, #84	; 0x54
 8001540:	461d      	mov	r5, r3
 8001542:	cd0f      	ldmia	r5!, {r0, r1, r2, r3}
 8001544:	c40f      	stmia	r4!, {r0, r1, r2, r3}
 8001546:	e895 0007 	ldmia.w	r5, {r0, r1, r2}
 800154a:	e884 0007 	stmia.w	r4, {r0, r1, r2}
  defaultTaskHandle = osThreadCreate(osThread(defaultTask), NULL);
 800154e:	f107 0354 	add.w	r3, r7, #84	; 0x54
 8001552:	2100      	movs	r1, #0
 8001554:	4618      	mov	r0, r3
 8001556:	f00b fc96 	bl	800ce86 <osThreadCreate>
 800155a:	4602      	mov	r2, r0
 800155c:	4b55      	ldr	r3, [pc, #340]	; (80016b4 <main+0x2bc>)
 800155e:	601a      	str	r2, [r3, #0]

  /* definition and creation of Comm */
  osThreadDef(Comm, TaskComm, osPriorityHigh, 0, 128);
 8001560:	4b55      	ldr	r3, [pc, #340]	; (80016b8 <main+0x2c0>)
 8001562:	f107 0438 	add.w	r4, r7, #56	; 0x38
 8001566:	461d      	mov	r5, r3
 8001568:	cd0f      	ldmia	r5!, {r0, r1, r2, r3}
 800156a:	c40f      	stmia	r4!, {r0, r1, r2, r3}
 800156c:	e895 0007 	ldmia.w	r5, {r0, r1, r2}
 8001570:	e884 0007 	stmia.w	r4, {r0, r1, r2}
  CommHandle = osThreadCreate(osThread(Comm), NULL);
 8001574:	f107 0338 	add.w	r3, r7, #56	; 0x38
 8001578:	2100      	movs	r1, #0
 800157a:	4618      	mov	r0, r3
 800157c:	f00b fc83 	bl	800ce86 <osThreadCreate>
 8001580:	4602      	mov	r2, r0
 8001582:	4b4e      	ldr	r3, [pc, #312]	; (80016bc <main+0x2c4>)
 8001584:	601a      	str	r2, [r3, #0]

  /* definition and creation of CalcEtAffich */
  osThreadDef(CalcEtAffich, TaskCalcEtAffich, osPriorityNormal, 0, 4096);
 8001586:	4b4e      	ldr	r3, [pc, #312]	; (80016c0 <main+0x2c8>)
 8001588:	f107 041c 	add.w	r4, r7, #28
 800158c:	461d      	mov	r5, r3
 800158e:	cd0f      	ldmia	r5!, {r0, r1, r2, r3}
 8001590:	c40f      	stmia	r4!, {r0, r1, r2, r3}
 8001592:	e895 0007 	ldmia.w	r5, {r0, r1, r2}
 8001596:	e884 0007 	stmia.w	r4, {r0, r1, r2}
  CalcEtAffichHandle = osThreadCreate(osThread(CalcEtAffich), NULL);
 800159a:	f107 031c 	add.w	r3, r7, #28
 800159e:	2100      	movs	r1, #0
 80015a0:	4618      	mov	r0, r3
 80015a2:	f00b fc70 	bl	800ce86 <osThreadCreate>
 80015a6:	4602      	mov	r2, r0
 80015a8:	4b46      	ldr	r3, [pc, #280]	; (80016c4 <main+0x2cc>)
 80015aa:	601a      	str	r2, [r3, #0]

  /* definition and creation of LancerBalle */
  osThreadDef(LancerBalle, TaskLancerBalle, osPriorityAboveNormal, 0, 1024);
 80015ac:	4b46      	ldr	r3, [pc, #280]	; (80016c8 <main+0x2d0>)
 80015ae:	463c      	mov	r4, r7
 80015b0:	461d      	mov	r5, r3
 80015b2:	cd0f      	ldmia	r5!, {r0, r1, r2, r3}
 80015b4:	c40f      	stmia	r4!, {r0, r1, r2, r3}
 80015b6:	e895 0007 	ldmia.w	r5, {r0, r1, r2}
 80015ba:	e884 0007 	stmia.w	r4, {r0, r1, r2}
  LancerBalleHandle = osThreadCreate(osThread(LancerBalle), NULL);
 80015be:	463b      	mov	r3, r7
 80015c0:	2100      	movs	r1, #0
 80015c2:	4618      	mov	r0, r3
 80015c4:	f00b fc5f 	bl	800ce86 <osThreadCreate>
 80015c8:	4602      	mov	r2, r0
 80015ca:	4b40      	ldr	r3, [pc, #256]	; (80016cc <main+0x2d4>)
 80015cc:	601a      	str	r2, [r3, #0]
  /* USER CODE BEGIN RTOS_THREADS */
  /* add threads, ... */
  /* USER CODE END RTOS_THREADS */

  /* Start scheduler */
  osKernelStart();
 80015ce:	f00b fc53 	bl	800ce78 <osKernelStart>
  /* We should never get here as control is now taken by the scheduler */
  /* Infinite loop */
  /* USER CODE BEGIN WHILE */
  while (1)
  {
	  BP1 = HAL_GPIO_ReadPin(BP1_GPIO_Port,BP1_Pin);
 80015d2:	f44f 7180 	mov.w	r1, #256	; 0x100
 80015d6:	483e      	ldr	r0, [pc, #248]	; (80016d0 <main+0x2d8>)
 80015d8:	f006 f9fe 	bl	80079d8 <HAL_GPIO_ReadPin>
 80015dc:	4603      	mov	r3, r0
 80015de:	f8c7 30b4 	str.w	r3, [r7, #180]	; 0xb4

	  if((BP1 == 0)&& (etatBP == 1)){
 80015e2:	f8d7 30b4 	ldr.w	r3, [r7, #180]	; 0xb4
 80015e6:	2b00      	cmp	r3, #0
 80015e8:	f040 8081 	bne.w	80016ee <main+0x2f6>
 80015ec:	f8d7 30c4 	ldr.w	r3, [r7, #196]	; 0xc4
 80015f0:	2b01      	cmp	r3, #1
 80015f2:	d17c      	bne.n	80016ee <main+0x2f6>
		  couleur++;
 80015f4:	f8d7 30b8 	ldr.w	r3, [r7, #184]	; 0xb8
 80015f8:	3301      	adds	r3, #1
 80015fa:	f8c7 30b8 	str.w	r3, [r7, #184]	; 0xb8
		  couleur = couleur%6;
 80015fe:	f8d7 20b8 	ldr.w	r2, [r7, #184]	; 0xb8
 8001602:	4b34      	ldr	r3, [pc, #208]	; (80016d4 <main+0x2dc>)
 8001604:	fb83 3102 	smull	r3, r1, r3, r2
 8001608:	17d3      	asrs	r3, r2, #31
 800160a:	1ac9      	subs	r1, r1, r3
 800160c:	460b      	mov	r3, r1
 800160e:	005b      	lsls	r3, r3, #1
 8001610:	440b      	add	r3, r1
 8001612:	005b      	lsls	r3, r3, #1
 8001614:	1ad3      	subs	r3, r2, r3
 8001616:	f8c7 30b8 	str.w	r3, [r7, #184]	; 0xb8
		  switch(couleur){
 800161a:	f8d7 30b8 	ldr.w	r3, [r7, #184]	; 0xb8
 800161e:	2b05      	cmp	r3, #5
 8001620:	d865      	bhi.n	80016ee <main+0x2f6>
 8001622:	a201      	add	r2, pc, #4	; (adr r2, 8001628 <main+0x230>)
 8001624:	f852 f023 	ldr.w	pc, [r2, r3, lsl #2]
 8001628:	08001641 	.word	0x08001641
 800162c:	0800164f 	.word	0x0800164f
 8001630:	0800165d 	.word	0x0800165d
 8001634:	0800166f 	.word	0x0800166f
 8001638:	08001681 	.word	0x08001681
 800163c:	080016e1 	.word	0x080016e1
		  	  case 0:BSP_LCD_Clear(LCD_COLOR_RED);BSP_LCD_SetBackColor(LCD_COLOR_RED);break;
 8001640:	4813      	ldr	r0, [pc, #76]	; (8001690 <main+0x298>)
 8001642:	f002 fbc5 	bl	8003dd0 <BSP_LCD_Clear>
 8001646:	4812      	ldr	r0, [pc, #72]	; (8001690 <main+0x298>)
 8001648:	f002 fb78 	bl	8003d3c <BSP_LCD_SetBackColor>
 800164c:	e04f      	b.n	80016ee <main+0x2f6>
		  	  case 1:BSP_LCD_Clear(LCD_COLOR_ORANGE);BSP_LCD_SetBackColor(LCD_COLOR_ORANGE);break;
 800164e:	4822      	ldr	r0, [pc, #136]	; (80016d8 <main+0x2e0>)
 8001650:	f002 fbbe 	bl	8003dd0 <BSP_LCD_Clear>
 8001654:	4820      	ldr	r0, [pc, #128]	; (80016d8 <main+0x2e0>)
 8001656:	f002 fb71 	bl	8003d3c <BSP_LCD_SetBackColor>
 800165a:	e048      	b.n	80016ee <main+0x2f6>
		  	  case 2:BSP_LCD_Clear(LCD_COLOR_YELLOW);BSP_LCD_SetBackColor(LCD_COLOR_YELLOW);break;
 800165c:	f06f 00ff 	mvn.w	r0, #255	; 0xff
 8001660:	f002 fbb6 	bl	8003dd0 <BSP_LCD_Clear>
 8001664:	f06f 00ff 	mvn.w	r0, #255	; 0xff
 8001668:	f002 fb68 	bl	8003d3c <BSP_LCD_SetBackColor>
 800166c:	e03f      	b.n	80016ee <main+0x2f6>
		  	  case 3:BSP_LCD_Clear(LCD_COLOR_GREEN);BSP_LCD_SetBackColor(LCD_COLOR_GREEN);break;
 800166e:	f04f 20ff 	mov.w	r0, #4278255360	; 0xff00ff00
 8001672:	f002 fbad 	bl	8003dd0 <BSP_LCD_Clear>
 8001676:	f04f 20ff 	mov.w	r0, #4278255360	; 0xff00ff00
 800167a:	f002 fb5f 	bl	8003d3c <BSP_LCD_SetBackColor>
 800167e:	e036      	b.n	80016ee <main+0x2f6>
		  	  case 4:BSP_LCD_Clear(LCD_COLOR_BLUE);BSP_LCD_SetBackColor(LCD_COLOR_BLUE);break;
 8001680:	4816      	ldr	r0, [pc, #88]	; (80016dc <main+0x2e4>)
 8001682:	f002 fba5 	bl	8003dd0 <BSP_LCD_Clear>
 8001686:	4815      	ldr	r0, [pc, #84]	; (80016dc <main+0x2e4>)
 8001688:	f002 fb58 	bl	8003d3c <BSP_LCD_SetBackColor>
 800168c:	e02f      	b.n	80016ee <main+0x2f6>
 800168e:	bf00      	nop
 8001690:	ff00778b 	.word	0xff00778b
 8001694:	20000034 	.word	0x20000034
 8001698:	20008be8 	.word	0x20008be8
 800169c:	200086ec 	.word	0x200086ec
 80016a0:	08010470 	.word	0x08010470
 80016a4:	20008b30 	.word	0x20008b30
 80016a8:	08010480 	.word	0x08010480
 80016ac:	20008920 	.word	0x20008920
 80016b0:	0801049c 	.word	0x0801049c
 80016b4:	20008634 	.word	0x20008634
 80016b8:	080104c0 	.word	0x080104c0
 80016bc:	20008924 	.word	0x20008924
 80016c0:	080104ec 	.word	0x080104ec
 80016c4:	20008a4c 	.word	0x20008a4c
 80016c8:	08010514 	.word	0x08010514
 80016cc:	20008684 	.word	0x20008684
 80016d0:	40020000 	.word	0x40020000
 80016d4:	2aaaaaab 	.word	0x2aaaaaab
 80016d8:	ffffa500 	.word	0xffffa500
 80016dc:	ff0000ff 	.word	0xff0000ff
		  	  case 5:BSP_LCD_Clear(LCD_COLOR_DARKMAGENTA);BSP_LCD_SetBackColor(LCD_COLOR_DARKMAGENTA);break;
 80016e0:	4893      	ldr	r0, [pc, #588]	; (8001930 <main+0x538>)
 80016e2:	f002 fb75 	bl	8003dd0 <BSP_LCD_Clear>
 80016e6:	4892      	ldr	r0, [pc, #584]	; (8001930 <main+0x538>)
 80016e8:	f002 fb28 	bl	8003d3c <BSP_LCD_SetBackColor>
 80016ec:	bf00      	nop
		  }
	  }
	  etatBP = HAL_GPIO_ReadPin(BP1_GPIO_Port,BP1_Pin);
 80016ee:	f44f 7180 	mov.w	r1, #256	; 0x100
 80016f2:	4890      	ldr	r0, [pc, #576]	; (8001934 <main+0x53c>)
 80016f4:	f006 f970 	bl	80079d8 <HAL_GPIO_ReadPin>
 80016f8:	4603      	mov	r3, r0
 80016fa:	f8c7 30c4 	str.w	r3, [r7, #196]	; 0xc4
	  HAL_GPIO_WritePin(LED11_GPIO_Port,LED11_Pin,HAL_GPIO_ReadPin(BP1_GPIO_Port,BP1_Pin));
 80016fe:	f44f 7180 	mov.w	r1, #256	; 0x100
 8001702:	488c      	ldr	r0, [pc, #560]	; (8001934 <main+0x53c>)
 8001704:	f006 f968 	bl	80079d8 <HAL_GPIO_ReadPin>
 8001708:	4603      	mov	r3, r0
 800170a:	461a      	mov	r2, r3
 800170c:	f44f 7100 	mov.w	r1, #512	; 0x200
 8001710:	4889      	ldr	r0, [pc, #548]	; (8001938 <main+0x540>)
 8001712:	f006 f979 	bl	8007a08 <HAL_GPIO_WritePin>
	  HAL_GPIO_WritePin(LED12_GPIO_Port,LED12_Pin,HAL_GPIO_ReadPin(BP2_GPIO_Port,BP2_Pin));
 8001716:	f44f 4100 	mov.w	r1, #32768	; 0x8000
 800171a:	4886      	ldr	r0, [pc, #536]	; (8001934 <main+0x53c>)
 800171c:	f006 f95c 	bl	80079d8 <HAL_GPIO_ReadPin>
 8001720:	4603      	mov	r3, r0
 8001722:	461a      	mov	r2, r3
 8001724:	f44f 6100 	mov.w	r1, #2048	; 0x800
 8001728:	4883      	ldr	r0, [pc, #524]	; (8001938 <main+0x540>)
 800172a:	f006 f96d 	bl	8007a08 <HAL_GPIO_WritePin>
	  HAL_GPIO_WritePin(LED13_GPIO_Port,LED13_Pin,HAL_GPIO_ReadPin(BP1_GPIO_Port,BP1_Pin));
 800172e:	f44f 7180 	mov.w	r1, #256	; 0x100
 8001732:	4880      	ldr	r0, [pc, #512]	; (8001934 <main+0x53c>)
 8001734:	f006 f950 	bl	80079d8 <HAL_GPIO_ReadPin>
 8001738:	4603      	mov	r3, r0
 800173a:	461a      	mov	r2, r3
 800173c:	f44f 4180 	mov.w	r1, #16384	; 0x4000
 8001740:	487d      	ldr	r0, [pc, #500]	; (8001938 <main+0x540>)
 8001742:	f006 f961 	bl	8007a08 <HAL_GPIO_WritePin>
	  HAL_GPIO_WritePin(LED14_GPIO_Port,LED14_Pin,HAL_GPIO_ReadPin(BP2_GPIO_Port,BP2_Pin));
 8001746:	f44f 4100 	mov.w	r1, #32768	; 0x8000
 800174a:	487a      	ldr	r0, [pc, #488]	; (8001934 <main+0x53c>)
 800174c:	f006 f944 	bl	80079d8 <HAL_GPIO_ReadPin>
 8001750:	4603      	mov	r3, r0
 8001752:	461a      	mov	r2, r3
 8001754:	2120      	movs	r1, #32
 8001756:	4879      	ldr	r0, [pc, #484]	; (800193c <main+0x544>)
 8001758:	f006 f956 	bl	8007a08 <HAL_GPIO_WritePin>
	  HAL_GPIO_WritePin(LED15_GPIO_Port,LED15_Pin,HAL_GPIO_ReadPin(BP1_GPIO_Port,BP1_Pin));
 800175c:	f44f 7180 	mov.w	r1, #256	; 0x100
 8001760:	4874      	ldr	r0, [pc, #464]	; (8001934 <main+0x53c>)
 8001762:	f006 f939 	bl	80079d8 <HAL_GPIO_ReadPin>
 8001766:	4603      	mov	r3, r0
 8001768:	461a      	mov	r2, r3
 800176a:	2140      	movs	r1, #64	; 0x40
 800176c:	4873      	ldr	r0, [pc, #460]	; (800193c <main+0x544>)
 800176e:	f006 f94b 	bl	8007a08 <HAL_GPIO_WritePin>
	  HAL_GPIO_WritePin(LED16_GPIO_Port,LED16_Pin,HAL_GPIO_ReadPin(BP2_GPIO_Port,BP2_Pin));
 8001772:	f44f 4100 	mov.w	r1, #32768	; 0x8000
 8001776:	486f      	ldr	r0, [pc, #444]	; (8001934 <main+0x53c>)
 8001778:	f006 f92e 	bl	80079d8 <HAL_GPIO_ReadPin>
 800177c:	4603      	mov	r3, r0
 800177e:	461a      	mov	r2, r3
 8001780:	2108      	movs	r1, #8
 8001782:	486f      	ldr	r0, [pc, #444]	; (8001940 <main+0x548>)
 8001784:	f006 f940 	bl	8007a08 <HAL_GPIO_WritePin>

	  //sprintf(text,"BP1 : %d",HAL_GPIO_ReadPin(BP1_GPIO_Port,BP1_Pin));
	  //BSP_LCD_DisplayStringAtLine(5,(uint8_t*) text);

	  sConfig.Channel = ADC_CHANNEL_6;
 8001788:	2306      	movs	r3, #6
 800178a:	f8c7 3090 	str.w	r3, [r7, #144]	; 0x90
	  HAL_ADC_ConfigChannel(&hadc3, &sConfig);
 800178e:	f107 0390 	add.w	r3, r7, #144	; 0x90
 8001792:	4619      	mov	r1, r3
 8001794:	486b      	ldr	r0, [pc, #428]	; (8001944 <main+0x54c>)
 8001796:	f004 fe0d 	bl	80063b4 <HAL_ADC_ConfigChannel>
	  HAL_ADC_Start(&hadc3);
 800179a:	486a      	ldr	r0, [pc, #424]	; (8001944 <main+0x54c>)
 800179c:	f004 fcb8 	bl	8006110 <HAL_ADC_Start>
	  while(HAL_ADC_PollForConversion(&hadc3, 100)!=HAL_OK);
 80017a0:	bf00      	nop
 80017a2:	2164      	movs	r1, #100	; 0x64
 80017a4:	4867      	ldr	r0, [pc, #412]	; (8001944 <main+0x54c>)
 80017a6:	f004 fd73 	bl	8006290 <HAL_ADC_PollForConversion>
 80017aa:	4603      	mov	r3, r0
 80017ac:	2b00      	cmp	r3, #0
 80017ae:	d1f8      	bne.n	80017a2 <main+0x3aa>
	  potr = HAL_ADC_GetValue(&hadc3);
 80017b0:	4864      	ldr	r0, [pc, #400]	; (8001944 <main+0x54c>)
 80017b2:	f004 fdf1 	bl	8006398 <HAL_ADC_GetValue>
 80017b6:	f8c7 00b0 	str.w	r0, [r7, #176]	; 0xb0

	  sConfig.Channel = ADC_CHANNEL_7;
 80017ba:	2307      	movs	r3, #7
 80017bc:	f8c7 3090 	str.w	r3, [r7, #144]	; 0x90
	  HAL_ADC_ConfigChannel(&hadc3, &sConfig);
 80017c0:	f107 0390 	add.w	r3, r7, #144	; 0x90
 80017c4:	4619      	mov	r1, r3
 80017c6:	485f      	ldr	r0, [pc, #380]	; (8001944 <main+0x54c>)
 80017c8:	f004 fdf4 	bl	80063b4 <HAL_ADC_ConfigChannel>
	  HAL_ADC_Start(&hadc3);
 80017cc:	485d      	ldr	r0, [pc, #372]	; (8001944 <main+0x54c>)
 80017ce:	f004 fc9f 	bl	8006110 <HAL_ADC_Start>
	  while(HAL_ADC_PollForConversion(&hadc3, 100)!=HAL_OK);
 80017d2:	bf00      	nop
 80017d4:	2164      	movs	r1, #100	; 0x64
 80017d6:	485b      	ldr	r0, [pc, #364]	; (8001944 <main+0x54c>)
 80017d8:	f004 fd5a 	bl	8006290 <HAL_ADC_PollForConversion>
 80017dc:	4603      	mov	r3, r0
 80017de:	2b00      	cmp	r3, #0
 80017e0:	d1f8      	bne.n	80017d4 <main+0x3dc>
	  potl = HAL_ADC_GetValue(&hadc3);
 80017e2:	4858      	ldr	r0, [pc, #352]	; (8001944 <main+0x54c>)
 80017e4:	f004 fdd8 	bl	8006398 <HAL_ADC_GetValue>
 80017e8:	f8c7 00ac 	str.w	r0, [r7, #172]	; 0xac

	  sConfig.Channel = ADC_CHANNEL_8;
 80017ec:	2308      	movs	r3, #8
 80017ee:	f8c7 3090 	str.w	r3, [r7, #144]	; 0x90
	  HAL_ADC_ConfigChannel(&hadc3, &sConfig);
 80017f2:	f107 0390 	add.w	r3, r7, #144	; 0x90
 80017f6:	4619      	mov	r1, r3
 80017f8:	4852      	ldr	r0, [pc, #328]	; (8001944 <main+0x54c>)
 80017fa:	f004 fddb 	bl	80063b4 <HAL_ADC_ConfigChannel>
	  HAL_ADC_Start(&hadc3);
 80017fe:	4851      	ldr	r0, [pc, #324]	; (8001944 <main+0x54c>)
 8001800:	f004 fc86 	bl	8006110 <HAL_ADC_Start>
	  while(HAL_ADC_PollForConversion(&hadc3, 100)!=HAL_OK);
 8001804:	bf00      	nop
 8001806:	2164      	movs	r1, #100	; 0x64
 8001808:	484e      	ldr	r0, [pc, #312]	; (8001944 <main+0x54c>)
 800180a:	f004 fd41 	bl	8006290 <HAL_ADC_PollForConversion>
 800180e:	4603      	mov	r3, r0
 8001810:	2b00      	cmp	r3, #0
 8001812:	d1f8      	bne.n	8001806 <main+0x40e>
	  joystick_v = HAL_ADC_GetValue(&hadc3);
 8001814:	484b      	ldr	r0, [pc, #300]	; (8001944 <main+0x54c>)
 8001816:	f004 fdbf 	bl	8006398 <HAL_ADC_GetValue>
 800181a:	f8c7 00a8 	str.w	r0, [r7, #168]	; 0xa8

	  HAL_ADC_Start(&hadc1);
 800181e:	484a      	ldr	r0, [pc, #296]	; (8001948 <main+0x550>)
 8001820:	f004 fc76 	bl	8006110 <HAL_ADC_Start>
	  while(HAL_ADC_PollForConversion(&hadc1, 100)!=HAL_OK);
 8001824:	bf00      	nop
 8001826:	2164      	movs	r1, #100	; 0x64
 8001828:	4847      	ldr	r0, [pc, #284]	; (8001948 <main+0x550>)
 800182a:	f004 fd31 	bl	8006290 <HAL_ADC_PollForConversion>
 800182e:	4603      	mov	r3, r0
 8001830:	2b00      	cmp	r3, #0
 8001832:	d1f8      	bne.n	8001826 <main+0x42e>
	  joystick_h = HAL_ADC_GetValue(&hadc1);
 8001834:	4844      	ldr	r0, [pc, #272]	; (8001948 <main+0x550>)
 8001836:	f004 fdaf 	bl	8006398 <HAL_ADC_GetValue>
 800183a:	f8c7 00a4 	str.w	r0, [r7, #164]	; 0xa4

	  //sprintf(text,"POTL : %4u POTR : %4u joy_v : %4u joy_h : %4u",(uint)potl,(uint)potr,(uint)joystick_v,(uint)joystick_h);
	  //BSP_LCD_DisplayStringAtLine(9,(uint8_t*) text);
	  //UART
	  HAL_UART_Receive(&huart1,&touche,1,10);
 800183e:	f107 01a3 	add.w	r1, r7, #163	; 0xa3
 8001842:	230a      	movs	r3, #10
 8001844:	2201      	movs	r2, #1
 8001846:	4841      	ldr	r0, [pc, #260]	; (800194c <main+0x554>)
 8001848:	f00a f966 	bl	800bb18 <HAL_UART_Receive>
	  if(touche == 'q'){x--;}
 800184c:	f897 30a3 	ldrb.w	r3, [r7, #163]	; 0xa3
 8001850:	2b71      	cmp	r3, #113	; 0x71
 8001852:	d104      	bne.n	800185e <main+0x466>
 8001854:	f8d7 30c0 	ldr.w	r3, [r7, #192]	; 0xc0
 8001858:	3b01      	subs	r3, #1
 800185a:	f8c7 30c0 	str.w	r3, [r7, #192]	; 0xc0
	  if(touche == 'z'){y--;}
 800185e:	f897 30a3 	ldrb.w	r3, [r7, #163]	; 0xa3
 8001862:	2b7a      	cmp	r3, #122	; 0x7a
 8001864:	d104      	bne.n	8001870 <main+0x478>
 8001866:	f8d7 30bc 	ldr.w	r3, [r7, #188]	; 0xbc
 800186a:	3b01      	subs	r3, #1
 800186c:	f8c7 30bc 	str.w	r3, [r7, #188]	; 0xbc
	  if(touche == 'd'){x++;}
 8001870:	f897 30a3 	ldrb.w	r3, [r7, #163]	; 0xa3
 8001874:	2b64      	cmp	r3, #100	; 0x64
 8001876:	d104      	bne.n	8001882 <main+0x48a>
 8001878:	f8d7 30c0 	ldr.w	r3, [r7, #192]	; 0xc0
 800187c:	3301      	adds	r3, #1
 800187e:	f8c7 30c0 	str.w	r3, [r7, #192]	; 0xc0
	  if(touche == 's'){y++;}
 8001882:	f897 30a3 	ldrb.w	r3, [r7, #163]	; 0xa3
 8001886:	2b73      	cmp	r3, #115	; 0x73
 8001888:	d104      	bne.n	8001894 <main+0x49c>
 800188a:	f8d7 30bc 	ldr.w	r3, [r7, #188]	; 0xbc
 800188e:	3301      	adds	r3, #1
 8001890:	f8c7 30bc 	str.w	r3, [r7, #188]	; 0xbc
	  touche = '\0';
 8001894:	2300      	movs	r3, #0
 8001896:	f887 30a3 	strb.w	r3, [r7, #163]	; 0xa3
	  //ENTREE ANALOG
	  if(joystick_h>4000){x--;}
 800189a:	f8d7 30a4 	ldr.w	r3, [r7, #164]	; 0xa4
 800189e:	f5b3 6f7a 	cmp.w	r3, #4000	; 0xfa0
 80018a2:	d904      	bls.n	80018ae <main+0x4b6>
 80018a4:	f8d7 30c0 	ldr.w	r3, [r7, #192]	; 0xc0
 80018a8:	3b01      	subs	r3, #1
 80018aa:	f8c7 30c0 	str.w	r3, [r7, #192]	; 0xc0
	  if(joystick_v>4000){y--;}
 80018ae:	f8d7 30a8 	ldr.w	r3, [r7, #168]	; 0xa8
 80018b2:	f5b3 6f7a 	cmp.w	r3, #4000	; 0xfa0
 80018b6:	d904      	bls.n	80018c2 <main+0x4ca>
 80018b8:	f8d7 30bc 	ldr.w	r3, [r7, #188]	; 0xbc
 80018bc:	3b01      	subs	r3, #1
 80018be:	f8c7 30bc 	str.w	r3, [r7, #188]	; 0xbc
	  if(joystick_h<50){x++;}
 80018c2:	f8d7 30a4 	ldr.w	r3, [r7, #164]	; 0xa4
 80018c6:	2b31      	cmp	r3, #49	; 0x31
 80018c8:	d804      	bhi.n	80018d4 <main+0x4dc>
 80018ca:	f8d7 30c0 	ldr.w	r3, [r7, #192]	; 0xc0
 80018ce:	3301      	adds	r3, #1
 80018d0:	f8c7 30c0 	str.w	r3, [r7, #192]	; 0xc0
	  if(joystick_v<50){y++;}
 80018d4:	f8d7 30a8 	ldr.w	r3, [r7, #168]	; 0xa8
 80018d8:	2b31      	cmp	r3, #49	; 0x31
 80018da:	d804      	bhi.n	80018e6 <main+0x4ee>
 80018dc:	f8d7 30bc 	ldr.w	r3, [r7, #188]	; 0xbc
 80018e0:	3301      	adds	r3, #1
 80018e2:	f8c7 30bc 	str.w	r3, [r7, #188]	; 0xbc
	  BSP_LCD_FillCircle(x,y,4);
 80018e6:	f8d7 30c0 	ldr.w	r3, [r7, #192]	; 0xc0
 80018ea:	b29b      	uxth	r3, r3
 80018ec:	f8d7 20bc 	ldr.w	r2, [r7, #188]	; 0xbc
 80018f0:	b291      	uxth	r1, r2
 80018f2:	2204      	movs	r2, #4
 80018f4:	4618      	mov	r0, r3
 80018f6:	f002 fe8f 	bl	8004618 <BSP_LCD_FillCircle>
	  BSP_TS_GetState(&TS_State);
 80018fa:	4815      	ldr	r0, [pc, #84]	; (8001950 <main+0x558>)
 80018fc:	f003 fb3a 	bl	8004f74 <BSP_TS_GetState>
	  if(TS_State.touchDetected){
 8001900:	4b13      	ldr	r3, [pc, #76]	; (8001950 <main+0x558>)
 8001902:	781b      	ldrb	r3, [r3, #0]
 8001904:	2b00      	cmp	r3, #0
 8001906:	d007      	beq.n	8001918 <main+0x520>
		  BSP_LCD_FillRect(TS_State.touchX[0],TS_State.touchY[0],4,4);
 8001908:	4b11      	ldr	r3, [pc, #68]	; (8001950 <main+0x558>)
 800190a:	8858      	ldrh	r0, [r3, #2]
 800190c:	4b10      	ldr	r3, [pc, #64]	; (8001950 <main+0x558>)
 800190e:	8999      	ldrh	r1, [r3, #12]
 8001910:	2304      	movs	r3, #4
 8001912:	2204      	movs	r2, #4
 8001914:	f002 fe06 	bl	8004524 <BSP_LCD_FillRect>
	  }

    /* USER CODE END WHILE */

    /* USER CODE BEGIN 3 */
	  BSP_LCD_DrawLine(50, 50, 100, 100); // dessiner une ligne
 8001918:	2364      	movs	r3, #100	; 0x64
 800191a:	2264      	movs	r2, #100	; 0x64
 800191c:	2132      	movs	r1, #50	; 0x32
 800191e:	2032      	movs	r0, #50	; 0x32
 8001920:	f002 fbfc 	bl	800411c <BSP_LCD_DrawLine>
	  BSP_LCD_FillCircle(80, 80, 10); // dessiner un cercle
 8001924:	220a      	movs	r2, #10
 8001926:	2150      	movs	r1, #80	; 0x50
 8001928:	2050      	movs	r0, #80	; 0x50
 800192a:	f002 fe75 	bl	8004618 <BSP_LCD_FillCircle>
	  BP1 = HAL_GPIO_ReadPin(BP1_GPIO_Port,BP1_Pin);
 800192e:	e650      	b.n	80015d2 <main+0x1da>
 8001930:	ff800080 	.word	0xff800080
 8001934:	40020000 	.word	0x40020000
 8001938:	40021c00 	.word	0x40021c00
 800193c:	40021000 	.word	0x40021000
 8001940:	40020c00 	.word	0x40020c00
 8001944:	20008970 	.word	0x20008970
 8001948:	20008928 	.word	0x20008928
 800194c:	200089b8 	.word	0x200089b8
 8001950:	200002cc 	.word	0x200002cc

08001954 <SystemClock_Config>:
/**
  * @brief System Clock Configuration
  * @retval None
  */
void SystemClock_Config(void)
{
 8001954:	b580      	push	{r7, lr}
 8001956:	b0b4      	sub	sp, #208	; 0xd0
 8001958:	af00      	add	r7, sp, #0
  RCC_OscInitTypeDef RCC_OscInitStruct = {0};
 800195a:	f107 03a0 	add.w	r3, r7, #160	; 0xa0
 800195e:	2230      	movs	r2, #48	; 0x30
 8001960:	2100      	movs	r1, #0
 8001962:	4618      	mov	r0, r3
 8001964:	f00d fd15 	bl	800f392 <memset>
  RCC_ClkInitTypeDef RCC_ClkInitStruct = {0};
 8001968:	f107 038c 	add.w	r3, r7, #140	; 0x8c
 800196c:	2200      	movs	r2, #0
 800196e:	601a      	str	r2, [r3, #0]
 8001970:	605a      	str	r2, [r3, #4]
 8001972:	609a      	str	r2, [r3, #8]
 8001974:	60da      	str	r2, [r3, #12]
 8001976:	611a      	str	r2, [r3, #16]
  RCC_PeriphCLKInitTypeDef PeriphClkInitStruct = {0};
 8001978:	f107 0308 	add.w	r3, r7, #8
 800197c:	2284      	movs	r2, #132	; 0x84
 800197e:	2100      	movs	r1, #0
 8001980:	4618      	mov	r0, r3
 8001982:	f00d fd06 	bl	800f392 <memset>

  /** Configure LSE Drive Capability
  */
  HAL_PWR_EnableBkUpAccess();
 8001986:	f007 f981 	bl	8008c8c <HAL_PWR_EnableBkUpAccess>
  /** Configure the main internal regulator output voltage
  */
  __HAL_RCC_PWR_CLK_ENABLE();
 800198a:	4b47      	ldr	r3, [pc, #284]	; (8001aa8 <SystemClock_Config+0x154>)
 800198c:	6c1b      	ldr	r3, [r3, #64]	; 0x40
 800198e:	4a46      	ldr	r2, [pc, #280]	; (8001aa8 <SystemClock_Config+0x154>)
 8001990:	f043 5380 	orr.w	r3, r3, #268435456	; 0x10000000
 8001994:	6413      	str	r3, [r2, #64]	; 0x40
 8001996:	4b44      	ldr	r3, [pc, #272]	; (8001aa8 <SystemClock_Config+0x154>)
 8001998:	6c1b      	ldr	r3, [r3, #64]	; 0x40
 800199a:	f003 5380 	and.w	r3, r3, #268435456	; 0x10000000
 800199e:	607b      	str	r3, [r7, #4]
 80019a0:	687b      	ldr	r3, [r7, #4]
  __HAL_PWR_VOLTAGESCALING_CONFIG(PWR_REGULATOR_VOLTAGE_SCALE1);
 80019a2:	4b42      	ldr	r3, [pc, #264]	; (8001aac <SystemClock_Config+0x158>)
 80019a4:	681b      	ldr	r3, [r3, #0]
 80019a6:	4a41      	ldr	r2, [pc, #260]	; (8001aac <SystemClock_Config+0x158>)
 80019a8:	f443 4340 	orr.w	r3, r3, #49152	; 0xc000
 80019ac:	6013      	str	r3, [r2, #0]
 80019ae:	4b3f      	ldr	r3, [pc, #252]	; (8001aac <SystemClock_Config+0x158>)
 80019b0:	681b      	ldr	r3, [r3, #0]
 80019b2:	f403 4340 	and.w	r3, r3, #49152	; 0xc000
 80019b6:	603b      	str	r3, [r7, #0]
 80019b8:	683b      	ldr	r3, [r7, #0]
  /** Initializes the RCC Oscillators according to the specified parameters
  * in the RCC_OscInitTypeDef structure.
  */
  RCC_OscInitStruct.OscillatorType = RCC_OSCILLATORTYPE_LSI|RCC_OSCILLATORTYPE_HSE;
 80019ba:	2309      	movs	r3, #9
 80019bc:	f8c7 30a0 	str.w	r3, [r7, #160]	; 0xa0
  RCC_OscInitStruct.HSEState = RCC_HSE_ON;
 80019c0:	f44f 3380 	mov.w	r3, #65536	; 0x10000
 80019c4:	f8c7 30a4 	str.w	r3, [r7, #164]	; 0xa4
  RCC_OscInitStruct.LSIState = RCC_LSI_ON;
 80019c8:	2301      	movs	r3, #1
 80019ca:	f8c7 30b4 	str.w	r3, [r7, #180]	; 0xb4
  RCC_OscInitStruct.PLL.PLLState = RCC_PLL_ON;
 80019ce:	2302      	movs	r3, #2
 80019d0:	f8c7 30b8 	str.w	r3, [r7, #184]	; 0xb8
  RCC_OscInitStruct.PLL.PLLSource = RCC_PLLSOURCE_HSE;
 80019d4:	f44f 0380 	mov.w	r3, #4194304	; 0x400000
 80019d8:	f8c7 30bc 	str.w	r3, [r7, #188]	; 0xbc
  RCC_OscInitStruct.PLL.PLLM = 25;
 80019dc:	2319      	movs	r3, #25
 80019de:	f8c7 30c0 	str.w	r3, [r7, #192]	; 0xc0
  RCC_OscInitStruct.PLL.PLLN = 400;
 80019e2:	f44f 73c8 	mov.w	r3, #400	; 0x190
 80019e6:	f8c7 30c4 	str.w	r3, [r7, #196]	; 0xc4
  RCC_OscInitStruct.PLL.PLLP = RCC_PLLP_DIV2;
 80019ea:	2302      	movs	r3, #2
 80019ec:	f8c7 30c8 	str.w	r3, [r7, #200]	; 0xc8
  RCC_OscInitStruct.PLL.PLLQ = 9;
 80019f0:	2309      	movs	r3, #9
 80019f2:	f8c7 30cc 	str.w	r3, [r7, #204]	; 0xcc
  if (HAL_RCC_OscConfig(&RCC_OscInitStruct) != HAL_OK)
 80019f6:	f107 03a0 	add.w	r3, r7, #160	; 0xa0
 80019fa:	4618      	mov	r0, r3
 80019fc:	f007 f9a6 	bl	8008d4c <HAL_RCC_OscConfig>
 8001a00:	4603      	mov	r3, r0
 8001a02:	2b00      	cmp	r3, #0
 8001a04:	d001      	beq.n	8001a0a <SystemClock_Config+0xb6>
  {
    Error_Handler();
 8001a06:	f001 fed1 	bl	80037ac <Error_Handler>
  }
  /** Activate the Over-Drive mode
  */
  if (HAL_PWREx_EnableOverDrive() != HAL_OK)
 8001a0a:	f007 f94f 	bl	8008cac <HAL_PWREx_EnableOverDrive>
 8001a0e:	4603      	mov	r3, r0
 8001a10:	2b00      	cmp	r3, #0
 8001a12:	d001      	beq.n	8001a18 <SystemClock_Config+0xc4>
  {
    Error_Handler();
 8001a14:	f001 feca 	bl	80037ac <Error_Handler>
  }
  /** Initializes the CPU, AHB and APB buses clocks
  */
  RCC_ClkInitStruct.ClockType = RCC_CLOCKTYPE_HCLK|RCC_CLOCKTYPE_SYSCLK
 8001a18:	230f      	movs	r3, #15
 8001a1a:	f8c7 308c 	str.w	r3, [r7, #140]	; 0x8c
                              |RCC_CLOCKTYPE_PCLK1|RCC_CLOCKTYPE_PCLK2;
  RCC_ClkInitStruct.SYSCLKSource = RCC_SYSCLKSOURCE_PLLCLK;
 8001a1e:	2302      	movs	r3, #2
 8001a20:	f8c7 3090 	str.w	r3, [r7, #144]	; 0x90
  RCC_ClkInitStruct.AHBCLKDivider = RCC_SYSCLK_DIV1;
 8001a24:	2300      	movs	r3, #0
 8001a26:	f8c7 3094 	str.w	r3, [r7, #148]	; 0x94
  RCC_ClkInitStruct.APB1CLKDivider = RCC_HCLK_DIV4;
 8001a2a:	f44f 53a0 	mov.w	r3, #5120	; 0x1400
 8001a2e:	f8c7 3098 	str.w	r3, [r7, #152]	; 0x98
  RCC_ClkInitStruct.APB2CLKDivider = RCC_HCLK_DIV2;
 8001a32:	f44f 5380 	mov.w	r3, #4096	; 0x1000
 8001a36:	f8c7 309c 	str.w	r3, [r7, #156]	; 0x9c

  if (HAL_RCC_ClockConfig(&RCC_ClkInitStruct, FLASH_LATENCY_6) != HAL_OK)
 8001a3a:	f107 038c 	add.w	r3, r7, #140	; 0x8c
 8001a3e:	2106      	movs	r1, #6
 8001a40:	4618      	mov	r0, r3
 8001a42:	f007 fc27 	bl	8009294 <HAL_RCC_ClockConfig>
 8001a46:	4603      	mov	r3, r0
 8001a48:	2b00      	cmp	r3, #0
 8001a4a:	d001      	beq.n	8001a50 <SystemClock_Config+0xfc>
  {
    Error_Handler();
 8001a4c:	f001 feae 	bl	80037ac <Error_Handler>
  }
  PeriphClkInitStruct.PeriphClockSelection = RCC_PERIPHCLK_LTDC|RCC_PERIPHCLK_RTC
 8001a50:	4b17      	ldr	r3, [pc, #92]	; (8001ab0 <SystemClock_Config+0x15c>)
 8001a52:	60bb      	str	r3, [r7, #8]
                              |RCC_PERIPHCLK_USART1|RCC_PERIPHCLK_USART6
                              |RCC_PERIPHCLK_UART7|RCC_PERIPHCLK_I2C1
                              |RCC_PERIPHCLK_I2C3;
  PeriphClkInitStruct.PLLSAI.PLLSAIN = 384;
 8001a54:	f44f 73c0 	mov.w	r3, #384	; 0x180
 8001a58:	61fb      	str	r3, [r7, #28]
  PeriphClkInitStruct.PLLSAI.PLLSAIR = 5;
 8001a5a:	2305      	movs	r3, #5
 8001a5c:	627b      	str	r3, [r7, #36]	; 0x24
  PeriphClkInitStruct.PLLSAI.PLLSAIQ = 2;
 8001a5e:	2302      	movs	r3, #2
 8001a60:	623b      	str	r3, [r7, #32]
  PeriphClkInitStruct.PLLSAI.PLLSAIP = RCC_PLLSAIP_DIV8;
 8001a62:	2303      	movs	r3, #3
 8001a64:	62bb      	str	r3, [r7, #40]	; 0x28
  PeriphClkInitStruct.PLLSAIDivQ = 1;
 8001a66:	2301      	movs	r3, #1
 8001a68:	633b      	str	r3, [r7, #48]	; 0x30
  PeriphClkInitStruct.PLLSAIDivR = RCC_PLLSAIDIVR_8;
 8001a6a:	f44f 3300 	mov.w	r3, #131072	; 0x20000
 8001a6e:	637b      	str	r3, [r7, #52]	; 0x34
  PeriphClkInitStruct.RTCClockSelection = RCC_RTCCLKSOURCE_LSI;
 8001a70:	f44f 7300 	mov.w	r3, #512	; 0x200
 8001a74:	63bb      	str	r3, [r7, #56]	; 0x38
  PeriphClkInitStruct.Usart1ClockSelection = RCC_USART1CLKSOURCE_PCLK2;
 8001a76:	2300      	movs	r3, #0
 8001a78:	64fb      	str	r3, [r7, #76]	; 0x4c
  PeriphClkInitStruct.Usart6ClockSelection = RCC_USART6CLKSOURCE_PCLK2;
 8001a7a:	2300      	movs	r3, #0
 8001a7c:	663b      	str	r3, [r7, #96]	; 0x60
  PeriphClkInitStruct.Uart7ClockSelection = RCC_UART7CLKSOURCE_PCLK1;
 8001a7e:	2300      	movs	r3, #0
 8001a80:	667b      	str	r3, [r7, #100]	; 0x64
  PeriphClkInitStruct.I2c1ClockSelection = RCC_I2C1CLKSOURCE_PCLK1;
 8001a82:	2300      	movs	r3, #0
 8001a84:	66fb      	str	r3, [r7, #108]	; 0x6c
  PeriphClkInitStruct.I2c3ClockSelection = RCC_I2C3CLKSOURCE_PCLK1;
 8001a86:	2300      	movs	r3, #0
 8001a88:	677b      	str	r3, [r7, #116]	; 0x74
  if (HAL_RCCEx_PeriphCLKConfig(&PeriphClkInitStruct) != HAL_OK)
 8001a8a:	f107 0308 	add.w	r3, r7, #8
 8001a8e:	4618      	mov	r0, r3
 8001a90:	f007 fe04 	bl	800969c <HAL_RCCEx_PeriphCLKConfig>
 8001a94:	4603      	mov	r3, r0
 8001a96:	2b00      	cmp	r3, #0
 8001a98:	d001      	beq.n	8001a9e <SystemClock_Config+0x14a>
  {
    Error_Handler();
 8001a9a:	f001 fe87 	bl	80037ac <Error_Handler>
  }
}
 8001a9e:	bf00      	nop
 8001aa0:	37d0      	adds	r7, #208	; 0xd0
 8001aa2:	46bd      	mov	sp, r7
 8001aa4:	bd80      	pop	{r7, pc}
 8001aa6:	bf00      	nop
 8001aa8:	40023800 	.word	0x40023800
 8001aac:	40007000 	.word	0x40007000
 8001ab0:	00015868 	.word	0x00015868

08001ab4 <MX_ADC1_Init>:
  * @brief ADC1 Initialization Function
  * @param None
  * @retval None
  */
static void MX_ADC1_Init(void)
{
 8001ab4:	b580      	push	{r7, lr}
 8001ab6:	b084      	sub	sp, #16
 8001ab8:	af00      	add	r7, sp, #0

  /* USER CODE BEGIN ADC1_Init 0 */

  /* USER CODE END ADC1_Init 0 */

  ADC_ChannelConfTypeDef sConfig = {0};
 8001aba:	463b      	mov	r3, r7
 8001abc:	2200      	movs	r2, #0
 8001abe:	601a      	str	r2, [r3, #0]
 8001ac0:	605a      	str	r2, [r3, #4]
 8001ac2:	609a      	str	r2, [r3, #8]
 8001ac4:	60da      	str	r2, [r3, #12]
  /* USER CODE BEGIN ADC1_Init 1 */

  /* USER CODE END ADC1_Init 1 */
  /** Configure the global features of the ADC (Clock, Resolution, Data Alignment and number of conversion)
  */
  hadc1.Instance = ADC1;
 8001ac6:	4b21      	ldr	r3, [pc, #132]	; (8001b4c <MX_ADC1_Init+0x98>)
 8001ac8:	4a21      	ldr	r2, [pc, #132]	; (8001b50 <MX_ADC1_Init+0x9c>)
 8001aca:	601a      	str	r2, [r3, #0]
  hadc1.Init.ClockPrescaler = ADC_CLOCK_SYNC_PCLK_DIV4;
 8001acc:	4b1f      	ldr	r3, [pc, #124]	; (8001b4c <MX_ADC1_Init+0x98>)
 8001ace:	f44f 3280 	mov.w	r2, #65536	; 0x10000
 8001ad2:	605a      	str	r2, [r3, #4]
  hadc1.Init.Resolution = ADC_RESOLUTION_12B;
 8001ad4:	4b1d      	ldr	r3, [pc, #116]	; (8001b4c <MX_ADC1_Init+0x98>)
 8001ad6:	2200      	movs	r2, #0
 8001ad8:	609a      	str	r2, [r3, #8]
  hadc1.Init.ScanConvMode = ADC_SCAN_DISABLE;
 8001ada:	4b1c      	ldr	r3, [pc, #112]	; (8001b4c <MX_ADC1_Init+0x98>)
 8001adc:	2200      	movs	r2, #0
 8001ade:	611a      	str	r2, [r3, #16]
  hadc1.Init.ContinuousConvMode = DISABLE;
 8001ae0:	4b1a      	ldr	r3, [pc, #104]	; (8001b4c <MX_ADC1_Init+0x98>)
 8001ae2:	2200      	movs	r2, #0
 8001ae4:	619a      	str	r2, [r3, #24]
  hadc1.Init.DiscontinuousConvMode = DISABLE;
 8001ae6:	4b19      	ldr	r3, [pc, #100]	; (8001b4c <MX_ADC1_Init+0x98>)
 8001ae8:	2200      	movs	r2, #0
 8001aea:	f883 2020 	strb.w	r2, [r3, #32]
  hadc1.Init.ExternalTrigConvEdge = ADC_EXTERNALTRIGCONVEDGE_NONE;
 8001aee:	4b17      	ldr	r3, [pc, #92]	; (8001b4c <MX_ADC1_Init+0x98>)
 8001af0:	2200      	movs	r2, #0
 8001af2:	62da      	str	r2, [r3, #44]	; 0x2c
  hadc1.Init.ExternalTrigConv = ADC_SOFTWARE_START;
 8001af4:	4b15      	ldr	r3, [pc, #84]	; (8001b4c <MX_ADC1_Init+0x98>)
 8001af6:	4a17      	ldr	r2, [pc, #92]	; (8001b54 <MX_ADC1_Init+0xa0>)
 8001af8:	629a      	str	r2, [r3, #40]	; 0x28
  hadc1.Init.DataAlign = ADC_DATAALIGN_RIGHT;
 8001afa:	4b14      	ldr	r3, [pc, #80]	; (8001b4c <MX_ADC1_Init+0x98>)
 8001afc:	2200      	movs	r2, #0
 8001afe:	60da      	str	r2, [r3, #12]
  hadc1.Init.NbrOfConversion = 1;
 8001b00:	4b12      	ldr	r3, [pc, #72]	; (8001b4c <MX_ADC1_Init+0x98>)
 8001b02:	2201      	movs	r2, #1
 8001b04:	61da      	str	r2, [r3, #28]
  hadc1.Init.DMAContinuousRequests = DISABLE;
 8001b06:	4b11      	ldr	r3, [pc, #68]	; (8001b4c <MX_ADC1_Init+0x98>)
 8001b08:	2200      	movs	r2, #0
 8001b0a:	f883 2030 	strb.w	r2, [r3, #48]	; 0x30
  hadc1.Init.EOCSelection = ADC_EOC_SINGLE_CONV;
 8001b0e:	4b0f      	ldr	r3, [pc, #60]	; (8001b4c <MX_ADC1_Init+0x98>)
 8001b10:	2201      	movs	r2, #1
 8001b12:	615a      	str	r2, [r3, #20]
  if (HAL_ADC_Init(&hadc1) != HAL_OK)
 8001b14:	480d      	ldr	r0, [pc, #52]	; (8001b4c <MX_ADC1_Init+0x98>)
 8001b16:	f004 fab7 	bl	8006088 <HAL_ADC_Init>
 8001b1a:	4603      	mov	r3, r0
 8001b1c:	2b00      	cmp	r3, #0
 8001b1e:	d001      	beq.n	8001b24 <MX_ADC1_Init+0x70>
  {
    Error_Handler();
 8001b20:	f001 fe44 	bl	80037ac <Error_Handler>
  }
  /** Configure for the selected ADC regular channel its corresponding rank in the sequencer and its sample time.
  */
  sConfig.Channel = ADC_CHANNEL_0;
 8001b24:	2300      	movs	r3, #0
 8001b26:	603b      	str	r3, [r7, #0]
  sConfig.Rank = ADC_REGULAR_RANK_1;
 8001b28:	2301      	movs	r3, #1
 8001b2a:	607b      	str	r3, [r7, #4]
  sConfig.SamplingTime = ADC_SAMPLETIME_3CYCLES;
 8001b2c:	2300      	movs	r3, #0
 8001b2e:	60bb      	str	r3, [r7, #8]
  if (HAL_ADC_ConfigChannel(&hadc1, &sConfig) != HAL_OK)
 8001b30:	463b      	mov	r3, r7
 8001b32:	4619      	mov	r1, r3
 8001b34:	4805      	ldr	r0, [pc, #20]	; (8001b4c <MX_ADC1_Init+0x98>)
 8001b36:	f004 fc3d 	bl	80063b4 <HAL_ADC_ConfigChannel>
 8001b3a:	4603      	mov	r3, r0
 8001b3c:	2b00      	cmp	r3, #0
 8001b3e:	d001      	beq.n	8001b44 <MX_ADC1_Init+0x90>
  {
    Error_Handler();
 8001b40:	f001 fe34 	bl	80037ac <Error_Handler>
  }
  /* USER CODE BEGIN ADC1_Init 2 */

  /* USER CODE END ADC1_Init 2 */

}
 8001b44:	bf00      	nop
 8001b46:	3710      	adds	r7, #16
 8001b48:	46bd      	mov	sp, r7
 8001b4a:	bd80      	pop	{r7, pc}
 8001b4c:	20008928 	.word	0x20008928
 8001b50:	40012000 	.word	0x40012000
 8001b54:	0f000001 	.word	0x0f000001

08001b58 <MX_ADC3_Init>:
  * @brief ADC3 Initialization Function
  * @param None
  * @retval None
  */
static void MX_ADC3_Init(void)
{
 8001b58:	b580      	push	{r7, lr}
 8001b5a:	b084      	sub	sp, #16
 8001b5c:	af00      	add	r7, sp, #0

  /* USER CODE BEGIN ADC3_Init 0 */

  /* USER CODE END ADC3_Init 0 */

  ADC_ChannelConfTypeDef sConfig = {0};
 8001b5e:	463b      	mov	r3, r7
 8001b60:	2200      	movs	r2, #0
 8001b62:	601a      	str	r2, [r3, #0]
 8001b64:	605a      	str	r2, [r3, #4]
 8001b66:	609a      	str	r2, [r3, #8]
 8001b68:	60da      	str	r2, [r3, #12]
  /* USER CODE BEGIN ADC3_Init 1 */

  /* USER CODE END ADC3_Init 1 */
  /** Configure the global features of the ADC (Clock, Resolution, Data Alignment and number of conversion)
  */
  hadc3.Instance = ADC3;
 8001b6a:	4b21      	ldr	r3, [pc, #132]	; (8001bf0 <MX_ADC3_Init+0x98>)
 8001b6c:	4a21      	ldr	r2, [pc, #132]	; (8001bf4 <MX_ADC3_Init+0x9c>)
 8001b6e:	601a      	str	r2, [r3, #0]
  hadc3.Init.ClockPrescaler = ADC_CLOCK_SYNC_PCLK_DIV4;
 8001b70:	4b1f      	ldr	r3, [pc, #124]	; (8001bf0 <MX_ADC3_Init+0x98>)
 8001b72:	f44f 3280 	mov.w	r2, #65536	; 0x10000
 8001b76:	605a      	str	r2, [r3, #4]
  hadc3.Init.Resolution = ADC_RESOLUTION_12B;
 8001b78:	4b1d      	ldr	r3, [pc, #116]	; (8001bf0 <MX_ADC3_Init+0x98>)
 8001b7a:	2200      	movs	r2, #0
 8001b7c:	609a      	str	r2, [r3, #8]
  hadc3.Init.ScanConvMode = ADC_SCAN_DISABLE;
 8001b7e:	4b1c      	ldr	r3, [pc, #112]	; (8001bf0 <MX_ADC3_Init+0x98>)
 8001b80:	2200      	movs	r2, #0
 8001b82:	611a      	str	r2, [r3, #16]
  hadc3.Init.ContinuousConvMode = DISABLE;
 8001b84:	4b1a      	ldr	r3, [pc, #104]	; (8001bf0 <MX_ADC3_Init+0x98>)
 8001b86:	2200      	movs	r2, #0
 8001b88:	619a      	str	r2, [r3, #24]
  hadc3.Init.DiscontinuousConvMode = DISABLE;
 8001b8a:	4b19      	ldr	r3, [pc, #100]	; (8001bf0 <MX_ADC3_Init+0x98>)
 8001b8c:	2200      	movs	r2, #0
 8001b8e:	f883 2020 	strb.w	r2, [r3, #32]
  hadc3.Init.ExternalTrigConvEdge = ADC_EXTERNALTRIGCONVEDGE_NONE;
 8001b92:	4b17      	ldr	r3, [pc, #92]	; (8001bf0 <MX_ADC3_Init+0x98>)
 8001b94:	2200      	movs	r2, #0
 8001b96:	62da      	str	r2, [r3, #44]	; 0x2c
  hadc3.Init.ExternalTrigConv = ADC_SOFTWARE_START;
 8001b98:	4b15      	ldr	r3, [pc, #84]	; (8001bf0 <MX_ADC3_Init+0x98>)
 8001b9a:	4a17      	ldr	r2, [pc, #92]	; (8001bf8 <MX_ADC3_Init+0xa0>)
 8001b9c:	629a      	str	r2, [r3, #40]	; 0x28
  hadc3.Init.DataAlign = ADC_DATAALIGN_RIGHT;
 8001b9e:	4b14      	ldr	r3, [pc, #80]	; (8001bf0 <MX_ADC3_Init+0x98>)
 8001ba0:	2200      	movs	r2, #0
 8001ba2:	60da      	str	r2, [r3, #12]
  hadc3.Init.NbrOfConversion = 1;
 8001ba4:	4b12      	ldr	r3, [pc, #72]	; (8001bf0 <MX_ADC3_Init+0x98>)
 8001ba6:	2201      	movs	r2, #1
 8001ba8:	61da      	str	r2, [r3, #28]
  hadc3.Init.DMAContinuousRequests = DISABLE;
 8001baa:	4b11      	ldr	r3, [pc, #68]	; (8001bf0 <MX_ADC3_Init+0x98>)
 8001bac:	2200      	movs	r2, #0
 8001bae:	f883 2030 	strb.w	r2, [r3, #48]	; 0x30
  hadc3.Init.EOCSelection = ADC_EOC_SINGLE_CONV;
 8001bb2:	4b0f      	ldr	r3, [pc, #60]	; (8001bf0 <MX_ADC3_Init+0x98>)
 8001bb4:	2201      	movs	r2, #1
 8001bb6:	615a      	str	r2, [r3, #20]
  if (HAL_ADC_Init(&hadc3) != HAL_OK)
 8001bb8:	480d      	ldr	r0, [pc, #52]	; (8001bf0 <MX_ADC3_Init+0x98>)
 8001bba:	f004 fa65 	bl	8006088 <HAL_ADC_Init>
 8001bbe:	4603      	mov	r3, r0
 8001bc0:	2b00      	cmp	r3, #0
 8001bc2:	d001      	beq.n	8001bc8 <MX_ADC3_Init+0x70>
  {
    Error_Handler();
 8001bc4:	f001 fdf2 	bl	80037ac <Error_Handler>
  }
  /** Configure for the selected ADC regular channel its corresponding rank in the sequencer and its sample time.
  */
  sConfig.Channel = ADC_CHANNEL_6;
 8001bc8:	2306      	movs	r3, #6
 8001bca:	603b      	str	r3, [r7, #0]
  sConfig.Rank = ADC_REGULAR_RANK_1;
 8001bcc:	2301      	movs	r3, #1
 8001bce:	607b      	str	r3, [r7, #4]
  sConfig.SamplingTime = ADC_SAMPLETIME_3CYCLES;
 8001bd0:	2300      	movs	r3, #0
 8001bd2:	60bb      	str	r3, [r7, #8]
  if (HAL_ADC_ConfigChannel(&hadc3, &sConfig) != HAL_OK)
 8001bd4:	463b      	mov	r3, r7
 8001bd6:	4619      	mov	r1, r3
 8001bd8:	4805      	ldr	r0, [pc, #20]	; (8001bf0 <MX_ADC3_Init+0x98>)
 8001bda:	f004 fbeb 	bl	80063b4 <HAL_ADC_ConfigChannel>
 8001bde:	4603      	mov	r3, r0
 8001be0:	2b00      	cmp	r3, #0
 8001be2:	d001      	beq.n	8001be8 <MX_ADC3_Init+0x90>
  {
    Error_Handler();
 8001be4:	f001 fde2 	bl	80037ac <Error_Handler>
  }
  /* USER CODE BEGIN ADC3_Init 2 */

  /* USER CODE END ADC3_Init 2 */

}
 8001be8:	bf00      	nop
 8001bea:	3710      	adds	r7, #16
 8001bec:	46bd      	mov	sp, r7
 8001bee:	bd80      	pop	{r7, pc}
 8001bf0:	20008970 	.word	0x20008970
 8001bf4:	40012200 	.word	0x40012200
 8001bf8:	0f000001 	.word	0x0f000001

08001bfc <MX_DAC_Init>:
  * @brief DAC Initialization Function
  * @param None
  * @retval None
  */
static void MX_DAC_Init(void)
{
 8001bfc:	b580      	push	{r7, lr}
 8001bfe:	b082      	sub	sp, #8
 8001c00:	af00      	add	r7, sp, #0

  /* USER CODE BEGIN DAC_Init 0 */

  /* USER CODE END DAC_Init 0 */

  DAC_ChannelConfTypeDef sConfig = {0};
 8001c02:	463b      	mov	r3, r7
 8001c04:	2200      	movs	r2, #0
 8001c06:	601a      	str	r2, [r3, #0]
 8001c08:	605a      	str	r2, [r3, #4]
  /* USER CODE BEGIN DAC_Init 1 */

  /* USER CODE END DAC_Init 1 */
  /** DAC Initialization
  */
  hdac.Instance = DAC;
 8001c0a:	4b0f      	ldr	r3, [pc, #60]	; (8001c48 <MX_DAC_Init+0x4c>)
 8001c0c:	4a0f      	ldr	r2, [pc, #60]	; (8001c4c <MX_DAC_Init+0x50>)
 8001c0e:	601a      	str	r2, [r3, #0]
  if (HAL_DAC_Init(&hdac) != HAL_OK)
 8001c10:	480d      	ldr	r0, [pc, #52]	; (8001c48 <MX_DAC_Init+0x4c>)
 8001c12:	f004 fef5 	bl	8006a00 <HAL_DAC_Init>
 8001c16:	4603      	mov	r3, r0
 8001c18:	2b00      	cmp	r3, #0
 8001c1a:	d001      	beq.n	8001c20 <MX_DAC_Init+0x24>
  {
    Error_Handler();
 8001c1c:	f001 fdc6 	bl	80037ac <Error_Handler>
  }
  /** DAC channel OUT1 config
  */
  sConfig.DAC_Trigger = DAC_TRIGGER_NONE;
 8001c20:	2300      	movs	r3, #0
 8001c22:	603b      	str	r3, [r7, #0]
  sConfig.DAC_OutputBuffer = DAC_OUTPUTBUFFER_ENABLE;
 8001c24:	2300      	movs	r3, #0
 8001c26:	607b      	str	r3, [r7, #4]
  if (HAL_DAC_ConfigChannel(&hdac, &sConfig, DAC_CHANNEL_1) != HAL_OK)
 8001c28:	463b      	mov	r3, r7
 8001c2a:	2200      	movs	r2, #0
 8001c2c:	4619      	mov	r1, r3
 8001c2e:	4806      	ldr	r0, [pc, #24]	; (8001c48 <MX_DAC_Init+0x4c>)
 8001c30:	f004 ff5c 	bl	8006aec <HAL_DAC_ConfigChannel>
 8001c34:	4603      	mov	r3, r0
 8001c36:	2b00      	cmp	r3, #0
 8001c38:	d001      	beq.n	8001c3e <MX_DAC_Init+0x42>
  {
    Error_Handler();
 8001c3a:	f001 fdb7 	bl	80037ac <Error_Handler>
  }
  /* USER CODE BEGIN DAC_Init 2 */

  /* USER CODE END DAC_Init 2 */

}
 8001c3e:	bf00      	nop
 8001c40:	3708      	adds	r7, #8
 8001c42:	46bd      	mov	sp, r7
 8001c44:	bd80      	pop	{r7, pc}
 8001c46:	bf00      	nop
 8001c48:	20008a38 	.word	0x20008a38
 8001c4c:	40007400 	.word	0x40007400

08001c50 <MX_DMA2D_Init>:
  * @brief DMA2D Initialization Function
  * @param None
  * @retval None
  */
static void MX_DMA2D_Init(void)
{
 8001c50:	b580      	push	{r7, lr}
 8001c52:	af00      	add	r7, sp, #0
  /* USER CODE END DMA2D_Init 0 */

  /* USER CODE BEGIN DMA2D_Init 1 */

  /* USER CODE END DMA2D_Init 1 */
  hdma2d.Instance = DMA2D;
 8001c54:	4b15      	ldr	r3, [pc, #84]	; (8001cac <MX_DMA2D_Init+0x5c>)
 8001c56:	4a16      	ldr	r2, [pc, #88]	; (8001cb0 <MX_DMA2D_Init+0x60>)
 8001c58:	601a      	str	r2, [r3, #0]
  hdma2d.Init.Mode = DMA2D_M2M;
 8001c5a:	4b14      	ldr	r3, [pc, #80]	; (8001cac <MX_DMA2D_Init+0x5c>)
 8001c5c:	2200      	movs	r2, #0
 8001c5e:	605a      	str	r2, [r3, #4]
  hdma2d.Init.ColorMode = DMA2D_OUTPUT_ARGB8888;
 8001c60:	4b12      	ldr	r3, [pc, #72]	; (8001cac <MX_DMA2D_Init+0x5c>)
 8001c62:	2200      	movs	r2, #0
 8001c64:	609a      	str	r2, [r3, #8]
  hdma2d.Init.OutputOffset = 0;
 8001c66:	4b11      	ldr	r3, [pc, #68]	; (8001cac <MX_DMA2D_Init+0x5c>)
 8001c68:	2200      	movs	r2, #0
 8001c6a:	60da      	str	r2, [r3, #12]
  hdma2d.LayerCfg[1].InputOffset = 0;
 8001c6c:	4b0f      	ldr	r3, [pc, #60]	; (8001cac <MX_DMA2D_Init+0x5c>)
 8001c6e:	2200      	movs	r2, #0
 8001c70:	629a      	str	r2, [r3, #40]	; 0x28
  hdma2d.LayerCfg[1].InputColorMode = DMA2D_INPUT_ARGB8888;
 8001c72:	4b0e      	ldr	r3, [pc, #56]	; (8001cac <MX_DMA2D_Init+0x5c>)
 8001c74:	2200      	movs	r2, #0
 8001c76:	62da      	str	r2, [r3, #44]	; 0x2c
  hdma2d.LayerCfg[1].AlphaMode = DMA2D_NO_MODIF_ALPHA;
 8001c78:	4b0c      	ldr	r3, [pc, #48]	; (8001cac <MX_DMA2D_Init+0x5c>)
 8001c7a:	2200      	movs	r2, #0
 8001c7c:	631a      	str	r2, [r3, #48]	; 0x30
  hdma2d.LayerCfg[1].InputAlpha = 0;
 8001c7e:	4b0b      	ldr	r3, [pc, #44]	; (8001cac <MX_DMA2D_Init+0x5c>)
 8001c80:	2200      	movs	r2, #0
 8001c82:	635a      	str	r2, [r3, #52]	; 0x34
  if (HAL_DMA2D_Init(&hdma2d) != HAL_OK)
 8001c84:	4809      	ldr	r0, [pc, #36]	; (8001cac <MX_DMA2D_Init+0x5c>)
 8001c86:	f005 f967 	bl	8006f58 <HAL_DMA2D_Init>
 8001c8a:	4603      	mov	r3, r0
 8001c8c:	2b00      	cmp	r3, #0
 8001c8e:	d001      	beq.n	8001c94 <MX_DMA2D_Init+0x44>
  {
    Error_Handler();
 8001c90:	f001 fd8c 	bl	80037ac <Error_Handler>
  }
  if (HAL_DMA2D_ConfigLayer(&hdma2d, 1) != HAL_OK)
 8001c94:	2101      	movs	r1, #1
 8001c96:	4805      	ldr	r0, [pc, #20]	; (8001cac <MX_DMA2D_Init+0x5c>)
 8001c98:	f005 fabc 	bl	8007214 <HAL_DMA2D_ConfigLayer>
 8001c9c:	4603      	mov	r3, r0
 8001c9e:	2b00      	cmp	r3, #0
 8001ca0:	d001      	beq.n	8001ca6 <MX_DMA2D_Init+0x56>
  {
    Error_Handler();
 8001ca2:	f001 fd83 	bl	80037ac <Error_Handler>
  }
  /* USER CODE BEGIN DMA2D_Init 2 */

  /* USER CODE END DMA2D_Init 2 */

}
 8001ca6:	bf00      	nop
 8001ca8:	bd80      	pop	{r7, pc}
 8001caa:	bf00      	nop
 8001cac:	20008b34 	.word	0x20008b34
 8001cb0:	4002b000 	.word	0x4002b000

08001cb4 <MX_I2C1_Init>:
  * @brief I2C1 Initialization Function
  * @param None
  * @retval None
  */
static void MX_I2C1_Init(void)
{
 8001cb4:	b580      	push	{r7, lr}
 8001cb6:	af00      	add	r7, sp, #0
  /* USER CODE END I2C1_Init 0 */

  /* USER CODE BEGIN I2C1_Init 1 */

  /* USER CODE END I2C1_Init 1 */
  hi2c1.Instance = I2C1;
 8001cb8:	4b1b      	ldr	r3, [pc, #108]	; (8001d28 <MX_I2C1_Init+0x74>)
 8001cba:	4a1c      	ldr	r2, [pc, #112]	; (8001d2c <MX_I2C1_Init+0x78>)
 8001cbc:	601a      	str	r2, [r3, #0]
  hi2c1.Init.Timing = 0x00C0EAFF;
 8001cbe:	4b1a      	ldr	r3, [pc, #104]	; (8001d28 <MX_I2C1_Init+0x74>)
 8001cc0:	4a1b      	ldr	r2, [pc, #108]	; (8001d30 <MX_I2C1_Init+0x7c>)
 8001cc2:	605a      	str	r2, [r3, #4]
  hi2c1.Init.OwnAddress1 = 0;
 8001cc4:	4b18      	ldr	r3, [pc, #96]	; (8001d28 <MX_I2C1_Init+0x74>)
 8001cc6:	2200      	movs	r2, #0
 8001cc8:	609a      	str	r2, [r3, #8]
  hi2c1.Init.AddressingMode = I2C_ADDRESSINGMODE_7BIT;
 8001cca:	4b17      	ldr	r3, [pc, #92]	; (8001d28 <MX_I2C1_Init+0x74>)
 8001ccc:	2201      	movs	r2, #1
 8001cce:	60da      	str	r2, [r3, #12]
  hi2c1.Init.DualAddressMode = I2C_DUALADDRESS_DISABLE;
 8001cd0:	4b15      	ldr	r3, [pc, #84]	; (8001d28 <MX_I2C1_Init+0x74>)
 8001cd2:	2200      	movs	r2, #0
 8001cd4:	611a      	str	r2, [r3, #16]
  hi2c1.Init.OwnAddress2 = 0;
 8001cd6:	4b14      	ldr	r3, [pc, #80]	; (8001d28 <MX_I2C1_Init+0x74>)
 8001cd8:	2200      	movs	r2, #0
 8001cda:	615a      	str	r2, [r3, #20]
  hi2c1.Init.OwnAddress2Masks = I2C_OA2_NOMASK;
 8001cdc:	4b12      	ldr	r3, [pc, #72]	; (8001d28 <MX_I2C1_Init+0x74>)
 8001cde:	2200      	movs	r2, #0
 8001ce0:	619a      	str	r2, [r3, #24]
  hi2c1.Init.GeneralCallMode = I2C_GENERALCALL_DISABLE;
 8001ce2:	4b11      	ldr	r3, [pc, #68]	; (8001d28 <MX_I2C1_Init+0x74>)
 8001ce4:	2200      	movs	r2, #0
 8001ce6:	61da      	str	r2, [r3, #28]
  hi2c1.Init.NoStretchMode = I2C_NOSTRETCH_DISABLE;
 8001ce8:	4b0f      	ldr	r3, [pc, #60]	; (8001d28 <MX_I2C1_Init+0x74>)
 8001cea:	2200      	movs	r2, #0
 8001cec:	621a      	str	r2, [r3, #32]
  if (HAL_I2C_Init(&hi2c1) != HAL_OK)
 8001cee:	480e      	ldr	r0, [pc, #56]	; (8001d28 <MX_I2C1_Init+0x74>)
 8001cf0:	f005 fea4 	bl	8007a3c <HAL_I2C_Init>
 8001cf4:	4603      	mov	r3, r0
 8001cf6:	2b00      	cmp	r3, #0
 8001cf8:	d001      	beq.n	8001cfe <MX_I2C1_Init+0x4a>
  {
    Error_Handler();
 8001cfa:	f001 fd57 	bl	80037ac <Error_Handler>
  }
  /** Configure Analogue filter
  */
  if (HAL_I2CEx_ConfigAnalogFilter(&hi2c1, I2C_ANALOGFILTER_ENABLE) != HAL_OK)
 8001cfe:	2100      	movs	r1, #0
 8001d00:	4809      	ldr	r0, [pc, #36]	; (8001d28 <MX_I2C1_Init+0x74>)
 8001d02:	f006 fbb3 	bl	800846c <HAL_I2CEx_ConfigAnalogFilter>
 8001d06:	4603      	mov	r3, r0
 8001d08:	2b00      	cmp	r3, #0
 8001d0a:	d001      	beq.n	8001d10 <MX_I2C1_Init+0x5c>
  {
    Error_Handler();
 8001d0c:	f001 fd4e 	bl	80037ac <Error_Handler>
  }
  /** Configure Digital filter
  */
  if (HAL_I2CEx_ConfigDigitalFilter(&hi2c1, 0) != HAL_OK)
 8001d10:	2100      	movs	r1, #0
 8001d12:	4805      	ldr	r0, [pc, #20]	; (8001d28 <MX_I2C1_Init+0x74>)
 8001d14:	f006 fbf5 	bl	8008502 <HAL_I2CEx_ConfigDigitalFilter>
 8001d18:	4603      	mov	r3, r0
 8001d1a:	2b00      	cmp	r3, #0
 8001d1c:	d001      	beq.n	8001d22 <MX_I2C1_Init+0x6e>
  {
    Error_Handler();
 8001d1e:	f001 fd45 	bl	80037ac <Error_Handler>
  }
  /* USER CODE BEGIN I2C1_Init 2 */

  /* USER CODE END I2C1_Init 2 */

}
 8001d22:	bf00      	nop
 8001d24:	bd80      	pop	{r7, pc}
 8001d26:	bf00      	nop
 8001d28:	200087ac 	.word	0x200087ac
 8001d2c:	40005400 	.word	0x40005400
 8001d30:	00c0eaff 	.word	0x00c0eaff

08001d34 <MX_I2C3_Init>:
  * @brief I2C3 Initialization Function
  * @param None
  * @retval None
  */
static void MX_I2C3_Init(void)
{
 8001d34:	b580      	push	{r7, lr}
 8001d36:	af00      	add	r7, sp, #0
  /* USER CODE END I2C3_Init 0 */

  /* USER CODE BEGIN I2C3_Init 1 */

  /* USER CODE END I2C3_Init 1 */
  hi2c3.Instance = I2C3;
 8001d38:	4b1b      	ldr	r3, [pc, #108]	; (8001da8 <MX_I2C3_Init+0x74>)
 8001d3a:	4a1c      	ldr	r2, [pc, #112]	; (8001dac <MX_I2C3_Init+0x78>)
 8001d3c:	601a      	str	r2, [r3, #0]
  hi2c3.Init.Timing = 0x00C0EAFF;
 8001d3e:	4b1a      	ldr	r3, [pc, #104]	; (8001da8 <MX_I2C3_Init+0x74>)
 8001d40:	4a1b      	ldr	r2, [pc, #108]	; (8001db0 <MX_I2C3_Init+0x7c>)
 8001d42:	605a      	str	r2, [r3, #4]
  hi2c3.Init.OwnAddress1 = 0;
 8001d44:	4b18      	ldr	r3, [pc, #96]	; (8001da8 <MX_I2C3_Init+0x74>)
 8001d46:	2200      	movs	r2, #0
 8001d48:	609a      	str	r2, [r3, #8]
  hi2c3.Init.AddressingMode = I2C_ADDRESSINGMODE_7BIT;
 8001d4a:	4b17      	ldr	r3, [pc, #92]	; (8001da8 <MX_I2C3_Init+0x74>)
 8001d4c:	2201      	movs	r2, #1
 8001d4e:	60da      	str	r2, [r3, #12]
  hi2c3.Init.DualAddressMode = I2C_DUALADDRESS_DISABLE;
 8001d50:	4b15      	ldr	r3, [pc, #84]	; (8001da8 <MX_I2C3_Init+0x74>)
 8001d52:	2200      	movs	r2, #0
 8001d54:	611a      	str	r2, [r3, #16]
  hi2c3.Init.OwnAddress2 = 0;
 8001d56:	4b14      	ldr	r3, [pc, #80]	; (8001da8 <MX_I2C3_Init+0x74>)
 8001d58:	2200      	movs	r2, #0
 8001d5a:	615a      	str	r2, [r3, #20]
  hi2c3.Init.OwnAddress2Masks = I2C_OA2_NOMASK;
 8001d5c:	4b12      	ldr	r3, [pc, #72]	; (8001da8 <MX_I2C3_Init+0x74>)
 8001d5e:	2200      	movs	r2, #0
 8001d60:	619a      	str	r2, [r3, #24]
  hi2c3.Init.GeneralCallMode = I2C_GENERALCALL_DISABLE;
 8001d62:	4b11      	ldr	r3, [pc, #68]	; (8001da8 <MX_I2C3_Init+0x74>)
 8001d64:	2200      	movs	r2, #0
 8001d66:	61da      	str	r2, [r3, #28]
  hi2c3.Init.NoStretchMode = I2C_NOSTRETCH_DISABLE;
 8001d68:	4b0f      	ldr	r3, [pc, #60]	; (8001da8 <MX_I2C3_Init+0x74>)
 8001d6a:	2200      	movs	r2, #0
 8001d6c:	621a      	str	r2, [r3, #32]
  if (HAL_I2C_Init(&hi2c3) != HAL_OK)
 8001d6e:	480e      	ldr	r0, [pc, #56]	; (8001da8 <MX_I2C3_Init+0x74>)
 8001d70:	f005 fe64 	bl	8007a3c <HAL_I2C_Init>
 8001d74:	4603      	mov	r3, r0
 8001d76:	2b00      	cmp	r3, #0
 8001d78:	d001      	beq.n	8001d7e <MX_I2C3_Init+0x4a>
  {
    Error_Handler();
 8001d7a:	f001 fd17 	bl	80037ac <Error_Handler>
  }
  /** Configure Analogue filter
  */
  if (HAL_I2CEx_ConfigAnalogFilter(&hi2c3, I2C_ANALOGFILTER_ENABLE) != HAL_OK)
 8001d7e:	2100      	movs	r1, #0
 8001d80:	4809      	ldr	r0, [pc, #36]	; (8001da8 <MX_I2C3_Init+0x74>)
 8001d82:	f006 fb73 	bl	800846c <HAL_I2CEx_ConfigAnalogFilter>
 8001d86:	4603      	mov	r3, r0
 8001d88:	2b00      	cmp	r3, #0
 8001d8a:	d001      	beq.n	8001d90 <MX_I2C3_Init+0x5c>
  {
    Error_Handler();
 8001d8c:	f001 fd0e 	bl	80037ac <Error_Handler>
  }
  /** Configure Digital filter
  */
  if (HAL_I2CEx_ConfigDigitalFilter(&hi2c3, 0) != HAL_OK)
 8001d90:	2100      	movs	r1, #0
 8001d92:	4805      	ldr	r0, [pc, #20]	; (8001da8 <MX_I2C3_Init+0x74>)
 8001d94:	f006 fbb5 	bl	8008502 <HAL_I2CEx_ConfigDigitalFilter>
 8001d98:	4603      	mov	r3, r0
 8001d9a:	2b00      	cmp	r3, #0
 8001d9c:	d001      	beq.n	8001da2 <MX_I2C3_Init+0x6e>
  {
    Error_Handler();
 8001d9e:	f001 fd05 	bl	80037ac <Error_Handler>
  }
  /* USER CODE BEGIN I2C3_Init 2 */

  /* USER CODE END I2C3_Init 2 */

}
 8001da2:	bf00      	nop
 8001da4:	bd80      	pop	{r7, pc}
 8001da6:	bf00      	nop
 8001da8:	20008638 	.word	0x20008638
 8001dac:	40005c00 	.word	0x40005c00
 8001db0:	00c0eaff 	.word	0x00c0eaff

08001db4 <MX_LTDC_Init>:
  * @brief LTDC Initialization Function
  * @param None
  * @retval None
  */
static void MX_LTDC_Init(void)
{
 8001db4:	b580      	push	{r7, lr}
 8001db6:	b08e      	sub	sp, #56	; 0x38
 8001db8:	af00      	add	r7, sp, #0

  /* USER CODE BEGIN LTDC_Init 0 */

  /* USER CODE END LTDC_Init 0 */

  LTDC_LayerCfgTypeDef pLayerCfg = {0};
 8001dba:	1d3b      	adds	r3, r7, #4
 8001dbc:	2234      	movs	r2, #52	; 0x34
 8001dbe:	2100      	movs	r1, #0
 8001dc0:	4618      	mov	r0, r3
 8001dc2:	f00d fae6 	bl	800f392 <memset>

  /* USER CODE BEGIN LTDC_Init 1 */

  /* USER CODE END LTDC_Init 1 */
  hltdc.Instance = LTDC;
 8001dc6:	4b3a      	ldr	r3, [pc, #232]	; (8001eb0 <MX_LTDC_Init+0xfc>)
 8001dc8:	4a3a      	ldr	r2, [pc, #232]	; (8001eb4 <MX_LTDC_Init+0x100>)
 8001dca:	601a      	str	r2, [r3, #0]
  hltdc.Init.HSPolarity = LTDC_HSPOLARITY_AL;
 8001dcc:	4b38      	ldr	r3, [pc, #224]	; (8001eb0 <MX_LTDC_Init+0xfc>)
 8001dce:	2200      	movs	r2, #0
 8001dd0:	605a      	str	r2, [r3, #4]
  hltdc.Init.VSPolarity = LTDC_VSPOLARITY_AL;
 8001dd2:	4b37      	ldr	r3, [pc, #220]	; (8001eb0 <MX_LTDC_Init+0xfc>)
 8001dd4:	2200      	movs	r2, #0
 8001dd6:	609a      	str	r2, [r3, #8]
  hltdc.Init.DEPolarity = LTDC_DEPOLARITY_AL;
 8001dd8:	4b35      	ldr	r3, [pc, #212]	; (8001eb0 <MX_LTDC_Init+0xfc>)
 8001dda:	2200      	movs	r2, #0
 8001ddc:	60da      	str	r2, [r3, #12]
  hltdc.Init.PCPolarity = LTDC_PCPOLARITY_IPC;
 8001dde:	4b34      	ldr	r3, [pc, #208]	; (8001eb0 <MX_LTDC_Init+0xfc>)
 8001de0:	2200      	movs	r2, #0
 8001de2:	611a      	str	r2, [r3, #16]
  hltdc.Init.HorizontalSync = 40;
 8001de4:	4b32      	ldr	r3, [pc, #200]	; (8001eb0 <MX_LTDC_Init+0xfc>)
 8001de6:	2228      	movs	r2, #40	; 0x28
 8001de8:	615a      	str	r2, [r3, #20]
  hltdc.Init.VerticalSync = 9;
 8001dea:	4b31      	ldr	r3, [pc, #196]	; (8001eb0 <MX_LTDC_Init+0xfc>)
 8001dec:	2209      	movs	r2, #9
 8001dee:	619a      	str	r2, [r3, #24]
  hltdc.Init.AccumulatedHBP = 53;
 8001df0:	4b2f      	ldr	r3, [pc, #188]	; (8001eb0 <MX_LTDC_Init+0xfc>)
 8001df2:	2235      	movs	r2, #53	; 0x35
 8001df4:	61da      	str	r2, [r3, #28]
  hltdc.Init.AccumulatedVBP = 11;
 8001df6:	4b2e      	ldr	r3, [pc, #184]	; (8001eb0 <MX_LTDC_Init+0xfc>)
 8001df8:	220b      	movs	r2, #11
 8001dfa:	621a      	str	r2, [r3, #32]
  hltdc.Init.AccumulatedActiveW = 533;
 8001dfc:	4b2c      	ldr	r3, [pc, #176]	; (8001eb0 <MX_LTDC_Init+0xfc>)
 8001dfe:	f240 2215 	movw	r2, #533	; 0x215
 8001e02:	625a      	str	r2, [r3, #36]	; 0x24
  hltdc.Init.AccumulatedActiveH = 283;
 8001e04:	4b2a      	ldr	r3, [pc, #168]	; (8001eb0 <MX_LTDC_Init+0xfc>)
 8001e06:	f240 121b 	movw	r2, #283	; 0x11b
 8001e0a:	629a      	str	r2, [r3, #40]	; 0x28
  hltdc.Init.TotalWidth = 565;
 8001e0c:	4b28      	ldr	r3, [pc, #160]	; (8001eb0 <MX_LTDC_Init+0xfc>)
 8001e0e:	f240 2235 	movw	r2, #565	; 0x235
 8001e12:	62da      	str	r2, [r3, #44]	; 0x2c
  hltdc.Init.TotalHeigh = 285;
 8001e14:	4b26      	ldr	r3, [pc, #152]	; (8001eb0 <MX_LTDC_Init+0xfc>)
 8001e16:	f240 121d 	movw	r2, #285	; 0x11d
 8001e1a:	631a      	str	r2, [r3, #48]	; 0x30
  hltdc.Init.Backcolor.Blue = 0;
 8001e1c:	4b24      	ldr	r3, [pc, #144]	; (8001eb0 <MX_LTDC_Init+0xfc>)
 8001e1e:	2200      	movs	r2, #0
 8001e20:	f883 2034 	strb.w	r2, [r3, #52]	; 0x34
  hltdc.Init.Backcolor.Green = 0;
 8001e24:	4b22      	ldr	r3, [pc, #136]	; (8001eb0 <MX_LTDC_Init+0xfc>)
 8001e26:	2200      	movs	r2, #0
 8001e28:	f883 2035 	strb.w	r2, [r3, #53]	; 0x35
  hltdc.Init.Backcolor.Red = 0;
 8001e2c:	4b20      	ldr	r3, [pc, #128]	; (8001eb0 <MX_LTDC_Init+0xfc>)
 8001e2e:	2200      	movs	r2, #0
 8001e30:	f883 2036 	strb.w	r2, [r3, #54]	; 0x36
  if (HAL_LTDC_Init(&hltdc) != HAL_OK)
 8001e34:	481e      	ldr	r0, [pc, #120]	; (8001eb0 <MX_LTDC_Init+0xfc>)
 8001e36:	f006 fbb1 	bl	800859c <HAL_LTDC_Init>
 8001e3a:	4603      	mov	r3, r0
 8001e3c:	2b00      	cmp	r3, #0
 8001e3e:	d001      	beq.n	8001e44 <MX_LTDC_Init+0x90>
  {
    Error_Handler();
 8001e40:	f001 fcb4 	bl	80037ac <Error_Handler>
  }
  pLayerCfg.WindowX0 = 0;
 8001e44:	2300      	movs	r3, #0
 8001e46:	607b      	str	r3, [r7, #4]
  pLayerCfg.WindowX1 = 480;
 8001e48:	f44f 73f0 	mov.w	r3, #480	; 0x1e0
 8001e4c:	60bb      	str	r3, [r7, #8]
  pLayerCfg.WindowY0 = 0;
 8001e4e:	2300      	movs	r3, #0
 8001e50:	60fb      	str	r3, [r7, #12]
  pLayerCfg.WindowY1 = 272;
 8001e52:	f44f 7388 	mov.w	r3, #272	; 0x110
 8001e56:	613b      	str	r3, [r7, #16]
  pLayerCfg.PixelFormat = LTDC_PIXEL_FORMAT_RGB565;
 8001e58:	2302      	movs	r3, #2
 8001e5a:	617b      	str	r3, [r7, #20]
  pLayerCfg.Alpha = 255;
 8001e5c:	23ff      	movs	r3, #255	; 0xff
 8001e5e:	61bb      	str	r3, [r7, #24]
  pLayerCfg.Alpha0 = 0;
 8001e60:	2300      	movs	r3, #0
 8001e62:	61fb      	str	r3, [r7, #28]
  pLayerCfg.BlendingFactor1 = LTDC_BLENDING_FACTOR1_PAxCA;
 8001e64:	f44f 63c0 	mov.w	r3, #1536	; 0x600
 8001e68:	623b      	str	r3, [r7, #32]
  pLayerCfg.BlendingFactor2 = LTDC_BLENDING_FACTOR2_PAxCA;
 8001e6a:	2307      	movs	r3, #7
 8001e6c:	627b      	str	r3, [r7, #36]	; 0x24
  pLayerCfg.FBStartAdress = 0xC0000000;
 8001e6e:	f04f 4340 	mov.w	r3, #3221225472	; 0xc0000000
 8001e72:	62bb      	str	r3, [r7, #40]	; 0x28
  pLayerCfg.ImageWidth = 480;
 8001e74:	f44f 73f0 	mov.w	r3, #480	; 0x1e0
 8001e78:	62fb      	str	r3, [r7, #44]	; 0x2c
  pLayerCfg.ImageHeight = 272;
 8001e7a:	f44f 7388 	mov.w	r3, #272	; 0x110
 8001e7e:	633b      	str	r3, [r7, #48]	; 0x30
  pLayerCfg.Backcolor.Blue = 0;
 8001e80:	2300      	movs	r3, #0
 8001e82:	f887 3034 	strb.w	r3, [r7, #52]	; 0x34
  pLayerCfg.Backcolor.Green = 0;
 8001e86:	2300      	movs	r3, #0
 8001e88:	f887 3035 	strb.w	r3, [r7, #53]	; 0x35
  pLayerCfg.Backcolor.Red = 0;
 8001e8c:	2300      	movs	r3, #0
 8001e8e:	f887 3036 	strb.w	r3, [r7, #54]	; 0x36
  if (HAL_LTDC_ConfigLayer(&hltdc, &pLayerCfg, 0) != HAL_OK)
 8001e92:	1d3b      	adds	r3, r7, #4
 8001e94:	2200      	movs	r2, #0
 8001e96:	4619      	mov	r1, r3
 8001e98:	4805      	ldr	r0, [pc, #20]	; (8001eb0 <MX_LTDC_Init+0xfc>)
 8001e9a:	f006 fd11 	bl	80088c0 <HAL_LTDC_ConfigLayer>
 8001e9e:	4603      	mov	r3, r0
 8001ea0:	2b00      	cmp	r3, #0
 8001ea2:	d001      	beq.n	8001ea8 <MX_LTDC_Init+0xf4>
  {
    Error_Handler();
 8001ea4:	f001 fc82 	bl	80037ac <Error_Handler>
  }
  /* USER CODE BEGIN LTDC_Init 2 */

  /* USER CODE END LTDC_Init 2 */

}
 8001ea8:	bf00      	nop
 8001eaa:	3738      	adds	r7, #56	; 0x38
 8001eac:	46bd      	mov	sp, r7
 8001eae:	bd80      	pop	{r7, pc}
 8001eb0:	20008878 	.word	0x20008878
 8001eb4:	40016800 	.word	0x40016800

08001eb8 <MX_RTC_Init>:
  * @brief RTC Initialization Function
  * @param None
  * @retval None
  */
static void MX_RTC_Init(void)
{
 8001eb8:	b580      	push	{r7, lr}
 8001eba:	b092      	sub	sp, #72	; 0x48
 8001ebc:	af00      	add	r7, sp, #0

  /* USER CODE BEGIN RTC_Init 0 */

  /* USER CODE END RTC_Init 0 */

  RTC_TimeTypeDef sTime = {0};
 8001ebe:	f107 0330 	add.w	r3, r7, #48	; 0x30
 8001ec2:	2200      	movs	r2, #0
 8001ec4:	601a      	str	r2, [r3, #0]
 8001ec6:	605a      	str	r2, [r3, #4]
 8001ec8:	609a      	str	r2, [r3, #8]
 8001eca:	60da      	str	r2, [r3, #12]
 8001ecc:	611a      	str	r2, [r3, #16]
 8001ece:	615a      	str	r2, [r3, #20]
  RTC_DateTypeDef sDate = {0};
 8001ed0:	2300      	movs	r3, #0
 8001ed2:	62fb      	str	r3, [r7, #44]	; 0x2c
  RTC_AlarmTypeDef sAlarm = {0};
 8001ed4:	463b      	mov	r3, r7
 8001ed6:	222c      	movs	r2, #44	; 0x2c
 8001ed8:	2100      	movs	r1, #0
 8001eda:	4618      	mov	r0, r3
 8001edc:	f00d fa59 	bl	800f392 <memset>
  /* USER CODE BEGIN RTC_Init 1 */

  /* USER CODE END RTC_Init 1 */
  /** Initialize RTC Only
  */
  hrtc.Instance = RTC;
 8001ee0:	4b46      	ldr	r3, [pc, #280]	; (8001ffc <MX_RTC_Init+0x144>)
 8001ee2:	4a47      	ldr	r2, [pc, #284]	; (8002000 <MX_RTC_Init+0x148>)
 8001ee4:	601a      	str	r2, [r3, #0]
  hrtc.Init.HourFormat = RTC_HOURFORMAT_24;
 8001ee6:	4b45      	ldr	r3, [pc, #276]	; (8001ffc <MX_RTC_Init+0x144>)
 8001ee8:	2200      	movs	r2, #0
 8001eea:	605a      	str	r2, [r3, #4]
  hrtc.Init.AsynchPrediv = 127;
 8001eec:	4b43      	ldr	r3, [pc, #268]	; (8001ffc <MX_RTC_Init+0x144>)
 8001eee:	227f      	movs	r2, #127	; 0x7f
 8001ef0:	609a      	str	r2, [r3, #8]
  hrtc.Init.SynchPrediv = 255;
 8001ef2:	4b42      	ldr	r3, [pc, #264]	; (8001ffc <MX_RTC_Init+0x144>)
 8001ef4:	22ff      	movs	r2, #255	; 0xff
 8001ef6:	60da      	str	r2, [r3, #12]
  hrtc.Init.OutPut = RTC_OUTPUT_DISABLE;
 8001ef8:	4b40      	ldr	r3, [pc, #256]	; (8001ffc <MX_RTC_Init+0x144>)
 8001efa:	2200      	movs	r2, #0
 8001efc:	611a      	str	r2, [r3, #16]
  hrtc.Init.OutPutPolarity = RTC_OUTPUT_POLARITY_HIGH;
 8001efe:	4b3f      	ldr	r3, [pc, #252]	; (8001ffc <MX_RTC_Init+0x144>)
 8001f00:	2200      	movs	r2, #0
 8001f02:	615a      	str	r2, [r3, #20]
  hrtc.Init.OutPutType = RTC_OUTPUT_TYPE_OPENDRAIN;
 8001f04:	4b3d      	ldr	r3, [pc, #244]	; (8001ffc <MX_RTC_Init+0x144>)
 8001f06:	2200      	movs	r2, #0
 8001f08:	619a      	str	r2, [r3, #24]
  if (HAL_RTC_Init(&hrtc) != HAL_OK)
 8001f0a:	483c      	ldr	r0, [pc, #240]	; (8001ffc <MX_RTC_Init+0x144>)
 8001f0c:	f007 ffb4 	bl	8009e78 <HAL_RTC_Init>
 8001f10:	4603      	mov	r3, r0
 8001f12:	2b00      	cmp	r3, #0
 8001f14:	d001      	beq.n	8001f1a <MX_RTC_Init+0x62>
  {
    Error_Handler();
 8001f16:	f001 fc49 	bl	80037ac <Error_Handler>

  /* USER CODE END Check_RTC_BKUP */

  /** Initialize RTC and set the Time and Date
  */
  sTime.Hours = 0x0;
 8001f1a:	2300      	movs	r3, #0
 8001f1c:	f887 3030 	strb.w	r3, [r7, #48]	; 0x30
  sTime.Minutes = 0x0;
 8001f20:	2300      	movs	r3, #0
 8001f22:	f887 3031 	strb.w	r3, [r7, #49]	; 0x31
  sTime.Seconds = 0x0;
 8001f26:	2300      	movs	r3, #0
 8001f28:	f887 3032 	strb.w	r3, [r7, #50]	; 0x32
  sTime.DayLightSaving = RTC_DAYLIGHTSAVING_NONE;
 8001f2c:	2300      	movs	r3, #0
 8001f2e:	643b      	str	r3, [r7, #64]	; 0x40
  sTime.StoreOperation = RTC_STOREOPERATION_RESET;
 8001f30:	2300      	movs	r3, #0
 8001f32:	647b      	str	r3, [r7, #68]	; 0x44
  if (HAL_RTC_SetTime(&hrtc, &sTime, RTC_FORMAT_BCD) != HAL_OK)
 8001f34:	f107 0330 	add.w	r3, r7, #48	; 0x30
 8001f38:	2201      	movs	r2, #1
 8001f3a:	4619      	mov	r1, r3
 8001f3c:	482f      	ldr	r0, [pc, #188]	; (8001ffc <MX_RTC_Init+0x144>)
 8001f3e:	f008 f817 	bl	8009f70 <HAL_RTC_SetTime>
 8001f42:	4603      	mov	r3, r0
 8001f44:	2b00      	cmp	r3, #0
 8001f46:	d001      	beq.n	8001f4c <MX_RTC_Init+0x94>
  {
    Error_Handler();
 8001f48:	f001 fc30 	bl	80037ac <Error_Handler>
  }
  sDate.WeekDay = RTC_WEEKDAY_MONDAY;
 8001f4c:	2301      	movs	r3, #1
 8001f4e:	f887 302c 	strb.w	r3, [r7, #44]	; 0x2c
  sDate.Month = RTC_MONTH_JANUARY;
 8001f52:	2301      	movs	r3, #1
 8001f54:	f887 302d 	strb.w	r3, [r7, #45]	; 0x2d
  sDate.Date = 0x1;
 8001f58:	2301      	movs	r3, #1
 8001f5a:	f887 302e 	strb.w	r3, [r7, #46]	; 0x2e
  sDate.Year = 0x0;
 8001f5e:	2300      	movs	r3, #0
 8001f60:	f887 302f 	strb.w	r3, [r7, #47]	; 0x2f
  if (HAL_RTC_SetDate(&hrtc, &sDate, RTC_FORMAT_BCD) != HAL_OK)
 8001f64:	f107 032c 	add.w	r3, r7, #44	; 0x2c
 8001f68:	2201      	movs	r2, #1
 8001f6a:	4619      	mov	r1, r3
 8001f6c:	4823      	ldr	r0, [pc, #140]	; (8001ffc <MX_RTC_Init+0x144>)
 8001f6e:	f008 f8bd 	bl	800a0ec <HAL_RTC_SetDate>
 8001f72:	4603      	mov	r3, r0
 8001f74:	2b00      	cmp	r3, #0
 8001f76:	d001      	beq.n	8001f7c <MX_RTC_Init+0xc4>
  {
    Error_Handler();
 8001f78:	f001 fc18 	bl	80037ac <Error_Handler>
  }
  /** Enable the Alarm A
  */
  sAlarm.AlarmTime.Hours = 0x0;
 8001f7c:	2300      	movs	r3, #0
 8001f7e:	703b      	strb	r3, [r7, #0]
  sAlarm.AlarmTime.Minutes = 0x0;
 8001f80:	2300      	movs	r3, #0
 8001f82:	707b      	strb	r3, [r7, #1]
  sAlarm.AlarmTime.Seconds = 0x0;
 8001f84:	2300      	movs	r3, #0
 8001f86:	70bb      	strb	r3, [r7, #2]
  sAlarm.AlarmTime.SubSeconds = 0x0;
 8001f88:	2300      	movs	r3, #0
 8001f8a:	607b      	str	r3, [r7, #4]
  sAlarm.AlarmTime.DayLightSaving = RTC_DAYLIGHTSAVING_NONE;
 8001f8c:	2300      	movs	r3, #0
 8001f8e:	613b      	str	r3, [r7, #16]
  sAlarm.AlarmTime.StoreOperation = RTC_STOREOPERATION_RESET;
 8001f90:	2300      	movs	r3, #0
 8001f92:	617b      	str	r3, [r7, #20]
  sAlarm.AlarmMask = RTC_ALARMMASK_NONE;
 8001f94:	2300      	movs	r3, #0
 8001f96:	61bb      	str	r3, [r7, #24]
  sAlarm.AlarmSubSecondMask = RTC_ALARMSUBSECONDMASK_ALL;
 8001f98:	2300      	movs	r3, #0
 8001f9a:	61fb      	str	r3, [r7, #28]
  sAlarm.AlarmDateWeekDaySel = RTC_ALARMDATEWEEKDAYSEL_DATE;
 8001f9c:	2300      	movs	r3, #0
 8001f9e:	623b      	str	r3, [r7, #32]
  sAlarm.AlarmDateWeekDay = 0x1;
 8001fa0:	2301      	movs	r3, #1
 8001fa2:	f887 3024 	strb.w	r3, [r7, #36]	; 0x24
  sAlarm.Alarm = RTC_ALARM_A;
 8001fa6:	f44f 7380 	mov.w	r3, #256	; 0x100
 8001faa:	62bb      	str	r3, [r7, #40]	; 0x28
  if (HAL_RTC_SetAlarm(&hrtc, &sAlarm, RTC_FORMAT_BCD) != HAL_OK)
 8001fac:	463b      	mov	r3, r7
 8001fae:	2201      	movs	r2, #1
 8001fb0:	4619      	mov	r1, r3
 8001fb2:	4812      	ldr	r0, [pc, #72]	; (8001ffc <MX_RTC_Init+0x144>)
 8001fb4:	f008 f942 	bl	800a23c <HAL_RTC_SetAlarm>
 8001fb8:	4603      	mov	r3, r0
 8001fba:	2b00      	cmp	r3, #0
 8001fbc:	d001      	beq.n	8001fc2 <MX_RTC_Init+0x10a>
  {
    Error_Handler();
 8001fbe:	f001 fbf5 	bl	80037ac <Error_Handler>
  }
  /** Enable the Alarm B
  */
  sAlarm.Alarm = RTC_ALARM_B;
 8001fc2:	f44f 7300 	mov.w	r3, #512	; 0x200
 8001fc6:	62bb      	str	r3, [r7, #40]	; 0x28
  if (HAL_RTC_SetAlarm(&hrtc, &sAlarm, RTC_FORMAT_BCD) != HAL_OK)
 8001fc8:	463b      	mov	r3, r7
 8001fca:	2201      	movs	r2, #1
 8001fcc:	4619      	mov	r1, r3
 8001fce:	480b      	ldr	r0, [pc, #44]	; (8001ffc <MX_RTC_Init+0x144>)
 8001fd0:	f008 f934 	bl	800a23c <HAL_RTC_SetAlarm>
 8001fd4:	4603      	mov	r3, r0
 8001fd6:	2b00      	cmp	r3, #0
 8001fd8:	d001      	beq.n	8001fde <MX_RTC_Init+0x126>
  {
    Error_Handler();
 8001fda:	f001 fbe7 	bl	80037ac <Error_Handler>
  }
  /** Enable the TimeStamp
  */
  if (HAL_RTCEx_SetTimeStamp(&hrtc, RTC_TIMESTAMPEDGE_RISING, RTC_TIMESTAMPPIN_POS1) != HAL_OK)
 8001fde:	2202      	movs	r2, #2
 8001fe0:	2100      	movs	r1, #0
 8001fe2:	4806      	ldr	r0, [pc, #24]	; (8001ffc <MX_RTC_Init+0x144>)
 8001fe4:	f008 fab4 	bl	800a550 <HAL_RTCEx_SetTimeStamp>
 8001fe8:	4603      	mov	r3, r0
 8001fea:	2b00      	cmp	r3, #0
 8001fec:	d001      	beq.n	8001ff2 <MX_RTC_Init+0x13a>
  {
    Error_Handler();
 8001fee:	f001 fbdd 	bl	80037ac <Error_Handler>
  }
  /* USER CODE BEGIN RTC_Init 2 */

  /* USER CODE END RTC_Init 2 */

}
 8001ff2:	bf00      	nop
 8001ff4:	3748      	adds	r7, #72	; 0x48
 8001ff6:	46bd      	mov	sp, r7
 8001ff8:	bd80      	pop	{r7, pc}
 8001ffa:	bf00      	nop
 8001ffc:	20008a50 	.word	0x20008a50
 8002000:	40002800 	.word	0x40002800

08002004 <MX_SPI2_Init>:
  * @brief SPI2 Initialization Function
  * @param None
  * @retval None
  */
static void MX_SPI2_Init(void)
{
 8002004:	b580      	push	{r7, lr}
 8002006:	af00      	add	r7, sp, #0

  /* USER CODE BEGIN SPI2_Init 1 */

  /* USER CODE END SPI2_Init 1 */
  /* SPI2 parameter configuration*/
  hspi2.Instance = SPI2;
 8002008:	4b1b      	ldr	r3, [pc, #108]	; (8002078 <MX_SPI2_Init+0x74>)
 800200a:	4a1c      	ldr	r2, [pc, #112]	; (800207c <MX_SPI2_Init+0x78>)
 800200c:	601a      	str	r2, [r3, #0]
  hspi2.Init.Mode = SPI_MODE_MASTER;
 800200e:	4b1a      	ldr	r3, [pc, #104]	; (8002078 <MX_SPI2_Init+0x74>)
 8002010:	f44f 7282 	mov.w	r2, #260	; 0x104
 8002014:	605a      	str	r2, [r3, #4]
  hspi2.Init.Direction = SPI_DIRECTION_2LINES;
 8002016:	4b18      	ldr	r3, [pc, #96]	; (8002078 <MX_SPI2_Init+0x74>)
 8002018:	2200      	movs	r2, #0
 800201a:	609a      	str	r2, [r3, #8]
  hspi2.Init.DataSize = SPI_DATASIZE_4BIT;
 800201c:	4b16      	ldr	r3, [pc, #88]	; (8002078 <MX_SPI2_Init+0x74>)
 800201e:	f44f 7240 	mov.w	r2, #768	; 0x300
 8002022:	60da      	str	r2, [r3, #12]
  hspi2.Init.CLKPolarity = SPI_POLARITY_LOW;
 8002024:	4b14      	ldr	r3, [pc, #80]	; (8002078 <MX_SPI2_Init+0x74>)
 8002026:	2200      	movs	r2, #0
 8002028:	611a      	str	r2, [r3, #16]
  hspi2.Init.CLKPhase = SPI_PHASE_1EDGE;
 800202a:	4b13      	ldr	r3, [pc, #76]	; (8002078 <MX_SPI2_Init+0x74>)
 800202c:	2200      	movs	r2, #0
 800202e:	615a      	str	r2, [r3, #20]
  hspi2.Init.NSS = SPI_NSS_HARD_OUTPUT;
 8002030:	4b11      	ldr	r3, [pc, #68]	; (8002078 <MX_SPI2_Init+0x74>)
 8002032:	f44f 2280 	mov.w	r2, #262144	; 0x40000
 8002036:	619a      	str	r2, [r3, #24]
  hspi2.Init.BaudRatePrescaler = SPI_BAUDRATEPRESCALER_2;
 8002038:	4b0f      	ldr	r3, [pc, #60]	; (8002078 <MX_SPI2_Init+0x74>)
 800203a:	2200      	movs	r2, #0
 800203c:	61da      	str	r2, [r3, #28]
  hspi2.Init.FirstBit = SPI_FIRSTBIT_MSB;
 800203e:	4b0e      	ldr	r3, [pc, #56]	; (8002078 <MX_SPI2_Init+0x74>)
 8002040:	2200      	movs	r2, #0
 8002042:	621a      	str	r2, [r3, #32]
  hspi2.Init.TIMode = SPI_TIMODE_DISABLE;
 8002044:	4b0c      	ldr	r3, [pc, #48]	; (8002078 <MX_SPI2_Init+0x74>)
 8002046:	2200      	movs	r2, #0
 8002048:	625a      	str	r2, [r3, #36]	; 0x24
  hspi2.Init.CRCCalculation = SPI_CRCCALCULATION_DISABLE;
 800204a:	4b0b      	ldr	r3, [pc, #44]	; (8002078 <MX_SPI2_Init+0x74>)
 800204c:	2200      	movs	r2, #0
 800204e:	629a      	str	r2, [r3, #40]	; 0x28
  hspi2.Init.CRCPolynomial = 7;
 8002050:	4b09      	ldr	r3, [pc, #36]	; (8002078 <MX_SPI2_Init+0x74>)
 8002052:	2207      	movs	r2, #7
 8002054:	62da      	str	r2, [r3, #44]	; 0x2c
  hspi2.Init.CRCLength = SPI_CRC_LENGTH_DATASIZE;
 8002056:	4b08      	ldr	r3, [pc, #32]	; (8002078 <MX_SPI2_Init+0x74>)
 8002058:	2200      	movs	r2, #0
 800205a:	631a      	str	r2, [r3, #48]	; 0x30
  hspi2.Init.NSSPMode = SPI_NSS_PULSE_ENABLE;
 800205c:	4b06      	ldr	r3, [pc, #24]	; (8002078 <MX_SPI2_Init+0x74>)
 800205e:	2208      	movs	r2, #8
 8002060:	635a      	str	r2, [r3, #52]	; 0x34
  if (HAL_SPI_Init(&hspi2) != HAL_OK)
 8002062:	4805      	ldr	r0, [pc, #20]	; (8002078 <MX_SPI2_Init+0x74>)
 8002064:	f008 fb49 	bl	800a6fa <HAL_SPI_Init>
 8002068:	4603      	mov	r3, r0
 800206a:	2b00      	cmp	r3, #0
 800206c:	d001      	beq.n	8002072 <MX_SPI2_Init+0x6e>
  {
    Error_Handler();
 800206e:	f001 fb9d 	bl	80037ac <Error_Handler>
  }
  /* USER CODE BEGIN SPI2_Init 2 */

  /* USER CODE END SPI2_Init 2 */

}
 8002072:	bf00      	nop
 8002074:	bd80      	pop	{r7, pc}
 8002076:	bf00      	nop
 8002078:	20008688 	.word	0x20008688
 800207c:	40003800 	.word	0x40003800

08002080 <MX_TIM1_Init>:
  * @brief TIM1 Initialization Function
  * @param None
  * @retval None
  */
static void MX_TIM1_Init(void)
{
 8002080:	b580      	push	{r7, lr}
 8002082:	b088      	sub	sp, #32
 8002084:	af00      	add	r7, sp, #0

  /* USER CODE BEGIN TIM1_Init 0 */

  /* USER CODE END TIM1_Init 0 */

  TIM_ClockConfigTypeDef sClockSourceConfig = {0};
 8002086:	f107 0310 	add.w	r3, r7, #16
 800208a:	2200      	movs	r2, #0
 800208c:	601a      	str	r2, [r3, #0]
 800208e:	605a      	str	r2, [r3, #4]
 8002090:	609a      	str	r2, [r3, #8]
 8002092:	60da      	str	r2, [r3, #12]
  TIM_MasterConfigTypeDef sMasterConfig = {0};
 8002094:	1d3b      	adds	r3, r7, #4
 8002096:	2200      	movs	r2, #0
 8002098:	601a      	str	r2, [r3, #0]
 800209a:	605a      	str	r2, [r3, #4]
 800209c:	609a      	str	r2, [r3, #8]

  /* USER CODE BEGIN TIM1_Init 1 */

  /* USER CODE END TIM1_Init 1 */
  htim1.Instance = TIM1;
 800209e:	4b20      	ldr	r3, [pc, #128]	; (8002120 <MX_TIM1_Init+0xa0>)
 80020a0:	4a20      	ldr	r2, [pc, #128]	; (8002124 <MX_TIM1_Init+0xa4>)
 80020a2:	601a      	str	r2, [r3, #0]
  htim1.Init.Prescaler = 0;
 80020a4:	4b1e      	ldr	r3, [pc, #120]	; (8002120 <MX_TIM1_Init+0xa0>)
 80020a6:	2200      	movs	r2, #0
 80020a8:	605a      	str	r2, [r3, #4]
  htim1.Init.CounterMode = TIM_COUNTERMODE_UP;
 80020aa:	4b1d      	ldr	r3, [pc, #116]	; (8002120 <MX_TIM1_Init+0xa0>)
 80020ac:	2200      	movs	r2, #0
 80020ae:	609a      	str	r2, [r3, #8]
  htim1.Init.Period = 65535;
 80020b0:	4b1b      	ldr	r3, [pc, #108]	; (8002120 <MX_TIM1_Init+0xa0>)
 80020b2:	f64f 72ff 	movw	r2, #65535	; 0xffff
 80020b6:	60da      	str	r2, [r3, #12]
  htim1.Init.ClockDivision = TIM_CLOCKDIVISION_DIV1;
 80020b8:	4b19      	ldr	r3, [pc, #100]	; (8002120 <MX_TIM1_Init+0xa0>)
 80020ba:	2200      	movs	r2, #0
 80020bc:	611a      	str	r2, [r3, #16]
  htim1.Init.RepetitionCounter = 0;
 80020be:	4b18      	ldr	r3, [pc, #96]	; (8002120 <MX_TIM1_Init+0xa0>)
 80020c0:	2200      	movs	r2, #0
 80020c2:	615a      	str	r2, [r3, #20]
  htim1.Init.AutoReloadPreload = TIM_AUTORELOAD_PRELOAD_DISABLE;
 80020c4:	4b16      	ldr	r3, [pc, #88]	; (8002120 <MX_TIM1_Init+0xa0>)
 80020c6:	2200      	movs	r2, #0
 80020c8:	619a      	str	r2, [r3, #24]
  if (HAL_TIM_Base_Init(&htim1) != HAL_OK)
 80020ca:	4815      	ldr	r0, [pc, #84]	; (8002120 <MX_TIM1_Init+0xa0>)
 80020cc:	f008 fba7 	bl	800a81e <HAL_TIM_Base_Init>
 80020d0:	4603      	mov	r3, r0
 80020d2:	2b00      	cmp	r3, #0
 80020d4:	d001      	beq.n	80020da <MX_TIM1_Init+0x5a>
  {
    Error_Handler();
 80020d6:	f001 fb69 	bl	80037ac <Error_Handler>
  }
  sClockSourceConfig.ClockSource = TIM_CLOCKSOURCE_INTERNAL;
 80020da:	f44f 5380 	mov.w	r3, #4096	; 0x1000
 80020de:	613b      	str	r3, [r7, #16]
  if (HAL_TIM_ConfigClockSource(&htim1, &sClockSourceConfig) != HAL_OK)
 80020e0:	f107 0310 	add.w	r3, r7, #16
 80020e4:	4619      	mov	r1, r3
 80020e6:	480e      	ldr	r0, [pc, #56]	; (8002120 <MX_TIM1_Init+0xa0>)
 80020e8:	f008 fe5a 	bl	800ada0 <HAL_TIM_ConfigClockSource>
 80020ec:	4603      	mov	r3, r0
 80020ee:	2b00      	cmp	r3, #0
 80020f0:	d001      	beq.n	80020f6 <MX_TIM1_Init+0x76>
  {
    Error_Handler();
 80020f2:	f001 fb5b 	bl	80037ac <Error_Handler>
  }
  sMasterConfig.MasterOutputTrigger = TIM_TRGO_RESET;
 80020f6:	2300      	movs	r3, #0
 80020f8:	607b      	str	r3, [r7, #4]
  sMasterConfig.MasterOutputTrigger2 = TIM_TRGO2_RESET;
 80020fa:	2300      	movs	r3, #0
 80020fc:	60bb      	str	r3, [r7, #8]
  sMasterConfig.MasterSlaveMode = TIM_MASTERSLAVEMODE_DISABLE;
 80020fe:	2300      	movs	r3, #0
 8002100:	60fb      	str	r3, [r7, #12]
  if (HAL_TIMEx_MasterConfigSynchronization(&htim1, &sMasterConfig) != HAL_OK)
 8002102:	1d3b      	adds	r3, r7, #4
 8002104:	4619      	mov	r1, r3
 8002106:	4806      	ldr	r0, [pc, #24]	; (8002120 <MX_TIM1_Init+0xa0>)
 8002108:	f009 fb8e 	bl	800b828 <HAL_TIMEx_MasterConfigSynchronization>
 800210c:	4603      	mov	r3, r0
 800210e:	2b00      	cmp	r3, #0
 8002110:	d001      	beq.n	8002116 <MX_TIM1_Init+0x96>
  {
    Error_Handler();
 8002112:	f001 fb4b 	bl	80037ac <Error_Handler>
  }
  /* USER CODE BEGIN TIM1_Init 2 */

  /* USER CODE END TIM1_Init 2 */

}
 8002116:	bf00      	nop
 8002118:	3720      	adds	r7, #32
 800211a:	46bd      	mov	sp, r7
 800211c:	bd80      	pop	{r7, pc}
 800211e:	bf00      	nop
 8002120:	20008a70 	.word	0x20008a70
 8002124:	40010000 	.word	0x40010000

08002128 <MX_TIM2_Init>:
  * @brief TIM2 Initialization Function
  * @param None
  * @retval None
  */
static void MX_TIM2_Init(void)
{
 8002128:	b580      	push	{r7, lr}
 800212a:	b088      	sub	sp, #32
 800212c:	af00      	add	r7, sp, #0

  /* USER CODE BEGIN TIM2_Init 0 */

  /* USER CODE END TIM2_Init 0 */

  TIM_ClockConfigTypeDef sClockSourceConfig = {0};
 800212e:	f107 0310 	add.w	r3, r7, #16
 8002132:	2200      	movs	r2, #0
 8002134:	601a      	str	r2, [r3, #0]
 8002136:	605a      	str	r2, [r3, #4]
 8002138:	609a      	str	r2, [r3, #8]
 800213a:	60da      	str	r2, [r3, #12]
  TIM_MasterConfigTypeDef sMasterConfig = {0};
 800213c:	1d3b      	adds	r3, r7, #4
 800213e:	2200      	movs	r2, #0
 8002140:	601a      	str	r2, [r3, #0]
 8002142:	605a      	str	r2, [r3, #4]
 8002144:	609a      	str	r2, [r3, #8]

  /* USER CODE BEGIN TIM2_Init 1 */

  /* USER CODE END TIM2_Init 1 */
  htim2.Instance = TIM2;
 8002146:	4b1e      	ldr	r3, [pc, #120]	; (80021c0 <MX_TIM2_Init+0x98>)
 8002148:	f04f 4280 	mov.w	r2, #1073741824	; 0x40000000
 800214c:	601a      	str	r2, [r3, #0]
  htim2.Init.Prescaler = 0;
 800214e:	4b1c      	ldr	r3, [pc, #112]	; (80021c0 <MX_TIM2_Init+0x98>)
 8002150:	2200      	movs	r2, #0
 8002152:	605a      	str	r2, [r3, #4]
  htim2.Init.CounterMode = TIM_COUNTERMODE_UP;
 8002154:	4b1a      	ldr	r3, [pc, #104]	; (80021c0 <MX_TIM2_Init+0x98>)
 8002156:	2200      	movs	r2, #0
 8002158:	609a      	str	r2, [r3, #8]
  htim2.Init.Period = 4294967295;
 800215a:	4b19      	ldr	r3, [pc, #100]	; (80021c0 <MX_TIM2_Init+0x98>)
 800215c:	f04f 32ff 	mov.w	r2, #4294967295
 8002160:	60da      	str	r2, [r3, #12]
  htim2.Init.ClockDivision = TIM_CLOCKDIVISION_DIV1;
 8002162:	4b17      	ldr	r3, [pc, #92]	; (80021c0 <MX_TIM2_Init+0x98>)
 8002164:	2200      	movs	r2, #0
 8002166:	611a      	str	r2, [r3, #16]
  htim2.Init.AutoReloadPreload = TIM_AUTORELOAD_PRELOAD_DISABLE;
 8002168:	4b15      	ldr	r3, [pc, #84]	; (80021c0 <MX_TIM2_Init+0x98>)
 800216a:	2200      	movs	r2, #0
 800216c:	619a      	str	r2, [r3, #24]
  if (HAL_TIM_Base_Init(&htim2) != HAL_OK)
 800216e:	4814      	ldr	r0, [pc, #80]	; (80021c0 <MX_TIM2_Init+0x98>)
 8002170:	f008 fb55 	bl	800a81e <HAL_TIM_Base_Init>
 8002174:	4603      	mov	r3, r0
 8002176:	2b00      	cmp	r3, #0
 8002178:	d001      	beq.n	800217e <MX_TIM2_Init+0x56>
  {
    Error_Handler();
 800217a:	f001 fb17 	bl	80037ac <Error_Handler>
  }
  sClockSourceConfig.ClockSource = TIM_CLOCKSOURCE_INTERNAL;
 800217e:	f44f 5380 	mov.w	r3, #4096	; 0x1000
 8002182:	613b      	str	r3, [r7, #16]
  if (HAL_TIM_ConfigClockSource(&htim2, &sClockSourceConfig) != HAL_OK)
 8002184:	f107 0310 	add.w	r3, r7, #16
 8002188:	4619      	mov	r1, r3
 800218a:	480d      	ldr	r0, [pc, #52]	; (80021c0 <MX_TIM2_Init+0x98>)
 800218c:	f008 fe08 	bl	800ada0 <HAL_TIM_ConfigClockSource>
 8002190:	4603      	mov	r3, r0
 8002192:	2b00      	cmp	r3, #0
 8002194:	d001      	beq.n	800219a <MX_TIM2_Init+0x72>
  {
    Error_Handler();
 8002196:	f001 fb09 	bl	80037ac <Error_Handler>
  }
  sMasterConfig.MasterOutputTrigger = TIM_TRGO_RESET;
 800219a:	2300      	movs	r3, #0
 800219c:	607b      	str	r3, [r7, #4]
  sMasterConfig.MasterSlaveMode = TIM_MASTERSLAVEMODE_DISABLE;
 800219e:	2300      	movs	r3, #0
 80021a0:	60fb      	str	r3, [r7, #12]
  if (HAL_TIMEx_MasterConfigSynchronization(&htim2, &sMasterConfig) != HAL_OK)
 80021a2:	1d3b      	adds	r3, r7, #4
 80021a4:	4619      	mov	r1, r3
 80021a6:	4806      	ldr	r0, [pc, #24]	; (80021c0 <MX_TIM2_Init+0x98>)
 80021a8:	f009 fb3e 	bl	800b828 <HAL_TIMEx_MasterConfigSynchronization>
 80021ac:	4603      	mov	r3, r0
 80021ae:	2b00      	cmp	r3, #0
 80021b0:	d001      	beq.n	80021b6 <MX_TIM2_Init+0x8e>
  {
    Error_Handler();
 80021b2:	f001 fafb 	bl	80037ac <Error_Handler>
  }
  /* USER CODE BEGIN TIM2_Init 2 */

  /* USER CODE END TIM2_Init 2 */

}
 80021b6:	bf00      	nop
 80021b8:	3720      	adds	r7, #32
 80021ba:	46bd      	mov	sp, r7
 80021bc:	bd80      	pop	{r7, pc}
 80021be:	bf00      	nop
 80021c0:	20008b74 	.word	0x20008b74

080021c4 <MX_TIM3_Init>:
  * @brief TIM3 Initialization Function
  * @param None
  * @retval None
  */
static void MX_TIM3_Init(void)
{
 80021c4:	b580      	push	{r7, lr}
 80021c6:	b094      	sub	sp, #80	; 0x50
 80021c8:	af00      	add	r7, sp, #0

  /* USER CODE BEGIN TIM3_Init 0 */

  /* USER CODE END TIM3_Init 0 */

  TIM_ClockConfigTypeDef sClockSourceConfig = {0};
 80021ca:	f107 0340 	add.w	r3, r7, #64	; 0x40
 80021ce:	2200      	movs	r2, #0
 80021d0:	601a      	str	r2, [r3, #0]
 80021d2:	605a      	str	r2, [r3, #4]
 80021d4:	609a      	str	r2, [r3, #8]
 80021d6:	60da      	str	r2, [r3, #12]
  TIM_SlaveConfigTypeDef sSlaveConfig = {0};
 80021d8:	f107 032c 	add.w	r3, r7, #44	; 0x2c
 80021dc:	2200      	movs	r2, #0
 80021de:	601a      	str	r2, [r3, #0]
 80021e0:	605a      	str	r2, [r3, #4]
 80021e2:	609a      	str	r2, [r3, #8]
 80021e4:	60da      	str	r2, [r3, #12]
 80021e6:	611a      	str	r2, [r3, #16]
  TIM_MasterConfigTypeDef sMasterConfig = {0};
 80021e8:	f107 0320 	add.w	r3, r7, #32
 80021ec:	2200      	movs	r2, #0
 80021ee:	601a      	str	r2, [r3, #0]
 80021f0:	605a      	str	r2, [r3, #4]
 80021f2:	609a      	str	r2, [r3, #8]
  TIM_OC_InitTypeDef sConfigOC = {0};
 80021f4:	1d3b      	adds	r3, r7, #4
 80021f6:	2200      	movs	r2, #0
 80021f8:	601a      	str	r2, [r3, #0]
 80021fa:	605a      	str	r2, [r3, #4]
 80021fc:	609a      	str	r2, [r3, #8]
 80021fe:	60da      	str	r2, [r3, #12]
 8002200:	611a      	str	r2, [r3, #16]
 8002202:	615a      	str	r2, [r3, #20]
 8002204:	619a      	str	r2, [r3, #24]

  /* USER CODE BEGIN TIM3_Init 1 */

  /* USER CODE END TIM3_Init 1 */
  htim3.Instance = TIM3;
 8002206:	4b34      	ldr	r3, [pc, #208]	; (80022d8 <MX_TIM3_Init+0x114>)
 8002208:	4a34      	ldr	r2, [pc, #208]	; (80022dc <MX_TIM3_Init+0x118>)
 800220a:	601a      	str	r2, [r3, #0]
  htim3.Init.Prescaler = 0;
 800220c:	4b32      	ldr	r3, [pc, #200]	; (80022d8 <MX_TIM3_Init+0x114>)
 800220e:	2200      	movs	r2, #0
 8002210:	605a      	str	r2, [r3, #4]
  htim3.Init.CounterMode = TIM_COUNTERMODE_UP;
 8002212:	4b31      	ldr	r3, [pc, #196]	; (80022d8 <MX_TIM3_Init+0x114>)
 8002214:	2200      	movs	r2, #0
 8002216:	609a      	str	r2, [r3, #8]
  htim3.Init.Period = 65535;
 8002218:	4b2f      	ldr	r3, [pc, #188]	; (80022d8 <MX_TIM3_Init+0x114>)
 800221a:	f64f 72ff 	movw	r2, #65535	; 0xffff
 800221e:	60da      	str	r2, [r3, #12]
  htim3.Init.ClockDivision = TIM_CLOCKDIVISION_DIV1;
 8002220:	4b2d      	ldr	r3, [pc, #180]	; (80022d8 <MX_TIM3_Init+0x114>)
 8002222:	2200      	movs	r2, #0
 8002224:	611a      	str	r2, [r3, #16]
  htim3.Init.AutoReloadPreload = TIM_AUTORELOAD_PRELOAD_DISABLE;
 8002226:	4b2c      	ldr	r3, [pc, #176]	; (80022d8 <MX_TIM3_Init+0x114>)
 8002228:	2200      	movs	r2, #0
 800222a:	619a      	str	r2, [r3, #24]
  if (HAL_TIM_Base_Init(&htim3) != HAL_OK)
 800222c:	482a      	ldr	r0, [pc, #168]	; (80022d8 <MX_TIM3_Init+0x114>)
 800222e:	f008 faf6 	bl	800a81e <HAL_TIM_Base_Init>
 8002232:	4603      	mov	r3, r0
 8002234:	2b00      	cmp	r3, #0
 8002236:	d001      	beq.n	800223c <MX_TIM3_Init+0x78>
  {
    Error_Handler();
 8002238:	f001 fab8 	bl	80037ac <Error_Handler>
  }
  sClockSourceConfig.ClockSource = TIM_CLOCKSOURCE_INTERNAL;
 800223c:	f44f 5380 	mov.w	r3, #4096	; 0x1000
 8002240:	643b      	str	r3, [r7, #64]	; 0x40
  if (HAL_TIM_ConfigClockSource(&htim3, &sClockSourceConfig) != HAL_OK)
 8002242:	f107 0340 	add.w	r3, r7, #64	; 0x40
 8002246:	4619      	mov	r1, r3
 8002248:	4823      	ldr	r0, [pc, #140]	; (80022d8 <MX_TIM3_Init+0x114>)
 800224a:	f008 fda9 	bl	800ada0 <HAL_TIM_ConfigClockSource>
 800224e:	4603      	mov	r3, r0
 8002250:	2b00      	cmp	r3, #0
 8002252:	d001      	beq.n	8002258 <MX_TIM3_Init+0x94>
  {
    Error_Handler();
 8002254:	f001 faaa 	bl	80037ac <Error_Handler>
  }
  if (HAL_TIM_PWM_Init(&htim3) != HAL_OK)
 8002258:	481f      	ldr	r0, [pc, #124]	; (80022d8 <MX_TIM3_Init+0x114>)
 800225a:	f008 fb35 	bl	800a8c8 <HAL_TIM_PWM_Init>
 800225e:	4603      	mov	r3, r0
 8002260:	2b00      	cmp	r3, #0
 8002262:	d001      	beq.n	8002268 <MX_TIM3_Init+0xa4>
  {
    Error_Handler();
 8002264:	f001 faa2 	bl	80037ac <Error_Handler>
  }
  sSlaveConfig.SlaveMode = TIM_SLAVEMODE_DISABLE;
 8002268:	2300      	movs	r3, #0
 800226a:	62fb      	str	r3, [r7, #44]	; 0x2c
  sSlaveConfig.InputTrigger = TIM_TS_ITR0;
 800226c:	2300      	movs	r3, #0
 800226e:	633b      	str	r3, [r7, #48]	; 0x30
  if (HAL_TIM_SlaveConfigSynchro(&htim3, &sSlaveConfig) != HAL_OK)
 8002270:	f107 032c 	add.w	r3, r7, #44	; 0x2c
 8002274:	4619      	mov	r1, r3
 8002276:	4818      	ldr	r0, [pc, #96]	; (80022d8 <MX_TIM3_Init+0x114>)
 8002278:	f008 fe4c 	bl	800af14 <HAL_TIM_SlaveConfigSynchro>
 800227c:	4603      	mov	r3, r0
 800227e:	2b00      	cmp	r3, #0
 8002280:	d001      	beq.n	8002286 <MX_TIM3_Init+0xc2>
  {
    Error_Handler();
 8002282:	f001 fa93 	bl	80037ac <Error_Handler>
  }
  sMasterConfig.MasterOutputTrigger = TIM_TRGO_RESET;
 8002286:	2300      	movs	r3, #0
 8002288:	623b      	str	r3, [r7, #32]
  sMasterConfig.MasterSlaveMode = TIM_MASTERSLAVEMODE_DISABLE;
 800228a:	2300      	movs	r3, #0
 800228c:	62bb      	str	r3, [r7, #40]	; 0x28
  if (HAL_TIMEx_MasterConfigSynchronization(&htim3, &sMasterConfig) != HAL_OK)
 800228e:	f107 0320 	add.w	r3, r7, #32
 8002292:	4619      	mov	r1, r3
 8002294:	4810      	ldr	r0, [pc, #64]	; (80022d8 <MX_TIM3_Init+0x114>)
 8002296:	f009 fac7 	bl	800b828 <HAL_TIMEx_MasterConfigSynchronization>
 800229a:	4603      	mov	r3, r0
 800229c:	2b00      	cmp	r3, #0
 800229e:	d001      	beq.n	80022a4 <MX_TIM3_Init+0xe0>
  {
    Error_Handler();
 80022a0:	f001 fa84 	bl	80037ac <Error_Handler>
  }
  sConfigOC.OCMode = TIM_OCMODE_PWM1;
 80022a4:	2360      	movs	r3, #96	; 0x60
 80022a6:	607b      	str	r3, [r7, #4]
  sConfigOC.Pulse = 0;
 80022a8:	2300      	movs	r3, #0
 80022aa:	60bb      	str	r3, [r7, #8]
  sConfigOC.OCPolarity = TIM_OCPOLARITY_HIGH;
 80022ac:	2300      	movs	r3, #0
 80022ae:	60fb      	str	r3, [r7, #12]
  sConfigOC.OCFastMode = TIM_OCFAST_DISABLE;
 80022b0:	2300      	movs	r3, #0
 80022b2:	617b      	str	r3, [r7, #20]
  if (HAL_TIM_PWM_ConfigChannel(&htim3, &sConfigOC, TIM_CHANNEL_1) != HAL_OK)
 80022b4:	1d3b      	adds	r3, r7, #4
 80022b6:	2200      	movs	r2, #0
 80022b8:	4619      	mov	r1, r3
 80022ba:	4807      	ldr	r0, [pc, #28]	; (80022d8 <MX_TIM3_Init+0x114>)
 80022bc:	f008 fc58 	bl	800ab70 <HAL_TIM_PWM_ConfigChannel>
 80022c0:	4603      	mov	r3, r0
 80022c2:	2b00      	cmp	r3, #0
 80022c4:	d001      	beq.n	80022ca <MX_TIM3_Init+0x106>
  {
    Error_Handler();
 80022c6:	f001 fa71 	bl	80037ac <Error_Handler>
  }
  /* USER CODE BEGIN TIM3_Init 2 */

  /* USER CODE END TIM3_Init 2 */
  HAL_TIM_MspPostInit(&htim3);
 80022ca:	4803      	ldr	r0, [pc, #12]	; (80022d8 <MX_TIM3_Init+0x114>)
 80022cc:	f003 fbe6 	bl	8005a9c <HAL_TIM_MspPostInit>

}
 80022d0:	bf00      	nop
 80022d2:	3750      	adds	r7, #80	; 0x50
 80022d4:	46bd      	mov	sp, r7
 80022d6:	bd80      	pop	{r7, pc}
 80022d8:	20008838 	.word	0x20008838
 80022dc:	40000400 	.word	0x40000400

080022e0 <MX_TIM5_Init>:
  * @brief TIM5 Initialization Function
  * @param None
  * @retval None
  */
static void MX_TIM5_Init(void)
{
 80022e0:	b580      	push	{r7, lr}
 80022e2:	b088      	sub	sp, #32
 80022e4:	af00      	add	r7, sp, #0

  /* USER CODE BEGIN TIM5_Init 0 */

  /* USER CODE END TIM5_Init 0 */

  TIM_ClockConfigTypeDef sClockSourceConfig = {0};
 80022e6:	f107 0310 	add.w	r3, r7, #16
 80022ea:	2200      	movs	r2, #0
 80022ec:	601a      	str	r2, [r3, #0]
 80022ee:	605a      	str	r2, [r3, #4]
 80022f0:	609a      	str	r2, [r3, #8]
 80022f2:	60da      	str	r2, [r3, #12]
  TIM_MasterConfigTypeDef sMasterConfig = {0};
 80022f4:	1d3b      	adds	r3, r7, #4
 80022f6:	2200      	movs	r2, #0
 80022f8:	601a      	str	r2, [r3, #0]
 80022fa:	605a      	str	r2, [r3, #4]
 80022fc:	609a      	str	r2, [r3, #8]

  /* USER CODE BEGIN TIM5_Init 1 */

  /* USER CODE END TIM5_Init 1 */
  htim5.Instance = TIM5;
 80022fe:	4b1d      	ldr	r3, [pc, #116]	; (8002374 <MX_TIM5_Init+0x94>)
 8002300:	4a1d      	ldr	r2, [pc, #116]	; (8002378 <MX_TIM5_Init+0x98>)
 8002302:	601a      	str	r2, [r3, #0]
  htim5.Init.Prescaler = 0;
 8002304:	4b1b      	ldr	r3, [pc, #108]	; (8002374 <MX_TIM5_Init+0x94>)
 8002306:	2200      	movs	r2, #0
 8002308:	605a      	str	r2, [r3, #4]
  htim5.Init.CounterMode = TIM_COUNTERMODE_UP;
 800230a:	4b1a      	ldr	r3, [pc, #104]	; (8002374 <MX_TIM5_Init+0x94>)
 800230c:	2200      	movs	r2, #0
 800230e:	609a      	str	r2, [r3, #8]
  htim5.Init.Period = 4294967295;
 8002310:	4b18      	ldr	r3, [pc, #96]	; (8002374 <MX_TIM5_Init+0x94>)
 8002312:	f04f 32ff 	mov.w	r2, #4294967295
 8002316:	60da      	str	r2, [r3, #12]
  htim5.Init.ClockDivision = TIM_CLOCKDIVISION_DIV1;
 8002318:	4b16      	ldr	r3, [pc, #88]	; (8002374 <MX_TIM5_Init+0x94>)
 800231a:	2200      	movs	r2, #0
 800231c:	611a      	str	r2, [r3, #16]
  htim5.Init.AutoReloadPreload = TIM_AUTORELOAD_PRELOAD_DISABLE;
 800231e:	4b15      	ldr	r3, [pc, #84]	; (8002374 <MX_TIM5_Init+0x94>)
 8002320:	2200      	movs	r2, #0
 8002322:	619a      	str	r2, [r3, #24]
  if (HAL_TIM_Base_Init(&htim5) != HAL_OK)
 8002324:	4813      	ldr	r0, [pc, #76]	; (8002374 <MX_TIM5_Init+0x94>)
 8002326:	f008 fa7a 	bl	800a81e <HAL_TIM_Base_Init>
 800232a:	4603      	mov	r3, r0
 800232c:	2b00      	cmp	r3, #0
 800232e:	d001      	beq.n	8002334 <MX_TIM5_Init+0x54>
  {
    Error_Handler();
 8002330:	f001 fa3c 	bl	80037ac <Error_Handler>
  }
  sClockSourceConfig.ClockSource = TIM_CLOCKSOURCE_INTERNAL;
 8002334:	f44f 5380 	mov.w	r3, #4096	; 0x1000
 8002338:	613b      	str	r3, [r7, #16]
  if (HAL_TIM_ConfigClockSource(&htim5, &sClockSourceConfig) != HAL_OK)
 800233a:	f107 0310 	add.w	r3, r7, #16
 800233e:	4619      	mov	r1, r3
 8002340:	480c      	ldr	r0, [pc, #48]	; (8002374 <MX_TIM5_Init+0x94>)
 8002342:	f008 fd2d 	bl	800ada0 <HAL_TIM_ConfigClockSource>
 8002346:	4603      	mov	r3, r0
 8002348:	2b00      	cmp	r3, #0
 800234a:	d001      	beq.n	8002350 <MX_TIM5_Init+0x70>
  {
    Error_Handler();
 800234c:	f001 fa2e 	bl	80037ac <Error_Handler>
  }
  sMasterConfig.MasterOutputTrigger = TIM_TRGO_RESET;
 8002350:	2300      	movs	r3, #0
 8002352:	607b      	str	r3, [r7, #4]
  sMasterConfig.MasterSlaveMode = TIM_MASTERSLAVEMODE_DISABLE;
 8002354:	2300      	movs	r3, #0
 8002356:	60fb      	str	r3, [r7, #12]
  if (HAL_TIMEx_MasterConfigSynchronization(&htim5, &sMasterConfig) != HAL_OK)
 8002358:	1d3b      	adds	r3, r7, #4
 800235a:	4619      	mov	r1, r3
 800235c:	4805      	ldr	r0, [pc, #20]	; (8002374 <MX_TIM5_Init+0x94>)
 800235e:	f009 fa63 	bl	800b828 <HAL_TIMEx_MasterConfigSynchronization>
 8002362:	4603      	mov	r3, r0
 8002364:	2b00      	cmp	r3, #0
 8002366:	d001      	beq.n	800236c <MX_TIM5_Init+0x8c>
  {
    Error_Handler();
 8002368:	f001 fa20 	bl	80037ac <Error_Handler>
  }
  /* USER CODE BEGIN TIM5_Init 2 */

  /* USER CODE END TIM5_Init 2 */

}
 800236c:	bf00      	nop
 800236e:	3720      	adds	r7, #32
 8002370:	46bd      	mov	sp, r7
 8002372:	bd80      	pop	{r7, pc}
 8002374:	200087f8 	.word	0x200087f8
 8002378:	40000c00 	.word	0x40000c00

0800237c <MX_TIM8_Init>:
  * @brief TIM8 Initialization Function
  * @param None
  * @retval None
  */
static void MX_TIM8_Init(void)
{
 800237c:	b580      	push	{r7, lr}
 800237e:	b09a      	sub	sp, #104	; 0x68
 8002380:	af00      	add	r7, sp, #0

  /* USER CODE BEGIN TIM8_Init 0 */

  /* USER CODE END TIM8_Init 0 */

  TIM_ClockConfigTypeDef sClockSourceConfig = {0};
 8002382:	f107 0358 	add.w	r3, r7, #88	; 0x58
 8002386:	2200      	movs	r2, #0
 8002388:	601a      	str	r2, [r3, #0]
 800238a:	605a      	str	r2, [r3, #4]
 800238c:	609a      	str	r2, [r3, #8]
 800238e:	60da      	str	r2, [r3, #12]
  TIM_MasterConfigTypeDef sMasterConfig = {0};
 8002390:	f107 034c 	add.w	r3, r7, #76	; 0x4c
 8002394:	2200      	movs	r2, #0
 8002396:	601a      	str	r2, [r3, #0]
 8002398:	605a      	str	r2, [r3, #4]
 800239a:	609a      	str	r2, [r3, #8]
  TIM_OC_InitTypeDef sConfigOC = {0};
 800239c:	f107 0330 	add.w	r3, r7, #48	; 0x30
 80023a0:	2200      	movs	r2, #0
 80023a2:	601a      	str	r2, [r3, #0]
 80023a4:	605a      	str	r2, [r3, #4]
 80023a6:	609a      	str	r2, [r3, #8]
 80023a8:	60da      	str	r2, [r3, #12]
 80023aa:	611a      	str	r2, [r3, #16]
 80023ac:	615a      	str	r2, [r3, #20]
 80023ae:	619a      	str	r2, [r3, #24]
  TIM_BreakDeadTimeConfigTypeDef sBreakDeadTimeConfig = {0};
 80023b0:	1d3b      	adds	r3, r7, #4
 80023b2:	222c      	movs	r2, #44	; 0x2c
 80023b4:	2100      	movs	r1, #0
 80023b6:	4618      	mov	r0, r3
 80023b8:	f00c ffeb 	bl	800f392 <memset>

  /* USER CODE BEGIN TIM8_Init 1 */

  /* USER CODE END TIM8_Init 1 */
  htim8.Instance = TIM8;
 80023bc:	4b42      	ldr	r3, [pc, #264]	; (80024c8 <MX_TIM8_Init+0x14c>)
 80023be:	4a43      	ldr	r2, [pc, #268]	; (80024cc <MX_TIM8_Init+0x150>)
 80023c0:	601a      	str	r2, [r3, #0]
  htim8.Init.Prescaler = 0;
 80023c2:	4b41      	ldr	r3, [pc, #260]	; (80024c8 <MX_TIM8_Init+0x14c>)
 80023c4:	2200      	movs	r2, #0
 80023c6:	605a      	str	r2, [r3, #4]
  htim8.Init.CounterMode = TIM_COUNTERMODE_UP;
 80023c8:	4b3f      	ldr	r3, [pc, #252]	; (80024c8 <MX_TIM8_Init+0x14c>)
 80023ca:	2200      	movs	r2, #0
 80023cc:	609a      	str	r2, [r3, #8]
  htim8.Init.Period = 65535;
 80023ce:	4b3e      	ldr	r3, [pc, #248]	; (80024c8 <MX_TIM8_Init+0x14c>)
 80023d0:	f64f 72ff 	movw	r2, #65535	; 0xffff
 80023d4:	60da      	str	r2, [r3, #12]
  htim8.Init.ClockDivision = TIM_CLOCKDIVISION_DIV1;
 80023d6:	4b3c      	ldr	r3, [pc, #240]	; (80024c8 <MX_TIM8_Init+0x14c>)
 80023d8:	2200      	movs	r2, #0
 80023da:	611a      	str	r2, [r3, #16]
  htim8.Init.RepetitionCounter = 0;
 80023dc:	4b3a      	ldr	r3, [pc, #232]	; (80024c8 <MX_TIM8_Init+0x14c>)
 80023de:	2200      	movs	r2, #0
 80023e0:	615a      	str	r2, [r3, #20]
  htim8.Init.AutoReloadPreload = TIM_AUTORELOAD_PRELOAD_DISABLE;
 80023e2:	4b39      	ldr	r3, [pc, #228]	; (80024c8 <MX_TIM8_Init+0x14c>)
 80023e4:	2200      	movs	r2, #0
 80023e6:	619a      	str	r2, [r3, #24]
  if (HAL_TIM_Base_Init(&htim8) != HAL_OK)
 80023e8:	4837      	ldr	r0, [pc, #220]	; (80024c8 <MX_TIM8_Init+0x14c>)
 80023ea:	f008 fa18 	bl	800a81e <HAL_TIM_Base_Init>
 80023ee:	4603      	mov	r3, r0
 80023f0:	2b00      	cmp	r3, #0
 80023f2:	d001      	beq.n	80023f8 <MX_TIM8_Init+0x7c>
  {
    Error_Handler();
 80023f4:	f001 f9da 	bl	80037ac <Error_Handler>
  }
  sClockSourceConfig.ClockSource = TIM_CLOCKSOURCE_INTERNAL;
 80023f8:	f44f 5380 	mov.w	r3, #4096	; 0x1000
 80023fc:	65bb      	str	r3, [r7, #88]	; 0x58
  if (HAL_TIM_ConfigClockSource(&htim8, &sClockSourceConfig) != HAL_OK)
 80023fe:	f107 0358 	add.w	r3, r7, #88	; 0x58
 8002402:	4619      	mov	r1, r3
 8002404:	4830      	ldr	r0, [pc, #192]	; (80024c8 <MX_TIM8_Init+0x14c>)
 8002406:	f008 fccb 	bl	800ada0 <HAL_TIM_ConfigClockSource>
 800240a:	4603      	mov	r3, r0
 800240c:	2b00      	cmp	r3, #0
 800240e:	d001      	beq.n	8002414 <MX_TIM8_Init+0x98>
  {
    Error_Handler();
 8002410:	f001 f9cc 	bl	80037ac <Error_Handler>
  }
  if (HAL_TIM_PWM_Init(&htim8) != HAL_OK)
 8002414:	482c      	ldr	r0, [pc, #176]	; (80024c8 <MX_TIM8_Init+0x14c>)
 8002416:	f008 fa57 	bl	800a8c8 <HAL_TIM_PWM_Init>
 800241a:	4603      	mov	r3, r0
 800241c:	2b00      	cmp	r3, #0
 800241e:	d001      	beq.n	8002424 <MX_TIM8_Init+0xa8>
  {
    Error_Handler();
 8002420:	f001 f9c4 	bl	80037ac <Error_Handler>
  }
  sMasterConfig.MasterOutputTrigger = TIM_TRGO_RESET;
 8002424:	2300      	movs	r3, #0
 8002426:	64fb      	str	r3, [r7, #76]	; 0x4c
  sMasterConfig.MasterOutputTrigger2 = TIM_TRGO2_RESET;
 8002428:	2300      	movs	r3, #0
 800242a:	653b      	str	r3, [r7, #80]	; 0x50
  sMasterConfig.MasterSlaveMode = TIM_MASTERSLAVEMODE_DISABLE;
 800242c:	2300      	movs	r3, #0
 800242e:	657b      	str	r3, [r7, #84]	; 0x54
  if (HAL_TIMEx_MasterConfigSynchronization(&htim8, &sMasterConfig) != HAL_OK)
 8002430:	f107 034c 	add.w	r3, r7, #76	; 0x4c
 8002434:	4619      	mov	r1, r3
 8002436:	4824      	ldr	r0, [pc, #144]	; (80024c8 <MX_TIM8_Init+0x14c>)
 8002438:	f009 f9f6 	bl	800b828 <HAL_TIMEx_MasterConfigSynchronization>
 800243c:	4603      	mov	r3, r0
 800243e:	2b00      	cmp	r3, #0
 8002440:	d001      	beq.n	8002446 <MX_TIM8_Init+0xca>
  {
    Error_Handler();
 8002442:	f001 f9b3 	bl	80037ac <Error_Handler>
  }
  sConfigOC.OCMode = TIM_OCMODE_PWM1;
 8002446:	2360      	movs	r3, #96	; 0x60
 8002448:	633b      	str	r3, [r7, #48]	; 0x30
  sConfigOC.Pulse = 0;
 800244a:	2300      	movs	r3, #0
 800244c:	637b      	str	r3, [r7, #52]	; 0x34
  sConfigOC.OCPolarity = TIM_OCPOLARITY_HIGH;
 800244e:	2300      	movs	r3, #0
 8002450:	63bb      	str	r3, [r7, #56]	; 0x38
  sConfigOC.OCFastMode = TIM_OCFAST_DISABLE;
 8002452:	2300      	movs	r3, #0
 8002454:	643b      	str	r3, [r7, #64]	; 0x40
  sConfigOC.OCIdleState = TIM_OCIDLESTATE_RESET;
 8002456:	2300      	movs	r3, #0
 8002458:	647b      	str	r3, [r7, #68]	; 0x44
  sConfigOC.OCNIdleState = TIM_OCNIDLESTATE_RESET;
 800245a:	2300      	movs	r3, #0
 800245c:	64bb      	str	r3, [r7, #72]	; 0x48
  if (HAL_TIM_PWM_ConfigChannel(&htim8, &sConfigOC, TIM_CHANNEL_4) != HAL_OK)
 800245e:	f107 0330 	add.w	r3, r7, #48	; 0x30
 8002462:	220c      	movs	r2, #12
 8002464:	4619      	mov	r1, r3
 8002466:	4818      	ldr	r0, [pc, #96]	; (80024c8 <MX_TIM8_Init+0x14c>)
 8002468:	f008 fb82 	bl	800ab70 <HAL_TIM_PWM_ConfigChannel>
 800246c:	4603      	mov	r3, r0
 800246e:	2b00      	cmp	r3, #0
 8002470:	d001      	beq.n	8002476 <MX_TIM8_Init+0xfa>
  {
    Error_Handler();
 8002472:	f001 f99b 	bl	80037ac <Error_Handler>
  }
  sBreakDeadTimeConfig.OffStateRunMode = TIM_OSSR_DISABLE;
 8002476:	2300      	movs	r3, #0
 8002478:	607b      	str	r3, [r7, #4]
  sBreakDeadTimeConfig.OffStateIDLEMode = TIM_OSSI_DISABLE;
 800247a:	2300      	movs	r3, #0
 800247c:	60bb      	str	r3, [r7, #8]
  sBreakDeadTimeConfig.LockLevel = TIM_LOCKLEVEL_OFF;
 800247e:	2300      	movs	r3, #0
 8002480:	60fb      	str	r3, [r7, #12]
  sBreakDeadTimeConfig.DeadTime = 0;
 8002482:	2300      	movs	r3, #0
 8002484:	613b      	str	r3, [r7, #16]
  sBreakDeadTimeConfig.BreakState = TIM_BREAK_DISABLE;
 8002486:	2300      	movs	r3, #0
 8002488:	617b      	str	r3, [r7, #20]
  sBreakDeadTimeConfig.BreakPolarity = TIM_BREAKPOLARITY_HIGH;
 800248a:	f44f 5300 	mov.w	r3, #8192	; 0x2000
 800248e:	61bb      	str	r3, [r7, #24]
  sBreakDeadTimeConfig.BreakFilter = 0;
 8002490:	2300      	movs	r3, #0
 8002492:	61fb      	str	r3, [r7, #28]
  sBreakDeadTimeConfig.Break2State = TIM_BREAK2_DISABLE;
 8002494:	2300      	movs	r3, #0
 8002496:	623b      	str	r3, [r7, #32]
  sBreakDeadTimeConfig.Break2Polarity = TIM_BREAK2POLARITY_HIGH;
 8002498:	f04f 7300 	mov.w	r3, #33554432	; 0x2000000
 800249c:	627b      	str	r3, [r7, #36]	; 0x24
  sBreakDeadTimeConfig.Break2Filter = 0;
 800249e:	2300      	movs	r3, #0
 80024a0:	62bb      	str	r3, [r7, #40]	; 0x28
  sBreakDeadTimeConfig.AutomaticOutput = TIM_AUTOMATICOUTPUT_DISABLE;
 80024a2:	2300      	movs	r3, #0
 80024a4:	62fb      	str	r3, [r7, #44]	; 0x2c
  if (HAL_TIMEx_ConfigBreakDeadTime(&htim8, &sBreakDeadTimeConfig) != HAL_OK)
 80024a6:	1d3b      	adds	r3, r7, #4
 80024a8:	4619      	mov	r1, r3
 80024aa:	4807      	ldr	r0, [pc, #28]	; (80024c8 <MX_TIM8_Init+0x14c>)
 80024ac:	f009 fa4a 	bl	800b944 <HAL_TIMEx_ConfigBreakDeadTime>
 80024b0:	4603      	mov	r3, r0
 80024b2:	2b00      	cmp	r3, #0
 80024b4:	d001      	beq.n	80024ba <MX_TIM8_Init+0x13e>
  {
    Error_Handler();
 80024b6:	f001 f979 	bl	80037ac <Error_Handler>
  }
  /* USER CODE BEGIN TIM8_Init 2 */

  /* USER CODE END TIM8_Init 2 */
  HAL_TIM_MspPostInit(&htim8);
 80024ba:	4803      	ldr	r0, [pc, #12]	; (80024c8 <MX_TIM8_Init+0x14c>)
 80024bc:	f003 faee 	bl	8005a9c <HAL_TIM_MspPostInit>

}
 80024c0:	bf00      	nop
 80024c2:	3768      	adds	r7, #104	; 0x68
 80024c4:	46bd      	mov	sp, r7
 80024c6:	bd80      	pop	{r7, pc}
 80024c8:	2000876c 	.word	0x2000876c
 80024cc:	40010400 	.word	0x40010400

080024d0 <MX_UART7_Init>:
  * @brief UART7 Initialization Function
  * @param None
  * @retval None
  */
static void MX_UART7_Init(void)
{
 80024d0:	b580      	push	{r7, lr}
 80024d2:	af00      	add	r7, sp, #0
  /* USER CODE END UART7_Init 0 */

  /* USER CODE BEGIN UART7_Init 1 */

  /* USER CODE END UART7_Init 1 */
  huart7.Instance = UART7;
 80024d4:	4b14      	ldr	r3, [pc, #80]	; (8002528 <MX_UART7_Init+0x58>)
 80024d6:	4a15      	ldr	r2, [pc, #84]	; (800252c <MX_UART7_Init+0x5c>)
 80024d8:	601a      	str	r2, [r3, #0]
  huart7.Init.BaudRate = 115200;
 80024da:	4b13      	ldr	r3, [pc, #76]	; (8002528 <MX_UART7_Init+0x58>)
 80024dc:	f44f 32e1 	mov.w	r2, #115200	; 0x1c200
 80024e0:	605a      	str	r2, [r3, #4]
  huart7.Init.WordLength = UART_WORDLENGTH_8B;
 80024e2:	4b11      	ldr	r3, [pc, #68]	; (8002528 <MX_UART7_Init+0x58>)
 80024e4:	2200      	movs	r2, #0
 80024e6:	609a      	str	r2, [r3, #8]
  huart7.Init.StopBits = UART_STOPBITS_1;
 80024e8:	4b0f      	ldr	r3, [pc, #60]	; (8002528 <MX_UART7_Init+0x58>)
 80024ea:	2200      	movs	r2, #0
 80024ec:	60da      	str	r2, [r3, #12]
  huart7.Init.Parity = UART_PARITY_NONE;
 80024ee:	4b0e      	ldr	r3, [pc, #56]	; (8002528 <MX_UART7_Init+0x58>)
 80024f0:	2200      	movs	r2, #0
 80024f2:	611a      	str	r2, [r3, #16]
  huart7.Init.Mode = UART_MODE_TX_RX;
 80024f4:	4b0c      	ldr	r3, [pc, #48]	; (8002528 <MX_UART7_Init+0x58>)
 80024f6:	220c      	movs	r2, #12
 80024f8:	615a      	str	r2, [r3, #20]
  huart7.Init.HwFlowCtl = UART_HWCONTROL_NONE;
 80024fa:	4b0b      	ldr	r3, [pc, #44]	; (8002528 <MX_UART7_Init+0x58>)
 80024fc:	2200      	movs	r2, #0
 80024fe:	619a      	str	r2, [r3, #24]
  huart7.Init.OverSampling = UART_OVERSAMPLING_16;
 8002500:	4b09      	ldr	r3, [pc, #36]	; (8002528 <MX_UART7_Init+0x58>)
 8002502:	2200      	movs	r2, #0
 8002504:	61da      	str	r2, [r3, #28]
  huart7.Init.OneBitSampling = UART_ONE_BIT_SAMPLE_DISABLE;
 8002506:	4b08      	ldr	r3, [pc, #32]	; (8002528 <MX_UART7_Init+0x58>)
 8002508:	2200      	movs	r2, #0
 800250a:	621a      	str	r2, [r3, #32]
  huart7.AdvancedInit.AdvFeatureInit = UART_ADVFEATURE_NO_INIT;
 800250c:	4b06      	ldr	r3, [pc, #24]	; (8002528 <MX_UART7_Init+0x58>)
 800250e:	2200      	movs	r2, #0
 8002510:	625a      	str	r2, [r3, #36]	; 0x24
  if (HAL_UART_Init(&huart7) != HAL_OK)
 8002512:	4805      	ldr	r0, [pc, #20]	; (8002528 <MX_UART7_Init+0x58>)
 8002514:	f009 fab2 	bl	800ba7c <HAL_UART_Init>
 8002518:	4603      	mov	r3, r0
 800251a:	2b00      	cmp	r3, #0
 800251c:	d001      	beq.n	8002522 <MX_UART7_Init+0x52>
  {
    Error_Handler();
 800251e:	f001 f945 	bl	80037ac <Error_Handler>
  }
  /* USER CODE BEGIN UART7_Init 2 */

  /* USER CODE END UART7_Init 2 */

}
 8002522:	bf00      	nop
 8002524:	bd80      	pop	{r7, pc}
 8002526:	bf00      	nop
 8002528:	200086ec 	.word	0x200086ec
 800252c:	40007800 	.word	0x40007800

08002530 <MX_USART1_UART_Init>:
  * @brief USART1 Initialization Function
  * @param None
  * @retval None
  */
static void MX_USART1_UART_Init(void)
{
 8002530:	b580      	push	{r7, lr}
 8002532:	af00      	add	r7, sp, #0
  /* USER CODE END USART1_Init 0 */

  /* USER CODE BEGIN USART1_Init 1 */

  /* USER CODE END USART1_Init 1 */
  huart1.Instance = USART1;
 8002534:	4b14      	ldr	r3, [pc, #80]	; (8002588 <MX_USART1_UART_Init+0x58>)
 8002536:	4a15      	ldr	r2, [pc, #84]	; (800258c <MX_USART1_UART_Init+0x5c>)
 8002538:	601a      	str	r2, [r3, #0]
  huart1.Init.BaudRate = 115200;
 800253a:	4b13      	ldr	r3, [pc, #76]	; (8002588 <MX_USART1_UART_Init+0x58>)
 800253c:	f44f 32e1 	mov.w	r2, #115200	; 0x1c200
 8002540:	605a      	str	r2, [r3, #4]
  huart1.Init.WordLength = UART_WORDLENGTH_8B;
 8002542:	4b11      	ldr	r3, [pc, #68]	; (8002588 <MX_USART1_UART_Init+0x58>)
 8002544:	2200      	movs	r2, #0
 8002546:	609a      	str	r2, [r3, #8]
  huart1.Init.StopBits = UART_STOPBITS_1;
 8002548:	4b0f      	ldr	r3, [pc, #60]	; (8002588 <MX_USART1_UART_Init+0x58>)
 800254a:	2200      	movs	r2, #0
 800254c:	60da      	str	r2, [r3, #12]
  huart1.Init.Parity = UART_PARITY_NONE;
 800254e:	4b0e      	ldr	r3, [pc, #56]	; (8002588 <MX_USART1_UART_Init+0x58>)
 8002550:	2200      	movs	r2, #0
 8002552:	611a      	str	r2, [r3, #16]
  huart1.Init.Mode = UART_MODE_TX_RX;
 8002554:	4b0c      	ldr	r3, [pc, #48]	; (8002588 <MX_USART1_UART_Init+0x58>)
 8002556:	220c      	movs	r2, #12
