Archive member included to satisfy reference by file (symbol)

c:/st/stm32cubeide_1.5.1/stm32cubeide/plugins/com.st.stm32cube.ide.mcu.externaltools.gnu-tools-for-stm32.7-2018-q2-update.win32_1.5.0.202011040924/tools/bin/../lib/gcc/arm-none-eabi/7.3.1/../../../../arm-none-eabi/lib/thumb/v7e-m/fpv4-sp/hard\libc_nano.a(lib_a-errno.o)
                              Core/Src/syscalls.o (__errno)
c:/st/stm32cubeide_1.5.1/stm32cubeide/plugins/com.st.stm32cube.ide.mcu.externaltools.gnu-tools-for-stm32.7-2018-q2-update.win32_1.5.0.202011040924/tools/bin/../lib/gcc/arm-none-eabi/7.3.1/../../../../arm-none-eabi/lib/thumb/v7e-m/fpv4-sp/hard\libc_nano.a(lib_a-exit.o)
                              c:/st/stm32cubeide_1.5.1/stm32cubeide/plugins/com.st.stm32cube.ide.mcu.externaltools.gnu-tools-for-stm32.7-2018-q2-update.win32_1.5.0.202011040924/tools/bin/../lib/gcc/arm-none-eabi/7.3.1/../../../../arm-none-eabi/lib/thumb/v7e-m/fpv4-sp/hard/crt0.o (exit)
c:/st/stm32cubeide_1.5.1/stm32cubeide/plugins/com.st.stm32cube.ide.mcu.externaltools.gnu-tools-for-stm32.7-2018-q2-update.win32_1.5.0.202011040924/tools/bin/../lib/gcc/arm-none-eabi/7.3.1/../../../../arm-none-eabi/lib/thumb/v7e-m/fpv4-sp/hard\libc_nano.a(lib_a-impure.o)
                              c:/st/stm32cubeide_1.5.1/stm32cubeide/plugins/com.st.stm32cube.ide.mcu.externaltools.gnu-tools-for-stm32.7-2018-q2-update.win32_1.5.0.202011040924/tools/bin/../lib/gcc/arm-none-eabi/7.3.1/../../../../arm-none-eabi/lib/thumb/v7e-m/fpv4-sp/hard\libc_nano.a(lib_a-exit.o) (_global_impure_ptr)
c:/st/stm32cubeide_1.5.1/stm32cubeide/plugins/com.st.stm32cube.ide.mcu.externaltools.gnu-tools-for-stm32.7-2018-q2-update.win32_1.5.0.202011040924/tools/bin/../lib/gcc/arm-none-eabi/7.3.1/../../../../arm-none-eabi/lib/thumb/v7e-m/fpv4-sp/hard\libc_nano.a(lib_a-init.o)
                              c:/st/stm32cubeide_1.5.1/stm32cubeide/plugins/com.st.stm32cube.ide.mcu.externaltools.gnu-tools-for-stm32.7-2018-q2-update.win32_1.5.0.202011040924/tools/bin/../lib/gcc/arm-none-eabi/7.3.1/../../../../arm-none-eabi/lib/thumb/v7e-m/fpv4-sp/hard/crt0.o (__libc_init_array)
c:/st/stm32cubeide_1.5.1/stm32cubeide/plugins/com.st.stm32cube.ide.mcu.externaltools.gnu-tools-for-stm32.7-2018-q2-update.win32_1.5.0.202011040924/tools/bin/../lib/gcc/arm-none-eabi/7.3.1/../../../../arm-none-eabi/lib/thumb/v7e-m/fpv4-sp/hard\libc_nano.a(lib_a-memcpy-stub.o)
                              Middlewares/Third_Party/FreeRTOS/Source/queue.o (memcpy)
c:/st/stm32cubeide_1.5.1/stm32cubeide/plugins/com.st.stm32cube.ide.mcu.externaltools.gnu-tools-for-stm32.7-2018-q2-update.win32_1.5.0.202011040924/tools/bin/../lib/gcc/arm-none-eabi/7.3.1/../../../../arm-none-eabi/lib/thumb/v7e-m/fpv4-sp/hard\libc_nano.a(lib_a-memset.o)
                              c:/st/stm32cubeide_1.5.1/stm32cubeide/plugins/com.st.stm32cube.ide.mcu.externaltools.gnu-tools-for-stm32.7-2018-q2-update.win32_1.5.0.202011040924/tools/bin/../lib/gcc/arm-none-eabi/7.3.1/../../../../arm-none-eabi/lib/thumb/v7e-m/fpv4-sp/hard/crt0.o (memset)
c:/st/stm32cubeide_1.5.1/stm32cubeide/plugins/com.st.stm32cube.ide.mcu.externaltools.gnu-tools-for-stm32.7-2018-q2-update.win32_1.5.0.202011040924/tools/bin/../lib/gcc/arm-none-eabi/7.3.1/../../../../arm-none-eabi/lib/thumb/v7e-m/fpv4-sp/hard\libm.a(lib_a-s_cos.o)
                              Core/Src/main.o (cos)
c:/st/stm32cubeide_1.5.1/stm32cubeide/plugins/com.st.stm32cube.ide.mcu.externaltools.gnu-tools-for-stm32.7-2018-q2-update.win32_1.5.0.202011040924/tools/bin/../lib/gcc/arm-none-eabi/7.3.1/../../../../arm-none-eabi/lib/thumb/v7e-m/fpv4-sp/hard\libm.a(lib_a-s_sin.o)
                              Core/Src/main.o (sin)
c:/st/stm32cubeide_1.5.1/stm32cubeide/plugins/com.st.stm32cube.ide.mcu.externaltools.gnu-tools-for-stm32.7-2018-q2-update.win32_1.5.0.202011040924/tools/bin/../lib/gcc/arm-none-eabi/7.3.1/../../../../arm-none-eabi/lib/thumb/v7e-m/fpv4-sp/hard\libm.a(lib_a-e_rem_pio2.o)
                              c:/st/stm32cubeide_1.5.1/stm32cubeide/plugins/com.st.stm32cube.ide.mcu.externaltools.gnu-tools-for-stm32.7-2018-q2-update.win32_1.5.0.202011040924/tools/bin/../lib/gcc/arm-none-eabi/7.3.1/../../../../arm-none-eabi/lib/thumb/v7e-m/fpv4-sp/hard\libm.a(lib_a-s_cos.o) (__ieee754_rem_pio2)
c:/st/stm32cubeide_1.5.1/stm32cubeide/plugins/com.st.stm32cube.ide.mcu.externaltools.gnu-tools-for-stm32.7-2018-q2-update.win32_1.5.0.202011040924/tools/bin/../lib/gcc/arm-none-eabi/7.3.1/../../../../arm-none-eabi/lib/thumb/v7e-m/fpv4-sp/hard\libm.a(lib_a-k_cos.o)
                              c:/st/stm32cubeide_1.5.1/stm32cubeide/plugins/com.st.stm32cube.ide.mcu.externaltools.gnu-tools-for-stm32.7-2018-q2-update.win32_1.5.0.202011040924/tools/bin/../lib/gcc/arm-none-eabi/7.3.1/../../../../arm-none-eabi/lib/thumb/v7e-m/fpv4-sp/hard\libm.a(lib_a-s_cos.o) (__kernel_cos)
c:/st/stm32cubeide_1.5.1/stm32cubeide/plugins/com.st.stm32cube.ide.mcu.externaltools.gnu-tools-for-stm32.7-2018-q2-update.win32_1.5.0.202011040924/tools/bin/../lib/gcc/arm-none-eabi/7.3.1/../../../../arm-none-eabi/lib/thumb/v7e-m/fpv4-sp/hard\libm.a(lib_a-k_rem_pio2.o)
                              c:/st/stm32cubeide_1.5.1/stm32cubeide/plugins/com.st.stm32cube.ide.mcu.externaltools.gnu-tools-for-stm32.7-2018-q2-update.win32_1.5.0.202011040924/tools/bin/../lib/gcc/arm-none-eabi/7.3.1/../../../../arm-none-eabi/lib/thumb/v7e-m/fpv4-sp/hard\libm.a(lib_a-e_rem_pio2.o) (__kernel_rem_pio2)
c:/st/stm32cubeide_1.5.1/stm32cubeide/plugins/com.st.stm32cube.ide.mcu.externaltools.gnu-tools-for-stm32.7-2018-q2-update.win32_1.5.0.202011040924/tools/bin/../lib/gcc/arm-none-eabi/7.3.1/../../../../arm-none-eabi/lib/thumb/v7e-m/fpv4-sp/hard\libm.a(lib_a-k_sin.o)
                              c:/st/stm32cubeide_1.5.1/stm32cubeide/plugins/com.st.stm32cube.ide.mcu.externaltools.gnu-tools-for-stm32.7-2018-q2-update.win32_1.5.0.202011040924/tools/bin/../lib/gcc/arm-none-eabi/7.3.1/../../../../arm-none-eabi/lib/thumb/v7e-m/fpv4-sp/hard\libm.a(lib_a-s_cos.o) (__kernel_sin)
c:/st/stm32cubeide_1.5.1/stm32cubeide/plugins/com.st.stm32cube.ide.mcu.externaltools.gnu-tools-for-stm32.7-2018-q2-update.win32_1.5.0.202011040924/tools/bin/../lib/gcc/arm-none-eabi/7.3.1/../../../../arm-none-eabi/lib/thumb/v7e-m/fpv4-sp/hard\libm.a(lib_a-s_fabs.o)
                              c:/st/stm32cubeide_1.5.1/stm32cubeide/plugins/com.st.stm32cube.ide.mcu.externaltools.gnu-tools-for-stm32.7-2018-q2-update.win32_1.5.0.202011040924/tools/bin/../lib/gcc/arm-none-eabi/7.3.1/../../../../arm-none-eabi/lib/thumb/v7e-m/fpv4-sp/hard\libm.a(lib_a-e_rem_pio2.o) (fabs)
c:/st/stm32cubeide_1.5.1/stm32cubeide/plugins/com.st.stm32cube.ide.mcu.externaltools.gnu-tools-for-stm32.7-2018-q2-update.win32_1.5.0.202011040924/tools/bin/../lib/gcc/arm-none-eabi/7.3.1/../../../../arm-none-eabi/lib/thumb/v7e-m/fpv4-sp/hard\libm.a(lib_a-s_floor.o)
                              c:/st/stm32cubeide_1.5.1/stm32cubeide/plugins/com.st.stm32cube.ide.mcu.externaltools.gnu-tools-for-stm32.7-2018-q2-update.win32_1.5.0.202011040924/tools/bin/../lib/gcc/arm-none-eabi/7.3.1/../../../../arm-none-eabi/lib/thumb/v7e-m/fpv4-sp/hard\libm.a(lib_a-k_rem_pio2.o) (floor)
c:/st/stm32cubeide_1.5.1/stm32cubeide/plugins/com.st.stm32cube.ide.mcu.externaltools.gnu-tools-for-stm32.7-2018-q2-update.win32_1.5.0.202011040924/tools/bin/../lib/gcc/arm-none-eabi/7.3.1/../../../../arm-none-eabi/lib/thumb/v7e-m/fpv4-sp/hard\libm.a(lib_a-s_scalbn.o)
                              c:/st/stm32cubeide_1.5.1/stm32cubeide/plugins/com.st.stm32cube.ide.mcu.externaltools.gnu-tools-for-stm32.7-2018-q2-update.win32_1.5.0.202011040924/tools/bin/../lib/gcc/arm-none-eabi/7.3.1/../../../../arm-none-eabi/lib/thumb/v7e-m/fpv4-sp/hard\libm.a(lib_a-k_rem_pio2.o) (scalbn)
c:/st/stm32cubeide_1.5.1/stm32cubeide/plugins/com.st.stm32cube.ide.mcu.externaltools.gnu-tools-for-stm32.7-2018-q2-update.win32_1.5.0.202011040924/tools/bin/../lib/gcc/arm-none-eabi/7.3.1/../../../../arm-none-eabi/lib/thumb/v7e-m/fpv4-sp/hard\libm.a(lib_a-s_copysign.o)
                              c:/st/stm32cubeide_1.5.1/stm32cubeide/plugins/com.st.stm32cube.ide.mcu.externaltools.gnu-tools-for-stm32.7-2018-q2-update.win32_1.5.0.202011040924/tools/bin/../lib/gcc/arm-none-eabi/7.3.1/../../../../arm-none-eabi/lib/thumb/v7e-m/fpv4-sp/hard\libm.a(lib_a-s_scalbn.o) (copysign)
c:/st/stm32cubeide_1.5.1/stm32cubeide/plugins/com.st.stm32cube.ide.mcu.externaltools.gnu-tools-for-stm32.7-2018-q2-update.win32_1.5.0.202011040924/tools/bin/../lib/gcc/arm-none-eabi/7.3.1/thumb/v7e-m/fpv4-sp/hard\libgcc.a(_arm_addsubdf3.o)
                              Core/Src/main.o (__aeabi_dsub)
c:/st/stm32cubeide_1.5.1/stm32cubeide/plugins/com.st.stm32cube.ide.mcu.externaltools.gnu-tools-for-stm32.7-2018-q2-update.win32_1.5.0.202011040924/tools/bin/../lib/gcc/arm-none-eabi/7.3.1/thumb/v7e-m/fpv4-sp/hard\libgcc.a(_arm_muldivdf3.o)
                              Core/Src/main.o (__aeabi_dmul)
c:/st/stm32cubeide_1.5.1/stm32cubeide/plugins/com.st.stm32cube.ide.mcu.externaltools.gnu-tools-for-stm32.7-2018-q2-update.win32_1.5.0.202011040924/tools/bin/../lib/gcc/arm-none-eabi/7.3.1/thumb/v7e-m/fpv4-sp/hard\libgcc.a(_arm_cmpdf2.o)
                              c:/st/stm32cubeide_1.5.1/stm32cubeide/plugins/com.st.stm32cube.ide.mcu.externaltools.gnu-tools-for-stm32.7-2018-q2-update.win32_1.5.0.202011040924/tools/bin/../lib/gcc/arm-none-eabi/7.3.1/../../../../arm-none-eabi/lib/thumb/v7e-m/fpv4-sp/hard\libm.a(lib_a-e_rem_pio2.o) (__aeabi_dcmpeq)
c:/st/stm32cubeide_1.5.1/stm32cubeide/plugins/com.st.stm32cube.ide.mcu.externaltools.gnu-tools-for-stm32.7-2018-q2-update.win32_1.5.0.202011040924/tools/bin/../lib/gcc/arm-none-eabi/7.3.1/thumb/v7e-m/fpv4-sp/hard\libgcc.a(_arm_fixdfsi.o)
                              Core/Src/main.o (__aeabi_d2iz)
c:/st/stm32cubeide_1.5.1/stm32cubeide/plugins/com.st.stm32cube.ide.mcu.externaltools.gnu-tools-for-stm32.7-2018-q2-update.win32_1.5.0.202011040924/tools/bin/../lib/gcc/arm-none-eabi/7.3.1/thumb/v7e-m/fpv4-sp/hard\libgcc.a(_arm_fixunsdfsi.o)
                              Core/Src/main.o (__aeabi_d2uiz)
c:/st/stm32cubeide_1.5.1/stm32cubeide/plugins/com.st.stm32cube.ide.mcu.externaltools.gnu-tools-for-stm32.7-2018-q2-update.win32_1.5.0.202011040924/tools/bin/../lib/gcc/arm-none-eabi/7.3.1/thumb/v7e-m/fpv4-sp/hard\libgcc.a(_aeabi_uldivmod.o)
                              Drivers/STM32F7xx_HAL_Driver/Src/stm32f7xx_hal_rcc.o (__aeabi_uldivmod)
c:/st/stm32cubeide_1.5.1/stm32cubeide/plugins/com.st.stm32cube.ide.mcu.externaltools.gnu-tools-for-stm32.7-2018-q2-update.win32_1.5.0.202011040924/tools/bin/../lib/gcc/arm-none-eabi/7.3.1/thumb/v7e-m/fpv4-sp/hard\libgcc.a(_udivmoddi4.o)
                              c:/st/stm32cubeide_1.5.1/stm32cubeide/plugins/com.st.stm32cube.ide.mcu.externaltools.gnu-tools-for-stm32.7-2018-q2-update.win32_1.5.0.202011040924/tools/bin/../lib/gcc/arm-none-eabi/7.3.1/thumb/v7e-m/fpv4-sp/hard\libgcc.a(_aeabi_uldivmod.o) (__udivmoddi4)
c:/st/stm32cubeide_1.5.1/stm32cubeide/plugins/com.st.stm32cube.ide.mcu.externaltools.gnu-tools-for-stm32.7-2018-q2-update.win32_1.5.0.202011040924/tools/bin/../lib/gcc/arm-none-eabi/7.3.1/thumb/v7e-m/fpv4-sp/hard\libgcc.a(_dvmd_tls.o)
                              c:/st/stm32cubeide_1.5.1/stm32cubeide/plugins/com.st.stm32cube.ide.mcu.externaltools.gnu-tools-for-stm32.7-2018-q2-update.win32_1.5.0.202011040924/tools/bin/../lib/gcc/arm-none-eabi/7.3.1/thumb/v7e-m/fpv4-sp/hard\libgcc.a(_aeabi_uldivmod.o) (__aeabi_ldiv0)

Allocating common symbols
Common symbol       size              file

sdramHandle         0x34              Core/Src/stm32746g_discovery_sdram.o
defaultTaskHandle   0x4               Core/Src/main.o
hi2c3               0x4c              Core/Src/main.o
LancerBalleHandle   0x4               Core/Src/main.o
hspi2               0x64              Core/Src/main.o
huart7              0x80              Core/Src/main.o
htim8               0x40              Core/Src/main.o
hi2c1               0x4c              Core/Src/main.o
hLtdcHandler        0xa8              Core/Src/stm32746g_discovery_lcd.o
uwTick              0x4               Drivers/STM32F7xx_HAL_Driver/Src/stm32f7xx_hal.o
xQueueRegistry      0x40              Middlewares/Third_Party/FreeRTOS/Source/queue.o
pFlash              0x1c              Drivers/STM32F7xx_HAL_Driver/Src/stm32f7xx_hal_flash.o
htim5               0x40              Core/Src/main.o
htim3               0x40              Core/Src/main.o
hltdc               0xa8              Core/Src/main.o
QueueCommHandle     0x4               Core/Src/main.o
CommHandle          0x4               Core/Src/main.o
hadc1               0x48              Core/Src/main.o
hadc3               0x48              Core/Src/main.o
huart1              0x80              Core/Src/main.o
hdac                0x14              Core/Src/main.o
CalcEtAffichHandle  0x4               Core/Src/main.o
hrtc                0x20              Core/Src/main.o
htim6               0x40              Core/Src/stm32f7xx_hal_timebase_tim.o
htim1               0x40              Core/Src/main.o
huart6              0x80              Core/Src/main.o
LancerCalculHandle  0x4               Core/Src/main.o
hdma2d              0x40              Core/Src/main.o
htim2               0x40              Core/Src/main.o
hsdram1             0x34              Core/Src/main.o
rxbuffer            0x8               Core/Src/main.o

Discarded input sections

 .text          0x0000000000000000        0x0 c:/st/stm32cubeide_1.5.1/stm32cubeide/plugins/com.st.stm32cube.ide.mcu.externaltools.gnu-tools-for-stm32.7-2018-q2-update.win32_1.5.0.202011040924/tools/bin/../lib/gcc/arm-none-eabi/7.3.1/thumb/v7e-m/fpv4-sp/hard/crti.o
 .data          0x0000000000000000        0x0 c:/st/stm32cubeide_1.5.1/stm32cubeide/plugins/com.st.stm32cube.ide.mcu.externaltools.gnu-tools-for-stm32.7-2018-q2-update.win32_1.5.0.202011040924/tools/bin/../lib/gcc/arm-none-eabi/7.3.1/thumb/v7e-m/fpv4-sp/hard/crti.o
 .bss           0x0000000000000000        0x0 c:/st/stm32cubeide_1.5.1/stm32cubeide/plugins/com.st.stm32cube.ide.mcu.externaltools.gnu-tools-for-stm32.7-2018-q2-update.win32_1.5.0.202011040924/tools/bin/../lib/gcc/arm-none-eabi/7.3.1/thumb/v7e-m/fpv4-sp/hard/crti.o
 .data          0x0000000000000000        0x4 c:/st/stm32cubeide_1.5.1/stm32cubeide/plugins/com.st.stm32cube.ide.mcu.externaltools.gnu-tools-for-stm32.7-2018-q2-update.win32_1.5.0.202011040924/tools/bin/../lib/gcc/arm-none-eabi/7.3.1/thumb/v7e-m/fpv4-sp/hard/crtbegin.o
 .text          0x0000000000000000       0x74 c:/st/stm32cubeide_1.5.1/stm32cubeide/plugins/com.st.stm32cube.ide.mcu.externaltools.gnu-tools-for-stm32.7-2018-q2-update.win32_1.5.0.202011040924/tools/bin/../lib/gcc/arm-none-eabi/7.3.1/../../../../arm-none-eabi/lib/thumb/v7e-m/fpv4-sp/hard/crt0.o
 .data          0x0000000000000000        0x0 c:/st/stm32cubeide_1.5.1/stm32cubeide/plugins/com.st.stm32cube.ide.mcu.externaltools.gnu-tools-for-stm32.7-2018-q2-update.win32_1.5.0.202011040924/tools/bin/../lib/gcc/arm-none-eabi/7.3.1/../../../../arm-none-eabi/lib/thumb/v7e-m/fpv4-sp/hard/crt0.o
 .bss           0x0000000000000000        0x0 c:/st/stm32cubeide_1.5.1/stm32cubeide/plugins/com.st.stm32cube.ide.mcu.externaltools.gnu-tools-for-stm32.7-2018-q2-update.win32_1.5.0.202011040924/tools/bin/../lib/gcc/arm-none-eabi/7.3.1/../../../../arm-none-eabi/lib/thumb/v7e-m/fpv4-sp/hard/crt0.o
 .ARM.extab     0x0000000000000000        0x0 c:/st/stm32cubeide_1.5.1/stm32cubeide/plugins/com.st.stm32cube.ide.mcu.externaltools.gnu-tools-for-stm32.7-2018-q2-update.win32_1.5.0.202011040924/tools/bin/../lib/gcc/arm-none-eabi/7.3.1/../../../../arm-none-eabi/lib/thumb/v7e-m/fpv4-sp/hard/crt0.o
 .ARM.exidx     0x0000000000000000        0x8 c:/st/stm32cubeide_1.5.1/stm32cubeide/plugins/com.st.stm32cube.ide.mcu.externaltools.gnu-tools-for-stm32.7-2018-q2-update.win32_1.5.0.202011040924/tools/bin/../lib/gcc/arm-none-eabi/7.3.1/../../../../arm-none-eabi/lib/thumb/v7e-m/fpv4-sp/hard/crt0.o
 .ARM.attributes
                0x0000000000000000       0x20 c:/st/stm32cubeide_1.5.1/stm32cubeide/plugins/com.st.stm32cube.ide.mcu.externaltools.gnu-tools-for-stm32.7-2018-q2-update.win32_1.5.0.202011040924/tools/bin/../lib/gcc/arm-none-eabi/7.3.1/../../../../arm-none-eabi/lib/thumb/v7e-m/fpv4-sp/hard/crt0.o
 .group         0x0000000000000000        0xc Core/Src/freertos.o
 .group         0x0000000000000000        0xc Core/Src/freertos.o
 .group         0x0000000000000000        0xc Core/Src/freertos.o
 .group         0x0000000000000000        0xc Core/Src/freertos.o
 .group         0x0000000000000000        0xc Core/Src/freertos.o
 .group         0x0000000000000000        0xc Core/Src/freertos.o
 .group         0x0000000000000000        0xc Core/Src/freertos.o
Memory Configuration

Name             Origin             Length             Attributes
RAM              0x0000000020000000 0x0000000000050000 xrw
FLASH            0x0000000008000000 0x0000000000100000 xr
*default*        0x0000000000000000 0xffffffffffffffff

Linker script and memory map

LOAD c:/st/stm32cubeide_1.5.1/stm32cubeide/plugins/com.st.stm32cube.ide.mcu.externaltools.gnu-tools-for-stm32.7-2018-q2-update.win32_1.5.0.202011040924/tools/bin/../lib/gcc/arm-none-eabi/7.3.1/thumb/v7e-m/fpv4-sp/hard/crti.o
LOAD c:/st/stm32cubeide_1.5.1/stm32cubeide/plugins/com.st.stm32cube.ide.mcu.externaltools.gnu-tools-for-stm32.7-2018-q2-update.win32_1.5.0.202011040924/tools/bin/../lib/gcc/arm-none-eabi/7.3.1/thumb/v7e-m/fpv4-sp/hard/crtbegin.o
LOAD c:/st/stm32cubeide_1.5.1/stm32cubeide/plugins/com.st.stm32cube.ide.mcu.externaltools.gnu-tools-for-stm32.7-2018-q2-update.win32_1.5.0.202011040924/tools/bin/../lib/gcc/arm-none-eabi/7.3.1/../../../../arm-none-eabi/lib/thumb/v7e-m/fpv4-sp/hard/crt0.o
LOAD Core/Src/freertos.o
LOAD Core/Src/ft5336.o
LOAD Core/Src/main.o
LOAD Core/Src/stm32746g_discovery.o
LOAD Core/Src/stm32746g_discovery_lcd.o
LOAD Core/Src/stm32746g_discovery_sdram.o
LOAD Core/Src/stm32746g_discovery_ts.o
LOAD Core/Src/stm32f7xx_hal_msp.o
LOAD Core/Src/stm32f7xx_hal_timebase_tim.o
LOAD Core/Src/stm32f7xx_it.o
LOAD Core/Src/syscalls.o
LOAD Core/Src/sysmem.o
LOAD Core/Src/system_stm32f7xx.o
LOAD Core/Startup/startup_stm32f746nghx.o
LOAD Drivers/STM32F7xx_HAL_Driver/Src/stm32f7xx_hal.o
LOAD Drivers/STM32F7xx_HAL_Driver/Src/stm32f7xx_hal_adc.o
LOAD Drivers/STM32F7xx_HAL_Driver/Src/stm32f7xx_hal_adc_ex.o
LOAD Drivers/STM32F7xx_HAL_Driver/Src/stm32f7xx_hal_cortex.o
LOAD Drivers/STM32F7xx_HAL_Driver/Src/stm32f7xx_hal_dac.o
LOAD Drivers/STM32F7xx_HAL_Driver/Src/stm32f7xx_hal_dac_ex.o
LOAD Drivers/STM32F7xx_HAL_Driver/Src/stm32f7xx_hal_dma.o
LOAD Drivers/STM32F7xx_HAL_Driver/Src/stm32f7xx_hal_dma2d.o
LOAD Drivers/STM32F7xx_HAL_Driver/Src/stm32f7xx_hal_dma_ex.o
LOAD Drivers/STM32F7xx_HAL_Driver/Src/stm32f7xx_hal_dsi.o
LOAD Drivers/STM32F7xx_HAL_Driver/Src/stm32f7xx_hal_exti.o
LOAD Drivers/STM32F7xx_HAL_Driver/Src/stm32f7xx_hal_flash.o
LOAD Drivers/STM32F7xx_HAL_Driver/Src/stm32f7xx_hal_flash_ex.o
LOAD Drivers/STM32F7xx_HAL_Driver/Src/stm32f7xx_hal_gpio.o
LOAD Drivers/STM32F7xx_HAL_Driver/Src/stm32f7xx_hal_i2c.o
LOAD Drivers/STM32F7xx_HAL_Driver/Src/stm32f7xx_hal_i2c_ex.o
LOAD Drivers/STM32F7xx_HAL_Driver/Src/stm32f7xx_hal_ltdc.o
LOAD Drivers/STM32F7xx_HAL_Driver/Src/stm32f7xx_hal_ltdc_ex.o
LOAD Drivers/STM32F7xx_HAL_Driver/Src/stm32f7xx_hal_pwr.o
LOAD Drivers/STM32F7xx_HAL_Driver/Src/stm32f7xx_hal_pwr_ex.o
LOAD Drivers/STM32F7xx_HAL_Driver/Src/stm32f7xx_hal_rcc.o
LOAD Drivers/STM32F7xx_HAL_Driver/Src/stm32f7xx_hal_rcc_ex.o
LOAD Drivers/STM32F7xx_HAL_Driver/Src/stm32f7xx_hal_rtc.o
LOAD Drivers/STM32F7xx_HAL_Driver/Src/stm32f7xx_hal_rtc_ex.o
LOAD Drivers/STM32F7xx_HAL_Driver/Src/stm32f7xx_hal_sdram.o
LOAD Drivers/STM32F7xx_HAL_Driver/Src/stm32f7xx_hal_spi.o
LOAD Drivers/STM32F7xx_HAL_Driver/Src/stm32f7xx_hal_spi_ex.o
LOAD Drivers/STM32F7xx_HAL_Driver/Src/stm32f7xx_hal_tim.o
LOAD Drivers/STM32F7xx_HAL_Driver/Src/stm32f7xx_hal_tim_ex.o
LOAD Drivers/STM32F7xx_HAL_Driver/Src/stm32f7xx_hal_uart.o
LOAD Drivers/STM32F7xx_HAL_Driver/Src/stm32f7xx_hal_uart_ex.o
LOAD Drivers/STM32F7xx_HAL_Driver/Src/stm32f7xx_ll_fmc.o
LOAD Middlewares/Third_Party/FreeRTOS/Source/CMSIS_RTOS/cmsis_os.o
LOAD Middlewares/Third_Party/FreeRTOS/Source/croutine.o
LOAD Middlewares/Third_Party/FreeRTOS/Source/event_groups.o
LOAD Middlewares/Third_Party/FreeRTOS/Source/list.o
LOAD Middlewares/Third_Party/FreeRTOS/Source/queue.o
LOAD Middlewares/Third_Party/FreeRTOS/Source/stream_buffer.o
LOAD Middlewares/Third_Party/FreeRTOS/Source/tasks.o
LOAD Middlewares/Third_Party/FreeRTOS/Source/timers.o
LOAD Middlewares/Third_Party/FreeRTOS/Source/portable/GCC/ARM_CM7/r0p1/port.o
LOAD Middlewares/Third_Party/FreeRTOS/Source/portable/MemMang/heap_4.o
START GROUP
LOAD c:/st/stm32cubeide_1.5.1/stm32cubeide/plugins/com.st.stm32cube.ide.mcu.externaltools.gnu-tools-for-stm32.7-2018-q2-update.win32_1.5.0.202011040924/tools/bin/../lib/gcc/arm-none-eabi/7.3.1/../../../../arm-none-eabi/lib/thumb/v7e-m/fpv4-sp/hard\libc_nano.a
LOAD c:/st/stm32cubeide_1.5.1/stm32cubeide/plugins/com.st.stm32cube.ide.mcu.externaltools.gnu-tools-for-stm32.7-2018-q2-update.win32_1.5.0.202011040924/tools/bin/../lib/gcc/arm-none-eabi/7.3.1/../../../../arm-none-eabi/lib/thumb/v7e-m/fpv4-sp/hard\libm.a
END GROUP
START GROUP
LOAD c:/st/stm32cubeide_1.5.1/stm32cubeide/plugins/com.st.stm32cube.ide.mcu.externaltools.gnu-tools-for-stm32.7-2018-q2-update.win32_1.5.0.202011040924/tools/bin/../lib/gcc/arm-none-eabi/7.3.1/thumb/v7e-m/fpv4-sp/hard\libgcc.a
LOAD c:/st/stm32cubeide_1.5.1/stm32cubeide/plugins/com.st.stm32cube.ide.mcu.externaltools.gnu-tools-for-stm32.7-2018-q2-update.win32_1.5.0.202011040924/tools/bin/../lib/gcc/arm-none-eabi/7.3.1/../../../../arm-none-eabi/lib/thumb/v7e-m/fpv4-sp/hard\libc_nano.a
END GROUP
START GROUP
LOAD c:/st/stm32cubeide_1.5.1/stm32cubeide/plugins/com.st.stm32cube.ide.mcu.externaltools.gnu-tools-for-stm32.7-2018-q2-update.win32_1.5.0.202011040924/tools/bin/../lib/gcc/arm-none-eabi/7.3.1/thumb/v7e-m/fpv4-sp/hard\libgcc.a
LOAD c:/st/stm32cubeide_1.5.1/stm32cubeide/plugins/com.st.stm32cube.ide.mcu.externaltools.gnu-tools-for-stm32.7-2018-q2-update.win32_1.5.0.202011040924/tools/bin/../lib/gcc/arm-none-eabi/7.3.1/../../../../arm-none-eabi/lib/thumb/v7e-m/fpv4-sp/hard\libc_nano.a
LOAD c:/st/stm32cubeide_1.5.1/stm32cubeide/plugins/com.st.stm32cube.ide.mcu.externaltools.gnu-tools-for-stm32.7-2018-q2-update.win32_1.5.0.202011040924/tools/bin/../lib/gcc/arm-none-eabi/7.3.1/../../../../arm-none-eabi/lib/thumb/v7e-m/fpv4-sp/hard\libnosys.a
END GROUP
START GROUP
LOAD c:/st/stm32cubeide_1.5.1/stm32cubeide/plugins/com.st.stm32cube.ide.mcu.externaltools.gnu-tools-for-stm32.7-2018-q2-update.win32_1.5.0.202011040924/tools/bin/../lib/gcc/arm-none-eabi/7.3.1/thumb/v7e-m/fpv4-sp/hard\libgcc.a
LOAD c:/st/stm32cubeide_1.5.1/stm32cubeide/plugins/com.st.stm32cube.ide.mcu.externaltools.gnu-tools-for-stm32.7-2018-q2-update.win32_1.5.0.202011040924/tools/bin/../lib/gcc/arm-none-eabi/7.3.1/../../../../arm-none-eabi/lib/thumb/v7e-m/fpv4-sp/hard\libc_nano.a
LOAD c:/st/stm32cubeide_1.5.1/stm32cubeide/plugins/com.st.stm32cube.ide.mcu.externaltools.gnu-tools-for-stm32.7-2018-q2-update.win32_1.5.0.202011040924/tools/bin/../lib/gcc/arm-none-eabi/7.3.1/../../../../arm-none-eabi/lib/thumb/v7e-m/fpv4-sp/hard\libnosys.a
END GROUP
LOAD c:/st/stm32cubeide_1.5.1/stm32cubeide/plugins/com.st.stm32cube.ide.mcu.externaltools.gnu-tools-for-stm32.7-2018-q2-update.win32_1.5.0.202011040924/tools/bin/../lib/gcc/arm-none-eabi/7.3.1/thumb/v7e-m/fpv4-sp/hard/crtend.o
LOAD c:/st/stm32cubeide_1.5.1/stm32cubeide/plugins/com.st.stm32cube.ide.mcu.externaltools.gnu-tools-for-stm32.7-2018-q2-update.win32_1.5.0.202011040924/tools/bin/../lib/gcc/arm-none-eabi/7.3.1/thumb/v7e-m/fpv4-sp/hard/crtn.o
                0x0000000020050000                _estack = (ORIGIN (RAM) + LENGTH (RAM))
                0x0000000000000200                _Min_Heap_Size = 0x200
                0x0000000000000400                _Min_Stack_Size = 0x400

.isr_vector     0x0000000008000000      0x1c8
                0x0000000008000000                . = ALIGN (0x4)
 *(.isr_vector)
 .isr_vector    0x0000000008000000      0x1c8 Core/Startup/startup_stm32f746nghx.o
                0x0000000008000000                g_pfnVectors
                0x00000000080001c8                . = ALIGN (0x4)

.text           0x00000000080001d0    0x1029c
                0x00000000080001d0                . = ALIGN (0x4)
 *(.text)
 .text          0x00000000080001d0       0x40 c:/st/stm32cubeide_1.5.1/stm32cubeide/plugins/com.st.stm32cube.ide.mcu.externaltools.gnu-tools-for-stm32.7-2018-q2-update.win32_1.5.0.202011040924/tools/bin/../lib/gcc/arm-none-eabi/7.3.1/thumb/v7e-m/fpv4-sp/hard/crtbegin.o
 .text          0x0000000008000210      0x378 c:/st/stm32cubeide_1.5.1/stm32cubeide/plugins/com.st.stm32cube.ide.mcu.externaltools.gnu-tools-for-stm32.7-2018-q2-update.win32_1.5.0.202011040924/tools/bin/../lib/gcc/arm-none-eabi/7.3.1/thumb/v7e-m/fpv4-sp/hard\libgcc.a(_arm_addsubdf3.o)
                0x0000000008000210                __aeabi_drsub
                0x0000000008000218                __aeabi_dsub
                0x0000000008000218                __subdf3
                0x000000000800021c                __aeabi_dadd
                0x000000000800021c                __adddf3
                0x0000000008000494                __floatunsidf
                0x0000000008000494                __aeabi_ui2d
                0x00000000080004b4                __floatsidf
                0x00000000080004b4                __aeabi_i2d
                0x00000000080004d8                __aeabi_f2d
                0x00000000080004d8                __extendsfdf2
                0x000000000800051c                __floatundidf
                0x000000000800051c                __aeabi_ul2d
                0x000000000800052c                __floatdidf
                0x000000000800052c                __aeabi_l2d
 .text          0x0000000008000588      0x424 c:/st/stm32cubeide_1.5.1/stm32cubeide/plugins/com.st.stm32cube.ide.mcu.externaltools.gnu-tools-for-stm32.7-2018-q2-update.win32_1.5.0.202011040924/tools/bin/../lib/gcc/arm-none-eabi/7.3.1/thumb/v7e-m/fpv4-sp/hard\libgcc.a(_arm_muldivdf3.o)
                0x0000000008000588                __aeabi_dmul
                0x0000000008000588                __muldf3
                0x00000000080007dc                __divdf3
                0x00000000080007dc                __aeabi_ddiv
 .text          0x00000000080009ac      0x110 c:/st/stm32cubeide_1.5.1/stm32cubeide/plugins/com.st.stm32cube.ide.mcu.externaltools.gnu-tools-for-stm32.7-2018-q2-update.win32_1.5.0.202011040924/tools/bin/../lib/gcc/arm-none-eabi/7.3.1/thumb/v7e-m/fpv4-sp/hard\libgcc.a(_arm_cmpdf2.o)
                0x00000000080009ac                __gtdf2
                0x00000000080009ac                __gedf2
                0x00000000080009b4                __ltdf2
                0x00000000080009b4                __ledf2
                0x00000000080009bc                __nedf2
                0x00000000080009bc                __eqdf2
                0x00000000080009bc                __cmpdf2
                0x0000000008000a38                __aeabi_cdrcmple
                0x0000000008000a48                __aeabi_cdcmpeq
                0x0000000008000a48                __aeabi_cdcmple
                0x0000000008000a58                __aeabi_dcmpeq
                0x0000000008000a6c                __aeabi_dcmplt
                0x0000000008000a80                __aeabi_dcmple
                0x0000000008000a94                __aeabi_dcmpge
                0x0000000008000aa8                __aeabi_dcmpgt
 .text          0x0000000008000abc       0x50 c:/st/stm32cubeide_1.5.1/stm32cubeide/plugins/com.st.stm32cube.ide.mcu.externaltools.gnu-tools-for-stm32.7-2018-q2-update.win32_1.5.0.202011040924/tools/bin/../lib/gcc/arm-none-eabi/7.3.1/thumb/v7e-m/fpv4-sp/hard\libgcc.a(_arm_fixdfsi.o)
                0x0000000008000abc                __aeabi_d2iz
                0x0000000008000abc                __fixdfsi
 .text          0x0000000008000b0c       0x40 c:/st/stm32cubeide_1.5.1/stm32cubeide/plugins/com.st.stm32cube.ide.mcu.externaltools.gnu-tools-for-stm32.7-2018-q2-update.win32_1.5.0.202011040924/tools/bin/../lib/gcc/arm-none-eabi/7.3.1/thumb/v7e-m/fpv4-sp/hard\libgcc.a(_arm_fixunsdfsi.o)
                0x0000000008000b0c                __aeabi_d2uiz
                0x0000000008000b0c                __fixunsdfsi
 .text          0x0000000008000b4c       0x30 c:/st/stm32cubeide_1.5.1/stm32cubeide/plugins/com.st.stm32cube.ide.mcu.externaltools.gnu-tools-for-stm32.7-2018-q2-update.win32_1.5.0.202011040924/tools/bin/../lib/gcc/arm-none-eabi/7.3.1/thumb/v7e-m/fpv4-sp/hard\libgcc.a(_aeabi_uldivmod.o)
                0x0000000008000b4c                __aeabi_uldivmod
 .text          0x0000000008000b7c      0x2cc c:/st/stm32cubeide_1.5.1/stm32cubeide/plugins/com.st.stm32cube.ide.mcu.externaltools.gnu-tools-for-stm32.7-2018-q2-update.win32_1.5.0.202011040924/tools/bin/../lib/gcc/arm-none-eabi/7.3.1/thumb/v7e-m/fpv4-sp/hard\libgcc.a(_udivmoddi4.o)
                0x0000000008000b7c                __udivmoddi4
 .text          0x0000000008000e48        0x4 c:/st/stm32cubeide_1.5.1/stm32cubeide/plugins/com.st.stm32cube.ide.mcu.externaltools.gnu-tools-for-stm32.7-2018-q2-update.win32_1.5.0.202011040924/tools/bin/../lib/gcc/arm-none-eabi/7.3.1/thumb/v7e-m/fpv4-sp/hard\libgcc.a(_dvmd_tls.o)
                0x0000000008000e48                __aeabi_idiv0
                0x0000000008000e48                __aeabi_ldiv0
 *(.text*)
 .text.vApplicationIdleHook
                0x0000000008000e4c        0xe Core/Src/freertos.o
                0x0000000008000e4c                vApplicationIdleHook
 .text.vApplicationStackOverflowHook
                0x0000000008000e5a       0x16 Core/Src/freertos.o
                0x0000000008000e5a                vApplicationStackOverflowHook
 .text.vApplicationMallocFailedHook
                0x0000000008000e70        0xe Core/Src/freertos.o
                0x0000000008000e70                vApplicationMallocFailedHook
 *fill*         0x0000000008000e7e        0x2 
 .text.vApplicationGetIdleTaskMemory
                0x0000000008000e80       0x34 Core/Src/freertos.o
                0x0000000008000e80                vApplicationGetIdleTaskMemory
 .text.ft5336_Init
                0x0000000008000eb4       0x1c Core/Src/ft5336.o
                0x0000000008000eb4                ft5336_Init
 .text.ft5336_Reset
                0x0000000008000ed0       0x16 Core/Src/ft5336.o
                0x0000000008000ed0                ft5336_Reset
 .text.ft5336_ReadID
                0x0000000008000ee6       0x5c Core/Src/ft5336.o
                0x0000000008000ee6                ft5336_ReadID
 .text.ft5336_TS_Start
                0x0000000008000f42       0x22 Core/Src/ft5336.o
                0x0000000008000f42                ft5336_TS_Start
 .text.ft5336_TS_DetectTouch
                0x0000000008000f64       0x54 Core/Src/ft5336.o
                0x0000000008000f64                ft5336_TS_DetectTouch
 .text.ft5336_TS_GetXY
                0x0000000008000fb8      0x1e0 Core/Src/ft5336.o
                0x0000000008000fb8                ft5336_TS_GetXY
 .text.ft5336_TS_EnableIT
                0x0000000008001198       0x28 Core/Src/ft5336.o
                0x0000000008001198                ft5336_TS_EnableIT
 .text.ft5336_TS_DisableIT
                0x00000000080011c0       0x28 Core/Src/ft5336.o
                0x00000000080011c0                ft5336_TS_DisableIT
 .text.ft5336_TS_ITStatus
                0x00000000080011e8       0x18 Core/Src/ft5336.o
                0x00000000080011e8                ft5336_TS_ITStatus
 .text.ft5336_TS_ClearIT
                0x0000000008001200       0x16 Core/Src/ft5336.o
                0x0000000008001200                ft5336_TS_ClearIT
 .text.ft5336_TS_GetGestureID
                0x0000000008001216       0x32 Core/Src/ft5336.o
                0x0000000008001216                ft5336_TS_GetGestureID
 .text.ft5336_TS_GetTouchInfo
                0x0000000008001248      0x15c Core/Src/ft5336.o
                0x0000000008001248                ft5336_TS_GetTouchInfo
 .text.ft5336_Get_I2C_InitializedStatus
                0x00000000080013a4       0x18 Core/Src/ft5336.o
 .text.ft5336_I2C_InitializeIfRequired
                0x00000000080013bc       0x20 Core/Src/ft5336.o
 .text.ft5336_TS_Configure
                0x00000000080013dc       0x1c Core/Src/ft5336.o
 .text.main     0x00000000080013f8      0x55c Core/Src/main.o
                0x00000000080013f8                main
 .text.SystemClock_Config
                0x0000000008001954      0x160 Core/Src/main.o
                0x0000000008001954                SystemClock_Config
 .text.MX_ADC1_Init
                0x0000000008001ab4       0xa4 Core/Src/main.o
 .text.MX_ADC3_Init
                0x0000000008001b58       0xa4 Core/Src/main.o
 .text.MX_DAC_Init
                0x0000000008001bfc       0x54 Core/Src/main.o
 .text.MX_DMA2D_Init
                0x0000000008001c50       0x64 Core/Src/main.o
 .text.MX_I2C1_Init
                0x0000000008001cb4       0x80 Core/Src/main.o
 .text.MX_I2C3_Init
                0x0000000008001d34       0x80 Core/Src/main.o
 .text.MX_LTDC_Init
                0x0000000008001db4      0x104 Core/Src/main.o
 .text.MX_RTC_Init
                0x0000000008001eb8      0x14c Core/Src/main.o
 .text.MX_SPI2_Init
                0x0000000008002004       0x7c Core/Src/main.o
 .text.MX_TIM1_Init
                0x0000000008002080       0xa8 Core/Src/main.o
 .text.MX_TIM2_Init
                0x0000000008002128       0x9c Core/Src/main.o
 .text.MX_TIM3_Init
                0x00000000080021c4      0x11c Core/Src/main.o
 .text.MX_TIM5_Init
                0x00000000080022e0       0x9c Core/Src/main.o
 .text.MX_TIM8_Init
                0x000000000800237c      0x154 Core/Src/main.o
 .text.MX_UART7_Init
                0x00000000080024d0       0x60 Core/Src/main.o
 .text.MX_USART1_UART_Init
                0x0000000008002530       0x60 Core/Src/main.o
 .text.MX_USART6_UART_Init
                0x0000000008002590       0x60 Core/Src/main.o
 .text.MX_FMC_Init
                0x00000000080025f0       0x9c Core/Src/main.o
 .text.MX_GPIO_Init
                0x000000000800268c      0x3d8 Core/Src/main.o
 .text.HAL_UART_RxCpltCallback
                0x0000000008002a64      0x120 Core/Src/main.o
                0x0000000008002a64                HAL_UART_RxCpltCallback
 .text.StartDefaultTask
                0x0000000008002b84       0x10 Core/Src/main.o
                0x0000000008002b84                StartDefaultTask
 .text.TaskComm
                0x0000000008002b94       0x52 Core/Src/main.o
                0x0000000008002b94                TaskComm
 *fill*         0x0000000008002be6        0x2 
 .text.TaskCalcEtAffich
                0x0000000008002be8      0x4d8 Core/Src/main.o
                0x0000000008002be8                TaskCalcEtAffich
 .text.TaskLancerBalle
                0x00000000080030c0      0x6c8 Core/Src/main.o
                0x00000000080030c0                TaskLancerBalle
 .text.HAL_TIM_PeriodElapsedCallback
                0x0000000008003788       0x24 Core/Src/main.o
                0x0000000008003788                HAL_TIM_PeriodElapsedCallback
 .text.Error_Handler
                0x00000000080037ac        0x8 Core/Src/main.o
                0x00000000080037ac                Error_Handler
 .text.I2Cx_MspInit
                0x00000000080037b4      0x160 Core/Src/stm32746g_discovery.o
 .text.I2Cx_Init
                0x0000000008003914       0x78 Core/Src/stm32746g_discovery.o
 .text.I2Cx_ReadMultiple
                0x000000000800398c       0x5a Core/Src/stm32746g_discovery.o
 .text.I2Cx_WriteMultiple
                0x00000000080039e6       0x5a Core/Src/stm32746g_discovery.o
 .text.I2Cx_Error
                0x0000000008003a40       0x20 Core/Src/stm32746g_discovery.o
 .text.TS_IO_Init
                0x0000000008003a60       0x14 Core/Src/stm32746g_discovery.o
                0x0000000008003a60                TS_IO_Init
 .text.TS_IO_Write
                0x0000000008003a74       0x34 Core/Src/stm32746g_discovery.o
                0x0000000008003a74                TS_IO_Write
 .text.TS_IO_Read
                0x0000000008003aa8       0x3c Core/Src/stm32746g_discovery.o
                0x0000000008003aa8                TS_IO_Read
 .text.TS_IO_Delay
                0x0000000008003ae4       0x16 Core/Src/stm32746g_discovery.o
                0x0000000008003ae4                TS_IO_Delay
 *fill*         0x0000000008003afa        0x2 
 .text.BSP_LCD_Init
                0x0000000008003afc       0xe0 Core/Src/stm32746g_discovery_lcd.o
                0x0000000008003afc                BSP_LCD_Init
 .text.BSP_LCD_GetXSize
                0x0000000008003bdc       0x28 Core/Src/stm32746g_discovery_lcd.o
                0x0000000008003bdc                BSP_LCD_GetXSize
 .text.BSP_LCD_GetYSize
                0x0000000008003c04       0x28 Core/Src/stm32746g_discovery_lcd.o
                0x0000000008003c04                BSP_LCD_GetYSize
 .text.BSP_LCD_LayerDefaultInit
                0x0000000008003c2c       0xc0 Core/Src/stm32746g_discovery_lcd.o
                0x0000000008003c2c                BSP_LCD_LayerDefaultInit
 .text.BSP_LCD_SelectLayer
                0x0000000008003cec       0x20 Core/Src/stm32746g_discovery_lcd.o
                0x0000000008003cec                BSP_LCD_SelectLayer
 .text.BSP_LCD_SetTextColor
                0x0000000008003d0c       0x30 Core/Src/stm32746g_discovery_lcd.o
                0x0000000008003d0c                BSP_LCD_SetTextColor
 .text.BSP_LCD_SetBackColor
                0x0000000008003d3c       0x34 Core/Src/stm32746g_discovery_lcd.o
                0x0000000008003d3c                BSP_LCD_SetBackColor
 .text.BSP_LCD_SetFont
                0x0000000008003d70       0x34 Core/Src/stm32746g_discovery_lcd.o
                0x0000000008003d70                BSP_LCD_SetFont
 .text.BSP_LCD_GetFont
                0x0000000008003da4       0x2c Core/Src/stm32746g_discovery_lcd.o
                0x0000000008003da4                BSP_LCD_GetFont
 .text.BSP_LCD_Clear
                0x0000000008003dd0       0x50 Core/Src/stm32746g_discovery_lcd.o
                0x0000000008003dd0                BSP_LCD_Clear
 .text.BSP_LCD_DisplayChar
                0x0000000008003e20       0x88 Core/Src/stm32746g_discovery_lcd.o
                0x0000000008003e20                BSP_LCD_DisplayChar
 .text.BSP_LCD_DisplayStringAt
                0x0000000008003ea8      0x188 Core/Src/stm32746g_discovery_lcd.o
                0x0000000008003ea8                BSP_LCD_DisplayStringAt
 .text.BSP_LCD_DisplayStringAtLine
                0x0000000008004030       0x2e Core/Src/stm32746g_discovery_lcd.o
                0x0000000008004030                BSP_LCD_DisplayStringAtLine
 *fill*         0x000000000800405e        0x2 
 .text.BSP_LCD_DrawHLine
                0x0000000008004060       0xbc Core/Src/stm32746g_discovery_lcd.o
                0x0000000008004060                BSP_LCD_DrawHLine
 .text.BSP_LCD_DrawLine
                0x000000000800411c      0x198 Core/Src/stm32746g_discovery_lcd.o
                0x000000000800411c                BSP_LCD_DrawLine
 .text.BSP_LCD_DrawCircle
                0x00000000080042b4      0x1e0 Core/Src/stm32746g_discovery_lcd.o
                0x00000000080042b4                BSP_LCD_DrawCircle
 .text.BSP_LCD_DrawPixel
                0x0000000008004494       0x90 Core/Src/stm32746g_discovery_lcd.o
                0x0000000008004494                BSP_LCD_DrawPixel
 .text.BSP_LCD_FillRect
                0x0000000008004524       0xf4 Core/Src/stm32746g_discovery_lcd.o
                0x0000000008004524                BSP_LCD_FillRect
 .text.BSP_LCD_FillCircle
                0x0000000008004618      0x140 Core/Src/stm32746g_discovery_lcd.o
                0x0000000008004618                BSP_LCD_FillCircle
 .text.BSP_LCD_DisplayOn
                0x0000000008004758       0x3c Core/Src/stm32746g_discovery_lcd.o
                0x0000000008004758                BSP_LCD_DisplayOn
 .text.BSP_LCD_MspInit
                0x0000000008004794      0x1b4 Core/Src/stm32746g_discovery_lcd.o
                0x0000000008004794                BSP_LCD_MspInit
 .text.BSP_LCD_ClockConfig
                0x0000000008004948       0x38 Core/Src/stm32746g_discovery_lcd.o
                0x0000000008004948                BSP_LCD_ClockConfig
 .text.DrawChar
                0x0000000008004980      0x170 Core/Src/stm32746g_discovery_lcd.o
 .text.LL_FillBuffer
                0x0000000008004af0       0x98 Core/Src/stm32746g_discovery_lcd.o
 .text.BSP_SDRAM_Init
                0x0000000008004b88       0xbc Core/Src/stm32746g_discovery_sdram.o
                0x0000000008004b88                BSP_SDRAM_Init
 .text.BSP_SDRAM_Initialization_sequence
                0x0000000008004c44       0xc0 Core/Src/stm32746g_discovery_sdram.o
                0x0000000008004c44                BSP_SDRAM_Initialization_sequence
 .text.BSP_SDRAM_MspInit
                0x0000000008004d04      0x1f0 Core/Src/stm32746g_discovery_sdram.o
                0x0000000008004d04                BSP_SDRAM_MspInit
 .text.BSP_TS_Init
                0x0000000008004ef4       0x80 Core/Src/stm32746g_discovery_ts.o
                0x0000000008004ef4                BSP_TS_Init
 .text.BSP_TS_GetState
                0x0000000008004f74      0x3ac Core/Src/stm32746g_discovery_ts.o
                0x0000000008004f74                BSP_TS_GetState
 .text.BSP_TS_Get_GestureId
                0x0000000008005320       0x94 Core/Src/stm32746g_discovery_ts.o
                0x0000000008005320                BSP_TS_Get_GestureId
 .text.HAL_MspInit
                0x00000000080053b4       0x50 Core/Src/stm32f7xx_hal_msp.o
                0x00000000080053b4                HAL_MspInit
 .text.HAL_ADC_MspInit
                0x0000000008005404       0xdc Core/Src/stm32f7xx_hal_msp.o
                0x0000000008005404                HAL_ADC_MspInit
 .text.HAL_DAC_MspInit
                0x00000000080054e0       0x90 Core/Src/stm32f7xx_hal_msp.o
                0x00000000080054e0                HAL_DAC_MspInit
 .text.HAL_DMA2D_MspInit
                0x0000000008005570       0x40 Core/Src/stm32f7xx_hal_msp.o
                0x0000000008005570                HAL_DMA2D_MspInit
 .text.HAL_I2C_MspInit
                0x00000000080055b0       0xf0 Core/Src/stm32f7xx_hal_msp.o
                0x00000000080055b0                HAL_I2C_MspInit
 .text.HAL_I2C_MspDeInit
                0x00000000080056a0       0x78 Core/Src/stm32f7xx_hal_msp.o
                0x00000000080056a0                HAL_I2C_MspDeInit
 .text.HAL_LTDC_MspInit
                0x0000000008005718      0x190 Core/Src/stm32f7xx_hal_msp.o
                0x0000000008005718                HAL_LTDC_MspInit
 .text.HAL_RTC_MspInit
                0x00000000080058a8       0x34 Core/Src/stm32f7xx_hal_msp.o
                0x00000000080058a8                HAL_RTC_MspInit
 .text.HAL_SPI_MspInit
                0x00000000080058dc       0xe4 Core/Src/stm32f7xx_hal_msp.o
                0x00000000080058dc                HAL_SPI_MspInit
 .text.HAL_TIM_Base_MspInit
                0x00000000080059c0       0xdc Core/Src/stm32f7xx_hal_msp.o
                0x00000000080059c0                HAL_TIM_Base_MspInit
 .text.HAL_TIM_MspPostInit
                0x0000000008005a9c       0xbc Core/Src/stm32f7xx_hal_msp.o
                0x0000000008005a9c                HAL_TIM_MspPostInit
 .text.HAL_UART_MspInit
                0x0000000008005b58      0x1ac Core/Src/stm32f7xx_hal_msp.o
                0x0000000008005b58                HAL_UART_MspInit
 .text.HAL_FMC_MspInit
                0x0000000008005d04      0x120 Core/Src/stm32f7xx_hal_msp.o
 .text.HAL_SDRAM_MspInit
                0x0000000008005e24       0x14 Core/Src/stm32f7xx_hal_msp.o
                0x0000000008005e24                HAL_SDRAM_MspInit
 .text.HAL_InitTick
                0x0000000008005e38       0xb0 Core/Src/stm32f7xx_hal_timebase_tim.o
                0x0000000008005e38                HAL_InitTick
 .text.NMI_Handler
                0x0000000008005ee8        0x6 Core/Src/stm32f7xx_it.o
                0x0000000008005ee8                NMI_Handler
 .text.HardFault_Handler
                0x0000000008005eee        0x6 Core/Src/stm32f7xx_it.o
                0x0000000008005eee                HardFault_Handler
 .text.MemManage_Handler
                0x0000000008005ef4        0x6 Core/Src/stm32f7xx_it.o
                0x0000000008005ef4                MemManage_Handler
 .text.BusFault_Handler
                0x0000000008005efa        0x6 Core/Src/stm32f7xx_it.o
                0x0000000008005efa                BusFault_Handler
 .text.UsageFault_Handler
                0x0000000008005f00        0x6 Core/Src/stm32f7xx_it.o
                0x0000000008005f00                UsageFault_Handler
 .text.DebugMon_Handler
                0x0000000008005f06        0xe Core/Src/stm32f7xx_it.o
                0x0000000008005f06                DebugMon_Handler
 .text.USART1_IRQHandler
                0x0000000008005f14       0x14 Core/Src/stm32f7xx_it.o
                0x0000000008005f14                USART1_IRQHandler
 .text.TIM6_DAC_IRQHandler
                0x0000000008005f28       0x1c Core/Src/stm32f7xx_it.o
                0x0000000008005f28                TIM6_DAC_IRQHandler
 .text.UART7_IRQHandler
                0x0000000008005f44       0x14 Core/Src/stm32f7xx_it.o
                0x0000000008005f44                UART7_IRQHandler
 .text.LTDC_IRQHandler
                0x0000000008005f58       0x14 Core/Src/stm32f7xx_it.o
                0x0000000008005f58                LTDC_IRQHandler
 .text.SystemInit
                0x0000000008005f6c       0x2c Core/Src/system_stm32f7xx.o
                0x0000000008005f6c                SystemInit
 .text.Reset_Handler
                0x0000000008005f98       0x50 Core/Startup/startup_stm32f746nghx.o
                0x0000000008005f98                Reset_Handler
 .text.Default_Handler
                0x0000000008005fe8        0x2 Core/Startup/startup_stm32f746nghx.o
                0x0000000008005fe8                RTC_Alarm_IRQHandler
                0x0000000008005fe8                EXTI2_IRQHandler
                0x0000000008005fe8                TIM8_CC_IRQHandler
                0x0000000008005fe8                UART8_IRQHandler
                0x0000000008005fe8                SPI4_IRQHandler
                0x0000000008005fe8                TIM1_CC_IRQHandler
                0x0000000008005fe8                DMA2_Stream5_IRQHandler
                0x0000000008005fe8                DMA1_Stream5_IRQHandler
                0x0000000008005fe8                PVD_IRQHandler
                0x0000000008005fe8                TAMP_STAMP_IRQHandler
                0x0000000008005fe8                CAN2_RX1_IRQHandler
                0x0000000008005fe8                EXTI3_IRQHandler
                0x0000000008005fe8                TIM8_TRG_COM_TIM14_IRQHandler
                0x0000000008005fe8                TIM1_UP_TIM10_IRQHandler
                0x0000000008005fe8                TIM8_UP_TIM13_IRQHandler
                0x0000000008005fe8                I2C3_ER_IRQHandler
                0x0000000008005fe8                EXTI0_IRQHandler
                0x0000000008005fe8                I2C2_EV_IRQHandler
                0x0000000008005fe8                DMA1_Stream2_IRQHandler
                0x0000000008005fe8                CAN1_RX0_IRQHandler
                0x0000000008005fe8                FPU_IRQHandler
                0x0000000008005fe8                OTG_HS_WKUP_IRQHandler
                0x0000000008005fe8                LTDC_ER_IRQHandler
                0x0000000008005fe8                CAN2_SCE_IRQHandler
                0x0000000008005fe8                DMA2_Stream2_IRQHandler
                0x0000000008005fe8                SPI1_IRQHandler
                0x0000000008005fe8                TIM1_BRK_TIM9_IRQHandler
                0x0000000008005fe8                DCMI_IRQHandler
                0x0000000008005fe8                CAN2_RX0_IRQHandler
                0x0000000008005fe8                DMA2_Stream3_IRQHandler
                0x0000000008005fe8                SAI2_IRQHandler
                0x0000000008005fe8                USART6_IRQHandler
                0x0000000008005fe8                USART3_IRQHandler
                0x0000000008005fe8                CAN1_RX1_IRQHandler
                0x0000000008005fe8                UART5_IRQHandler
                0x0000000008005fe8                DMA2_Stream0_IRQHandler
                0x0000000008005fe8                TIM4_IRQHandler
                0x0000000008005fe8                QUADSPI_IRQHandler
                0x0000000008005fe8                I2C1_EV_IRQHandler
                0x0000000008005fe8                DMA1_Stream6_IRQHandler
                0x0000000008005fe8                DMA1_Stream1_IRQHandler
                0x0000000008005fe8                UART4_IRQHandler
                0x0000000008005fe8                TIM3_IRQHandler
                0x0000000008005fe8                RCC_IRQHandler
                0x0000000008005fe8                TIM8_BRK_TIM12_IRQHandler
                0x0000000008005fe8                Default_Handler
                0x0000000008005fe8                CEC_IRQHandler
                0x0000000008005fe8                EXTI15_10_IRQHandler
                0x0000000008005fe8                ADC_IRQHandler
                0x0000000008005fe8                DMA1_Stream7_IRQHandler
                0x0000000008005fe8                SPI5_IRQHandler
                0x0000000008005fe8                TIM7_IRQHandler
                0x0000000008005fe8                SDMMC1_IRQHandler
                0x0000000008005fe8                CAN2_TX_IRQHandler
                0x0000000008005fe8                TIM5_IRQHandler
                0x0000000008005fe8                DMA2_Stream7_IRQHandler
                0x0000000008005fe8                I2C3_EV_IRQHandler
                0x0000000008005fe8                EXTI9_5_IRQHandler
                0x0000000008005fe8                RTC_WKUP_IRQHandler
                0x0000000008005fe8                ETH_WKUP_IRQHandler
                0x0000000008005fe8                SPDIF_RX_IRQHandler
                0x0000000008005fe8                SPI2_IRQHandler
                0x0000000008005fe8                OTG_HS_EP1_IN_IRQHandler
                0x0000000008005fe8                DMA1_Stream0_IRQHandler
                0x0000000008005fe8                CAN1_TX_IRQHandler
                0x0000000008005fe8                EXTI4_IRQHandler
                0x0000000008005fe8                RNG_IRQHandler
                0x0000000008005fe8                ETH_IRQHandler
                0x0000000008005fe8                OTG_HS_EP1_OUT_IRQHandler
                0x0000000008005fe8                WWDG_IRQHandler
                0x0000000008005fe8                SPI6_IRQHandler
                0x0000000008005fe8                I2C4_EV_IRQHandler
                0x0000000008005fe8                TIM2_IRQHandler
                0x0000000008005fe8                OTG_FS_WKUP_IRQHandler
                0x0000000008005fe8                TIM1_TRG_COM_TIM11_IRQHandler
                0x0000000008005fe8                OTG_HS_IRQHandler
                0x0000000008005fe8                DMA2D_IRQHandler
                0x0000000008005fe8                EXTI1_IRQHandler
                0x0000000008005fe8                USART2_IRQHandler
                0x0000000008005fe8                I2C2_ER_IRQHandler
                0x0000000008005fe8                DMA2_Stream1_IRQHandler
                0x0000000008005fe8                CAN1_SCE_IRQHandler
                0x0000000008005fe8                FLASH_IRQHandler
                0x0000000008005fe8                DMA2_Stream4_IRQHandler
                0x0000000008005fe8                OTG_FS_IRQHandler
                0x0000000008005fe8                SPI3_IRQHandler
                0x0000000008005fe8                DMA1_Stream4_IRQHandler
                0x0000000008005fe8                I2C1_ER_IRQHandler
                0x0000000008005fe8                FMC_IRQHandler
                0x0000000008005fe8                LPTIM1_IRQHandler
                0x0000000008005fe8                I2C4_ER_IRQHandler
                0x0000000008005fe8                DMA2_Stream6_IRQHandler
                0x0000000008005fe8                SAI1_IRQHandler
                0x0000000008005fe8                DMA1_Stream3_IRQHandler
 .text.HAL_Init
                0x0000000008005fea       0x1a Drivers/STM32F7xx_HAL_Driver/Src/stm32f7xx_hal.o
                0x0000000008005fea                HAL_Init
 .text.HAL_IncTick
                0x0000000008006004       0x28 Drivers/STM32F7xx_HAL_Driver/Src/stm32f7xx_hal.o
                0x0000000008006004                HAL_IncTick
 .text.HAL_GetTick
                0x000000000800602c       0x18 Drivers/STM32F7xx_HAL_Driver/Src/stm32f7xx_hal.o
                0x000000000800602c                HAL_GetTick
 .text.HAL_Delay
                0x0000000008006044       0x44 Drivers/STM32F7xx_HAL_Driver/Src/stm32f7xx_hal.o
                0x0000000008006044                HAL_Delay
 .text.HAL_ADC_Init
                0x0000000008006088       0x88 Drivers/STM32F7xx_HAL_Driver/Src/stm32f7xx_hal_adc.o
                0x0000000008006088                HAL_ADC_Init
 .text.HAL_ADC_Start
                0x0000000008006110      0x180 Drivers/STM32F7xx_HAL_Driver/Src/stm32f7xx_hal_adc.o
                0x0000000008006110                HAL_ADC_Start
 .text.HAL_ADC_PollForConversion
                0x0000000008006290      0x108 Drivers/STM32F7xx_HAL_Driver/Src/stm32f7xx_hal_adc.o
                0x0000000008006290                HAL_ADC_PollForConversion
 .text.HAL_ADC_GetValue
                0x0000000008006398       0x1a Drivers/STM32F7xx_HAL_Driver/Src/stm32f7xx_hal_adc.o
                0x0000000008006398                HAL_ADC_GetValue
 *fill*         0x00000000080063b2        0x2 
 .text.HAL_ADC_ConfigChannel
                0x00000000080063b4      0x294 Drivers/STM32F7xx_HAL_Driver/Src/stm32f7xx_hal_adc.o
                0x00000000080063b4                HAL_ADC_ConfigChannel
 .text.ADC_Init
                0x0000000008006648      0x1f4 Drivers/STM32F7xx_HAL_Driver/Src/stm32f7xx_hal_adc.o
 .text.__NVIC_SetPriorityGrouping
                0x000000000800683c       0x48 Drivers/STM32F7xx_HAL_Driver/Src/stm32f7xx_hal_cortex.o
 .text.__NVIC_GetPriorityGrouping
                0x0000000008006884       0x1c Drivers/STM32F7xx_HAL_Driver/Src/stm32f7xx_hal_cortex.o
 .text.__NVIC_EnableIRQ
                0x00000000080068a0       0x3c Drivers/STM32F7xx_HAL_Driver/Src/stm32f7xx_hal_cortex.o
 .text.__NVIC_SetPriority
                0x00000000080068dc       0x54 Drivers/STM32F7xx_HAL_Driver/Src/stm32f7xx_hal_cortex.o
 .text.NVIC_EncodePriority
                0x0000000008006930       0x66 Drivers/STM32F7xx_HAL_Driver/Src/stm32f7xx_hal_cortex.o
 .text.HAL_NVIC_SetPriorityGrouping
                0x0000000008006996       0x16 Drivers/STM32F7xx_HAL_Driver/Src/stm32f7xx_hal_cortex.o
                0x0000000008006996                HAL_NVIC_SetPriorityGrouping
 .text.HAL_NVIC_SetPriority
                0x00000000080069ac       0x38 Drivers/STM32F7xx_HAL_Driver/Src/stm32f7xx_hal_cortex.o
                0x00000000080069ac                HAL_NVIC_SetPriority
 .text.HAL_NVIC_EnableIRQ
                0x00000000080069e4       0x1c Drivers/STM32F7xx_HAL_Driver/Src/stm32f7xx_hal_cortex.o
                0x00000000080069e4                HAL_NVIC_EnableIRQ
 .text.HAL_DAC_Init
                0x0000000008006a00       0x44 Drivers/STM32F7xx_HAL_Driver/Src/stm32f7xx_hal_dac.o
                0x0000000008006a00                HAL_DAC_Init
 .text.HAL_DAC_IRQHandler
                0x0000000008006a44       0x94 Drivers/STM32F7xx_HAL_Driver/Src/stm32f7xx_hal_dac.o
                0x0000000008006a44                HAL_DAC_IRQHandler
 .text.HAL_DAC_DMAUnderrunCallbackCh1
                0x0000000008006ad8       0x14 Drivers/STM32F7xx_HAL_Driver/Src/stm32f7xx_hal_dac.o
                0x0000000008006ad8                HAL_DAC_DMAUnderrunCallbackCh1
 .text.HAL_DAC_ConfigChannel
                0x0000000008006aec       0x9a Drivers/STM32F7xx_HAL_Driver/Src/stm32f7xx_hal_dac.o
                0x0000000008006aec                HAL_DAC_ConfigChannel
 .text.HAL_DACEx_DMAUnderrunCallbackCh2
                0x0000000008006b86       0x14 Drivers/STM32F7xx_HAL_Driver/Src/stm32f7xx_hal_dac_ex.o
                0x0000000008006b86                HAL_DACEx_DMAUnderrunCallbackCh2
 *fill*         0x0000000008006b9a        0x2 
 .text.HAL_DMA_Init
                0x0000000008006b9c      0x15c Drivers/STM32F7xx_HAL_Driver/Src/stm32f7xx_hal_dma.o
                0x0000000008006b9c                HAL_DMA_Init
 .text.HAL_DMA_DeInit
                0x0000000008006cf8       0xbc Drivers/STM32F7xx_HAL_Driver/Src/stm32f7xx_hal_dma.o
                0x0000000008006cf8                HAL_DMA_DeInit
 .text.HAL_DMA_Abort_IT
                0x0000000008006db4       0x44 Drivers/STM32F7xx_HAL_Driver/Src/stm32f7xx_hal_dma.o
                0x0000000008006db4                HAL_DMA_Abort_IT
 .text.DMA_CalcBaseAndBitshift
                0x0000000008006df8       0x6c Drivers/STM32F7xx_HAL_Driver/Src/stm32f7xx_hal_dma.o
 .text.DMA_CheckFifoParam
                0x0000000008006e64       0xf4 Drivers/STM32F7xx_HAL_Driver/Src/stm32f7xx_hal_dma.o
 .text.HAL_DMA2D_Init
                0x0000000008006f58       0x94 Drivers/STM32F7xx_HAL_Driver/Src/stm32f7xx_hal_dma2d.o
                0x0000000008006f58                HAL_DMA2D_Init
 .text.HAL_DMA2D_Start
                0x0000000008006fec       0x56 Drivers/STM32F7xx_HAL_Driver/Src/stm32f7xx_hal_dma2d.o
                0x0000000008006fec                HAL_DMA2D_Start
 .text.HAL_DMA2D_PollForTransfer
                0x0000000008007042      0x1d2 Drivers/STM32F7xx_HAL_Driver/Src/stm32f7xx_hal_dma2d.o
                0x0000000008007042                HAL_DMA2D_PollForTransfer
 .text.HAL_DMA2D_ConfigLayer
                0x0000000008007214      0x124 Drivers/STM32F7xx_HAL_Driver/Src/stm32f7xx_hal_dma2d.o
                0x0000000008007214                HAL_DMA2D_ConfigLayer
 .text.DMA2D_SetConfig
                0x0000000008007338      0x138 Drivers/STM32F7xx_HAL_Driver/Src/stm32f7xx_hal_dma2d.o
 .text.HAL_GPIO_Init
                0x0000000008007470      0x354 Drivers/STM32F7xx_HAL_Driver/Src/stm32f7xx_hal_gpio.o
                0x0000000008007470                HAL_GPIO_Init
 .text.HAL_GPIO_DeInit
                0x00000000080077c4      0x214 Drivers/STM32F7xx_HAL_Driver/Src/stm32f7xx_hal_gpio.o
                0x00000000080077c4                HAL_GPIO_DeInit
 .text.HAL_GPIO_ReadPin
                0x00000000080079d8       0x30 Drivers/STM32F7xx_HAL_Driver/Src/stm32f7xx_hal_gpio.o
                0x00000000080079d8                HAL_GPIO_ReadPin
 .text.HAL_GPIO_WritePin
                0x0000000008007a08       0x32 Drivers/STM32F7xx_HAL_Driver/Src/stm32f7xx_hal_gpio.o
                0x0000000008007a08                HAL_GPIO_WritePin
 *fill*         0x0000000008007a3a        0x2 
 .text.HAL_I2C_Init
                0x0000000008007a3c      0x120 Drivers/STM32F7xx_HAL_Driver/Src/stm32f7xx_hal_i2c.o
                0x0000000008007a3c                HAL_I2C_Init
 .text.HAL_I2C_DeInit
                0x0000000008007b5c       0x5e Drivers/STM32F7xx_HAL_Driver/Src/stm32f7xx_hal_i2c.o
                0x0000000008007b5c                HAL_I2C_DeInit
 *fill*         0x0000000008007bba        0x2 
 .text.HAL_I2C_Mem_Write
                0x0000000008007bbc      0x228 Drivers/STM32F7xx_HAL_Driver/Src/stm32f7xx_hal_i2c.o
                0x0000000008007bbc                HAL_I2C_Mem_Write
 .text.HAL_I2C_Mem_Read
                0x0000000008007de4      0x234 Drivers/STM32F7xx_HAL_Driver/Src/stm32f7xx_hal_i2c.o
                0x0000000008007de4                HAL_I2C_Mem_Read
 .text.HAL_I2C_GetState
                0x0000000008008018       0x1c Drivers/STM32F7xx_HAL_Driver/Src/stm32f7xx_hal_i2c.o
                0x0000000008008018                HAL_I2C_GetState
 .text.I2C_RequestMemoryWrite
                0x0000000008008034       0xa8 Drivers/STM32F7xx_HAL_Driver/Src/stm32f7xx_hal_i2c.o
 .text.I2C_RequestMemoryRead
                0x00000000080080dc       0xa8 Drivers/STM32F7xx_HAL_Driver/Src/stm32f7xx_hal_i2c.o
 .text.I2C_Flush_TXDR
                0x0000000008008184       0x48 Drivers/STM32F7xx_HAL_Driver/Src/stm32f7xx_hal_i2c.o
 .text.I2C_WaitOnFlagUntilTimeout
                0x00000000080081cc       0x80 Drivers/STM32F7xx_HAL_Driver/Src/stm32f7xx_hal_i2c.o
 .text.I2C_WaitOnTXISFlagUntilTimeout
                0x000000000800824c       0x80 Drivers/STM32F7xx_HAL_Driver/Src/stm32f7xx_hal_i2c.o
 .text.I2C_WaitOnSTOPFlagUntilTimeout
                0x00000000080082cc       0x78 Drivers/STM32F7xx_HAL_Driver/Src/stm32f7xx_hal_i2c.o
 .text.I2C_IsAcknowledgeFailed
                0x0000000008008344       0xcc Drivers/STM32F7xx_HAL_Driver/Src/stm32f7xx_hal_i2c.o
 .text.I2C_TransferConfig
                0x0000000008008410       0x5c Drivers/STM32F7xx_HAL_Driver/Src/stm32f7xx_hal_i2c.o
 .text.HAL_I2CEx_ConfigAnalogFilter
                0x000000000800846c       0x96 Drivers/STM32F7xx_HAL_Driver/Src/stm32f7xx_hal_i2c_ex.o
                0x000000000800846c                HAL_I2CEx_ConfigAnalogFilter
 .text.HAL_I2CEx_ConfigDigitalFilter
                0x0000000008008502       0x98 Drivers/STM32F7xx_HAL_Driver/Src/stm32f7xx_hal_i2c_ex.o
                0x0000000008008502                HAL_I2CEx_ConfigDigitalFilter
 *fill*         0x000000000800859a        0x2 
 .text.HAL_LTDC_Init
                0x000000000800859c      0x1a0 Drivers/STM32F7xx_HAL_Driver/Src/stm32f7xx_hal_ltdc.o
                0x000000000800859c                HAL_LTDC_Init
 .text.HAL_LTDC_IRQHandler
                0x000000000800873c      0x148 Drivers/STM32F7xx_HAL_Driver/Src/stm32f7xx_hal_ltdc.o
                0x000000000800873c                HAL_LTDC_IRQHandler
 .text.HAL_LTDC_ErrorCallback
                0x0000000008008884       0x14 Drivers/STM32F7xx_HAL_Driver/Src/stm32f7xx_hal_ltdc.o
                0x0000000008008884                HAL_LTDC_ErrorCallback
 .text.HAL_LTDC_LineEventCallback
                0x0000000008008898       0x14 Drivers/STM32F7xx_HAL_Driver/Src/stm32f7xx_hal_ltdc.o
                0x0000000008008898                HAL_LTDC_LineEventCallback
 .text.HAL_LTDC_ReloadEventCallback
                0x00000000080088ac       0x14 Drivers/STM32F7xx_HAL_Driver/Src/stm32f7xx_hal_ltdc.o
                0x00000000080088ac                HAL_LTDC_ReloadEventCallback
 .text.HAL_LTDC_ConfigLayer
                0x00000000080088c0       0x7c Drivers/STM32F7xx_HAL_Driver/Src/stm32f7xx_hal_ltdc.o
                0x00000000080088c0                HAL_LTDC_ConfigLayer
 .text.HAL_LTDC_GetState
                0x000000000800893c       0x1c Drivers/STM32F7xx_HAL_Driver/Src/stm32f7xx_hal_ltdc.o
                0x000000000800893c                HAL_LTDC_GetState
 .text.LTDC_SetConfig
                0x0000000008008958      0x334 Drivers/STM32F7xx_HAL_Driver/Src/stm32f7xx_hal_ltdc.o
 .text.HAL_PWR_EnableBkUpAccess
                0x0000000008008c8c       0x20 Drivers/STM32F7xx_HAL_Driver/Src/stm32f7xx_hal_pwr.o
                0x0000000008008c8c                HAL_PWR_EnableBkUpAccess
 .text.HAL_PWREx_EnableOverDrive
                0x0000000008008cac       0xa0 Drivers/STM32F7xx_HAL_Driver/Src/stm32f7xx_hal_pwr_ex.o
                0x0000000008008cac                HAL_PWREx_EnableOverDrive
 .text.HAL_RCC_OscConfig
                0x0000000008008d4c      0x548 Drivers/STM32F7xx_HAL_Driver/Src/stm32f7xx_hal_rcc.o
                0x0000000008008d4c                HAL_RCC_OscConfig
 .text.HAL_RCC_ClockConfig
                0x0000000008009294      0x1d8 Drivers/STM32F7xx_HAL_Driver/Src/stm32f7xx_hal_rcc.o
                0x0000000008009294                HAL_RCC_ClockConfig
 .text.HAL_RCC_GetSysClockFreq
                0x000000000800946c      0x164 Drivers/STM32F7xx_HAL_Driver/Src/stm32f7xx_hal_rcc.o
                0x000000000800946c                HAL_RCC_GetSysClockFreq
 .text.HAL_RCC_GetHCLKFreq
                0x00000000080095d0       0x18 Drivers/STM32F7xx_HAL_Driver/Src/stm32f7xx_hal_rcc.o
                0x00000000080095d0                HAL_RCC_GetHCLKFreq
 .text.HAL_RCC_GetPCLK1Freq
                0x00000000080095e8       0x28 Drivers/STM32F7xx_HAL_Driver/Src/stm32f7xx_hal_rcc.o
                0x00000000080095e8                HAL_RCC_GetPCLK1Freq
 .text.HAL_RCC_GetPCLK2Freq
                0x0000000008009610       0x28 Drivers/STM32F7xx_HAL_Driver/Src/stm32f7xx_hal_rcc.o
                0x0000000008009610                HAL_RCC_GetPCLK2Freq
 .text.HAL_RCC_GetClockConfig
                0x0000000008009638       0x64 Drivers/STM32F7xx_HAL_Driver/Src/stm32f7xx_hal_rcc.o
                0x0000000008009638                HAL_RCC_GetClockConfig
 .text.HAL_RCCEx_PeriphCLKConfig
                0x000000000800969c      0x7dc Drivers/STM32F7xx_HAL_Driver/Src/stm32f7xx_hal_rcc_ex.o
                0x000000000800969c                HAL_RCCEx_PeriphCLKConfig
 .text.HAL_RTC_Init
                0x0000000008009e78       0xf8 Drivers/STM32F7xx_HAL_Driver/Src/stm32f7xx_hal_rtc.o
                0x0000000008009e78                HAL_RTC_Init
 .text.HAL_RTC_SetTime
                0x0000000008009f70      0x17c Drivers/STM32F7xx_HAL_Driver/Src/stm32f7xx_hal_rtc.o
                0x0000000008009f70                HAL_RTC_SetTime
 .text.HAL_RTC_SetDate
                0x000000000800a0ec      0x150 Drivers/STM32F7xx_HAL_Driver/Src/stm32f7xx_hal_rtc.o
                0x000000000800a0ec                HAL_RTC_SetDate
 .text.HAL_RTC_SetAlarm
                0x000000000800a23c      0x230 Drivers/STM32F7xx_HAL_Driver/Src/stm32f7xx_hal_rtc.o
                0x000000000800a23c                HAL_RTC_SetAlarm
 .text.HAL_RTC_WaitForSynchro
                0x000000000800a46c       0x50 Drivers/STM32F7xx_HAL_Driver/Src/stm32f7xx_hal_rtc.o
                0x000000000800a46c                HAL_RTC_WaitForSynchro
 .text.RTC_EnterInitMode
                0x000000000800a4bc       0x58 Drivers/STM32F7xx_HAL_Driver/Src/stm32f7xx_hal_rtc.o
                0x000000000800a4bc                RTC_EnterInitMode
 .text.RTC_ByteToBcd2
                0x000000000800a514       0x3c Drivers/STM32F7xx_HAL_Driver/Src/stm32f7xx_hal_rtc.o
                0x000000000800a514                RTC_ByteToBcd2
 .text.HAL_RTCEx_SetTimeStamp
                0x000000000800a550       0xac Drivers/STM32F7xx_HAL_Driver/Src/stm32f7xx_hal_rtc_ex.o
                0x000000000800a550                HAL_RTCEx_SetTimeStamp
 .text.HAL_SDRAM_Init
                0x000000000800a5fc       0x68 Drivers/STM32F7xx_HAL_Driver/Src/stm32f7xx_hal_sdram.o
                0x000000000800a5fc                HAL_SDRAM_Init
 .text.HAL_SDRAM_SendCommand
                0x000000000800a664       0x56 Drivers/STM32F7xx_HAL_Driver/Src/stm32f7xx_hal_sdram.o
                0x000000000800a664                HAL_SDRAM_SendCommand
 .text.HAL_SDRAM_ProgramRefreshRate
                0x000000000800a6ba       0x40 Drivers/STM32F7xx_HAL_Driver/Src/stm32f7xx_hal_sdram.o
                0x000000000800a6ba                HAL_SDRAM_ProgramRefreshRate
 .text.HAL_SPI_Init
                0x000000000800a6fa      0x124 Drivers/STM32F7xx_HAL_Driver/Src/stm32f7xx_hal_spi.o
                0x000000000800a6fa                HAL_SPI_Init
 .text.HAL_TIM_Base_Init
                0x000000000800a81e       0x56 Drivers/STM32F7xx_HAL_Driver/Src/stm32f7xx_hal_tim.o
                0x000000000800a81e                HAL_TIM_Base_Init
 .text.HAL_TIM_Base_Start_IT
                0x000000000800a874       0x54 Drivers/STM32F7xx_HAL_Driver/Src/stm32f7xx_hal_tim.o
                0x000000000800a874                HAL_TIM_Base_Start_IT
 .text.HAL_TIM_PWM_Init
                0x000000000800a8c8       0x56 Drivers/STM32F7xx_HAL_Driver/Src/stm32f7xx_hal_tim.o
                0x000000000800a8c8                HAL_TIM_PWM_Init
 .text.HAL_TIM_PWM_MspInit
                0x000000000800a91e       0x14 Drivers/STM32F7xx_HAL_Driver/Src/stm32f7xx_hal_tim.o
                0x000000000800a91e                HAL_TIM_PWM_MspInit
 .text.HAL_TIM_IRQHandler
                0x000000000800a932      0x23e Drivers/STM32F7xx_HAL_Driver/Src/stm32f7xx_hal_tim.o
                0x000000000800a932                HAL_TIM_IRQHandler
 .text.HAL_TIM_PWM_ConfigChannel
                0x000000000800ab70      0x230 Drivers/STM32F7xx_HAL_Driver/Src/stm32f7xx_hal_tim.o
                0x000000000800ab70                HAL_TIM_PWM_ConfigChannel
 .text.HAL_TIM_ConfigClockSource
                0x000000000800ada0      0x174 Drivers/STM32F7xx_HAL_Driver/Src/stm32f7xx_hal_tim.o
                0x000000000800ada0                HAL_TIM_ConfigClockSource
 .text.HAL_TIM_SlaveConfigSynchro
                0x000000000800af14       0x84 Drivers/STM32F7xx_HAL_Driver/Src/stm32f7xx_hal_tim.o
                0x000000000800af14                HAL_TIM_SlaveConfigSynchro
 .text.HAL_TIM_OC_DelayElapsedCallback
                0x000000000800af98       0x14 Drivers/STM32F7xx_HAL_Driver/Src/stm32f7xx_hal_tim.o
                0x000000000800af98                HAL_TIM_OC_DelayElapsedCallback
 .text.HAL_TIM_IC_CaptureCallback
                0x000000000800afac       0x14 Drivers/STM32F7xx_HAL_Driver/Src/stm32f7xx_hal_tim.o
                0x000000000800afac                HAL_TIM_IC_CaptureCallback
 .text.HAL_TIM_PWM_PulseFinishedCallback
                0x000000000800afc0       0x14 Drivers/STM32F7xx_HAL_Driver/Src/stm32f7xx_hal_tim.o
                0x000000000800afc0                HAL_TIM_PWM_PulseFinishedCallback
 .text.HAL_TIM_TriggerCallback
                0x000000000800afd4       0x14 Drivers/STM32F7xx_HAL_Driver/Src/stm32f7xx_hal_tim.o
                0x000000000800afd4                HAL_TIM_TriggerCallback
 .text.TIM_Base_SetConfig
                0x000000000800afe8      0x140 Drivers/STM32F7xx_HAL_Driver/Src/stm32f7xx_hal_tim.o
                0x000000000800afe8                TIM_Base_SetConfig
 .text.TIM_OC1_SetConfig
                0x000000000800b128       0xe4 Drivers/STM32F7xx_HAL_Driver/Src/stm32f7xx_hal_tim.o
 .text.TIM_OC2_SetConfig
                0x000000000800b20c       0xf0 Drivers/STM32F7xx_HAL_Driver/Src/stm32f7xx_hal_tim.o
                0x000000000800b20c                TIM_OC2_SetConfig
 .text.TIM_OC3_SetConfig
                0x000000000800b2fc       0xec Drivers/STM32F7xx_HAL_Driver/Src/stm32f7xx_hal_tim.o
 .text.TIM_OC4_SetConfig
                0x000000000800b3e8       0xb0 Drivers/STM32F7xx_HAL_Driver/Src/stm32f7xx_hal_tim.o
 .text.TIM_OC5_SetConfig
                0x000000000800b498       0xa4 Drivers/STM32F7xx_HAL_Driver/Src/stm32f7xx_hal_tim.o
 .text.TIM_OC6_SetConfig
                0x000000000800b53c       0xa8 Drivers/STM32F7xx_HAL_Driver/Src/stm32f7xx_hal_tim.o
 .text.TIM_SlaveTimer_SetConfig
                0x000000000800b5e4      0x110 Drivers/STM32F7xx_HAL_Driver/Src/stm32f7xx_hal_tim.o
 .text.TIM_TI1_ConfigInputStage
                0x000000000800b6f4       0x5e Drivers/STM32F7xx_HAL_Driver/Src/stm32f7xx_hal_tim.o
 .text.TIM_TI2_ConfigInputStage
                0x000000000800b752       0x60 Drivers/STM32F7xx_HAL_Driver/Src/stm32f7xx_hal_tim.o
 .text.TIM_ITRx_SetConfig
                0x000000000800b7b2       0x36 Drivers/STM32F7xx_HAL_Driver/Src/stm32f7xx_hal_tim.o
 .text.TIM_ETR_SetConfig
                0x000000000800b7e8       0x40 Drivers/STM32F7xx_HAL_Driver/Src/stm32f7xx_hal_tim.o
                0x000000000800b7e8                TIM_ETR_SetConfig
 .text.HAL_TIMEx_MasterConfigSynchronization
                0x000000000800b828      0x11c Drivers/STM32F7xx_HAL_Driver/Src/stm32f7xx_hal_tim_ex.o
                0x000000000800b828                HAL_TIMEx_MasterConfigSynchronization
 .text.HAL_TIMEx_ConfigBreakDeadTime
                0x000000000800b944       0xfc Drivers/STM32F7xx_HAL_Driver/Src/stm32f7xx_hal_tim_ex.o
                0x000000000800b944                HAL_TIMEx_ConfigBreakDeadTime
 .text.HAL_TIMEx_CommutCallback
                0x000000000800ba40       0x14 Drivers/STM32F7xx_HAL_Driver/Src/stm32f7xx_hal_tim_ex.o
                0x000000000800ba40                HAL_TIMEx_CommutCallback
 .text.HAL_TIMEx_BreakCallback
                0x000000000800ba54       0x14 Drivers/STM32F7xx_HAL_Driver/Src/stm32f7xx_hal_tim_ex.o
                0x000000000800ba54                HAL_TIMEx_BreakCallback
 .text.HAL_TIMEx_Break2Callback
                0x000000000800ba68       0x14 Drivers/STM32F7xx_HAL_Driver/Src/stm32f7xx_hal_tim_ex.o
                0x000000000800ba68                HAL_TIMEx_Break2Callback
 .text.HAL_UART_Init
                0x000000000800ba7c       0x9c Drivers/STM32F7xx_HAL_Driver/Src/stm32f7xx_hal_uart.o
                0x000000000800ba7c                HAL_UART_Init
 .text.HAL_UART_Receive
                0x000000000800bb18      0x198 Drivers/STM32F7xx_HAL_Driver/Src/stm32f7xx_hal_uart.o
                0x000000000800bb18                HAL_UART_Receive
 .text.HAL_UART_Transmit_IT
                0x000000000800bcb0       0xb8 Drivers/STM32F7xx_HAL_Driver/Src/stm32f7xx_hal_uart.o
                0x000000000800bcb0                HAL_UART_Transmit_IT
 .text.HAL_UART_Receive_IT
                0x000000000800bd68      0x144 Drivers/STM32F7xx_HAL_Driver/Src/stm32f7xx_hal_uart.o
                0x000000000800bd68                HAL_UART_Receive_IT
 .text.HAL_UART_IRQHandler
                0x000000000800beac      0x264 Drivers/STM32F7xx_HAL_Driver/Src/stm32f7xx_hal_uart.o
                0x000000000800beac                HAL_UART_IRQHandler
 .text.HAL_UART_TxCpltCallback
                0x000000000800c110       0x14 Drivers/STM32F7xx_HAL_Driver/Src/stm32f7xx_hal_uart.o
                0x000000000800c110                HAL_UART_TxCpltCallback
 .text.HAL_UART_ErrorCallback
                0x000000000800c124       0x14 Drivers/STM32F7xx_HAL_Driver/Src/stm32f7xx_hal_uart.o
                0x000000000800c124                HAL_UART_ErrorCallback
 .text.UART_SetConfig
                0x000000000800c138      0x554 Drivers/STM32F7xx_HAL_Driver/Src/stm32f7xx_hal_uart.o
                0x000000000800c138                UART_SetConfig
 .text.UART_AdvFeatureConfig
                0x000000000800c68c      0x144 Drivers/STM32F7xx_HAL_Driver/Src/stm32f7xx_hal_uart.o
                0x000000000800c68c                UART_AdvFeatureConfig
 .text.UART_CheckIdleState
                0x000000000800c7d0       0x5e Drivers/STM32F7xx_HAL_Driver/Src/stm32f7xx_hal_uart.o
                0x000000000800c7d0                UART_CheckIdleState
 .text.UART_WaitOnFlagUntilTimeout
                0x000000000800c82e       0xf6 Drivers/STM32F7xx_HAL_Driver/Src/stm32f7xx_hal_uart.o
                0x000000000800c82e                UART_WaitOnFlagUntilTimeout
 .text.UART_EndRxTransfer
                0x000000000800c924       0x40 Drivers/STM32F7xx_HAL_Driver/Src/stm32f7xx_hal_uart.o
 .text.UART_DMAAbortOnError
                0x000000000800c964       0x2c Drivers/STM32F7xx_HAL_Driver/Src/stm32f7xx_hal_uart.o
 .text.UART_TxISR_8BIT
                0x000000000800c990       0x72 Drivers/STM32F7xx_HAL_Driver/Src/stm32f7xx_hal_uart.o
 .text.UART_TxISR_16BIT
                0x000000000800ca02       0x7c Drivers/STM32F7xx_HAL_Driver/Src/stm32f7xx_hal_uart.o
 .text.UART_EndTransmit_IT
                0x000000000800ca7e       0x32 Drivers/STM32F7xx_HAL_Driver/Src/stm32f7xx_hal_uart.o
 .text.UART_RxISR_8BIT
                0x000000000800cab0       0xa6 Drivers/STM32F7xx_HAL_Driver/Src/stm32f7xx_hal_uart.o
 .text.UART_RxISR_16BIT
                0x000000000800cb56       0xa6 Drivers/STM32F7xx_HAL_Driver/Src/stm32f7xx_hal_uart.o
 .text.FMC_SDRAM_Init
                0x000000000800cbfc       0xe4 Drivers/STM32F7xx_HAL_Driver/Src/stm32f7xx_ll_fmc.o
                0x000000000800cbfc                FMC_SDRAM_Init
 .text.FMC_SDRAM_Timing_Init
                0x000000000800cce0      0x100 Drivers/STM32F7xx_HAL_Driver/Src/stm32f7xx_ll_fmc.o
                0x000000000800cce0                FMC_SDRAM_Timing_Init
 .text.FMC_SDRAM_SendCommand
                0x000000000800cde0       0x42 Drivers/STM32F7xx_HAL_Driver/Src/stm32f7xx_ll_fmc.o
                0x000000000800cde0                FMC_SDRAM_SendCommand
 .text.FMC_SDRAM_ProgramRefreshRate
                0x000000000800ce22       0x26 Drivers/STM32F7xx_HAL_Driver/Src/stm32f7xx_ll_fmc.o
                0x000000000800ce22                FMC_SDRAM_ProgramRefreshRate
 .text.makeFreeRtosPriority
                0x000000000800ce48       0x30 Middlewares/Third_Party/FreeRTOS/Source/CMSIS_RTOS/cmsis_os.o
 .text.osKernelStart
                0x000000000800ce78        0xe Middlewares/Third_Party/FreeRTOS/Source/CMSIS_RTOS/cmsis_os.o
                0x000000000800ce78                osKernelStart
 .text.osThreadCreate
                0x000000000800ce86       0x98 Middlewares/Third_Party/FreeRTOS/Source/CMSIS_RTOS/cmsis_os.o
                0x000000000800ce86                osThreadCreate
 .text.osDelay  0x000000000800cf1e       0x28 Middlewares/Third_Party/FreeRTOS/Source/CMSIS_RTOS/cmsis_os.o
                0x000000000800cf1e                osDelay
 .text.osMessageCreate
                0x000000000800cf46       0x52 Middlewares/Third_Party/FreeRTOS/Source/CMSIS_RTOS/cmsis_os.o
                0x000000000800cf46                osMessageCreate
 .text.vListInitialise
                0x000000000800cf98       0x40 Middlewares/Third_Party/FreeRTOS/Source/list.o
                0x000000000800cf98                vListInitialise
 .text.vListInitialiseItem
                0x000000000800cfd8       0x1a Middlewares/Third_Party/FreeRTOS/Source/list.o
                0x000000000800cfd8                vListInitialiseItem
 .text.vListInsertEnd
                0x000000000800cff2       0x48 Middlewares/Third_Party/FreeRTOS/Source/list.o
                0x000000000800cff2                vListInsertEnd
 .text.vListInsert
                0x000000000800d03a       0x72 Middlewares/Third_Party/FreeRTOS/Source/list.o
                0x000000000800d03a                vListInsert
 .text.uxListRemove
                0x000000000800d0ac       0x54 Middlewares/Third_Party/FreeRTOS/Source/list.o
                0x000000000800d0ac                uxListRemove
 .text.xQueueGenericReset
                0x000000000800d100       0xd4 Middlewares/Third_Party/FreeRTOS/Source/queue.o
                0x000000000800d100                xQueueGenericReset
 .text.xQueueGenericCreateStatic
                0x000000000800d1d4       0xfa Middlewares/Third_Party/FreeRTOS/Source/queue.o
                0x000000000800d1d4                xQueueGenericCreateStatic
 .text.xQueueGenericCreate
                0x000000000800d2ce       0x82 Middlewares/Third_Party/FreeRTOS/Source/queue.o
                0x000000000800d2ce                xQueueGenericCreate
 .text.prvInitialiseNewQueue
                0x000000000800d350       0x3e Middlewares/Third_Party/FreeRTOS/Source/queue.o
 *fill*         0x000000000800d38e        0x2 
 .text.xQueueGenericSend
                0x000000000800d390      0x204 Middlewares/Third_Party/FreeRTOS/Source/queue.o
                0x000000000800d390                xQueueGenericSend
 .text.xQueueGenericSendFromISR
                0x000000000800d594      0x138 Middlewares/Third_Party/FreeRTOS/Source/queue.o
                0x000000000800d594                xQueueGenericSendFromISR
 .text.xQueueReceive
                0x000000000800d6cc      0x1c4 Middlewares/Third_Party/FreeRTOS/Source/queue.o
                0x000000000800d6cc                xQueueReceive
 .text.prvCopyDataToQueue
                0x000000000800d890       0xd4 Middlewares/Third_Party/FreeRTOS/Source/queue.o
 .text.prvCopyDataFromQueue
                0x000000000800d964       0x4c Middlewares/Third_Party/FreeRTOS/Source/queue.o
 .text.prvUnlockQueue
                0x000000000800d9b0       0xa4 Middlewares/Third_Party/FreeRTOS/Source/queue.o
 .text.prvIsQueueEmpty
                0x000000000800da54       0x2c Middlewares/Third_Party/FreeRTOS/Source/queue.o
 .text.prvIsQueueFull
                0x000000000800da80       0x30 Middlewares/Third_Party/FreeRTOS/Source/queue.o
 .text.xTaskCreateStatic
                0x000000000800dab0       0xc0 Middlewares/Third_Party/FreeRTOS/Source/tasks.o
                0x000000000800dab0                xTaskCreateStatic
 .text.xTaskCreate
                0x000000000800db70       0x8a Middlewares/Third_Party/FreeRTOS/Source/tasks.o
                0x000000000800db70                xTaskCreate
 .text.prvInitialiseNewTask
                0x000000000800dbfa      0x126 Middlewares/Third_Party/FreeRTOS/Source/tasks.o
 .text.prvAddNewTaskToReadyList
                0x000000000800dd20       0xd4 Middlewares/Third_Party/FreeRTOS/Source/tasks.o
 .text.vTaskDelete
                0x000000000800ddf4      0x120 Middlewares/Third_Party/FreeRTOS/Source/tasks.o
                0x000000000800ddf4                vTaskDelete
 .text.vTaskDelayUntil
                0x000000000800df14      0x100 Middlewares/Third_Party/FreeRTOS/Source/tasks.o
                0x000000000800df14                vTaskDelayUntil
 .text.vTaskDelay
                0x000000000800e014       0x6c Middlewares/Third_Party/FreeRTOS/Source/tasks.o
                0x000000000800e014                vTaskDelay
 .text.vTaskStartScheduler
                0x000000000800e080       0xc4 Middlewares/Third_Party/FreeRTOS/Source/tasks.o
                0x000000000800e080                vTaskStartScheduler
 .text.vTaskSuspendAll
                0x000000000800e144       0x1c Middlewares/Third_Party/FreeRTOS/Source/tasks.o
                0x000000000800e144                vTaskSuspendAll
 .text.xTaskResumeAll
                0x000000000800e160      0x13c Middlewares/Third_Party/FreeRTOS/Source/tasks.o
                0x000000000800e160                xTaskResumeAll
 .text.xTaskGetTickCount
                0x000000000800e29c       0x20 Middlewares/Third_Party/FreeRTOS/Source/tasks.o
                0x000000000800e29c                xTaskGetTickCount
 .text.xTaskIncrementTick
                0x000000000800e2bc      0x174 Middlewares/Third_Party/FreeRTOS/Source/tasks.o
                0x000000000800e2bc                xTaskIncrementTick
 .text.vTaskSwitchContext
                0x000000000800e430      0x104 Middlewares/Third_Party/FreeRTOS/Source/tasks.o
                0x000000000800e430                vTaskSwitchContext
 .text.vTaskPlaceOnEventList
                0x000000000800e534       0x4c Middlewares/Third_Party/FreeRTOS/Source/tasks.o
                0x000000000800e534                vTaskPlaceOnEventList
 .text.xTaskRemoveFromEventList
                0x000000000800e580       0xc8 Middlewares/Third_Party/FreeRTOS/Source/tasks.o
                0x000000000800e580                xTaskRemoveFromEventList
 .text.vTaskInternalSetTimeOutState
                0x000000000800e648       0x2c Middlewares/Third_Party/FreeRTOS/Source/tasks.o
                0x000000000800e648                vTaskInternalSetTimeOutState
 .text.xTaskCheckForTimeOut
                0x000000000800e674       0xc8 Middlewares/Third_Party/FreeRTOS/Source/tasks.o
                0x000000000800e674                xTaskCheckForTimeOut
 .text.vTaskMissedYield
                0x000000000800e73c       0x18 Middlewares/Third_Party/FreeRTOS/Source/tasks.o
                0x000000000800e73c                vTaskMissedYield
 .text.prvIdleTask
                0x000000000800e754       0x34 Middlewares/Third_Party/FreeRTOS/Source/tasks.o
 .text.prvInitialiseTaskLists
                0x000000000800e788       0x80 Middlewares/Third_Party/FreeRTOS/Source/tasks.o
 .text.prvCheckTasksWaitingTermination
                0x000000000800e808       0x58 Middlewares/Third_Party/FreeRTOS/Source/tasks.o
 .text.prvDeleteTCB
                0x000000000800e860       0x60 Middlewares/Third_Party/FreeRTOS/Source/tasks.o
 .text.prvResetNextTaskUnblockTime
                0x000000000800e8c0       0x40 Middlewares/Third_Party/FreeRTOS/Source/tasks.o
 .text.xTaskGetSchedulerState
                0x000000000800e900       0x3c Middlewares/Third_Party/FreeRTOS/Source/tasks.o
                0x000000000800e900                xTaskGetSchedulerState
 .text.xTaskPriorityDisinherit
                0x000000000800e93c      0x110 Middlewares/Third_Party/FreeRTOS/Source/tasks.o
                0x000000000800e93c                xTaskPriorityDisinherit
 .text.prvAddCurrentTaskToDelayedList
                0x000000000800ea4c       0xcc Middlewares/Third_Party/FreeRTOS/Source/tasks.o
 .text.pxPortInitialiseStack
                0x000000000800eb18       0x68 Middlewares/Third_Party/FreeRTOS/Source/portable/GCC/ARM_CM7/r0p1/port.o
                0x000000000800eb18                pxPortInitialiseStack
 .text.prvTaskExitError
                0x000000000800eb80       0x5c Middlewares/Third_Party/FreeRTOS/Source/portable/GCC/ARM_CM7/r0p1/port.o
 *fill*         0x000000000800ebdc        0x4 
 .text.SVC_Handler
                0x000000000800ebe0       0x28 Middlewares/Third_Party/FreeRTOS/Source/portable/GCC/ARM_CM7/r0p1/port.o
                0x000000000800ebe0                SVC_Handler
 .text.prvPortStartFirstTask
                0x000000000800ec08       0x28 Middlewares/Third_Party/FreeRTOS/Source/portable/GCC/ARM_CM7/r0p1/port.o
 .text.xPortStartScheduler
                0x000000000800ec30       0xf8 Middlewares/Third_Party/FreeRTOS/Source/portable/GCC/ARM_CM7/r0p1/port.o
                0x000000000800ec30                xPortStartScheduler
 .text.vPortEnterCritical
                0x000000000800ed28       0x64 Middlewares/Third_Party/FreeRTOS/Source/portable/GCC/ARM_CM7/r0p1/port.o
                0x000000000800ed28                vPortEnterCritical
 .text.vPortExitCritical
                0x000000000800ed8c       0x54 Middlewares/Third_Party/FreeRTOS/Source/portable/GCC/ARM_CM7/r0p1/port.o
                0x000000000800ed8c                vPortExitCritical
 .text.PendSV_Handler
                0x000000000800ede0       0x68 Middlewares/Third_Party/FreeRTOS/Source/portable/GCC/ARM_CM7/r0p1/port.o
                0x000000000800ede0                PendSV_Handler
 .text.SysTick_Handler
                0x000000000800ee48       0x44 Middlewares/Third_Party/FreeRTOS/Source/portable/GCC/ARM_CM7/r0p1/port.o
                0x000000000800ee48                SysTick_Handler
 .text.vPortSetupTimerInterrupt
                0x000000000800ee8c       0x48 Middlewares/Third_Party/FreeRTOS/Source/portable/GCC/ARM_CM7/r0p1/port.o
                0x000000000800ee8c                vPortSetupTimerInterrupt
 .text.vPortEnableVFP
                0x000000000800eed4       0x14 Middlewares/Third_Party/FreeRTOS/Source/portable/GCC/ARM_CM7/r0p1/port.o
 .text.vPortValidateInterruptPriority
                0x000000000800eee8       0x84 Middlewares/Third_Party/FreeRTOS/Source/portable/GCC/ARM_CM7/r0p1/port.o
                0x000000000800eee8                vPortValidateInterruptPriority
 .text.pvPortMalloc
                0x000000000800ef6c      0x198 Middlewares/Third_Party/FreeRTOS/Source/portable/MemMang/heap_4.o
                0x000000000800ef6c                pvPortMalloc
 .text.vPortFree
                0x000000000800f104       0xb8 Middlewares/Third_Party/FreeRTOS/Source/portable/MemMang/heap_4.o
                0x000000000800f104                vPortFree
 .text.prvHeapInit
                0x000000000800f1bc       0xc4 Middlewares/Third_Party/FreeRTOS/Source/portable/MemMang/heap_4.o
 .text.prvInsertBlockIntoFreeList
                0x000000000800f280       0xb4 Middlewares/Third_Party/FreeRTOS/Source/portable/MemMang/heap_4.o
 .text.__libc_init_array
                0x000000000800f334       0x48 c:/st/stm32cubeide_1.5.1/stm32cubeide/plugins/com.st.stm32cube.ide.mcu.externaltools.gnu-tools-for-stm32.7-2018-q2-update.win32_1.5.0.202011040924/tools/bin/../lib/gcc/arm-none-eabi/7.3.1/../../../../arm-none-eabi/lib/thumb/v7e-m/fpv4-sp/hard\libc_nano.a(lib_a-init.o)
                0x000000000800f334                __libc_init_array
 .text.memcpy   0x000000000800f37c       0x16 c:/st/stm32cubeide_1.5.1/stm32cubeide/plugins/com.st.stm32cube.ide.mcu.externaltools.gnu-tools-for-stm32.7-2018-q2-update.win32_1.5.0.202011040924/tools/bin/../lib/gcc/arm-none-eabi/7.3.1/../../../../arm-none-eabi/lib/thumb/v7e-m/fpv4-sp/hard\libc_nano.a(lib_a-memcpy-stub.o)
                0x000000000800f37c                memcpy
 .text.memset   0x000000000800f392       0x10 c:/st/stm32cubeide_1.5.1/stm32cubeide/plugins/com.st.stm32cube.ide.mcu.externaltools.gnu-tools-for-stm32.7-2018-q2-update.win32_1.5.0.202011040924/tools/bin/../lib/gcc/arm-none-eabi/7.3.1/../../../../arm-none-eabi/lib/thumb/v7e-m/fpv4-sp/hard\libc_nano.a(lib_a-memset.o)
                0x000000000800f392                memset
 *fill*         0x000000000800f3a2        0x6 
 .text.cos      0x000000000800f3a8       0x88 c:/st/stm32cubeide_1.5.1/stm32cubeide/plugins/com.st.stm32cube.ide.mcu.externaltools.gnu-tools-for-stm32.7-2018-q2-update.win32_1.5.0.202011040924/tools/bin/../lib/gcc/arm-none-eabi/7.3.1/../../../../arm-none-eabi/lib/thumb/v7e-m/fpv4-sp/hard\libm.a(lib_a-s_cos.o)
                0x000000000800f3a8                cos
 .text.sin      0x000000000800f430       0x90 c:/st/stm32cubeide_1.5.1/stm32cubeide/plugins/com.st.stm32cube.ide.mcu.externaltools.gnu-tools-for-stm32.7-2018-q2-update.win32_1.5.0.202011040924/tools/bin/../lib/gcc/arm-none-eabi/7.3.1/../../../../arm-none-eabi/lib/thumb/v7e-m/fpv4-sp/hard\libm.a(lib_a-s_sin.o)
                0x000000000800f430                sin
 .text.__ieee754_rem_pio2
                0x000000000800f4c0      0x3e4 c:/st/stm32cubeide_1.5.1/stm32cubeide/plugins/com.st.stm32cube.ide.mcu.externaltools.gnu-tools-for-stm32.7-2018-q2-update.win32_1.5.0.202011040924/tools/bin/../lib/gcc/arm-none-eabi/7.3.1/../../../../arm-none-eabi/lib/thumb/v7e-m/fpv4-sp/hard\libm.a(lib_a-e_rem_pio2.o)
                0x000000000800f4c0                __ieee754_rem_pio2
 *fill*         0x000000000800f8a4        0x4 
 .text.__kernel_cos
                0x000000000800f8a8      0x18c c:/st/stm32cubeide_1.5.1/stm32cubeide/plugins/com.st.stm32cube.ide.mcu.externaltools.gnu-tools-for-stm32.7-2018-q2-update.win32_1.5.0.202011040924/tools/bin/../lib/gcc/arm-none-eabi/7.3.1/../../../../arm-none-eabi/lib/thumb/v7e-m/fpv4-sp/hard\libm.a(lib_a-k_cos.o)
                0x000000000800f8a8                __kernel_cos
 *fill*         0x000000000800fa34        0x4 
 .text.__kernel_rem_pio2
                0x000000000800fa38      0x680 c:/st/stm32cubeide_1.5.1/stm32cubeide/plugins/com.st.stm32cube.ide.mcu.externaltools.gnu-tools-for-stm32.7-2018-q2-update.win32_1.5.0.202011040924/tools/bin/../lib/gcc/arm-none-eabi/7.3.1/../../../../arm-none-eabi/lib/thumb/v7e-m/fpv4-sp/hard\libm.a(lib_a-k_rem_pio2.o)
                0x000000000800fa38                __kernel_rem_pio2
 .text.__kernel_sin
                0x00000000080100b8      0x174 c:/st/stm32cubeide_1.5.1/stm32cubeide/plugins/com.st.stm32cube.ide.mcu.externaltools.gnu-tools-for-stm32.7-2018-q2-update.win32_1.5.0.202011040924/tools/bin/../lib/gcc/arm-none-eabi/7.3.1/../../../../arm-none-eabi/lib/thumb/v7e-m/fpv4-sp/hard\libm.a(lib_a-k_sin.o)
                0x00000000080100b8                __kernel_sin
 .text.fabs     0x000000000801022c       0x12 c:/st/stm32cubeide_1.5.1/stm32cubeide/plugins/com.st.stm32cube.ide.mcu.externaltools.gnu-tools-for-stm32.7-2018-q2-update.win32_1.5.0.202011040924/tools/bin/../lib/gcc/arm-none-eabi/7.3.1/../../../../arm-none-eabi/lib/thumb/v7e-m/fpv4-sp/hard\libm.a(lib_a-s_fabs.o)
                0x000000000801022c                fabs
 *fill*         0x000000000801023e        0x2 
 .text.floor    0x0000000008010240      0x108 c:/st/stm32cubeide_1.5.1/stm32cubeide/plugins/com.st.stm32cube.ide.mcu.externaltools.gnu-tools-for-stm32.7-2018-q2-update.win32_1.5.0.202011040924/tools/bin/../lib/gcc/arm-none-eabi/7.3.1/../../../../arm-none-eabi/lib/thumb/v7e-m/fpv4-sp/hard\libm.a(lib_a-s_floor.o)
                0x0000000008010240                floor
 .text.scalbn   0x0000000008010348       0xec c:/st/stm32cubeide_1.5.1/stm32cubeide/plugins/com.st.stm32cube.ide.mcu.externaltools.gnu-tools-for-stm32.7-2018-q2-update.win32_1.5.0.202011040924/tools/bin/../lib/gcc/arm-none-eabi/7.3.1/../../../../arm-none-eabi/lib/thumb/v7e-m/fpv4-sp/hard\libm.a(lib_a-s_scalbn.o)
                0x0000000008010348                scalbn
 .text.copysign
                0x0000000008010434       0x1e c:/st/stm32cubeide_1.5.1/stm32cubeide/plugins/com.st.stm32cube.ide.mcu.externaltools.gnu-tools-for-stm32.7-2018-q2-update.win32_1.5.0.202011040924/tools/bin/../lib/gcc/arm-none-eabi/7.3.1/../../../../arm-none-eabi/lib/thumb/v7e-m/fpv4-sp/hard\libm.a(lib_a-s_copysign.o)
                0x0000000008010434                copysign
 *(.glue_7)
 .glue_7        0x0000000008010452        0x0 linker stubs
 *(.glue_7t)
 .glue_7t       0x0000000008010452        0x0 linker stubs
 *(.eh_frame)
 *fill*         0x0000000008010452        0x2 
 .eh_frame      0x0000000008010454        0x0 c:/st/stm32cubeide_1.5.1/stm32cubeide/plugins/com.st.stm32cube.ide.mcu.externaltools.gnu-tools-for-stm32.7-2018-q2-update.win32_1.5.0.202011040924/tools/bin/../lib/gcc/arm-none-eabi/7.3.1/thumb/v7e-m/fpv4-sp/hard/crtbegin.o
 *(.init)
 .init          0x0000000008010454        0x4 c:/st/stm32cubeide_1.5.1/stm32cubeide/plugins/com.st.stm32cube.ide.mcu.externaltools.gnu-tools-for-stm32.7-2018-q2-update.win32_1.5.0.202011040924/tools/bin/../lib/gcc/arm-none-eabi/7.3.1/thumb/v7e-m/fpv4-sp/hard/crti.o
                0x0000000008010454                _init
 .init          0x0000000008010458        0x8 c:/st/stm32cubeide_1.5.1/stm32cubeide/plugins/com.st.stm32cube.ide.mcu.externaltools.gnu-tools-for-stm32.7-2018-q2-update.win32_1.5.0.202011040924/tools/bin/../lib/gcc/arm-none-eabi/7.3.1/thumb/v7e-m/fpv4-sp/hard/crtn.o
 *(.fini)
 .fini          0x0000000008010460        0x4 c:/st/stm32cubeide_1.5.1/stm32cubeide/plugins/com.st.stm32cube.ide.mcu.externaltools.gnu-tools-for-stm32.7-2018-q2-update.win32_1.5.0.202011040924/tools/bin/../lib/gcc/arm-none-eabi/7.3.1/thumb/v7e-m/fpv4-sp/hard/crti.o
                0x0000000008010460                _fini
 .fini          0x0000000008010464        0x8 c:/st/stm32cubeide_1.5.1/stm32cubeide/plugins/com.st.stm32cube.ide.mcu.externaltools.gnu-tools-for-stm32.7-2018-q2-update.win32_1.5.0.202011040924/tools/bin/../lib/gcc/arm-none-eabi/7.3.1/thumb/v7e-m/fpv4-sp/hard/crtn.o
                0x000000000801046c                . = ALIGN (0x4)
                0x000000000801046c                _etext = .

.vfp11_veneer   0x000000000801046c        0x0
 .vfp11_veneer  0x000000000801046c        0x0 linker stubs

.v4_bx          0x000000000801046c        0x0
 .v4_bx         0x000000000801046c        0x0 linker stubs

.iplt           0x000000000801046c        0x0
 .iplt          0x000000000801046c        0x0 c:/st/stm32cubeide_1.5.1/stm32cubeide/plugins/com.st.stm32cube.ide.mcu.externaltools.gnu-tools-for-stm32.7-2018-q2-update.win32_1.5.0.202011040924/tools/bin/../lib/gcc/arm-none-eabi/7.3.1/thumb/v7e-m/fpv4-sp/hard/crtbegin.o

.rodata         0x0000000008010470     0x2250
                0x0000000008010470                . = ALIGN (0x4)
 *(.rodata)
 .rodata        0x0000000008010470      0x122 Core/Src/main.o
 *fill*         0x0000000008010592        0x2 
 .rodata        0x0000000008010594        0x5 Middlewares/Third_Party/FreeRTOS/Source/tasks.o
 *(.rodata*)
 *fill*         0x0000000008010599        0x3 
 .rodata.Font24_Table
                0x000000000801059c     0x1ab8 Core/Src/stm32746g_discovery_lcd.o
                0x000000000801059c                Font24_Table
 .rodata.Font12_Table
                0x0000000008012054      0x474 Core/Src/stm32746g_discovery_lcd.o
                0x0000000008012054                Font12_Table
 .rodata.AHBPrescTable
                0x00000000080124c8       0x10 Core/Src/system_stm32f7xx.o
                0x00000000080124c8                AHBPrescTable
 .rodata.APBPrescTable
                0x00000000080124d8        0x8 Core/Src/system_stm32f7xx.o
                0x00000000080124d8                APBPrescTable
 .rodata.flagBitshiftOffset.9876
                0x00000000080124e0        0x8 Drivers/STM32F7xx_HAL_Driver/Src/stm32f7xx_hal_dma.o
 .rodata.npio2_hw
                0x00000000080124e8       0x80 c:/st/stm32cubeide_1.5.1/stm32cubeide/plugins/com.st.stm32cube.ide.mcu.externaltools.gnu-tools-for-stm32.7-2018-q2-update.win32_1.5.0.202011040924/tools/bin/../lib/gcc/arm-none-eabi/7.3.1/../../../../arm-none-eabi/lib/thumb/v7e-m/fpv4-sp/hard\libm.a(lib_a-e_rem_pio2.o)
 .rodata.two_over_pi
                0x0000000008012568      0x108 c:/st/stm32cubeide_1.5.1/stm32cubeide/plugins/com.st.stm32cube.ide.mcu.externaltools.gnu-tools-for-stm32.7-2018-q2-update.win32_1.5.0.202011040924/tools/bin/../lib/gcc/arm-none-eabi/7.3.1/../../../../arm-none-eabi/lib/thumb/v7e-m/fpv4-sp/hard\libm.a(lib_a-e_rem_pio2.o)
 .rodata.PIo2   0x0000000008012670       0x40 c:/st/stm32cubeide_1.5.1/stm32cubeide/plugins/com.st.stm32cube.ide.mcu.externaltools.gnu-tools-for-stm32.7-2018-q2-update.win32_1.5.0.202011040924/tools/bin/../lib/gcc/arm-none-eabi/7.3.1/../../../../arm-none-eabi/lib/thumb/v7e-m/fpv4-sp/hard\libm.a(lib_a-k_rem_pio2.o)
 .rodata.init_jk
                0x00000000080126b0       0x10 c:/st/stm32cubeide_1.5.1/stm32cubeide/plugins/com.st.stm32cube.ide.mcu.externaltools.gnu-tools-for-stm32.7-2018-q2-update.win32_1.5.0.202011040924/tools/bin/../lib/gcc/arm-none-eabi/7.3.1/../../../../arm-none-eabi/lib/thumb/v7e-m/fpv4-sp/hard\libm.a(lib_a-k_rem_pio2.o)
                0x00000000080126c0                . = ALIGN (0x4)

.ARM.extab      0x00000000080126c0        0x0
                0x00000000080126c0                . = ALIGN (0x4)
 *(.ARM.extab* .gnu.linkonce.armextab.*)
                0x00000000080126c0                . = ALIGN (0x4)

.ARM            0x00000000080126c0        0x8
                0x00000000080126c0                . = ALIGN (0x4)
                0x00000000080126c0                __exidx_start = .
 *(.ARM.exidx*)
 .ARM.exidx     0x00000000080126c0        0x8 c:/st/stm32cubeide_1.5.1/stm32cubeide/plugins/com.st.stm32cube.ide.mcu.externaltools.gnu-tools-for-stm32.7-2018-q2-update.win32_1.5.0.202011040924/tools/bin/../lib/gcc/arm-none-eabi/7.3.1/thumb/v7e-m/fpv4-sp/hard\libgcc.a(_udivmoddi4.o)
                0x00000000080126c8                __exidx_end = .
                0x00000000080126c8                . = ALIGN (0x4)

.rel.dyn        0x00000000080126c8        0x0
 .rel.iplt      0x00000000080126c8        0x0 c:/st/stm32cubeide_1.5.1/stm32cubeide/plugins/com.st.stm32cube.ide.mcu.externaltools.gnu-tools-for-stm32.7-2018-q2-update.win32_1.5.0.202011040924/tools/bin/../lib/gcc/arm-none-eabi/7.3.1/thumb/v7e-m/fpv4-sp/hard/crtbegin.o

.preinit_array  0x00000000080126c8        0x0
                0x00000000080126c8                . = ALIGN (0x4)
                0x00000000080126c8                PROVIDE (__preinit_array_start = .)
 *(.preinit_array*)
                0x00000000080126c8                PROVIDE (__preinit_array_end = .)
                0x00000000080126c8                . = ALIGN (0x4)

.init_array     0x00000000080126c8        0x4
                0x00000000080126c8                . = ALIGN (0x4)
                0x00000000080126c8                PROVIDE (__init_array_start = .)
 *(SORT_BY_NAME(.init_array.*))
 *(.init_array*)
 .init_array    0x00000000080126c8        0x4 c:/st/stm32cubeide_1.5.1/stm32cubeide/plugins/com.st.stm32cube.ide.mcu.externaltools.gnu-tools-for-stm32.7-2018-q2-update.win32_1.5.0.202011040924/tools/bin/../lib/gcc/arm-none-eabi/7.3.1/thumb/v7e-m/fpv4-sp/hard/crtbegin.o
                0x00000000080126cc                PROVIDE (__init_array_end = .)
                0x00000000080126cc                . = ALIGN (0x4)

.fini_array     0x00000000080126cc        0x4
                0x00000000080126cc                . = ALIGN (0x4)
                [!provide]                        PROVIDE (__fini_array_start = .)
 *(SORT_BY_NAME(.fini_array.*))
 *(.fini_array*)
 .fini_array    0x00000000080126cc        0x4 c:/st/stm32cubeide_1.5.1/stm32cubeide/plugins/com.st.stm32cube.ide.mcu.externaltools.gnu-tools-for-stm32.7-2018-q2-update.win32_1.5.0.202011040924/tools/bin/../lib/gcc/arm-none-eabi/7.3.1/thumb/v7e-m/fpv4-sp/hard/crtbegin.o
                [!provide]                        PROVIDE (__fini_array_end = .)
                0x00000000080126d0                . = ALIGN (0x4)
                0x00000000080126d0                _sidata = LOADADDR (.data)

.data           0x0000000020000000       0x50 load address 0x00000000080126d0
                0x0000000020000000                . = ALIGN (0x4)
                0x0000000020000000                _sdata = .
 *(.data)
 *(.data*)
 .data.ft5336_ts_drv
                0x0000000020000000       0x28 Core/Src/ft5336.o
                0x0000000020000000                ft5336_ts_drv
 .data.rayonBalle
                0x0000000020000028        0x4 Core/Src/main.o
                0x0000000020000028                rayonBalle
 .data.Font24   0x000000002000002c        0x8 Core/Src/stm32746g_discovery_lcd.o
                0x000000002000002c                Font24
 .data.Font12   0x0000000020000034        0x8 Core/Src/stm32746g_discovery_lcd.o
                0x0000000020000034                Font12
 .data.sdramstatus.9792
                0x000000002000003c        0x1 Core/Src/stm32746g_discovery_sdram.o
 *fill*         0x000000002000003d        0x3 
 .data.SystemCoreClock
                0x0000000020000040        0x4 Core/Src/system_stm32f7xx.o
                0x0000000020000040                SystemCoreClock
 .data.uwTickPrio
                0x0000000020000044        0x4 Drivers/STM32F7xx_HAL_Driver/Src/stm32f7xx_hal.o
                0x0000000020000044                uwTickPrio
 .data.uwTickFreq
                0x0000000020000048        0x1 Drivers/STM32F7xx_HAL_Driver/Src/stm32f7xx_hal.o
                0x0000000020000048                uwTickFreq
 *fill*         0x0000000020000049        0x3 
 .data.uxCriticalNesting
                0x000000002000004c        0x4 Middlewares/Third_Party/FreeRTOS/Source/portable/GCC/ARM_CM7/r0p1/port.o
 *(.RamFunc)
 *(.RamFunc*)
                0x0000000020000050                . = ALIGN (0x4)
                0x0000000020000050                _edata = .

.igot.plt       0x0000000020000050        0x0 load address 0x0000000008012720
 .igot.plt      0x0000000020000050        0x0 c:/st/stm32cubeide_1.5.1/stm32cubeide/plugins/com.st.stm32cube.ide.mcu.externaltools.gnu-tools-for-stm32.7-2018-q2-update.win32_1.5.0.202011040924/tools/bin/../lib/gcc/arm-none-eabi/7.3.1/thumb/v7e-m/fpv4-sp/hard/crtbegin.o
                0x0000000020000050                . = ALIGN (0x4)

.bss            0x0000000020000050     0x8cc0 load address 0x0000000008012720
                0x0000000020000050                _sbss = .
                0x0000000020000050                __bss_start__ = _sbss
 *(.bss)
 .bss           0x0000000020000050       0x1c c:/st/stm32cubeide_1.5.1/stm32cubeide/plugins/com.st.stm32cube.ide.mcu.externaltools.gnu-tools-for-stm32.7-2018-q2-update.win32_1.5.0.202011040924/tools/bin/../lib/gcc/arm-none-eabi/7.3.1/thumb/v7e-m/fpv4-sp/hard/crtbegin.o
 *(.bss*)
 .bss.xIdleTaskTCBBuffer
                0x000000002000006c       0x58 Core/Src/freertos.o
 .bss.xIdleStack
                0x00000000200000c4      0x200 Core/Src/freertos.o
 .bss.ft5336_handle
                0x00000000200002c4        0x3 Core/Src/ft5336.o
 *fill*         0x00000000200002c7        0x1 
 .bss.coord.5529
                0x00000000200002c8        0x2 Core/Src/ft5336.o
 *fill*         0x00000000200002ca        0x2 
 .bss.TS_State.12548
                0x00000000200002cc       0x2c Core/Src/main.o
 .bss.hI2cAudioHandler
                0x00000000200002f8       0x4c Core/Src/stm32746g_discovery.o
 .bss.hDma2dHandler
                0x0000000020000344       0x40 Core/Src/stm32746g_discovery_lcd.o
 .bss.ActiveLayer
                0x0000000020000384        0x4 Core/Src/stm32746g_discovery_lcd.o
 .bss.DrawProp  0x0000000020000388       0x18 Core/Src/stm32746g_discovery_lcd.o
 .bss.periph_clk_init_struct.10379
                0x00000000200003a0       0x84 Core/Src/stm32746g_discovery_lcd.o
 .bss.Timing    0x0000000020000424       0x1c Core/Src/stm32746g_discovery_sdram.o
 .bss.Command   0x0000000020000440       0x10 Core/Src/stm32746g_discovery_sdram.o
 .bss.dma_handle.9828
                0x0000000020000450       0x60 Core/Src/stm32746g_discovery_sdram.o
 .bss.tsDriver  0x00000000200004b0        0x4 Core/Src/stm32746g_discovery_ts.o
 .bss.tsXBoundary
                0x00000000200004b4        0x2 Core/Src/stm32746g_discovery_ts.o
 .bss.tsYBoundary
                0x00000000200004b6        0x2 Core/Src/stm32746g_discovery_ts.o
 .bss.tsOrientation
                0x00000000200004b8        0x1 Core/Src/stm32746g_discovery_ts.o
 .bss.I2cAddress
                0x00000000200004b9        0x1 Core/Src/stm32746g_discovery_ts.o
 *fill*         0x00000000200004ba        0x2 
 .bss._x.9944   0x00000000200004bc       0x14 Core/Src/stm32746g_discovery_ts.o
 .bss._y.9945   0x00000000200004d0       0x14 Core/Src/stm32746g_discovery_ts.o
 .bss.FMC_Initialized
                0x00000000200004e4        0x4 Core/Src/stm32f7xx_hal_msp.o
 .bss.pxCurrentTCB
                0x00000000200004e8        0x4 Middlewares/Third_Party/FreeRTOS/Source/tasks.o
                0x00000000200004e8                pxCurrentTCB
 .bss.pxReadyTasksLists
                0x00000000200004ec       0x8c Middlewares/Third_Party/FreeRTOS/Source/tasks.o
 .bss.xDelayedTaskList1
                0x0000000020000578       0x14 Middlewares/Third_Party/FreeRTOS/Source/tasks.o
 .bss.xDelayedTaskList2
                0x000000002000058c       0x14 Middlewares/Third_Party/FreeRTOS/Source/tasks.o
 .bss.pxDelayedTaskList
                0x00000000200005a0        0x4 Middlewares/Third_Party/FreeRTOS/Source/tasks.o
 .bss.pxOverflowDelayedTaskList
                0x00000000200005a4        0x4 Middlewares/Third_Party/FreeRTOS/Source/tasks.o
 .bss.xPendingReadyList
                0x00000000200005a8       0x14 Middlewares/Third_Party/FreeRTOS/Source/tasks.o
 .bss.xTasksWaitingTermination
                0x00000000200005bc       0x14 Middlewares/Third_Party/FreeRTOS/Source/tasks.o
 .bss.uxDeletedTasksWaitingCleanUp
                0x00000000200005d0        0x4 Middlewares/Third_Party/FreeRTOS/Source/tasks.o
 .bss.xSuspendedTaskList
                0x00000000200005d4       0x14 Middlewares/Third_Party/FreeRTOS/Source/tasks.o
 .bss.uxCurrentNumberOfTasks
                0x00000000200005e8        0x4 Middlewares/Third_Party/FreeRTOS/Source/tasks.o
 .bss.xTickCount
                0x00000000200005ec        0x4 Middlewares/Third_Party/FreeRTOS/Source/tasks.o
 .bss.uxTopReadyPriority
                0x00000000200005f0        0x4 Middlewares/Third_Party/FreeRTOS/Source/tasks.o
 .bss.xSchedulerRunning
                0x00000000200005f4        0x4 Middlewares/Third_Party/FreeRTOS/Source/tasks.o
 .bss.uxPendedTicks
                0x00000000200005f8        0x4 Middlewares/Third_Party/FreeRTOS/Source/tasks.o
 .bss.xYieldPending
                0x00000000200005fc        0x4 Middlewares/Third_Party/FreeRTOS/Source/tasks.o
 .bss.xNumOfOverflows
                0x0000000020000600        0x4 Middlewares/Third_Party/FreeRTOS/Source/tasks.o
 .bss.uxTaskNumber
                0x0000000020000604        0x4 Middlewares/Third_Party/FreeRTOS/Source/tasks.o
 .bss.xNextTaskUnblockTime
                0x0000000020000608        0x4 Middlewares/Third_Party/FreeRTOS/Source/tasks.o
 .bss.xIdleTaskHandle
                0x000000002000060c        0x4 Middlewares/Third_Party/FreeRTOS/Source/tasks.o
 .bss.uxSchedulerSuspended
                0x0000000020000610        0x4 Middlewares/Third_Party/FreeRTOS/Source/tasks.o
 .bss.ucMaxSysCallPriority
                0x0000000020000614        0x1 Middlewares/Third_Party/FreeRTOS/Source/portable/GCC/ARM_CM7/r0p1/port.o
 *fill*         0x0000000020000615        0x3 
 .bss.ulMaxPRIGROUPValue
                0x0000000020000618        0x4 Middlewares/Third_Party/FreeRTOS/Source/portable/GCC/ARM_CM7/r0p1/port.o
 .bss.ucHeap    0x000000002000061c     0x8000 Middlewares/Third_Party/FreeRTOS/Source/portable/MemMang/heap_4.o
 .bss.xStart    0x000000002000861c        0x8 Middlewares/Third_Party/FreeRTOS/Source/portable/MemMang/heap_4.o
 .bss.pxEnd     0x0000000020008624        0x4 Middlewares/Third_Party/FreeRTOS/Source/portable/MemMang/heap_4.o
 .bss.xFreeBytesRemaining
                0x0000000020008628        0x4 Middlewares/Third_Party/FreeRTOS/Source/portable/MemMang/heap_4.o
 .bss.xMinimumEverFreeBytesRemaining
                0x000000002000862c        0x4 Middlewares/Third_Party/FreeRTOS/Source/portable/MemMang/heap_4.o
 .bss.xBlockAllocatedBit
                0x0000000020008630        0x4 Middlewares/Third_Party/FreeRTOS/Source/portable/MemMang/heap_4.o
 *(COMMON)
 COMMON         0x0000000020008634      0x5bc Core/Src/main.o
                0x0000000020008634                defaultTaskHandle
                0x0000000020008638                hi2c3
                0x0000000020008684                LancerBalleHandle
                0x0000000020008688                hspi2
                0x00000000200086ec                huart7
                0x000000002000876c                htim8
                0x00000000200087ac                hi2c1
                0x00000000200087f8                htim5
                0x0000000020008838                htim3
                0x0000000020008878                hltdc
                0x0000000020008920                QueueCommHandle
                0x0000000020008924                CommHandle
                0x0000000020008928                hadc1
                0x0000000020008970                hadc3
                0x00000000200089b8                huart1
                0x0000000020008a38                hdac
                0x0000000020008a4c                CalcEtAffichHandle
                0x0000000020008a50                hrtc
                0x0000000020008a70                htim1
                0x0000000020008ab0                huart6
                0x0000000020008b30                LancerCalculHandle
                0x0000000020008b34                hdma2d
                0x0000000020008b74                htim2
                0x0000000020008bb4                hsdram1
                0x0000000020008be8                rxbuffer
 COMMON         0x0000000020008bf0       0xa8 Core/Src/stm32746g_discovery_lcd.o
                0x0000000020008bf0                hLtdcHandler
 COMMON         0x0000000020008c98       0x34 Core/Src/stm32746g_discovery_sdram.o
                0x0000000020008c98                sdramHandle
 COMMON         0x0000000020008ccc       0x40 Core/Src/stm32f7xx_hal_timebase_tim.o
                0x0000000020008ccc                htim6
 COMMON         0x0000000020008d0c        0x4 Drivers/STM32F7xx_HAL_Driver/Src/stm32f7xx_hal.o
                0x0000000020008d0c                uwTick
                0x0000000020008d10                . = ALIGN (0x4)
                0x0000000020008d10                _ebss = .
                0x0000000020008d10                __bss_end__ = _ebss

._user_heap_stack
                0x0000000020008d10      0x600 load address 0x0000000008012720
                0x0000000020008d10                . = ALIGN (0x8)
                [!provide]                        PROVIDE (end = .)
                0x0000000020008d10                PROVIDE (_end = .)
                0x0000000020008f10                . = (. + _Min_Heap_Size)
 *fill*         0x0000000020008d10      0x200 
                0x0000000020009310                . = (. + _Min_Stack_Size)
 *fill*         0x0000000020008f10      0x400 
                0x0000000020009310                . = ALIGN (0x8)

/DISCARD/
 libc.a(*)
 libm.a(*)
 libgcc.a(*)

.ARM.attributes
                0x0000000000000000       0x30
 *(.ARM.attributes)
 .ARM.attributes
                0x0000000000000000       0x22 c:/st/stm32cubeide_1.5.1/stm32cubeide/plugins/com.st.stm32cube.ide.mcu.externaltools.gnu-tools-for-stm32.7-2018-q2-update.win32_1.5.0.202011040924/tools/bin/../lib/gcc/arm-none-eabi/7.3.1/thumb/v7e-m/fpv4-sp/hard/crti.o
 .ARM.attributes
                0x0000000000000022       0x34 c:/st/stm32cubeide_1.5.1/stm32cubeide/plugins/com.st.stm32cube.ide.mcu.externaltools.gnu-tools-for-stm32.7-2018-q2-update.win32_1.5.0.202011040924/tools/bin/../lib/gcc/arm-none-eabi/7.3.1/thumb/v7e-m/fpv4-sp/hard/crtbegin.o
 .ARM.attributes
                0x0000000000000056       0x39 Core/Src/freertos.o
 .ARM.attributes
                0x000000000000008f       0x39 Core/Src/ft5336.o
 .ARM.attributes
                0x00000000000000c8       0x39 Core/Src/main.o
 .ARM.attributes
                0x0000000000000101       0x39 Core/Src/stm32746g_discovery.o
 .ARM.attributes
                0x000000000000013a       0x39 Core/Src/stm32746g_discovery_lcd.o
 .ARM.attributes
                0x0000000000000173       0x39 Core/Src/stm32746g_discovery_sdram.o
 .ARM.attributes
                0x00000000000001ac       0x39 Core/Src/stm32746g_discovery_ts.o
 .ARM.attributes
                0x00000000000001e5       0x39 Core/Src/stm32f7xx_hal_msp.o
 .ARM.attributes
                0x000000000000021e       0x39 Core/Src/stm32f7xx_hal_timebase_tim.o
 .ARM.attributes
                0x0000000000000257       0x39 Core/Src/stm32f7xx_it.o
 .ARM.attributes
                0x0000000000000290       0x39 Core/Src/system_stm32f7xx.o
 .ARM.attributes
                0x00000000000002c9       0x21 Core/Startup/startup_stm32f746nghx.o
 .ARM.attributes
                0x00000000000002ea       0x39 Drivers/STM32F7xx_HAL_Driver/Src/stm32f7xx_hal.o
 .ARM.attributes
                0x0000000000000323       0x39 Drivers/STM32F7xx_HAL_Driver/Src/stm32f7xx_hal_adc.o
 .ARM.attributes
                0x000000000000035c       0x39 Drivers/STM32F7xx_HAL_Driver/Src/stm32f7xx_hal_cortex.o
 .ARM.attributes
                0x0000000000000395       0x39 Drivers/STM32F7xx_HAL_Driver/Src/stm32f7xx_hal_dac.o
 .ARM.attributes
                0x00000000000003ce       0x39 Drivers/STM32F7xx_HAL_Driver/Src/stm32f7xx_hal_dac_ex.o
 .ARM.attributes
                0x0000000000000407       0x39 Drivers/STM32F7xx_HAL_Driver/Src/stm32f7xx_hal_dma.o
 .ARM.attributes
                0x0000000000000440       0x39 Drivers/STM32F7xx_HAL_Driver/Src/stm32f7xx_hal_dma2d.o
 .ARM.attributes
                0x0000000000000479       0x39 Drivers/STM32F7xx_HAL_Driver/Src/stm32f7xx_hal_gpio.o
 .ARM.attributes
                0x00000000000004b2       0x39 Drivers/STM32F7xx_HAL_Driver/Src/stm32f7xx_hal_i2c.o
 .ARM.attributes
                0x00000000000004eb       0x39 Drivers/STM32F7xx_HAL_Driver/Src/stm32f7xx_hal_i2c_ex.o
 .ARM.attributes
                0x0000000000000524       0x39 Drivers/STM32F7xx_HAL_Driver/Src/stm32f7xx_hal_ltdc.o
 .ARM.attributes
                0x000000000000055d       0x39 Drivers/STM32F7xx_HAL_Driver/Src/stm32f7xx_hal_pwr.o
 .ARM.attributes
                0x0000000000000596       0x39 Drivers/STM32F7xx_HAL_Driver/Src/stm32f7xx_hal_pwr_ex.o
 .ARM.attributes
                0x00000000000005cf       0x39 Drivers/STM32F7xx_HAL_Driver/Src/stm32f7xx_hal_rcc.o
 .ARM.attributes
                0x0000000000000608       0x39 Drivers/STM32F7xx_HAL_Driver/Src/stm32f7xx_hal_rcc_ex.o
 .ARM.attributes
                0x0000000000000641       0x39 Drivers/STM32F7xx_HAL_Driver/Src/stm32f7xx_hal_rtc.o
 .ARM.attributes
                0x000000000000067a       0x39 Drivers/STM32F7xx_HAL_Driver/Src/stm32f7xx_hal_rtc_ex.o
 .ARM.attributes
                0x00000000000006b3       0x39 Drivers/STM32F7xx_HAL_Driver/Src/stm32f7xx_hal_sdram.o
 .ARM.attributes
                0x00000000000006ec       0x39 Drivers/STM32F7xx_HAL_Driver/Src/stm32f7xx_hal_spi.o
 .ARM.attributes
                0x0000000000000725       0x39 Drivers/STM32F7xx_HAL_Driver/Src/stm32f7xx_hal_tim.o
 .ARM.attributes
                0x000000000000075e       0x39 Drivers/STM32F7xx_HAL_Driver/Src/stm32f7xx_hal_tim_ex.o
 .ARM.attributes
                0x0000000000000797       0x39 Drivers/STM32F7xx_HAL_Driver/Src/stm32f7xx_hal_uart.o
 .ARM.attributes
                0x00000000000007d0       0x39 Drivers/STM32F7xx_HAL_Driver/Src/stm32f7xx_ll_fmc.o
 .ARM.attributes
                0x0000000000000809       0x39 Middlewares/Third_Party/FreeRTOS/Source/CMSIS_RTOS/cmsis_os.o
 .ARM.attributes
                0x0000000000000842       0x39 Middlewares/Third_Party/FreeRTOS/Source/list.o
 .ARM.attributes
                0x000000000000087b       0x39 Middlewares/Third_Party/FreeRTOS/Source/queue.o
 .ARM.attributes
                0x00000000000008b4       0x39 Middlewares/Third_Party/FreeRTOS/Source/tasks.o
 .ARM.attributes
                0x00000000000008ed       0x39 Middlewares/Third_Party/FreeRTOS/Source/portable/GCC/ARM_CM7/r0p1/port.o
 .ARM.attributes
                0x0000000000000926       0x39 Middlewares/Third_Party/FreeRTOS/Source/portable/MemMang/heap_4.o
 .ARM.attributes
                0x000000000000095f       0x34 c:/st/stm32cubeide_1.5.1/stm32cubeide/plugins/com.st.stm32cube.ide.mcu.externaltools.gnu-tools-for-stm32.7-2018-q2-update.win32_1.5.0.202011040924/tools/bin/../lib/gcc/arm-none-eabi/7.3.1/../../../../arm-none-eabi/lib/thumb/v7e-m/fpv4-sp/hard\libc_nano.a(lib_a-init.o)
 .ARM.attributes
                0x0000000000000993       0x34 c:/st/stm32cubeide_1.5.1/stm32cubeide/plugins/com.st.stm32cube.ide.mcu.externaltools.gnu-tools-for-stm32.7-2018-q2-update.win32_1.5.0.202011040924/tools/bin/../lib/gcc/arm-none-eabi/7.3.1/../../../../arm-none-eabi/lib/thumb/v7e-m/fpv4-sp/hard\libc_nano.a(lib_a-memcpy-stub.o)
 .ARM.attributes
                0x00000000000009c7       0x34 c:/st/stm32cubeide_1.5.1/stm32cubeide/plugins/com.st.stm32cube.ide.mcu.externaltools.gnu-tools-for-stm32.7-2018-q2-update.win32_1.5.0.202011040924/tools/bin/../lib/gcc/arm-none-eabi/7.3.1/../../../../arm-none-eabi/lib/thumb/v7e-m/fpv4-sp/hard\libc_nano.a(lib_a-memset.o)
 .ARM.attributes
                0x00000000000009fb       0x34 c:/st/stm32cubeide_1.5.1/stm32cubeide/plugins/com.st.stm32cube.ide.mcu.externaltools.gnu-tools-for-stm32.7-2018-q2-update.win32_1.5.0.202011040924/tools/bin/../lib/gcc/arm-none-eabi/7.3.1/../../../../arm-none-eabi/lib/thumb/v7e-m/fpv4-sp/hard\libm.a(lib_a-s_cos.o)
 .ARM.attributes
                0x0000000000000a2f       0x34 c:/st/stm32cubeide_1.5.1/stm32cubeide/plugins/com.st.stm32cube.ide.mcu.externaltools.gnu-tools-for-stm32.7-2018-q2-update.win32_1.5.0.202011040924/tools/bin/../lib/gcc/arm-none-eabi/7.3.1/../../../../arm-none-eabi/lib/thumb/v7e-m/fpv4-sp/hard\libm.a(lib_a-s_sin.o)
 .ARM.attributes
                0x0000000000000a63       0x34 c:/st/stm32cubeide_1.5.1/stm32cubeide/plugins/com.st.stm32cube.ide.mcu.externaltools.gnu-tools-for-stm32.7-2018-q2-update.win32_1.5.0.202011040924/tools/bin/../lib/gcc/arm-none-eabi/7.3.1/../../../../arm-none-eabi/lib/thumb/v7e-m/fpv4-sp/hard\libm.a(lib_a-e_rem_pio2.o)
 .ARM.attributes
                0x0000000000000a97       0x34 c:/st/stm32cubeide_1.5.1/stm32cubeide/plugins/com.st.stm32cube.ide.mcu.externaltools.gnu-tools-for-stm32.7-2018-q2-update.win32_1.5.0.202011040924/tools/bin/../lib/gcc/arm-none-eabi/7.3.1/../../../../arm-none-eabi/lib/thumb/v7e-m/fpv4-sp/hard\libm.a(lib_a-k_cos.o)
 .ARM.attributes
                0x0000000000000acb       0x34 c:/st/stm32cubeide_1.5.1/stm32cubeide/plugins/com.st.stm32cube.ide.mcu.externaltools.gnu-tools-for-stm32.7-2018-q2-update.win32_1.5.0.202011040924/tools/bin/../lib/gcc/arm-none-eabi/7.3.1/../../../../arm-none-eabi/lib/thumb/v7e-m/fpv4-sp/hard\libm.a(lib_a-k_rem_pio2.o)
 .ARM.attributes
                0x0000000000000aff       0x34 c:/st/stm32cubeide_1.5.1/stm32cubeide/plugins/com.st.stm32cube.ide.mcu.externaltools.gnu-tools-for-stm32.7-2018-q2-update.win32_1.5.0.202011040924/tools/bin/../lib/gcc/arm-none-eabi/7.3.1/../../../../arm-none-eabi/lib/thumb/v7e-m/fpv4-sp/hard\libm.a(lib_a-k_sin.o)
 .ARM.attributes
                0x0000000000000b33       0x34 c:/st/stm32cubeide_1.5.1/stm32cubeide/plugins/com.st.stm32cube.ide.mcu.externaltools.gnu-tools-for-stm32.7-2018-q2-update.win32_1.5.0.202011040924/tools/bin/../lib/gcc/arm-none-eabi/7.3.1/../../../../arm-none-eabi/lib/thumb/v7e-m/fpv4-sp/hard\libm.a(lib_a-s_fabs.o)
 .ARM.attributes
                0x0000000000000b67       0x34 c:/st/stm32cubeide_1.5.1/stm32cubeide/plugins/com.st.stm32cube.ide.mcu.externaltools.gnu-tools-for-stm32.7-2018-q2-update.win32_1.5.0.202011040924/tools/bin/../lib/gcc/arm-none-eabi/7.3.1/../../../../arm-none-eabi/lib/thumb/v7e-m/fpv4-sp/hard\libm.a(lib_a-s_floor.o)
 .ARM.attributes
                0x0000000000000b9b       0x34 c:/st/stm32cubeide_1.5.1/stm32cubeide/plugins/com.st.stm32cube.ide.mcu.externaltools.gnu-tools-for-stm32.7-2018-q2-update.win32_1.5.0.202011040924/tools/bin/../lib/gcc/arm-none-eabi/7.3.1/../../../../arm-none-eabi/lib/thumb/v7e-m/fpv4-sp/hard\libm.a(lib_a-s_scalbn.o)
 .ARM.attributes
                0x0000000000000bcf       0x34 c:/st/stm32cubeide_1.5.1/stm32cubeide/plugins/com.st.stm32cube.ide.mcu.externaltools.gnu-tools-for-stm32.7-2018-q2-update.win32_1.5.0.202011040924/tools/bin/../lib/gcc/arm-none-eabi/7.3.1/../../../../arm-none-eabi/lib/thumb/v7e-m/fpv4-sp/hard\libm.a(lib_a-s_copysign.o)
 .ARM.attributes
                0x0000000000000c03       0x22 c:/st/stm32cubeide_1.5.1/stm32cubeide/plugins/com.st.stm32cube.ide.mcu.externaltools.gnu-tools-for-stm32.7-2018-q2-update.win32_1.5.0.202011040924/tools/bin/../lib/gcc/arm-none-eabi/7.3.1/thumb/v7e-m/fpv4-sp/hard\libgcc.a(_arm_addsubdf3.o)
 .ARM.attributes
                0x0000000000000c25       0x22 c:/st/stm32cubeide_1.5.1/stm32cubeide/plugins/com.st.stm32cube.ide.mcu.externaltools.gnu-tools-for-stm32.7-2018-q2-update.win32_1.5.0.202011040924/tools/bin/../lib/gcc/arm-none-eabi/7.3.1/thumb/v7e-m/fpv4-sp/hard\libgcc.a(_arm_muldivdf3.o)
 .ARM.attributes
                0x0000000000000c47       0x22 c:/st/stm32cubeide_1.5.1/stm32cubeide/plugins/com.st.stm32cube.ide.mcu.externaltools.gnu-tools-for-stm32.7-2018-q2-update.win32_1.5.0.202011040924/tools/bin/../lib/gcc/arm-none-eabi/7.3.1/thumb/v7e-m/fpv4-sp/hard\libgcc.a(_arm_cmpdf2.o)
 .ARM.attributes
                0x0000000000000c69       0x22 c:/st/stm32cubeide_1.5.1/stm32cubeide/plugins/com.st.stm32cube.ide.mcu.externaltools.gnu-tools-for-stm32.7-2018-q2-update.win32_1.5.0.202011040924/tools/bin/../lib/gcc/arm-none-eabi/7.3.1/thumb/v7e-m/fpv4-sp/hard\libgcc.a(_arm_fixdfsi.o)
 .ARM.attributes
                0x0000000000000c8b       0x22 c:/st/stm32cubeide_1.5.1/stm32cubeide/plugins/com.st.stm32cube.ide.mcu.externaltools.gnu-tools-for-stm32.7-2018-q2-update.win32_1.5.0.202011040924/tools/bin/../lib/gcc/arm-none-eabi/7.3.1/thumb/v7e-m/fpv4-sp/hard\libgcc.a(_arm_fixunsdfsi.o)
 .ARM.attributes
                0x0000000000000cad       0x22 c:/st/stm32cubeide_1.5.1/stm32cubeide/plugins/com.st.stm32cube.ide.mcu.externaltools.gnu-tools-for-stm32.7-2018-q2-update.win32_1.5.0.202011040924/tools/bin/../lib/gcc/arm-none-eabi/7.3.1/thumb/v7e-m/fpv4-sp/hard\libgcc.a(_aeabi_uldivmod.o)
 .ARM.attributes
                0x0000000000000ccf       0x34 c:/st/stm32cubeide_1.5.1/stm32cubeide/plugins/com.st.stm32cube.ide.mcu.externaltools.gnu-tools-for-stm32.7-2018-q2-update.win32_1.5.0.202011040924/tools/bin/../lib/gcc/arm-none-eabi/7.3.1/thumb/v7e-m/fpv4-sp/hard\libgcc.a(_udivmoddi4.o)
 .ARM.attributes
                0x0000000000000d03       0x22 c:/st/stm32cubeide_1.5.1/stm32cubeide/plugins/com.st.stm32cube.ide.mcu.externaltools.gnu-tools-for-stm32.7-2018-q2-update.win32_1.5.0.202011040924/tools/bin/../lib/gcc/arm-none-eabi/7.3.1/thumb/v7e-m/fpv4-sp/hard\libgcc.a(_dvmd_tls.o)
 .ARM.attributes
                0x0000000000000d25       0x22 c:/st/stm32cubeide_1.5.1/stm32cubeide/plugins/com.st.stm32cube.ide.mcu.externaltools.gnu-tools-for-stm32.7-2018-q2-update.win32_1.5.0.202011040924/tools/bin/../lib/gcc/arm-none-eabi/7.3.1/thumb/v7e-m/fpv4-sp/hard/crtn.o
OUTPUT(Projet3bis.elf elf32-littlearm)

.debug_info     0x0000000000000000    0x2c1ee
 .debug_info    0x0000000000000000      0x3c1 Core/Src/freertos.o
 .debug_info    0x00000000000003c1      0x591 Core/Src/ft5336.o
 .debug_info    0x0000000000000952     0x42f5 Core/Src/main.o
 .debug_info    0x0000000000004c47     0x19bb Core/Src/stm32746g_discovery.o
 .debug_info    0x0000000000006602     0x2264 Core/Src/stm32746g_discovery_lcd.o
 .debug_info    0x0000000000008866      0xf1e Core/Src/stm32746g_discovery_sdram.o
 .debug_info    0x0000000000009784      0x9dd Core/Src/stm32746g_discovery_ts.o
 .debug_info    0x000000000000a161     0x2ae9 Core/Src/stm32f7xx_hal_msp.o
 .debug_info    0x000000000000cc4a      0xbe7 Core/Src/stm32f7xx_hal_timebase_tim.o
 .debug_info    0x000000000000d831      0xefa Core/Src/stm32f7xx_it.o
 .debug_info    0x000000000000e72b      0x73d Core/Src/system_stm32f7xx.o
 .debug_info    0x000000000000ee68       0x22 Core/Startup/startup_stm32f746nghx.o
 .debug_info    0x000000000000ee8a      0x9d3 Drivers/STM32F7xx_HAL_Driver/Src/stm32f7xx_hal.o
 .debug_info    0x000000000000f85d      0xc9d Drivers/STM32F7xx_HAL_Driver/Src/stm32f7xx_hal_adc.o
 .debug_info    0x00000000000104fa     0x104a Drivers/STM32F7xx_HAL_Driver/Src/stm32f7xx_hal_cortex.o
 .debug_info    0x0000000000011544      0xa3a Drivers/STM32F7xx_HAL_Driver/Src/stm32f7xx_hal_dac.o
 .debug_info    0x0000000000011f7e      0x7c0 Drivers/STM32F7xx_HAL_Driver/Src/stm32f7xx_hal_dac_ex.o
 .debug_info    0x000000000001273e      0x968 Drivers/STM32F7xx_HAL_Driver/Src/stm32f7xx_hal_dma.o
 .debug_info    0x00000000000130a6      0xee9 Drivers/STM32F7xx_HAL_Driver/Src/stm32f7xx_hal_dma2d.o
 .debug_info    0x0000000000013f8f      0x7dc Drivers/STM32F7xx_HAL_Driver/Src/stm32f7xx_hal_gpio.o
 .debug_info    0x000000000001476b     0x1fb9 Drivers/STM32F7xx_HAL_Driver/Src/stm32f7xx_hal_i2c.o
 .debug_info    0x0000000000016724      0x738 Drivers/STM32F7xx_HAL_Driver/Src/stm32f7xx_hal_i2c_ex.o
 .debug_info    0x0000000000016e5c     0x1104 Drivers/STM32F7xx_HAL_Driver/Src/stm32f7xx_hal_ltdc.o
 .debug_info    0x0000000000017f60      0x9b4 Drivers/STM32F7xx_HAL_Driver/Src/stm32f7xx_hal_pwr.o
 .debug_info    0x0000000000018914      0x96b Drivers/STM32F7xx_HAL_Driver/Src/stm32f7xx_hal_pwr_ex.o
 .debug_info    0x000000000001927f      0x935 Drivers/STM32F7xx_HAL_Driver/Src/stm32f7xx_hal_rcc.o
 .debug_info    0x0000000000019bb4      0x7ad Drivers/STM32F7xx_HAL_Driver/Src/stm32f7xx_hal_rcc_ex.o
 .debug_info    0x000000000001a361      0xc56 Drivers/STM32F7xx_HAL_Driver/Src/stm32f7xx_hal_rtc.o
 .debug_info    0x000000000001afb7      0xff7 Drivers/STM32F7xx_HAL_Driver/Src/stm32f7xx_hal_rtc_ex.o
 .debug_info    0x000000000001bfae      0xca1 Drivers/STM32F7xx_HAL_Driver/Src/stm32f7xx_hal_sdram.o
 .debug_info    0x000000000001cc4f     0x166a Drivers/STM32F7xx_HAL_Driver/Src/stm32f7xx_hal_spi.o
 .debug_info    0x000000000001e2b9     0x25a2 Drivers/STM32F7xx_HAL_Driver/Src/stm32f7xx_hal_tim.o
 .debug_info    0x000000000002085b     0x121c Drivers/STM32F7xx_HAL_Driver/Src/stm32f7xx_hal_tim_ex.o
 .debug_info    0x0000000000021a77     0x16d1 Drivers/STM32F7xx_HAL_Driver/Src/stm32f7xx_hal_uart.o
 .debug_info    0x0000000000023148      0xccd Drivers/STM32F7xx_HAL_Driver/Src/stm32f7xx_ll_fmc.o
 .debug_info    0x0000000000023e15     0x1eb8 Middlewares/Third_Party/FreeRTOS/Source/CMSIS_RTOS/cmsis_os.o
 .debug_info    0x0000000000025ccd      0xacb Middlewares/Third_Party/FreeRTOS/Source/list.o
 .debug_info    0x0000000000026798     0x21ea Middlewares/Third_Party/FreeRTOS/Source/queue.o
 .debug_info    0x0000000000028982     0x2789 Middlewares/Third_Party/FreeRTOS/Source/tasks.o
 .debug_info    0x000000000002b10b      0x4e4 Middlewares/Third_Party/FreeRTOS/Source/portable/GCC/ARM_CM7/r0p1/port.o
 .debug_info    0x000000000002b5ef      0xbff Middlewares/Third_Party/FreeRTOS/Source/portable/MemMang/heap_4.o

.debug_abbrev   0x0000000000000000     0x53ba
 .debug_abbrev  0x0000000000000000      0x12a Core/Src/freertos.o
 .debug_abbrev  0x000000000000012a      0x1ea Core/Src/ft5336.o
 .debug_abbrev  0x0000000000000314      0x2fe Core/Src/main.o
 .debug_abbrev  0x0000000000000612      0x287 Core/Src/stm32746g_discovery.o
 .debug_abbrev  0x0000000000000899      0x298 Core/Src/stm32746g_discovery_lcd.o
 .debug_abbrev  0x0000000000000b31      0x218 Core/Src/stm32746g_discovery_sdram.o
 .debug_abbrev  0x0000000000000d49      0x22b Core/Src/stm32746g_discovery_ts.o
 .debug_abbrev  0x0000000000000f74      0x24d Core/Src/stm32f7xx_hal_msp.o
 .debug_abbrev  0x00000000000011c1      0x19d Core/Src/stm32f7xx_hal_timebase_tim.o
 .debug_abbrev  0x000000000000135e      0x169 Core/Src/stm32f7xx_it.o
 .debug_abbrev  0x00000000000014c7      0x147 Core/Src/system_stm32f7xx.o
 .debug_abbrev  0x000000000000160e       0x12 Core/Startup/startup_stm32f746nghx.o
 .debug_abbrev  0x0000000000001620      0x1c7 Drivers/STM32F7xx_HAL_Driver/Src/stm32f7xx_hal.o
 .debug_abbrev  0x00000000000017e7      0x205 Drivers/STM32F7xx_HAL_Driver/Src/stm32f7xx_hal_adc.o
 .debug_abbrev  0x00000000000019ec      0x2fa Drivers/STM32F7xx_HAL_Driver/Src/stm32f7xx_hal_cortex.o
 .debug_abbrev  0x0000000000001ce6      0x1e4 Drivers/STM32F7xx_HAL_Driver/Src/stm32f7xx_hal_dac.o
 .debug_abbrev  0x0000000000001eca      0x1e8 Drivers/STM32F7xx_HAL_Driver/Src/stm32f7xx_hal_dac_ex.o
 .debug_abbrev  0x00000000000020b2      0x229 Drivers/STM32F7xx_HAL_Driver/Src/stm32f7xx_hal_dma.o
 .debug_abbrev  0x00000000000022db      0x211 Drivers/STM32F7xx_HAL_Driver/Src/stm32f7xx_hal_dma2d.o
 .debug_abbrev  0x00000000000024ec      0x1c9 Drivers/STM32F7xx_HAL_Driver/Src/stm32f7xx_hal_gpio.o
 .debug_abbrev  0x00000000000026b5      0x22a Drivers/STM32F7xx_HAL_Driver/Src/stm32f7xx_hal_i2c.o
 .debug_abbrev  0x00000000000028df      0x178 Drivers/STM32F7xx_HAL_Driver/Src/stm32f7xx_hal_i2c_ex.o
 .debug_abbrev  0x0000000000002a57      0x209 Drivers/STM32F7xx_HAL_Driver/Src/stm32f7xx_hal_ltdc.o
 .debug_abbrev  0x0000000000002c60      0x1b6 Drivers/STM32F7xx_HAL_Driver/Src/stm32f7xx_hal_pwr.o
 .debug_abbrev  0x0000000000002e16      0x1b8 Drivers/STM32F7xx_HAL_Driver/Src/stm32f7xx_hal_pwr_ex.o
 .debug_abbrev  0x0000000000002fce      0x21a Drivers/STM32F7xx_HAL_Driver/Src/stm32f7xx_hal_rcc.o
 .debug_abbrev  0x00000000000031e8      0x1ad Drivers/STM32F7xx_HAL_Driver/Src/stm32f7xx_hal_rcc_ex.o
 .debug_abbrev  0x0000000000003395      0x1be Drivers/STM32F7xx_HAL_Driver/Src/stm32f7xx_hal_rtc.o
 .debug_abbrev  0x0000000000003553      0x1e9 Drivers/STM32F7xx_HAL_Driver/Src/stm32f7xx_hal_rtc_ex.o
 .debug_abbrev  0x000000000000373c      0x1f7 Drivers/STM32F7xx_HAL_Driver/Src/stm32f7xx_hal_sdram.o
 .debug_abbrev  0x0000000000003933      0x228 Drivers/STM32F7xx_HAL_Driver/Src/stm32f7xx_hal_spi.o
 .debug_abbrev  0x0000000000003b5b      0x230 Drivers/STM32F7xx_HAL_Driver/Src/stm32f7xx_hal_tim.o
 .debug_abbrev  0x0000000000003d8b      0x21e Drivers/STM32F7xx_HAL_Driver/Src/stm32f7xx_hal_tim_ex.o
 .debug_abbrev  0x0000000000003fa9      0x205 Drivers/STM32F7xx_HAL_Driver/Src/stm32f7xx_hal_uart.o
 .debug_abbrev  0x00000000000041ae      0x170 Drivers/STM32F7xx_HAL_Driver/Src/stm32f7xx_ll_fmc.o
 .debug_abbrev  0x000000000000431e      0x379 Middlewares/Third_Party/FreeRTOS/Source/CMSIS_RTOS/cmsis_os.o
 .debug_abbrev  0x0000000000004697      0x1cf Middlewares/Third_Party/FreeRTOS/Source/list.o
 .debug_abbrev  0x0000000000004866      0x336 Middlewares/Third_Party/FreeRTOS/Source/queue.o
 .debug_abbrev  0x0000000000004b9c      0x349 Middlewares/Third_Party/FreeRTOS/Source/tasks.o
 .debug_abbrev  0x0000000000004ee5      0x21b Middlewares/Third_Party/FreeRTOS/Source/portable/GCC/ARM_CM7/r0p1/port.o
 .debug_abbrev  0x0000000000005100      0x2ba Middlewares/Third_Party/FreeRTOS/Source/portable/MemMang/heap_4.o

.debug_aranges  0x0000000000000000     0x25d0
 .debug_aranges
                0x0000000000000000       0x38 Core/Src/freertos.o
 .debug_aranges
                0x0000000000000038       0x90 Core/Src/ft5336.o
 .debug_aranges
                0x00000000000000c8       0xf8 Core/Src/main.o
 .debug_aranges
                0x00000000000001c0      0x128 Core/Src/stm32746g_discovery.o
 .debug_aranges
                0x00000000000002e8      0x1d8 Core/Src/stm32746g_discovery_lcd.o
 .debug_aranges
                0x00000000000004c0       0x68 Core/Src/stm32746g_discovery_sdram.o
 .debug_aranges
                0x0000000000000528       0x58 Core/Src/stm32746g_discovery_ts.o
 .debug_aranges
                0x0000000000000580       0xd8 Core/Src/stm32f7xx_hal_msp.o
 .debug_aranges
                0x0000000000000658       0x30 Core/Src/stm32f7xx_hal_timebase_tim.o
 .debug_aranges
                0x0000000000000688       0x68 Core/Src/stm32f7xx_it.o
 .debug_aranges
                0x00000000000006f0       0x28 Core/Src/system_stm32f7xx.o
 .debug_aranges
                0x0000000000000718       0x28 Core/Startup/startup_stm32f746nghx.o
 .debug_aranges
                0x0000000000000740      0x100 Drivers/STM32F7xx_HAL_Driver/Src/stm32f7xx_hal.o
 .debug_aranges
                0x0000000000000840       0xe8 Drivers/STM32F7xx_HAL_Driver/Src/stm32f7xx_hal_adc.o
 .debug_aranges
                0x0000000000000928      0x118 Drivers/STM32F7xx_HAL_Driver/Src/stm32f7xx_hal_cortex.o
 .debug_aranges
                0x0000000000000a40       0xc0 Drivers/STM32F7xx_HAL_Driver/Src/stm32f7xx_hal_dac.o
 .debug_aranges
                0x0000000000000b00       0x70 Drivers/STM32F7xx_HAL_Driver/Src/stm32f7xx_hal_dac_ex.o
 .debug_aranges
                0x0000000000000b70       0x90 Drivers/STM32F7xx_HAL_Driver/Src/stm32f7xx_hal_dma.o
 .debug_aranges
                0x0000000000000c00      0x108 Drivers/STM32F7xx_HAL_Driver/Src/stm32f7xx_hal_dma2d.o
 .debug_aranges
                0x0000000000000d08       0x58 Drivers/STM32F7xx_HAL_Driver/Src/stm32f7xx_hal_gpio.o
 .debug_aranges
                0x0000000000000d60      0x288 Drivers/STM32F7xx_HAL_Driver/Src/stm32f7xx_hal_i2c.o
 .debug_aranges
                0x0000000000000fe8       0x28 Drivers/STM32F7xx_HAL_Driver/Src/stm32f7xx_hal_i2c_ex.o
 .debug_aranges
                0x0000000000001010      0x158 Drivers/STM32F7xx_HAL_Driver/Src/stm32f7xx_hal_ltdc.o
 .debug_aranges
                0x0000000000001168       0xa0 Drivers/STM32F7xx_HAL_Driver/Src/stm32f7xx_hal_pwr.o
 .debug_aranges
                0x0000000000001208       0x80 Drivers/STM32F7xx_HAL_Driver/Src/stm32f7xx_hal_pwr_ex.o
 .debug_aranges
                0x0000000000001288       0x88 Drivers/STM32F7xx_HAL_Driver/Src/stm32f7xx_hal_rcc.o
 .debug_aranges
                0x0000000000001310       0x50 Drivers/STM32F7xx_HAL_Driver/Src/stm32f7xx_hal_rcc_ex.o
 .debug_aranges
                0x0000000000001360       0xb8 Drivers/STM32F7xx_HAL_Driver/Src/stm32f7xx_hal_rtc.o
 .debug_aranges
                0x0000000000001418      0x140 Drivers/STM32F7xx_HAL_Driver/Src/stm32f7xx_hal_rtc_ex.o
 .debug_aranges
                0x0000000000001558       0xd0 Drivers/STM32F7xx_HAL_Driver/Src/stm32f7xx_hal_sdram.o
 .debug_aranges
                0x0000000000001628      0x1d8 Drivers/STM32F7xx_HAL_Driver/Src/stm32f7xx_hal_spi.o
 .debug_aranges
                0x0000000000001800      0x3b8 Drivers/STM32F7xx_HAL_Driver/Src/stm32f7xx_hal_tim.o
 .debug_aranges
                0x0000000000001bb8      0x160 Drivers/STM32F7xx_HAL_Driver/Src/stm32f7xx_hal_tim_ex.o
 .debug_aranges
                0x0000000000001d18      0x210 Drivers/STM32F7xx_HAL_Driver/Src/stm32f7xx_hal_uart.o
 .debug_aranges
                0x0000000000001f28       0xc8 Drivers/STM32F7xx_HAL_Driver/Src/stm32f7xx_ll_fmc.o
 .debug_aranges
                0x0000000000001ff0      0x1d8 Middlewares/Third_Party/FreeRTOS/Source/CMSIS_RTOS/cmsis_os.o
 .debug_aranges
                0x00000000000021c8       0x40 Middlewares/Third_Party/FreeRTOS/Source/list.o
 .debug_aranges
                0x0000000000002208      0x128 Middlewares/Third_Party/FreeRTOS/Source/queue.o
 .debug_aranges
                0x0000000000002330      0x1d0 Middlewares/Third_Party/FreeRTOS/Source/tasks.o
 .debug_aranges
                0x0000000000002500       0x80 Middlewares/Third_Party/FreeRTOS/Source/portable/GCC/ARM_CM7/r0p1/port.o
 .debug_aranges
                0x0000000000002580       0x50 Middlewares/Third_Party/FreeRTOS/Source/portable/MemMang/heap_4.o

.debug_ranges   0x0000000000000000     0x2348
 .debug_ranges  0x0000000000000000       0x28 Core/Src/freertos.o
 .debug_ranges  0x0000000000000028       0x80 Core/Src/ft5336.o
 .debug_ranges  0x00000000000000a8       0xe8 Core/Src/main.o
 .debug_ranges  0x0000000000000190      0x118 Core/Src/stm32746g_discovery.o
 .debug_ranges  0x00000000000002a8      0x1c8 Core/Src/stm32746g_discovery_lcd.o
 .debug_ranges  0x0000000000000470       0x58 Core/Src/stm32746g_discovery_sdram.o
 .debug_ranges  0x00000000000004c8       0x48 Core/Src/stm32746g_discovery_ts.o
 .debug_ranges  0x0000000000000510       0xc8 Core/Src/stm32f7xx_hal_msp.o
 .debug_ranges  0x00000000000005d8       0x20 Core/Src/stm32f7xx_hal_timebase_tim.o
 .debug_ranges  0x00000000000005f8       0x58 Core/Src/stm32f7xx_it.o
 .debug_ranges  0x0000000000000650       0x18 Core/Src/system_stm32f7xx.o
 .debug_ranges  0x0000000000000668       0x20 Core/Startup/startup_stm32f746nghx.o
 .debug_ranges  0x0000000000000688       0xf0 Drivers/STM32F7xx_HAL_Driver/Src/stm32f7xx_hal.o
 .debug_ranges  0x0000000000000778       0xd8 Drivers/STM32F7xx_HAL_Driver/Src/stm32f7xx_hal_adc.o
 .debug_ranges  0x0000000000000850      0x108 Drivers/STM32F7xx_HAL_Driver/Src/stm32f7xx_hal_cortex.o
 .debug_ranges  0x0000000000000958       0xb0 Drivers/STM32F7xx_HAL_Driver/Src/stm32f7xx_hal_dac.o
 .debug_ranges  0x0000000000000a08       0x60 Drivers/STM32F7xx_HAL_Driver/Src/stm32f7xx_hal_dac_ex.o
 .debug_ranges  0x0000000000000a68       0x80 Drivers/STM32F7xx_HAL_Driver/Src/stm32f7xx_hal_dma.o
 .debug_ranges  0x0000000000000ae8       0xf8 Drivers/STM32F7xx_HAL_Driver/Src/stm32f7xx_hal_dma2d.o
 .debug_ranges  0x0000000000000be0       0x48 Drivers/STM32F7xx_HAL_Driver/Src/stm32f7xx_hal_gpio.o
 .debug_ranges  0x0000000000000c28      0x278 Drivers/STM32F7xx_HAL_Driver/Src/stm32f7xx_hal_i2c.o
 .debug_ranges  0x0000000000000ea0       0x18 Drivers/STM32F7xx_HAL_Driver/Src/stm32f7xx_hal_i2c_ex.o
 .debug_ranges  0x0000000000000eb8      0x148 Drivers/STM32F7xx_HAL_Driver/Src/stm32f7xx_hal_ltdc.o
 .debug_ranges  0x0000000000001000       0x90 Drivers/STM32F7xx_HAL_Driver/Src/stm32f7xx_hal_pwr.o
 .debug_ranges  0x0000000000001090       0x70 Drivers/STM32F7xx_HAL_Driver/Src/stm32f7xx_hal_pwr_ex.o
 .debug_ranges  0x0000000000001100       0x78 Drivers/STM32F7xx_HAL_Driver/Src/stm32f7xx_hal_rcc.o
 .debug_ranges  0x0000000000001178       0x40 Drivers/STM32F7xx_HAL_Driver/Src/stm32f7xx_hal_rcc_ex.o
 .debug_ranges  0x00000000000011b8       0xa8 Drivers/STM32F7xx_HAL_Driver/Src/stm32f7xx_hal_rtc.o
 .debug_ranges  0x0000000000001260      0x130 Drivers/STM32F7xx_HAL_Driver/Src/stm32f7xx_hal_rtc_ex.o
 .debug_ranges  0x0000000000001390       0xc0 Drivers/STM32F7xx_HAL_Driver/Src/stm32f7xx_hal_sdram.o
 .debug_ranges  0x0000000000001450      0x1c8 Drivers/STM32F7xx_HAL_Driver/Src/stm32f7xx_hal_spi.o
 .debug_ranges  0x0000000000001618      0x3a8 Drivers/STM32F7xx_HAL_Driver/Src/stm32f7xx_hal_tim.o
 .debug_ranges  0x00000000000019c0      0x150 Drivers/STM32F7xx_HAL_Driver/Src/stm32f7xx_hal_tim_ex.o
 .debug_ranges  0x0000000000001b10      0x200 Drivers/STM32F7xx_HAL_Driver/Src/stm32f7xx_hal_uart.o
 .debug_ranges  0x0000000000001d10       0xb8 Drivers/STM32F7xx_HAL_Driver/Src/stm32f7xx_ll_fmc.o
 .debug_ranges  0x0000000000001dc8      0x1c8 Middlewares/Third_Party/FreeRTOS/Source/CMSIS_RTOS/cmsis_os.o
 .debug_ranges  0x0000000000001f90       0x30 Middlewares/Third_Party/FreeRTOS/Source/list.o
 .debug_ranges  0x0000000000001fc0      0x118 Middlewares/Third_Party/FreeRTOS/Source/queue.o
 .debug_ranges  0x00000000000020d8      0x1c0 Middlewares/Third_Party/FreeRTOS/Source/tasks.o
 .debug_ranges  0x0000000000002298       0x70 Middlewares/Third_Party/FreeRTOS/Source/portable/GCC/ARM_CM7/r0p1/port.o
 .debug_ranges  0x0000000000002308       0x40 Middlewares/Third_Party/FreeRTOS/Source/portable/MemMang/heap_4.o

.debug_macro    0x0000000000000000    0x2e0b4
 .debug_macro   0x0000000000000000      0x2f9 Core/Src/freertos.o
 .debug_macro   0x00000000000002f9      0xa5a Core/Src/freertos.o
 .debug_macro   0x0000000000000d53      0x174 Core/Src/freertos.o
 .debug_macro   0x0000000000000ec7       0x22 Core/Src/freertos.o
 .debug_macro   0x0000000000000ee9       0x8e Core/Src/freertos.o
 .debug_macro   0x0000000000000f77       0x51 Core/Src/freertos.o
 .debug_macro   0x0000000000000fc8       0xef Core/Src/freertos.o
 .debug_macro   0x00000000000010b7       0x6a Core/Src/freertos.o
 .debug_macro   0x0000000000001121      0x1df Core/Src/freertos.o
 .debug_macro   0x0000000000001300      0x109 Core/Src/freertos.o
 .debug_macro   0x0000000000001409      0x15a Core/Src/freertos.o
 .debug_macro   0x0000000000001563       0xde Core/Src/freertos.o
 .debug_macro   0x0000000000001641       0x1c Core/Src/freertos.o
 .debug_macro   0x000000000000165d       0x26 Core/Src/freertos.o
 .debug_macro   0x0000000000001683      0x4c5 Core/Src/freertos.o
 .debug_macro   0x0000000000001b48       0xb5 Core/Src/freertos.o
 .debug_macro   0x0000000000001bfd       0xaa Core/Src/freertos.o
 .debug_macro   0x0000000000001ca7      0x2bd Core/Src/freertos.o
 .debug_macro   0x0000000000001f64       0x2e Core/Src/freertos.o
 .debug_macro   0x0000000000001f92       0x3b Core/Src/freertos.o
 .debug_macro   0x0000000000001fcd       0x1c Core/Src/freertos.o
 .debug_macro   0x0000000000001fe9       0x22 Core/Src/freertos.o
 .debug_macro   0x000000000000200b       0xdf Core/Src/freertos.o
 .debug_macro   0x00000000000020ea     0x12cd Core/Src/freertos.o
 .debug_macro   0x00000000000033b7      0x11f Core/Src/freertos.o
 .debug_macro   0x00000000000034d6       0x19 Core/Src/freertos.o
 .debug_macro   0x00000000000034ef    0x190f0 Core/Src/freertos.o
 .debug_macro   0x000000000001c5df       0x43 Core/Src/freertos.o
 .debug_macro   0x000000000001c622     0x36b4 Core/Src/freertos.o
 .debug_macro   0x000000000001fcd6       0x61 Core/Src/freertos.o
 .debug_macro   0x000000000001fd37     0x18ad Core/Src/freertos.o
 .debug_macro   0x00000000000215e4      0x6c4 Core/Src/freertos.o
 .debug_macro   0x0000000000021ca8      0x185 Core/Src/freertos.o
 .debug_macro   0x0000000000021e2d      0x117 Core/Src/freertos.o
 .debug_macro   0x0000000000021f44      0x1fe Core/Src/freertos.o
 .debug_macro   0x0000000000022142       0x27 Core/Src/freertos.o
 .debug_macro   0x0000000000022169      0x24f Core/Src/freertos.o
 .debug_macro   0x00000000000223b8       0x41 Core/Src/freertos.o
 .debug_macro   0x00000000000223f9       0x58 Core/Src/freertos.o
 .debug_macro   0x0000000000022451      0x236 Core/Src/freertos.o
 .debug_macro   0x0000000000022687      0x416 Core/Src/freertos.o
 .debug_macro   0x0000000000022a9d      0x153 Core/Src/freertos.o
 .debug_macro   0x0000000000022bf0      0x107 Core/Src/freertos.o
 .debug_macro   0x0000000000022cf7      0x20f Core/Src/freertos.o
 .debug_macro   0x0000000000022f06       0xea Core/Src/freertos.o
 .debug_macro   0x0000000000022ff0       0xa0 Core/Src/freertos.o
 .debug_macro   0x0000000000023090       0x3c Core/Src/freertos.o
 .debug_macro   0x00000000000230cc      0x14f Core/Src/freertos.o
 .debug_macro   0x000000000002321b      0x25b Core/Src/freertos.o
 .debug_macro   0x0000000000023476       0x12 Core/Src/freertos.o
 .debug_macro   0x0000000000023488      0x514 Core/Src/freertos.o
 .debug_macro   0x000000000002399c      0x22c Core/Src/freertos.o
 .debug_macro   0x0000000000023bc8       0x5a Core/Src/freertos.o
 .debug_macro   0x0000000000023c22       0xa5 Core/Src/freertos.o
 .debug_macro   0x0000000000023cc7      0x198 Core/Src/freertos.o
 .debug_macro   0x0000000000023e5f       0xd6 Core/Src/freertos.o
 .debug_macro   0x0000000000023f35      0x12f Core/Src/freertos.o
 .debug_macro   0x0000000000024064      0x108 Core/Src/freertos.o
 .debug_macro   0x000000000002416c       0x35 Core/Src/freertos.o
 .debug_macro   0x00000000000241a1      0x313 Core/Src/freertos.o
 .debug_macro   0x00000000000244b4      0x4ca Core/Src/freertos.o
 .debug_macro   0x000000000002497e       0xd6 Core/Src/freertos.o
 .debug_macro   0x0000000000024a54      0x2fe Core/Src/freertos.o
 .debug_macro   0x0000000000024d52      0xa2f Core/Src/freertos.o
 .debug_macro   0x0000000000025781       0x59 Core/Src/freertos.o
 .debug_macro   0x00000000000257da      0x53c Core/Src/freertos.o
 .debug_macro   0x0000000000025d16       0x44 Core/Src/freertos.o
 .debug_macro   0x0000000000025d5a      0x14e Core/Src/freertos.o
 .debug_macro   0x0000000000025ea8      0x3f9 Core/Src/freertos.o
 .debug_macro   0x00000000000262a1       0x7b Core/Src/ft5336.o
 .debug_macro   0x000000000002631c       0x10 Core/Src/ft5336.o
 .debug_macro   0x000000000002632c      0x39f Core/Src/ft5336.o
 .debug_macro   0x00000000000266cb      0x507 Core/Src/main.o
 .debug_macro   0x0000000000026bd2      0x109 Core/Src/main.o
 .debug_macro   0x0000000000026cdb       0x91 Core/Src/main.o
 .debug_macro   0x0000000000026d6c       0x8d Core/Src/main.o
 .debug_macro   0x0000000000026df9       0x9a Core/Src/main.o
 .debug_macro   0x0000000000026e93       0x19 Core/Src/main.o
 .debug_macro   0x0000000000026eac       0xf2 Core/Src/main.o
 .debug_macro   0x0000000000026f9e       0x40 Core/Src/main.o
 .debug_macro   0x0000000000026fde       0xa0 Core/Src/main.o
 .debug_macro   0x000000000002707e      0x268 Core/Src/main.o
 .debug_macro   0x00000000000272e6       0x10 Core/Src/main.o
 .debug_macro   0x00000000000272f6      0x12a Core/Src/main.o
 .debug_macro   0x0000000000027420       0x2e Core/Src/main.o
 .debug_macro   0x000000000002744e       0x46 Core/Src/main.o
 .debug_macro   0x0000000000027494       0x18 Core/Src/main.o
 .debug_macro   0x00000000000274ac       0x3c Core/Src/main.o
 .debug_macro   0x00000000000274e8       0x34 Core/Src/main.o
 .debug_macro   0x000000000002751c       0x16 Core/Src/main.o
 .debug_macro   0x0000000000027532       0x35 Core/Src/main.o
 .debug_macro   0x0000000000027567      0x32a Core/Src/main.o
 .debug_macro   0x0000000000027891       0x10 Core/Src/main.o
 .debug_macro   0x00000000000278a1       0x52 Core/Src/main.o
 .debug_macro   0x00000000000278f3       0x1f Core/Src/main.o
 .debug_macro   0x0000000000027912       0x43 Core/Src/main.o
 .debug_macro   0x0000000000027955       0x20 Core/Src/main.o
 .debug_macro   0x0000000000027975      0x1a3 Core/Src/main.o
 .debug_macro   0x0000000000027b18       0x10 Core/Src/main.o
 .debug_macro   0x0000000000027b28       0x1c Core/Src/main.o
 .debug_macro   0x0000000000027b44       0x52 Core/Src/main.o
 .debug_macro   0x0000000000027b96       0x40 Core/Src/main.o
 .debug_macro   0x0000000000027bd6       0x10 Core/Src/main.o
 .debug_macro   0x0000000000027be6       0x40 Core/Src/main.o
 .debug_macro   0x0000000000027c26       0xd7 Core/Src/main.o
 .debug_macro   0x0000000000027cfd       0x1c Core/Src/main.o
 .debug_macro   0x0000000000027d19       0x3d Core/Src/main.o
 .debug_macro   0x0000000000027d56       0x16 Core/Src/main.o
 .debug_macro   0x0000000000027d6c      0x145 Core/Src/main.o
 .debug_macro   0x0000000000027eb1      0x1e1 Core/Src/main.o
 .debug_macro   0x0000000000028092      0x2af Core/Src/stm32746g_discovery.o
 .debug_macro   0x0000000000028341      0x262 Core/Src/stm32746g_discovery.o
 .debug_macro   0x00000000000285a3      0x2e9 Core/Src/stm32746g_discovery_lcd.o
 .debug_macro   0x000000000002888c       0x9a Core/Src/stm32746g_discovery_lcd.o
 .debug_macro   0x0000000000028926      0x291 Core/Src/stm32746g_discovery_sdram.o
 .debug_macro   0x0000000000028bb7      0x2b8 Core/Src/stm32746g_discovery_ts.o
 .debug_macro   0x0000000000028e6f      0x291 Core/Src/stm32f7xx_hal_msp.o
 .debug_macro   0x0000000000029100      0x282 Core/Src/stm32f7xx_hal_timebase_tim.o
 .debug_macro   0x0000000000029382      0x29b Core/Src/stm32f7xx_it.o
 .debug_macro   0x000000000002961d      0x288 Core/Src/system_stm32f7xx.o
 .debug_macro   0x00000000000298a5      0x2a6 Drivers/STM32F7xx_HAL_Driver/Src/stm32f7xx_hal.o
 .debug_macro   0x0000000000029b4b      0x283 Drivers/STM32F7xx_HAL_Driver/Src/stm32f7xx_hal_adc.o
 .debug_macro   0x0000000000029dce      0x282 Drivers/STM32F7xx_HAL_Driver/Src/stm32f7xx_hal_cortex.o
 .debug_macro   0x000000000002a050      0x283 Drivers/STM32F7xx_HAL_Driver/Src/stm32f7xx_hal_dac.o
 .debug_macro   0x000000000002a2d3      0x282 Drivers/STM32F7xx_HAL_Driver/Src/stm32f7xx_hal_dac_ex.o
 .debug_macro   0x000000000002a555      0x288 Drivers/STM32F7xx_HAL_Driver/Src/stm32f7xx_hal_dma.o
 .debug_macro   0x000000000002a7dd      0x291 Drivers/STM32F7xx_HAL_Driver/Src/stm32f7xx_hal_dma2d.o
 .debug_macro   0x000000000002aa6e      0x2b8 Drivers/STM32F7xx_HAL_Driver/Src/stm32f7xx_hal_gpio.o
 .debug_macro   0x000000000002ad26      0x347 Drivers/STM32F7xx_HAL_Driver/Src/stm32f7xx_hal_i2c.o
 .debug_macro   0x000000000002b06d      0x282 Drivers/STM32F7xx_HAL_Driver/Src/stm32f7xx_hal_i2c_ex.o
 .debug_macro   0x000000000002b2ef      0x283 Drivers/STM32F7xx_HAL_Driver/Src/stm32f7xx_hal_ltdc.o
 .debug_macro   0x000000000002b572      0x2a0 Drivers/STM32F7xx_HAL_Driver/Src/stm32f7xx_hal_pwr.o
 .debug_macro   0x000000000002b812      0x29a Drivers/STM32F7xx_HAL_Driver/Src/stm32f7xx_hal_pwr_ex.o
 .debug_macro   0x000000000002baac      0x2a6 Drivers/STM32F7xx_HAL_Driver/Src/stm32f7xx_hal_rcc.o
 .debug_macro   0x000000000002bd52      0x282 Drivers/STM32F7xx_HAL_Driver/Src/stm32f7xx_hal_rcc_ex.o
 .debug_macro   0x000000000002bfd4      0x283 Drivers/STM32F7xx_HAL_Driver/Src/stm32f7xx_hal_rtc.o
 .debug_macro   0x000000000002c257      0x282 Drivers/STM32F7xx_HAL_Driver/Src/stm32f7xx_hal_rtc_ex.o
 .debug_macro   0x000000000002c4d9      0x282 Drivers/STM32F7xx_HAL_Driver/Src/stm32f7xx_hal_sdram.o
 .debug_macro   0x000000000002c75b      0x28a Drivers/STM32F7xx_HAL_Driver/Src/stm32f7xx_hal_spi.o
 .debug_macro   0x000000000002c9e5      0x283 Drivers/STM32F7xx_HAL_Driver/Src/stm32f7xx_hal_tim.o
 .debug_macro   0x000000000002cc68      0x282 Drivers/STM32F7xx_HAL_Driver/Src/stm32f7xx_hal_tim_ex.o
 .debug_macro   0x000000000002ceea      0x29f Drivers/STM32F7xx_HAL_Driver/Src/stm32f7xx_hal_uart.o
 .debug_macro   0x000000000002d189      0x282 Drivers/STM32F7xx_HAL_Driver/Src/stm32f7xx_ll_fmc.o
 .debug_macro   0x000000000002d40b      0x1f1 Middlewares/Third_Party/FreeRTOS/Source/CMSIS_RTOS/cmsis_os.o
 .debug_macro   0x000000000002d5fc       0x10 Middlewares/Third_Party/FreeRTOS/Source/CMSIS_RTOS/cmsis_os.o
 .debug_macro   0x000000000002d60c       0x20 Middlewares/Third_Party/FreeRTOS/Source/CMSIS_RTOS/cmsis_os.o
 .debug_macro   0x000000000002d62c       0xc7 Middlewares/Third_Party/FreeRTOS/Source/CMSIS_RTOS/cmsis_os.o
 .debug_macro   0x000000000002d6f3      0x17a Middlewares/Third_Party/FreeRTOS/Source/list.o
 .debug_macro   0x000000000002d86d      0x209 Middlewares/Third_Party/FreeRTOS/Source/queue.o
 .debug_macro   0x000000000002da76       0x16 Middlewares/Third_Party/FreeRTOS/Source/queue.o
 .debug_macro   0x000000000002da8c       0x87 Middlewares/Third_Party/FreeRTOS/Source/queue.o
 .debug_macro   0x000000000002db13      0x26c Middlewares/Third_Party/FreeRTOS/Source/tasks.o
 .debug_macro   0x000000000002dd7f       0x10 Middlewares/Third_Party/FreeRTOS/Source/tasks.o
 .debug_macro   0x000000000002dd8f      0x184 Middlewares/Third_Party/FreeRTOS/Source/portable/GCC/ARM_CM7/r0p1/port.o
 .debug_macro   0x000000000002df13      0x1a1 Middlewares/Third_Party/FreeRTOS/Source/portable/MemMang/heap_4.o

.debug_line     0x0000000000000000    0x1f08c
 .debug_line    0x0000000000000000      0x961 Core/Src/freertos.o
 .debug_line    0x0000000000000961      0x549 Core/Src/ft5336.o
 .debug_line    0x0000000000000eaa     0x121e Core/Src/main.o
 .debug_line    0x00000000000020c8      0xb3a Core/Src/stm32746g_discovery.o
 .debug_line    0x0000000000002c02      0xfa2 Core/Src/stm32746g_discovery_lcd.o
 .debug_line    0x0000000000003ba4      0x951 Core/Src/stm32746g_discovery_sdram.o
 .debug_line    0x00000000000044f5      0x9b1 Core/Src/stm32746g_discovery_ts.o
 .debug_line    0x0000000000004ea6      0xb37 Core/Src/stm32f7xx_hal_msp.o
 .debug_line    0x00000000000059dd      0x85f Core/Src/stm32f7xx_hal_timebase_tim.o
 .debug_line    0x000000000000623c      0x8e8 Core/Src/stm32f7xx_it.o
 .debug_line    0x0000000000006b24      0x844 Core/Src/system_stm32f7xx.o
 .debug_line    0x0000000000007368       0x85 Core/Startup/startup_stm32f746nghx.o
 .debug_line    0x00000000000073ed      0xa53 Drivers/STM32F7xx_HAL_Driver/Src/stm32f7xx_hal.o
 .debug_line    0x0000000000007e40      0xc7c Drivers/STM32F7xx_HAL_Driver/Src/stm32f7xx_hal_adc.o
 .debug_line    0x0000000000008abc      0xb54 Drivers/STM32F7xx_HAL_Driver/Src/stm32f7xx_hal_cortex.o
 .debug_line    0x0000000000009610      0xa84 Drivers/STM32F7xx_HAL_Driver/Src/stm32f7xx_hal_dac.o
 .debug_line    0x000000000000a094      0x947 Drivers/STM32F7xx_HAL_Driver/Src/stm32f7xx_hal_dac_ex.o
 .debug_line    0x000000000000a9db      0xaff Drivers/STM32F7xx_HAL_Driver/Src/stm32f7xx_hal_dma.o
 .debug_line    0x000000000000b4da      0xd8c Drivers/STM32F7xx_HAL_Driver/Src/stm32f7xx_hal_dma2d.o
 .debug_line    0x000000000000c266      0xa38 Drivers/STM32F7xx_HAL_Driver/Src/stm32f7xx_hal_gpio.o
 .debug_line    0x000000000000cc9e     0x1baf Drivers/STM32F7xx_HAL_Driver/Src/stm32f7xx_hal_i2c.o
 .debug_line    0x000000000000e84d      0x8c3 Drivers/STM32F7xx_HAL_Driver/Src/stm32f7xx_hal_i2c_ex.o
 .debug_line    0x000000000000f110     0x1102 Drivers/STM32F7xx_HAL_Driver/Src/stm32f7xx_hal_ltdc.o
 .debug_line    0x0000000000010212      0x998 Drivers/STM32F7xx_HAL_Driver/Src/stm32f7xx_hal_pwr.o
 .debug_line    0x0000000000010baa      0x974 Drivers/STM32F7xx_HAL_Driver/Src/stm32f7xx_hal_pwr_ex.o
 .debug_line    0x000000000001151e      0xac9 Drivers/STM32F7xx_HAL_Driver/Src/stm32f7xx_hal_rcc.o
 .debug_line    0x0000000000011fe7      0xa3b Drivers/STM32F7xx_HAL_Driver/Src/stm32f7xx_hal_rcc_ex.o
 .debug_line    0x0000000000012a22      0xbbb Drivers/STM32F7xx_HAL_Driver/Src/stm32f7xx_hal_rtc.o
 .debug_line    0x00000000000135dd      0xf6b Drivers/STM32F7xx_HAL_Driver/Src/stm32f7xx_hal_rtc_ex.o
 .debug_line    0x0000000000014548      0xb87 Drivers/STM32F7xx_HAL_Driver/Src/stm32f7xx_hal_sdram.o
 .debug_line    0x00000000000150cf     0x12a6 Drivers/STM32F7xx_HAL_Driver/Src/stm32f7xx_hal_spi.o
 .debug_line    0x0000000000016375     0x1b70 Drivers/STM32F7xx_HAL_Driver/Src/stm32f7xx_hal_tim.o
 .debug_line    0x0000000000017ee5      0xedb Drivers/STM32F7xx_HAL_Driver/Src/stm32f7xx_hal_tim_ex.o
 .debug_line    0x0000000000018dc0     0x13da Drivers/STM32F7xx_HAL_Driver/Src/stm32f7xx_hal_uart.o
 .debug_line    0x000000000001a19a      0xadb Drivers/STM32F7xx_HAL_Driver/Src/stm32f7xx_ll_fmc.o
 .debug_line    0x000000000001ac75      0xce9 Middlewares/Third_Party/FreeRTOS/Source/CMSIS_RTOS/cmsis_os.o
 .debug_line    0x000000000001b95e      0x670 Middlewares/Third_Party/FreeRTOS/Source/list.o
 .debug_line    0x000000000001bfce     0x105a Middlewares/Third_Party/FreeRTOS/Source/queue.o
 .debug_line    0x000000000001d028     0x128f Middlewares/Third_Party/FreeRTOS/Source/tasks.o
 .debug_line    0x000000000001e2b7      0x67d Middlewares/Third_Party/FreeRTOS/Source/portable/GCC/ARM_CM7/r0p1/port.o
 .debug_line    0x000000000001e934      0x758 Middlewares/Third_Party/FreeRTOS/Source/portable/MemMang/heap_4.o

.debug_str      0x0000000000000000   0x114fd0
 .debug_str     0x0000000000000000    0xfe52c Core/Src/freertos.o
                                      0xfec47 (size before relaxing)
 .debug_str     0x00000000000fe52c     0x1695 Core/Src/ft5336.o
                                       0x5301 (size before relaxing)
 .debug_str     0x00000000000ffbc1     0xaf01 Core/Src/main.o
                                     0x10b2ad (size before relaxing)
 .debug_str     0x000000000010aac2      0xa5b Core/Src/stm32746g_discovery.o
                                      0xfc3df (size before relaxing)
 .debug_str     0x000000000010b51d      0x852 Core/Src/stm32746g_discovery_lcd.o
                                      0xfcf05 (size before relaxing)
 .debug_str     0x000000000010bd6f      0x1a9 Core/Src/stm32746g_discovery_sdram.o
                                      0xfb0b1 (size before relaxing)
 .debug_str     0x000000000010bf18      0x160 Core/Src/stm32746g_discovery_ts.o
                                      0xfced2 (size before relaxing)
 .debug_str     0x000000000010c078      0x207 Core/Src/stm32f7xx_hal_msp.o
                                      0xfcb61 (size before relaxing)
 .debug_str     0x000000000010c27f       0x98 Core/Src/stm32f7xx_hal_timebase_tim.o
                                      0xfab01 (size before relaxing)
 .debug_str     0x000000000010c317       0xc9 Core/Src/stm32f7xx_it.o
                                      0xfb7e3 (size before relaxing)
 .debug_str     0x000000000010c3e0      0x188 Core/Src/system_stm32f7xx.o
                                      0xfa15d (size before relaxing)
 .debug_str     0x000000000010c568       0x36 Core/Startup/startup_stm32f746nghx.o
                                         0x73 (size before relaxing)
 .debug_str     0x000000000010c59e      0x341 Drivers/STM32F7xx_HAL_Driver/Src/stm32f7xx_hal.o
                                      0xfaa0f (size before relaxing)
 .debug_str     0x000000000010c8df      0x281 Drivers/STM32F7xx_HAL_Driver/Src/stm32f7xx_hal_adc.o
                                      0xfa600 (size before relaxing)
 .debug_str     0x000000000010cb60      0x375 Drivers/STM32F7xx_HAL_Driver/Src/stm32f7xx_hal_cortex.o
                                      0xfaab6 (size before relaxing)
 .debug_str     0x000000000010ced5      0x1bd Drivers/STM32F7xx_HAL_Driver/Src/stm32f7xx_hal_dac.o
                                      0xfa49b (size before relaxing)
 .debug_str     0x000000000010d092      0x164 Drivers/STM32F7xx_HAL_Driver/Src/stm32f7xx_hal_dac_ex.o
                                      0xfa3cb (size before relaxing)
 .debug_str     0x000000000010d1f6      0x323 Drivers/STM32F7xx_HAL_Driver/Src/stm32f7xx_hal_dma.o
                                      0xfa497 (size before relaxing)
 .debug_str     0x000000000010d519      0x360 Drivers/STM32F7xx_HAL_Driver/Src/stm32f7xx_hal_dma2d.o
                                      0xfa648 (size before relaxing)
 .debug_str     0x000000000010d879      0x244 Drivers/STM32F7xx_HAL_Driver/Src/stm32f7xx_hal_gpio.o
                                      0xfa333 (size before relaxing)
 .debug_str     0x000000000010dabd      0xcd4 Drivers/STM32F7xx_HAL_Driver/Src/stm32f7xx_hal_i2c.o
                                      0xfb24b (size before relaxing)
 .debug_str     0x000000000010e791       0x3b Drivers/STM32F7xx_HAL_Driver/Src/stm32f7xx_hal_i2c_ex.o
                                      0xfa487 (size before relaxing)
 .debug_str     0x000000000010e7cc      0x406 Drivers/STM32F7xx_HAL_Driver/Src/stm32f7xx_hal_ltdc.o
                                      0xfa6cb (size before relaxing)
 .debug_str     0x000000000010ebd2      0x2c5 Drivers/STM32F7xx_HAL_Driver/Src/stm32f7xx_hal_pwr.o
                                      0xfa415 (size before relaxing)
 .debug_str     0x000000000010ee97      0x1bd Drivers/STM32F7xx_HAL_Driver/Src/stm32f7xx_hal_pwr_ex.o
                                      0xfa3d7 (size before relaxing)
 .debug_str     0x000000000010f054      0x258 Drivers/STM32F7xx_HAL_Driver/Src/stm32f7xx_hal_rcc.o
                                      0xfa478 (size before relaxing)
 .debug_str     0x000000000010f2ac      0x159 Drivers/STM32F7xx_HAL_Driver/Src/stm32f7xx_hal_rcc_ex.o
                                      0xfa402 (size before relaxing)
 .debug_str     0x000000000010f405      0x1ac Drivers/STM32F7xx_HAL_Driver/Src/stm32f7xx_hal_rtc.o
                                      0xfa471 (size before relaxing)
 .debug_str     0x000000000010f5b1      0x5b2 Drivers/STM32F7xx_HAL_Driver/Src/stm32f7xx_hal_rtc_ex.o
                                      0xfa7fe (size before relaxing)
 .debug_str     0x000000000010fb63      0x254 Drivers/STM32F7xx_HAL_Driver/Src/stm32f7xx_hal_sdram.o
                                      0xfa66b (size before relaxing)
 .debug_str     0x000000000010fdb7      0x557 Drivers/STM32F7xx_HAL_Driver/Src/stm32f7xx_hal_spi.o
                                      0xfa917 (size before relaxing)
 .debug_str     0x000000000011030e      0xc4b Drivers/STM32F7xx_HAL_Driver/Src/stm32f7xx_hal_tim.o
                                      0xfb1e9 (size before relaxing)
 .debug_str     0x0000000000110f59      0x448 Drivers/STM32F7xx_HAL_Driver/Src/stm32f7xx_hal_tim_ex.o
                                      0xfaa3c (size before relaxing)
 .debug_str     0x00000000001113a1      0x7af Drivers/STM32F7xx_HAL_Driver/Src/stm32f7xx_hal_uart.o
                                      0xfacbc (size before relaxing)
 .debug_str     0x0000000000111b50      0x477 Drivers/STM32F7xx_HAL_Driver/Src/stm32f7xx_ll_fmc.o
                                      0xfa5bb (size before relaxing)
 .debug_str     0x0000000000111fc7      0x813 Middlewares/Third_Party/FreeRTOS/Source/CMSIS_RTOS/cmsis_os.o
                                       0xe2ca (size before relaxing)
 .debug_str     0x00000000001127da      0x219 Middlewares/Third_Party/FreeRTOS/Source/list.o
                                       0xa76d (size before relaxing)
 .debug_str     0x00000000001129f3      0x892 Middlewares/Third_Party/FreeRTOS/Source/queue.o
                                       0xbff6 (size before relaxing)
 .debug_str     0x0000000000113285     0x136f Middlewares/Third_Party/FreeRTOS/Source/tasks.o
                                       0xcc2b (size before relaxing)
 .debug_str     0x00000000001145f4      0x782 Middlewares/Third_Party/FreeRTOS/Source/portable/GCC/ARM_CM7/r0p1/port.o
                                       0x84b5 (size before relaxing)
 .debug_str     0x0000000000114d76      0x25a Middlewares/Third_Party/FreeRTOS/Source/portable/MemMang/heap_4.o
                                       0xaf7d (size before relaxing)

.comment        0x0000000000000000       0x7b
 .comment       0x0000000000000000       0x7b Core/Src/freertos.o
                                         0x7c (size before relaxing)
 .comment       0x000000000000007b       0x7c Core/Src/ft5336.o
 .comment       0x000000000000007b       0x7c Core/Src/main.o
 .comment       0x000000000000007b       0x7c Core/Src/stm32746g_discovery.o
 .comment       0x000000000000007b       0x7c Core/Src/stm32746g_discovery_lcd.o
 .comment       0x000000000000007b       0x7c Core/Src/stm32746g_discovery_sdram.o
 .comment       0x000000000000007b       0x7c Core/Src/stm32746g_discovery_ts.o
 .comment       0x000000000000007b       0x7c Core/Src/stm32f7xx_hal_msp.o
 .comment       0x000000000000007b       0x7c Core/Src/stm32f7xx_hal_timebase_tim.o
 .comment       0x000000000000007b       0x7c Core/Src/stm32f7xx_it.o
 .comment       0x000000000000007b       0x7c Core/Src/system_stm32f7xx.o
 .comment       0x000000000000007b       0x7c Drivers/STM32F7xx_HAL_Driver/Src/stm32f7xx_hal.o
 .comment       0x000000000000007b       0x7c Drivers/STM32F7xx_HAL_Driver/Src/stm32f7xx_hal_adc.o
 .comment       0x000000000000007b       0x7c Drivers/STM32F7xx_HAL_Driver/Src/stm32f7xx_hal_cortex.o
 .comment       0x000000000000007b       0x7c Drivers/STM32F7xx_HAL_Driver/Src/stm32f7xx_hal_dac.o
 .comment       0x000000000000007b       0x7c Drivers/STM32F7xx_HAL_Driver/Src/stm32f7xx_hal_dac_ex.o
 .comment       0x000000000000007b       0x7c Drivers/STM32F7xx_HAL_Driver/Src/stm32f7xx_hal_dma.o
 .comment       0x000000000000007b       0x7c Drivers/STM32F7xx_HAL_Driver/Src/stm32f7xx_hal_dma2d.o
 .comment       0x000000000000007b       0x7c Drivers/STM32F7xx_HAL_Driver/Src/stm32f7xx_hal_gpio.o
 .comment       0x000000000000007b       0x7c Drivers/STM32F7xx_HAL_Driver/Src/stm32f7xx_hal_i2c.o
 .comment       0x000000000000007b       0x7c Drivers/STM32F7xx_HAL_Driver/Src/stm32f7xx_hal_i2c_ex.o
 .comment       0x000000000000007b       0x7c Drivers/STM32F7xx_HAL_Driver/Src/stm32f7xx_hal_ltdc.o
 .comment       0x000000000000007b       0x7c Drivers/STM32F7xx_HAL_Driver/Src/stm32f7xx_hal_pwr.o
 .comment       0x000000000000007b       0x7c Drivers/STM32F7xx_HAL_Driver/Src/stm32f7xx_hal_pwr_ex.o
 .comment       0x000000000000007b       0x7c Drivers/STM32F7xx_HAL_Driver/Src/stm32f7xx_hal_rcc.o
 .comment       0x000000000000007b       0x7c Drivers/STM32F7xx_HAL_Driver/Src/stm32f7xx_hal_rcc_ex.o
 .comment       0x000000000000007b       0x7c Drivers/STM32F7xx_HAL_Driver/Src/stm32f7xx_hal_rtc.o
 .comment       0x000000000000007b       0x7c Drivers/STM32F7xx_HAL_Driver/Src/stm32f7xx_hal_rtc_ex.o
 .comment       0x000000000000007b       0x7c Drivers/STM32F7xx_HAL_Driver/Src/stm32f7xx_hal_sdram.o
 .comment       0x000000000000007b       0x7c Drivers/STM32F7xx_HAL_Driver/Src/stm32f7xx_hal_spi.o
 .comment       0x000000000000007b       0x7c Drivers/STM32F7xx_HAL_Driver/Src/stm32f7xx_hal_tim.o
 .comment       0x000000000000007b       0x7c Drivers/STM32F7xx_HAL_Driver/Src/stm32f7xx_hal_tim_ex.o
 .comment       0x000000000000007b       0x7c Drivers/STM32F7xx_HAL_Driver/Src/stm32f7xx_hal_uart.o
 .comment       0x000000000000007b       0x7c Drivers/STM32F7xx_HAL_Driver/Src/stm32f7xx_ll_fmc.o
 .comment       0x000000000000007b       0x7c Middlewares/Third_Party/FreeRTOS/Source/CMSIS_RTOS/cmsis_os.o
 .comment       0x000000000000007b       0x7c Middlewares/Third_Party/FreeRTOS/Source/list.o
 .comment       0x000000000000007b       0x7c Middlewares/Third_Party/FreeRTOS/Source/queue.o
 .comment       0x000000000000007b       0x7c Middlewares/Third_Party/FreeRTOS/Source/tasks.o
 .comment       0x000000000000007b       0x7c Middlewares/Third_Party/FreeRTOS/Source/portable/GCC/ARM_CM7/r0p1/port.o
 .comment       0x000000000000007b       0x7c Middlewares/Third_Party/FreeRTOS/Source/portable/MemMang/heap_4.o

.debug_frame    0x0000000000000000     0xa464
 .debug_frame   0x0000000000000000       0xa0 Core/Src/freertos.o
 .debug_frame   0x00000000000000a0      0x230 Core/Src/ft5336.o
 .debug_frame   0x00000000000002d0      0x3d0 Core/Src/main.o
 .debug_frame   0x00000000000006a0      0x4b0 Core/Src/stm32746g_discovery.o
 .debug_frame   0x0000000000000b50      0x840 Core/Src/stm32746g_discovery_lcd.o
 .debug_frame   0x0000000000001390      0x168 Core/Src/stm32746g_discovery_sdram.o
 .debug_frame   0x00000000000014f8      0x124 Core/Src/stm32746g_discovery_ts.o
 .debug_frame   0x000000000000161c      0x380 Core/Src/stm32f7xx_hal_msp.o
 .debug_frame   0x000000000000199c       0x74 Core/Src/stm32f7xx_hal_timebase_tim.o
 .debug_frame   0x0000000000001a10      0x118 Core/Src/stm32f7xx_it.o
 .debug_frame   0x0000000000001b28       0x58 Core/Src/system_stm32f7xx.o
 .debug_frame   0x0000000000001b80      0x3b4 Drivers/STM32F7xx_HAL_Driver/Src/stm32f7xx_hal.o
 .debug_frame   0x0000000000001f34      0x3fc Drivers/STM32F7xx_HAL_Driver/Src/stm32f7xx_hal_adc.o
 .debug_frame   0x0000000000002330      0x498 Drivers/STM32F7xx_HAL_Driver/Src/stm32f7xx_hal_cortex.o
 .debug_frame   0x00000000000027c8      0x338 Drivers/STM32F7xx_HAL_Driver/Src/stm32f7xx_hal_dac.o
 .debug_frame   0x0000000000002b00      0x1bc Drivers/STM32F7xx_HAL_Driver/Src/stm32f7xx_hal_dac_ex.o
 .debug_frame   0x0000000000002cbc      0x250 Drivers/STM32F7xx_HAL_Driver/Src/stm32f7xx_hal_dma.o
 .debug_frame   0x0000000000002f0c      0x490 Drivers/STM32F7xx_HAL_Driver/Src/stm32f7xx_hal_dma2d.o
 .debug_frame   0x000000000000339c      0x14c Drivers/STM32F7xx_HAL_Driver/Src/stm32f7xx_hal_gpio.o
 .debug_frame   0x00000000000034e8      0xbbc Drivers/STM32F7xx_HAL_Driver/Src/stm32f7xx_hal_i2c.o
 .debug_frame   0x00000000000040a4       0x60 Drivers/STM32F7xx_HAL_Driver/Src/stm32f7xx_hal_i2c_ex.o
 .debug_frame   0x0000000000004104      0x61c Drivers/STM32F7xx_HAL_Driver/Src/stm32f7xx_hal_ltdc.o
 .debug_frame   0x0000000000004720      0x254 Drivers/STM32F7xx_HAL_Driver/Src/stm32f7xx_hal_pwr.o
 .debug_frame   0x0000000000004974      0x1c8 Drivers/STM32F7xx_HAL_Driver/Src/stm32f7xx_hal_pwr_ex.o
 .debug_frame   0x0000000000004b3c      0x1f4 Drivers/STM32F7xx_HAL_Driver/Src/stm32f7xx_hal_rcc.o
 .debug_frame   0x0000000000004d30      0x118 Drivers/STM32F7xx_HAL_Driver/Src/stm32f7xx_hal_rcc_ex.o
 .debug_frame   0x0000000000004e48      0x308 Drivers/STM32F7xx_HAL_Driver/Src/stm32f7xx_hal_rtc.o
 .debug_frame   0x0000000000005150      0x59c Drivers/STM32F7xx_HAL_Driver/Src/stm32f7xx_hal_rtc_ex.o
 .debug_frame   0x00000000000056ec      0x37c Drivers/STM32F7xx_HAL_Driver/Src/stm32f7xx_hal_sdram.o
 .debug_frame   0x0000000000005a68      0x860 Drivers/STM32F7xx_HAL_Driver/Src/stm32f7xx_hal_spi.o
 .debug_frame   0x00000000000062c8     0x1144 Drivers/STM32F7xx_HAL_Driver/Src/stm32f7xx_hal_tim.o
 .debug_frame   0x000000000000740c      0x610 Drivers/STM32F7xx_HAL_Driver/Src/stm32f7xx_hal_tim_ex.o
 .debug_frame   0x0000000000007a1c      0x96c Drivers/STM32F7xx_HAL_Driver/Src/stm32f7xx_hal_uart.o
 .debug_frame   0x0000000000008388      0x37c Drivers/STM32F7xx_HAL_Driver/Src/stm32f7xx_ll_fmc.o
 .debug_frame   0x0000000000008704      0x7fc Middlewares/Third_Party/FreeRTOS/Source/CMSIS_RTOS/cmsis_os.o
 .debug_frame   0x0000000000008f00       0xd8 Middlewares/Third_Party/FreeRTOS/Source/list.o
 .debug_frame   0x0000000000008fd8      0x504 Middlewares/Third_Party/FreeRTOS/Source/queue.o
 .debug_frame   0x00000000000094dc      0x7e8 Middlewares/Third_Party/FreeRTOS/Source/tasks.o
 .debug_frame   0x0000000000009cc4      0x1a8 Middlewares/Third_Party/FreeRTOS/Source/portable/GCC/ARM_CM7/r0p1/port.o
 .debug_frame   0x0000000000009e6c      0x108 Middlewares/Third_Party/FreeRTOS/Source/portable/MemMang/heap_4.o
 .debug_frame   0x0000000000009f74       0x2c c:/st/stm32cubeide_1.5.1/stm32cubeide/plugins/com.st.stm32cube.ide.mcu.externaltools.gnu-tools-for-stm32.7-2018-q2-update.win32_1.5.0.202011040924/tools/bin/../lib/gcc/arm-none-eabi/7.3.1/../../../../arm-none-eabi/lib/thumb/v7e-m/fpv4-sp/hard\libc_nano.a(lib_a-init.o)
 .debug_frame   0x0000000000009fa0       0x28 c:/st/stm32cubeide_1.5.1/stm32cubeide/plugins/com.st.stm32cube.ide.mcu.externaltools.gnu-tools-for-stm32.7-2018-q2-update.win32_1.5.0.202011040924/tools/bin/../lib/gcc/arm-none-eabi/7.3.1/../../../../arm-none-eabi/lib/thumb/v7e-m/fpv4-sp/hard\libc_nano.a(lib_a-memcpy-stub.o)
 .debug_frame   0x0000000000009fc8       0x20 c:/st/stm32cubeide_1.5.1/stm32cubeide/plugins/com.st.stm32cube.ide.mcu.externaltools.gnu-tools-for-stm32.7-2018-q2-update.win32_1.5.0.202011040924/tools/bin/../lib/gcc/arm-none-eabi/7.3.1/../../../../arm-none-eabi/lib/thumb/v7e-m/fpv4-sp/hard\libc_nano.a(lib_a-memset.o)
 .debug_frame   0x0000000000009fe8       0x2c c:/st/stm32cubeide_1.5.1/stm32cubeide/plugins/com.st.stm32cube.ide.mcu.externaltools.gnu-tools-for-stm32.7-2018-q2-update.win32_1.5.0.202011040924/tools/bin/../lib/gcc/arm-none-eabi/7.3.1/../../../../arm-none-eabi/lib/thumb/v7e-m/fpv4-sp/hard\libm.a(lib_a-s_cos.o)
 .debug_frame   0x000000000000a014       0x2c c:/st/stm32cubeide_1.5.1/stm32cubeide/plugins/com.st.stm32cube.ide.mcu.externaltools.gnu-tools-for-stm32.7-2018-q2-update.win32_1.5.0.202011040924/tools/bin/../lib/gcc/arm-none-eabi/7.3.1/../../../../arm-none-eabi/lib/thumb/v7e-m/fpv4-sp/hard\libm.a(lib_a-s_sin.o)
 .debug_frame   0x000000000000a040       0x40 c:/st/stm32cubeide_1.5.1/stm32cubeide/plugins/com.st.stm32cube.ide.mcu.externaltools.gnu-tools-for-stm32.7-2018-q2-update.win32_1.5.0.202011040924/tools/bin/../lib/gcc/arm-none-eabi/7.3.1/../../../../arm-none-eabi/lib/thumb/v7e-m/fpv4-sp/hard\libm.a(lib_a-e_rem_pio2.o)
 .debug_frame   0x000000000000a080       0x4c c:/st/stm32cubeide_1.5.1/stm32cubeide/plugins/com.st.stm32cube.ide.mcu.externaltools.gnu-tools-for-stm32.7-2018-q2-update.win32_1.5.0.202011040924/tools/bin/../lib/gcc/arm-none-eabi/7.3.1/../../../../arm-none-eabi/lib/thumb/v7e-m/fpv4-sp/hard\libm.a(lib_a-k_cos.o)
 .debug_frame   0x000000000000a0cc       0x54 c:/st/stm32cubeide_1.5.1/stm32cubeide/plugins/com.st.stm32cube.ide.mcu.externaltools.gnu-tools-for-stm32.7-2018-q2-update.win32_1.5.0.202011040924/tools/bin/../lib/gcc/arm-none-eabi/7.3.1/../../../../arm-none-eabi/lib/thumb/v7e-m/fpv4-sp/hard\libm.a(lib_a-k_rem_pio2.o)
 .debug_frame   0x000000000000a120       0x40 c:/st/stm32cubeide_1.5.1/stm32cubeide/plugins/com.st.stm32cube.ide.mcu.externaltools.gnu-tools-for-stm32.7-2018-q2-update.win32_1.5.0.202011040924/tools/bin/../lib/gcc/arm-none-eabi/7.3.1/../../../../arm-none-eabi/lib/thumb/v7e-m/fpv4-sp/hard\libm.a(lib_a-k_sin.o)
 .debug_frame   0x000000000000a160       0x20 c:/st/stm32cubeide_1.5.1/stm32cubeide/plugins/com.st.stm32cube.ide.mcu.externaltools.gnu-tools-for-stm32.7-2018-q2-update.win32_1.5.0.202011040924/tools/bin/../lib/gcc/arm-none-eabi/7.3.1/../../../../arm-none-eabi/lib/thumb/v7e-m/fpv4-sp/hard\libm.a(lib_a-s_fabs.o)
 .debug_frame   0x000000000000a180       0x30 c:/st/stm32cubeide_1.5.1/stm32cubeide/plugins/com.st.stm32cube.ide.mcu.externaltools.gnu-tools-for-stm32.7-2018-q2-update.win32_1.5.0.202011040924/tools/bin/../lib/gcc/arm-none-eabi/7.3.1/../../../../arm-none-eabi/lib/thumb/v7e-m/fpv4-sp/hard\libm.a(lib_a-s_floor.o)
 .debug_frame   0x000000000000a1b0       0x2c c:/st/stm32cubeide_1.5.1/stm32cubeide/plugins/com.st.stm32cube.ide.mcu.externaltools.gnu-tools-for-stm32.7-2018-q2-update.win32_1.5.0.202011040924/tools/bin/../lib/gcc/arm-none-eabi/7.3.1/../../../../arm-none-eabi/lib/thumb/v7e-m/fpv4-sp/hard\libm.a(lib_a-s_scalbn.o)
 .debug_frame   0x000000000000a1dc       0x20 c:/st/stm32cubeide_1.5.1/stm32cubeide/plugins/com.st.stm32cube.ide.mcu.externaltools.gnu-tools-for-stm32.7-2018-q2-update.win32_1.5.0.202011040924/tools/bin/../lib/gcc/arm-none-eabi/7.3.1/../../../../arm-none-eabi/lib/thumb/v7e-m/fpv4-sp/hard\libm.a(lib_a-s_copysign.o)
 .debug_frame   0x000000000000a1fc       0xac c:/st/stm32cubeide_1.5.1/stm32cubeide/plugins/com.st.stm32cube.ide.mcu.externaltools.gnu-tools-for-stm32.7-2018-q2-update.win32_1.5.0.202011040924/tools/bin/../lib/gcc/arm-none-eabi/7.3.1/thumb/v7e-m/fpv4-sp/hard\libgcc.a(_arm_addsubdf3.o)
 .debug_frame   0x000000000000a2a8       0x50 c:/st/stm32cubeide_1.5.1/stm32cubeide/plugins/com.st.stm32cube.ide.mcu.externaltools.gnu-tools-for-stm32.7-2018-q2-update.win32_1.5.0.202011040924/tools/bin/../lib/gcc/arm-none-eabi/7.3.1/thumb/v7e-m/fpv4-sp/hard\libgcc.a(_arm_muldivdf3.o)
 .debug_frame   0x000000000000a2f8       0xc4 c:/st/stm32cubeide_1.5.1/stm32cubeide/plugins/com.st.stm32cube.ide.mcu.externaltools.gnu-tools-for-stm32.7-2018-q2-update.win32_1.5.0.202011040924/tools/bin/../lib/gcc/arm-none-eabi/7.3.1/thumb/v7e-m/fpv4-sp/hard\libgcc.a(_arm_cmpdf2.o)
 .debug_frame   0x000000000000a3bc       0x24 c:/st/stm32cubeide_1.5.1/stm32cubeide/plugins/com.st.stm32cube.ide.mcu.externaltools.gnu-tools-for-stm32.7-2018-q2-update.win32_1.5.0.202011040924/tools/bin/../lib/gcc/arm-none-eabi/7.3.1/thumb/v7e-m/fpv4-sp/hard\libgcc.a(_arm_fixdfsi.o)
 .debug_frame   0x000000000000a3e0       0x24 c:/st/stm32cubeide_1.5.1/stm32cubeide/plugins/com.st.stm32cube.ide.mcu.externaltools.gnu-tools-for-stm32.7-2018-q2-update.win32_1.5.0.202011040924/tools/bin/../lib/gcc/arm-none-eabi/7.3.1/thumb/v7e-m/fpv4-sp/hard\libgcc.a(_arm_fixunsdfsi.o)
 .debug_frame   0x000000000000a404       0x2c c:/st/stm32cubeide_1.5.1/stm32cubeide/plugins/com.st.stm32cube.ide.mcu.externaltools.gnu-tools-for-stm32.7-2018-q2-update.win32_1.5.0.202011040924/tools/bin/../lib/gcc/arm-none-eabi/7.3.1/thumb/v7e-m/fpv4-sp/hard\libgcc.a(_aeabi_uldivmod.o)
 .debug_frame   0x000000000000a430       0x34 c:/st/stm32cubeide_1.5.1/stm32cubeide/plugins/com.st.stm32cube.ide.mcu.externaltools.gnu-tools-for-stm32.7-2018-q2-update.win32_1.5.0.202011040924/tools/bin/../lib/gcc/arm-none-eabi/7.3.1/thumb/v7e-m/fpv4-sp/hard\libgcc.a(_udivmoddi4.o)
